{
	"RouterConfig.sol": {
		"RouterConfig": {
			"abi": [
				{
					"inputs": [],
					"stateMutability": "nonpayable",
					"type": "constructor"
				},
				{
					"anonymous": false,
					"inputs": [
						{
							"indexed": true,
							"internalType": "address",
							"name": "previousOwner",
							"type": "address"
						},
						{
							"indexed": true,
							"internalType": "address",
							"name": "newOwner",
							"type": "address"
						}
					],
					"name": "OwnershipTransferred",
					"type": "event"
				},
				{
					"anonymous": false,
					"inputs": [],
					"name": "UpdateConfig",
					"type": "event"
				},
				{
					"inputs": [
						{
							"internalType": "uint256",
							"name": "chainID",
							"type": "uint256"
						}
					],
					"name": "addChainID",
					"outputs": [
						{
							"internalType": "bool",
							"name": "",
							"type": "bool"
						}
					],
					"stateMutability": "nonpayable",
					"type": "function"
				},
				{
					"inputs": [
						{
							"internalType": "string",
							"name": "tokenID",
							"type": "string"
						}
					],
					"name": "addTokenID",
					"outputs": [
						{
							"internalType": "bool",
							"name": "",
							"type": "bool"
						}
					],
					"stateMutability": "nonpayable",
					"type": "function"
				},
				{
					"inputs": [],
					"name": "getAllChainIDs",
					"outputs": [
						{
							"internalType": "uint256[]",
							"name": "",
							"type": "uint256[]"
						}
					],
					"stateMutability": "view",
					"type": "function"
				},
				{
					"inputs": [
						{
							"internalType": "string",
							"name": "tokenID",
							"type": "string"
						}
					],
					"name": "getAllMultichainTokens",
					"outputs": [
						{
							"components": [
								{
									"internalType": "uint256",
									"name": "ChainID",
									"type": "uint256"
								},
								{
									"internalType": "address",
									"name": "TokenAddress",
									"type": "address"
								}
							],
							"internalType": "struct IConfigQuery.MultichainToken[]",
							"name": "",
							"type": "tuple[]"
						}
					],
					"stateMutability": "view",
					"type": "function"
				},
				{
					"inputs": [],
					"name": "getAllTokenIDs",
					"outputs": [
						{
							"internalType": "string[]",
							"name": "result",
							"type": "string[]"
						}
					],
					"stateMutability": "view",
					"type": "function"
				},
				{
					"inputs": [
						{
							"internalType": "uint256",
							"name": "chainID",
							"type": "uint256"
						}
					],
					"name": "getChainConfig",
					"outputs": [
						{
							"components": [
								{
									"internalType": "string",
									"name": "BlockChain",
									"type": "string"
								},
								{
									"internalType": "address",
									"name": "RouterContract",
									"type": "address"
								},
								{
									"internalType": "uint64",
									"name": "Confirmations",
									"type": "uint64"
								},
								{
									"internalType": "uint64",
									"name": "InitialHeight",
									"type": "uint64"
								}
							],
							"internalType": "struct IConfigQuery.ChainConfig",
							"name": "",
							"type": "tuple"
						}
					],
					"stateMutability": "view",
					"type": "function"
				},
				{
					"inputs": [
						{
							"internalType": "uint256",
							"name": "chainID",
							"type": "uint256"
						},
						{
							"internalType": "string",
							"name": "key",
							"type": "string"
						}
					],
					"name": "getCustomConfig",
					"outputs": [
						{
							"internalType": "string",
							"name": "",
							"type": "string"
						}
					],
					"stateMutability": "view",
					"type": "function"
				},
				{
					"inputs": [
						{
							"internalType": "address",
							"name": "mpcAddress",
							"type": "address"
						}
					],
					"name": "getMPCPubkey",
					"outputs": [
						{
							"internalType": "string",
							"name": "",
							"type": "string"
						}
					],
					"stateMutability": "view",
					"type": "function"
				},
				{
					"inputs": [
						{
							"internalType": "string",
							"name": "tokenID",
							"type": "string"
						},
						{
							"internalType": "uint256",
							"name": "chainID",
							"type": "uint256"
						}
					],
					"name": "getMultichainToken",
					"outputs": [
						{
							"internalType": "address",
							"name": "",
							"type": "address"
						}
					],
					"stateMutability": "view",
					"type": "function"
				},
				{
					"inputs": [
						{
							"internalType": "string",
							"name": "tokenID",
							"type": "string"
						},
						{
							"internalType": "uint256",
							"name": "toChainID",
							"type": "uint256"
						}
					],
					"name": "getSwapConfig",
					"outputs": [
						{
							"components": [
								{
									"internalType": "uint256",
									"name": "MaximumSwap",
									"type": "uint256"
								},
								{
									"internalType": "uint256",
									"name": "MinimumSwap",
									"type": "uint256"
								},
								{
									"internalType": "uint256",
									"name": "BigValueThreshold",
									"type": "uint256"
								},
								{
									"internalType": "uint256",
									"name": "SwapFeeRatePerMillion",
									"type": "uint256"
								},
								{
									"internalType": "uint256",
									"name": "MaximumSwapFee",
									"type": "uint256"
								},
								{
									"internalType": "uint256",
									"name": "MinimumSwapFee",
									"type": "uint256"
								}
							],
							"internalType": "struct IConfigQuery.SwapConfig",
							"name": "",
							"type": "tuple"
						}
					],
					"stateMutability": "view",
					"type": "function"
				},
				{
					"inputs": [
						{
							"internalType": "string",
							"name": "tokenID",
							"type": "string"
						},
						{
							"internalType": "uint256",
							"name": "chainID",
							"type": "uint256"
						}
					],
					"name": "getTokenConfig",
					"outputs": [
						{
							"components": [
								{
									"internalType": "uint8",
									"name": "Decimals",
									"type": "uint8"
								},
								{
									"internalType": "address",
									"name": "ContractAddress",
									"type": "address"
								},
								{
									"internalType": "uint256",
									"name": "ContractVersion",
									"type": "uint256"
								}
							],
							"internalType": "struct IConfigQuery.TokenConfig",
							"name": "",
							"type": "tuple"
						}
					],
					"stateMutability": "view",
					"type": "function"
				},
				{
					"inputs": [
						{
							"internalType": "uint256",
							"name": "chainID",
							"type": "uint256"
						},
						{
							"internalType": "address",
							"name": "tokenAddress",
							"type": "address"
						}
					],
					"name": "getTokenID",
					"outputs": [
						{
							"internalType": "string",
							"name": "",
							"type": "string"
						}
					],
					"stateMutability": "view",
					"type": "function"
				},
				{
					"inputs": [
						{
							"internalType": "string",
							"name": "tokenID",
							"type": "string"
						},
						{
							"internalType": "uint256",
							"name": "chainID",
							"type": "uint256"
						}
					],
					"name": "getUserTokenConfig",
					"outputs": [
						{
							"components": [
								{
									"internalType": "uint8",
									"name": "Decimals",
									"type": "uint8"
								},
								{
									"internalType": "address",
									"name": "ContractAddress",
									"type": "address"
								},
								{
									"internalType": "uint256",
									"name": "ContractVersion",
									"type": "uint256"
								}
							],
							"internalType": "struct IConfigQuery.TokenConfig",
							"name": "",
							"type": "tuple"
						}
					],
					"stateMutability": "view",
					"type": "function"
				},
				{
					"inputs": [
						{
							"internalType": "uint256",
							"name": "chainID",
							"type": "uint256"
						}
					],
					"name": "isChainIDExist",
					"outputs": [
						{
							"internalType": "bool",
							"name": "",
							"type": "bool"
						}
					],
					"stateMutability": "view",
					"type": "function"
				},
				{
					"inputs": [
						{
							"internalType": "string",
							"name": "tokenID",
							"type": "string"
						}
					],
					"name": "isTokenIDExist",
					"outputs": [
						{
							"internalType": "bool",
							"name": "",
							"type": "bool"
						}
					],
					"stateMutability": "view",
					"type": "function"
				},
				{
					"inputs": [],
					"name": "owner",
					"outputs": [
						{
							"internalType": "address",
							"name": "",
							"type": "address"
						}
					],
					"stateMutability": "view",
					"type": "function"
				},
				{
					"inputs": [
						{
							"internalType": "string",
							"name": "tokenID",
							"type": "string"
						},
						{
							"internalType": "uint256",
							"name": "chainID",
							"type": "uint256"
						}
					],
					"name": "pickUserTokenConfig",
					"outputs": [
						{
							"internalType": "bool",
							"name": "",
							"type": "bool"
						}
					],
					"stateMutability": "nonpayable",
					"type": "function"
				},
				{
					"inputs": [
						{
							"internalType": "string",
							"name": "tokenID",
							"type": "string"
						}
					],
					"name": "removeAllMultichainTokens",
					"outputs": [],
					"stateMutability": "nonpayable",
					"type": "function"
				},
				{
					"inputs": [
						{
							"internalType": "uint256",
							"name": "chainID",
							"type": "uint256"
						}
					],
					"name": "removeChainID",
					"outputs": [
						{
							"internalType": "bool",
							"name": "",
							"type": "bool"
						}
					],
					"stateMutability": "nonpayable",
					"type": "function"
				},
				{
					"inputs": [
						{
							"internalType": "string",
							"name": "tokenID",
							"type": "string"
						},
						{
							"internalType": "uint256",
							"name": "chainID",
							"type": "uint256"
						}
					],
					"name": "removeMultichainToken",
					"outputs": [
						{
							"internalType": "bool",
							"name": "",
							"type": "bool"
						}
					],
					"stateMutability": "nonpayable",
					"type": "function"
				},
				{
					"inputs": [
						{
							"internalType": "string",
							"name": "tokenID",
							"type": "string"
						}
					],
					"name": "removeTokenID",
					"outputs": [
						{
							"internalType": "bool",
							"name": "",
							"type": "bool"
						}
					],
					"stateMutability": "nonpayable",
					"type": "function"
				},
				{
					"inputs": [
						{
							"internalType": "uint256",
							"name": "chainID",
							"type": "uint256"
						},
						{
							"components": [
								{
									"internalType": "string",
									"name": "BlockChain",
									"type": "string"
								},
								{
									"internalType": "address",
									"name": "RouterContract",
									"type": "address"
								},
								{
									"internalType": "uint64",
									"name": "Confirmations",
									"type": "uint64"
								},
								{
									"internalType": "uint64",
									"name": "InitialHeight",
									"type": "uint64"
								}
							],
							"internalType": "struct IConfigQuery.ChainConfig",
							"name": "config",
							"type": "tuple"
						}
					],
					"name": "setChainConfig",
					"outputs": [
						{
							"internalType": "bool",
							"name": "",
							"type": "bool"
						}
					],
					"stateMutability": "nonpayable",
					"type": "function"
				},
				{
					"inputs": [
						{
							"internalType": "uint256",
							"name": "chainID",
							"type": "uint256"
						},
						{
							"internalType": "string",
							"name": "key",
							"type": "string"
						},
						{
							"internalType": "string",
							"name": "data",
							"type": "string"
						}
					],
					"name": "setCustomConfig",
					"outputs": [
						{
							"internalType": "bool",
							"name": "",
							"type": "bool"
						}
					],
					"stateMutability": "nonpayable",
					"type": "function"
				},
				{
					"inputs": [
						{
							"internalType": "address",
							"name": "addr",
							"type": "address"
						},
						{
							"internalType": "string",
							"name": "pubkey",
							"type": "string"
						}
					],
					"name": "setMPCPubkey",
					"outputs": [
						{
							"internalType": "bool",
							"name": "",
							"type": "bool"
						}
					],
					"stateMutability": "nonpayable",
					"type": "function"
				},
				{
					"inputs": [
						{
							"internalType": "string",
							"name": "tokenID",
							"type": "string"
						},
						{
							"internalType": "uint256",
							"name": "chainID",
							"type": "uint256"
						},
						{
							"internalType": "address",
							"name": "token",
							"type": "address"
						}
					],
					"name": "setMultichainToken",
					"outputs": [],
					"stateMutability": "nonpayable",
					"type": "function"
				},
				{
					"inputs": [
						{
							"internalType": "string",
							"name": "tokenID",
							"type": "string"
						},
						{
							"internalType": "uint256",
							"name": "toChainID",
							"type": "uint256"
						},
						{
							"components": [
								{
									"internalType": "uint256",
									"name": "MaximumSwap",
									"type": "uint256"
								},
								{
									"internalType": "uint256",
									"name": "MinimumSwap",
									"type": "uint256"
								},
								{
									"internalType": "uint256",
									"name": "BigValueThreshold",
									"type": "uint256"
								},
								{
									"internalType": "uint256",
									"name": "SwapFeeRatePerMillion",
									"type": "uint256"
								},
								{
									"internalType": "uint256",
									"name": "MaximumSwapFee",
									"type": "uint256"
								},
								{
									"internalType": "uint256",
									"name": "MinimumSwapFee",
									"type": "uint256"
								}
							],
							"internalType": "struct IConfigQuery.SwapConfig",
							"name": "config",
							"type": "tuple"
						}
					],
					"name": "setSwapConfig",
					"outputs": [
						{
							"internalType": "bool",
							"name": "",
							"type": "bool"
						}
					],
					"stateMutability": "nonpayable",
					"type": "function"
				},
				{
					"inputs": [
						{
							"internalType": "string",
							"name": "tokenID",
							"type": "string"
						},
						{
							"internalType": "uint256",
							"name": "chainID",
							"type": "uint256"
						},
						{
							"components": [
								{
									"internalType": "uint8",
									"name": "Decimals",
									"type": "uint8"
								},
								{
									"internalType": "address",
									"name": "ContractAddress",
									"type": "address"
								},
								{
									"internalType": "uint256",
									"name": "ContractVersion",
									"type": "uint256"
								}
							],
							"internalType": "struct IConfigQuery.TokenConfig",
							"name": "config",
							"type": "tuple"
						}
					],
					"name": "setTokenConfig",
					"outputs": [
						{
							"internalType": "bool",
							"name": "",
							"type": "bool"
						}
					],
					"stateMutability": "nonpayable",
					"type": "function"
				},
				{
					"inputs": [
						{
							"internalType": "string",
							"name": "tokenID",
							"type": "string"
						},
						{
							"internalType": "uint256",
							"name": "chainID",
							"type": "uint256"
						},
						{
							"components": [
								{
									"internalType": "uint8",
									"name": "Decimals",
									"type": "uint8"
								},
								{
									"internalType": "address",
									"name": "ContractAddress",
									"type": "address"
								},
								{
									"internalType": "uint256",
									"name": "ContractVersion",
									"type": "uint256"
								}
							],
							"internalType": "struct IConfigQuery.TokenConfig",
							"name": "config",
							"type": "tuple"
						}
					],
					"name": "setUserTokenConfig",
					"outputs": [
						{
							"internalType": "bool",
							"name": "",
							"type": "bool"
						}
					],
					"stateMutability": "nonpayable",
					"type": "function"
				},
				{
					"inputs": [
						{
							"internalType": "address",
							"name": "newOwner",
							"type": "address"
						}
					],
					"name": "transferOwnership",
					"outputs": [],
					"stateMutability": "nonpayable",
					"type": "function"
				},
				{
					"inputs": [],
					"name": "updateConfig",
					"outputs": [],
					"stateMutability": "nonpayable",
					"type": "function"
				}
			],
			"devdoc": {
				"kind": "dev",
				"methods": {},
				"version": 1
			},
			"evm": {
				"assembly": "    /* \"RouterConfig.sol\":3378:14793  contract RouterConfig is IConfigQuery {\r... */\n  mstore(0x40, 0x80)\n    /* \"RouterConfig.sol\":4559:4611  constructor () {\r... */\n  callvalue\n  dup1\n  iszero\n  tag_1\n  jumpi\n  0x00\n  dup1\n  revert\ntag_1:\n  pop\n    /* \"RouterConfig.sol\":4585:4590  owner */\n  0x0a\n    /* \"RouterConfig.sol\":4585:4603  owner = msg.sender */\n  dup1\n  sload\n  not(sub(shl(0xa0, 0x01), 0x01))\n  and\n    /* \"RouterConfig.sol\":4593:4603  msg.sender */\n  caller\n    /* \"RouterConfig.sol\":4585:4603  owner = msg.sender */\n  or\n  swap1\n  sstore\n    /* \"RouterConfig.sol\":3378:14793  contract RouterConfig is IConfigQuery {\r... */\n  dataSize(sub_0)\n  dup1\n  dataOffset(sub_0)\n  0x00\n  codecopy\n  0x00\n  return\nstop\n\nsub_0: assembly {\n        /* \"RouterConfig.sol\":3378:14793  contract RouterConfig is IConfigQuery {\r... */\n      mstore(0x40, 0x80)\n      callvalue\n      dup1\n      iszero\n      tag_1\n      jumpi\n      0x00\n      dup1\n      revert\n    tag_1:\n      pop\n      jumpi(tag_2, lt(calldatasize, 0x04))\n      shr(0xe0, calldataload(0x00))\n      dup1\n      0x9026b205\n      gt\n      tag_33\n      jumpi\n      dup1\n      0xc5e7601a\n      gt\n      tag_34\n      jumpi\n      dup1\n      0xe671242a\n      gt\n      tag_35\n      jumpi\n      dup1\n      0xe671242a\n      eq\n      tag_29\n      jumpi\n      dup1\n      0xe90768c6\n      eq\n      tag_30\n      jumpi\n      dup1\n      0xf2fde38b\n      eq\n      tag_31\n      jumpi\n      dup1\n      0xfd15ea70\n      eq\n      tag_32\n      jumpi\n      0x00\n      dup1\n      revert\n    tag_35:\n      dup1\n      0xc5e7601a\n      eq\n      tag_25\n      jumpi\n      dup1\n      0xca29ee96\n      eq\n      tag_26\n      jumpi\n      dup1\n      0xe27112d5\n      eq\n      tag_27\n      jumpi\n      dup1\n      0xe3e01664\n      eq\n      tag_28\n      jumpi\n      0x00\n      dup1\n      revert\n    tag_34:\n      dup1\n      0xb735ab5a\n      gt\n      tag_36\n      jumpi\n      dup1\n      0xb735ab5a\n      eq\n      tag_21\n      jumpi\n      dup1\n      0xba6e0d0f\n      eq\n      tag_22\n      jumpi\n      dup1\n      0xbc772a28\n      eq\n      tag_23\n      jumpi\n      dup1\n      0xc4fb2e4b\n      eq\n      tag_24\n      jumpi\n      0x00\n      dup1\n      revert\n    tag_36:\n      dup1\n      0x9026b205\n      eq\n      tag_18\n      jumpi\n      dup1\n      0x9af93e7a\n      eq\n      tag_19\n      jumpi\n      dup1\n      0xaf611ca0\n      eq\n      tag_20\n      jumpi\n      0x00\n      dup1\n      revert\n    tag_33:\n      dup1\n      0x5b751858\n      gt\n      tag_37\n      jumpi\n      dup1\n      0x747fd44c\n      gt\n      tag_38\n      jumpi\n      dup1\n      0x747fd44c\n      eq\n      tag_14\n      jumpi\n      dup1\n      0x83f5d5d4\n      eq\n      tag_15\n      jumpi\n      dup1\n      0x8da5cb5b\n      eq\n      tag_16\n      jumpi\n      dup1\n      0x8fcb62a3\n      eq\n      tag_17\n      jumpi\n      0x00\n      dup1\n      revert\n    tag_38:\n      dup1\n      0x5b751858\n      eq\n      tag_10\n      jumpi\n      dup1\n      0x5d58d0a1\n      eq\n      tag_11\n      jumpi\n      dup1\n      0x61387d61\n      eq\n      tag_12\n      jumpi\n      dup1\n      0x684a10b3\n      eq\n      tag_13\n      jumpi\n      0x00\n      dup1\n      revert\n    tag_37:\n      dup1\n      0x3252c1d0\n      gt\n      tag_39\n      jumpi\n      dup1\n      0x3252c1d0\n      eq\n      tag_6\n      jumpi\n      dup1\n      0x459511d1\n      eq\n      tag_7\n      jumpi\n      dup1\n      0x46bd32f5\n      eq\n      tag_8\n      jumpi\n      dup1\n      0x58bb97fb\n      eq\n      tag_9\n      jumpi\n      0x00\n      dup1\n      revert\n    tag_39:\n      dup1\n      0x19ed16dc\n      eq\n      tag_3\n      jumpi\n      dup1\n      0x20c29bca\n      eq\n      tag_4\n      jumpi\n      dup1\n      0x2879196f\n      eq\n      tag_5\n      jumpi\n    tag_2:\n      0x00\n      dup1\n      revert\n        /* \"RouterConfig.sol\":6028:6168  function getChainConfig(uint256 chainID) external override view returns (ChainConfig memory) {\r... */\n    tag_3:\n      tag_40\n      tag_41\n      calldatasize\n      0x04\n      tag_42\n      jump\t// in\n    tag_41:\n      tag_43\n      jump\t// in\n    tag_40:\n      mload(0x40)\n      tag_44\n      swap2\n      swap1\n      tag_45\n      jump\t// in\n    tag_44:\n      mload(0x40)\n      dup1\n      swap2\n      sub\n      swap1\n      return\n        /* \"RouterConfig.sol\":10657:10857  function addChainID(uint256 chainID) external onlyOwner returns (bool) {\r... */\n    tag_4:\n      tag_46\n      tag_47\n      calldatasize\n      0x04\n      tag_42\n      jump\t// in\n    tag_47:\n      tag_48\n      jump\t// in\n    tag_46:\n      mload(0x40)\n        /* \"#utility.yul\":11421:11435   */\n      swap1\n      iszero\n        /* \"#utility.yul\":11414:11436   */\n      iszero\n        /* \"#utility.yul\":11396:11437   */\n      dup2\n      mstore\n        /* \"#utility.yul\":11384:11386   */\n      0x20\n        /* \"#utility.yul\":11369:11387   */\n      add\n        /* \"RouterConfig.sol\":10657:10857  function addChainID(uint256 chainID) external onlyOwner returns (bool) {\r... */\n      tag_44\n        /* \"#utility.yul\":11351:11443   */\n      jump\n        /* \"RouterConfig.sol\":6375:6574  function getUserTokenConfig(string calldata tokenID, uint256 chainID) external override view returns (TokenConfig memory) {\r... */\n    tag_5:\n      tag_51\n      tag_52\n      calldatasize\n      0x04\n      tag_53\n      jump\t// in\n    tag_52:\n      tag_54\n      jump\t// in\n    tag_51:\n      0x40\n      dup1\n      mload\n        /* \"#utility.yul\":19064:19077   */\n      dup3\n      mload\n        /* \"#utility.yul\":19079:19083   */\n      0xff\n        /* \"#utility.yul\":19060:19084   */\n      and\n        /* \"#utility.yul\":19042:19085   */\n      dup2\n      mstore\n        /* \"#utility.yul\":19145:19149   */\n      0x20\n        /* \"#utility.yul\":19133:19150   */\n      dup1\n      dup5\n      add\n        /* \"#utility.yul\":19127:19151   */\n      mload\n      sub(shl(0xa0, 0x01), 0x01)\n        /* \"#utility.yul\":19123:19173   */\n      and\n        /* \"#utility.yul\":19101:19121   */\n      swap1\n      dup3\n      add\n        /* \"#utility.yul\":19094:19174   */\n      mstore\n        /* \"#utility.yul\":19218:19235   */\n      swap2\n      dup2\n      add\n        /* \"#utility.yul\":19212:19236   */\n      mload\n        /* \"#utility.yul\":19190:19210   */\n      swap1\n      dup3\n      add\n        /* \"#utility.yul\":19183:19237   */\n      mstore\n        /* \"#utility.yul\":19030:19032   */\n      0x60\n        /* \"#utility.yul\":19015:19033   */\n      add\n        /* \"RouterConfig.sol\":6375:6574  function getUserTokenConfig(string calldata tokenID, uint256 chainID) external override view returns (TokenConfig memory) {\r... */\n      tag_44\n        /* \"#utility.yul\":18997:19243   */\n      jump\n        /* \"RouterConfig.sol\":9444:9682  function setUserTokenConfig(string calldata tokenID, uint256 chainID, TokenConfig calldata config) external checkTokenConfig(config) returns (bool) {\r... */\n    tag_6:\n      tag_46\n      tag_58\n      calldatasize\n      0x04\n      tag_59\n      jump\t// in\n    tag_58:\n      tag_60\n      jump\t// in\n        /* \"RouterConfig.sol\":6176:6367  function getTokenConfig(string calldata tokenID, uint256 chainID) external override view returns (TokenConfig memory) {\r... */\n    tag_7:\n      tag_51\n      tag_63\n      calldatasize\n      0x04\n      tag_53\n      jump\t// in\n    tag_63:\n      tag_64\n      jump\t// in\n        /* \"RouterConfig.sol\":7901:8241  function setChainConfig(uint256 chainID, ChainConfig calldata config) external onlyOwner checkChainconfig(config) returns (bool) {\r... */\n    tag_8:\n      tag_46\n      tag_67\n      calldatasize\n      0x04\n      tag_68\n      jump\t// in\n    tag_67:\n      tag_69\n      jump\t// in\n        /* \"RouterConfig.sol\":6953:7090  function getMPCPubkey(address mpcAddress) external override view returns (string memory) {\r... */\n    tag_9:\n      tag_71\n      tag_72\n      calldatasize\n      0x04\n      tag_73\n      jump\t// in\n    tag_72:\n      tag_74\n      jump\t// in\n    tag_71:\n      mload(0x40)\n      tag_44\n      swap2\n      swap1\n      tag_76\n      jump\t// in\n        /* \"RouterConfig.sol\":10435:10649  function setMPCPubkey(address addr, string calldata pubkey) external onlyOwner returns (bool) {\r... */\n    tag_10:\n      tag_46\n      tag_78\n      calldatasize\n      0x04\n      tag_79\n      jump\t// in\n    tag_78:\n      tag_80\n      jump\t// in\n        /* \"RouterConfig.sol\":11590:12096  function removeTokenID(string calldata tokenID) external onlyOwner returns (bool) {\r... */\n    tag_11:\n      tag_46\n      tag_83\n      calldatasize\n      0x04\n      tag_84\n      jump\t// in\n    tag_83:\n      tag_85\n      jump\t// in\n        /* \"RouterConfig.sol\":6782:6945  function getCustomConfig(uint256 chainID, string calldata key) external override view returns (string memory) {\r... */\n    tag_12:\n      tag_71\n      tag_88\n      calldatasize\n      0x04\n      tag_89\n      jump\t// in\n    tag_88:\n      tag_90\n      jump\t// in\n        /* \"RouterConfig.sol\":4904:5199  function getAllTokenIDs() external override view returns (string[] memory result) {\r... */\n    tag_13:\n      tag_92\n      tag_93\n      jump\t// in\n    tag_92:\n      mload(0x40)\n      tag_44\n      swap2\n      swap1\n      tag_95\n      jump\t// in\n        /* \"RouterConfig.sol\":7812:7893  function updateConfig() external onlyOwner {\r... */\n    tag_14:\n      tag_96\n      tag_97\n      jump\t// in\n    tag_96:\n      stop\n        /* \"RouterConfig.sol\":13153:13634  function removeAllMultichainTokens(string calldata tokenID) external onlyOwner {\r... */\n    tag_15:\n      tag_96\n      tag_99\n      calldatasize\n      0x04\n      tag_84\n      jump\t// in\n    tag_99:\n      tag_100\n      jump\t// in\n        /* \"RouterConfig.sol\":4275:4295  address public owner */\n    tag_16:\n      sload(0x0a)\n      tag_101\n      swap1\n      sub(shl(0xa0, 0x01), 0x01)\n      and\n      dup2\n      jump\n    tag_101:\n      mload(0x40)\n      sub(shl(0xa0, 0x01), 0x01)\n        /* \"#utility.yul\":8936:8968   */\n      swap1\n      swap2\n      and\n        /* \"#utility.yul\":8918:8969   */\n      dup2\n      mstore\n        /* \"#utility.yul\":8906:8908   */\n      0x20\n        /* \"#utility.yul\":8891:8909   */\n      add\n        /* \"RouterConfig.sol\":4275:4295  address public owner */\n      tag_44\n        /* \"#utility.yul\":8873:8975   */\n      jump\n        /* \"RouterConfig.sol\":5207:5394  function getAllMultichainTokens(string calldata tokenID) external override view returns (MultichainToken[] memory) {\r... */\n    tag_17:\n      tag_105\n      tag_106\n      calldatasize\n      0x04\n      tag_84\n      jump\t// in\n    tag_106:\n      tag_107\n      jump\t// in\n    tag_105:\n      mload(0x40)\n      tag_44\n      swap2\n      swap1\n      tag_109\n      jump\t// in\n        /* \"RouterConfig.sol\":13642:14280  function removeMultichainToken(string calldata tokenID, uint256 chainID) external onlyOwner returns (bool) {\r... */\n    tag_18:\n      tag_46\n      tag_111\n      calldatasize\n      0x04\n      tag_53\n      jump\t// in\n    tag_111:\n      tag_112\n      jump\t// in\n        /* \"RouterConfig.sol\":6582:6774  function getSwapConfig(string calldata tokenID, uint256 toChainID) external override view returns (SwapConfig memory) {\r... */\n    tag_19:\n      tag_114\n      tag_115\n      calldatasize\n      0x04\n      tag_53\n      jump\t// in\n    tag_115:\n      tag_116\n      jump\t// in\n    tag_114:\n      mload(0x40)\n      tag_44\n      swap2\n      swap1\n        /* \"#utility.yul\":18429:18433   */\n      0x00\n        /* \"#utility.yul\":18471:18474   */\n      0xc0\n        /* \"#utility.yul\":18460:18469   */\n      dup3\n        /* \"#utility.yul\":18456:18475   */\n      add\n        /* \"#utility.yul\":18448:18475   */\n      swap1\n      pop\n        /* \"#utility.yul\":18508:18514   */\n      dup3\n        /* \"#utility.yul\":18502:18515   */\n      mload\n        /* \"#utility.yul\":18491:18500   */\n      dup3\n        /* \"#utility.yul\":18484:18516   */\n      mstore\n        /* \"#utility.yul\":18572:18576   */\n      0x20\n        /* \"#utility.yul\":18564:18570   */\n      dup4\n        /* \"#utility.yul\":18560:18577   */\n      add\n        /* \"#utility.yul\":18554:18578   */\n      mload\n        /* \"#utility.yul\":18547:18551   */\n      0x20\n        /* \"#utility.yul\":18536:18545   */\n      dup4\n        /* \"#utility.yul\":18532:18552   */\n      add\n        /* \"#utility.yul\":18525:18579   */\n      mstore\n        /* \"#utility.yul\":18635:18639   */\n      0x40\n        /* \"#utility.yul\":18627:18633   */\n      dup4\n        /* \"#utility.yul\":18623:18640   */\n      add\n        /* \"#utility.yul\":18617:18641   */\n      mload\n        /* \"#utility.yul\":18610:18614   */\n      0x40\n        /* \"#utility.yul\":18599:18608   */\n      dup4\n        /* \"#utility.yul\":18595:18615   */\n      add\n        /* \"#utility.yul\":18588:18642   */\n      mstore\n        /* \"#utility.yul\":18698:18702   */\n      0x60\n        /* \"#utility.yul\":18690:18696   */\n      dup4\n        /* \"#utility.yul\":18686:18703   */\n      add\n        /* \"#utility.yul\":18680:18704   */\n      mload\n        /* \"#utility.yul\":18673:18677   */\n      0x60\n        /* \"#utility.yul\":18662:18671   */\n      dup4\n        /* \"#utility.yul\":18658:18678   */\n      add\n        /* \"#utility.yul\":18651:18705   */\n      mstore\n        /* \"#utility.yul\":18761:18765   */\n      0x80\n        /* \"#utility.yul\":18753:18759   */\n      dup4\n        /* \"#utility.yul\":18749:18766   */\n      add\n        /* \"#utility.yul\":18743:18767   */\n      mload\n        /* \"#utility.yul\":18736:18740   */\n      0x80\n        /* \"#utility.yul\":18725:18734   */\n      dup4\n        /* \"#utility.yul\":18721:18741   */\n      add\n        /* \"#utility.yul\":18714:18768   */\n      mstore\n        /* \"#utility.yul\":18824:18828   */\n      0xa0\n        /* \"#utility.yul\":18816:18822   */\n      dup4\n        /* \"#utility.yul\":18812:18829   */\n      add\n        /* \"#utility.yul\":18806:18830   */\n      mload\n        /* \"#utility.yul\":18799:18803   */\n      0xa0\n        /* \"#utility.yul\":18788:18797   */\n      dup4\n        /* \"#utility.yul\":18784:18804   */\n      add\n        /* \"#utility.yul\":18777:18831   */\n      mstore\n        /* \"#utility.yul\":18438:18837   */\n      swap3\n      swap2\n      pop\n      pop\n      jump\n        /* \"RouterConfig.sol\":7652:7804  function isTokenIDExist(string calldata tokenID) public override view returns (bool) {\r... */\n    tag_20:\n      tag_46\n      tag_120\n      calldatasize\n      0x04\n      tag_84\n      jump\t// in\n    tag_120:\n      tag_121\n      jump\t// in\n        /* \"RouterConfig.sol\":5402:5829  function getMultichainToken(string calldata tokenID, uint256 chainID) public override view returns (address) {\r... */\n    tag_21:\n      tag_101\n      tag_124\n      calldatasize\n      0x04\n      tag_53\n      jump\t// in\n    tag_124:\n      tag_125\n      jump\t// in\n        /* \"RouterConfig.sol\":9216:9436  function setTokenConfig(string calldata tokenID, uint256 chainID, TokenConfig calldata config) external onlyOwner returns (bool) {\r... */\n    tag_22:\n      tag_46\n      tag_128\n      calldatasize\n      0x04\n      tag_59\n      jump\t// in\n    tag_128:\n      tag_129\n      jump\t// in\n        /* \"RouterConfig.sol\":9690:9956  function pickUserTokenConfig(string calldata tokenID, uint256 chainID) external onlyOwner returns (bool) {\r... */\n    tag_23:\n      tag_46\n      tag_132\n      calldatasize\n      0x04\n      tag_53\n      jump\t// in\n    tag_132:\n      tag_133\n      jump\t// in\n        /* \"RouterConfig.sol\":5837:6020  function getTokenID(uint256 chainID, address tokenAddress) external override view returns (string memory) {\r... */\n    tag_24:\n      tag_71\n      tag_136\n      calldatasize\n      0x04\n      tag_137\n      jump\t// in\n    tag_136:\n      tag_138\n      jump\t// in\n        /* \"RouterConfig.sol\":12963:13145  function setMultichainToken(string calldata tokenID, uint256 chainID, address token) public onlyOwner {\r... */\n    tag_25:\n      tag_96\n      tag_141\n      calldatasize\n      0x04\n      tag_142\n      jump\t// in\n    tag_141:\n      tag_143\n      jump\t// in\n        /* \"RouterConfig.sol\":9964:10178  function setSwapConfig(string calldata tokenID, uint256 toChainID, SwapConfig calldata config) external onlyOwner returns (bool) {\r... */\n    tag_26:\n      tag_46\n      tag_145\n      calldatasize\n      0x04\n      tag_146\n      jump\t// in\n    tag_145:\n      tag_147\n      jump\t// in\n        /* \"RouterConfig.sol\":4782:4896  function getAllChainIDs() external override view returns (uint256[] memory) {\r... */\n    tag_27:\n      tag_149\n      tag_150\n      jump\t// in\n    tag_149:\n      mload(0x40)\n      tag_44\n      swap2\n      swap1\n      tag_152\n      jump\t// in\n        /* \"RouterConfig.sol\":11314:11582  function addTokenID(string calldata tokenID) external onlyOwner returns (bool) {\r... */\n    tag_28:\n      tag_46\n      tag_154\n      calldatasize\n      0x04\n      tag_84\n      jump\t// in\n    tag_154:\n      tag_155\n      jump\t// in\n        /* \"RouterConfig.sol\":10186:10427  function setCustomConfig(uint256 chainID, string calldata key, string calldata data) external onlyOwner returns (bool) {\r... */\n    tag_29:\n      tag_46\n      tag_158\n      calldatasize\n      0x04\n      tag_159\n      jump\t// in\n    tag_158:\n      tag_160\n      jump\t// in\n        /* \"RouterConfig.sol\":10865:11306  function removeChainID(uint256 chainID) external onlyOwner returns (bool) {\r... */\n    tag_30:\n      tag_46\n      tag_163\n      calldatasize\n      0x04\n      tag_42\n      jump\t// in\n    tag_163:\n      tag_164\n      jump\t// in\n        /* \"RouterConfig.sol\":4619:4774  function transferOwnership(address newOwner) public onlyOwner {\r... */\n    tag_31:\n      tag_96\n      tag_167\n      calldatasize\n      0x04\n      tag_73\n      jump\t// in\n    tag_167:\n      tag_168\n      jump\t// in\n        /* \"RouterConfig.sol\":7098:7370  function isChainIDExist(uint256 chainID) public override view returns (bool) {\r... */\n    tag_32:\n      tag_46\n      tag_170\n      calldatasize\n      0x04\n      tag_42\n      jump\t// in\n    tag_170:\n      tag_171\n      jump\t// in\n        /* \"RouterConfig.sol\":6028:6168  function getChainConfig(uint256 chainID) external override view returns (ChainConfig memory) {\r... */\n    tag_43:\n      0x40\n      dup1\n      mload\n      0x80\n      dup2\n      add\n      dup3\n      mstore\n      0x60\n      dup1\n      dup3\n      mstore\n      0x00\n      0x20\n      dup4\n      add\n      dup2\n      swap1\n      mstore\n      swap3\n      dup3\n      add\n      dup4\n      swap1\n      mstore\n      dup2\n      add\n      swap2\n      swap1\n      swap2\n      mstore\n        /* \"RouterConfig.sol\":6139:6160  _chainConfig[chainID] */\n      0x00\n      dup3\n      dup2\n      mstore\n        /* \"RouterConfig.sol\":6139:6151  _chainConfig */\n      0x03\n        /* \"RouterConfig.sol\":6139:6160  _chainConfig[chainID] */\n      0x20\n      mstore\n      0x40\n      swap1\n      dup2\n      swap1\n      keccak256\n        /* \"RouterConfig.sol\":6132:6160  return _chainConfig[chainID] */\n      dup2\n      mload\n      0x80\n      dup2\n      add\n      swap1\n      swap3\n      mstore\n      dup1\n      sload\n      dup3\n      swap1\n        /* \"RouterConfig.sol\":6139:6160  _chainConfig[chainID] */\n      dup3\n      swap1\n        /* \"RouterConfig.sol\":6132:6160  return _chainConfig[chainID] */\n      tag_176\n      swap1\n      tag_177\n      jump\t// in\n    tag_176:\n      dup1\n      0x1f\n      add\n      0x20\n      dup1\n      swap2\n      div\n      mul\n      0x20\n      add\n      mload(0x40)\n      swap1\n      dup2\n      add\n      0x40\n      mstore\n      dup1\n      swap3\n      swap2\n      swap1\n      dup2\n      dup2\n      mstore\n      0x20\n      add\n      dup3\n      dup1\n      sload\n      tag_178\n      swap1\n      tag_177\n      jump\t// in\n    tag_178:\n      dup1\n      iszero\n      tag_179\n      jumpi\n      dup1\n      0x1f\n      lt\n      tag_180\n      jumpi\n      0x0100\n      dup1\n      dup4\n      sload\n      div\n      mul\n      dup4\n      mstore\n      swap2\n      0x20\n      add\n      swap2\n      jump(tag_179)\n    tag_180:\n      dup3\n      add\n      swap2\n      swap1\n      0x00\n      mstore\n      keccak256(0x00, 0x20)\n      swap1\n    tag_181:\n      dup2\n      sload\n      dup2\n      mstore\n      swap1\n      0x01\n      add\n      swap1\n      0x20\n      add\n      dup1\n      dup4\n      gt\n      tag_181\n      jumpi\n      dup3\n      swap1\n      sub\n      0x1f\n      and\n      dup3\n      add\n      swap2\n    tag_179:\n      pop\n      pop\n      pop\n      swap2\n      dup4\n      mstore\n      pop\n      pop\n      0x01\n      dup3\n      add\n      sload\n      sub(shl(0xa0, 0x01), 0x01)\n      dup2\n      and\n      0x20\n      dup4\n      add\n      mstore\n      sub(shl(0x40, 0x01), 0x01)\n      shl(0xa0, 0x01)\n      swap1\n      swap2\n      div\n      dup2\n      and\n      0x40\n      dup4\n      add\n      mstore\n      0x02\n      swap1\n      swap3\n      add\n      sload\n      swap1\n      swap2\n      and\n      0x60\n      swap1\n      swap2\n      add\n      mstore\n      swap3\n        /* \"RouterConfig.sol\":6028:6168  function getChainConfig(uint256 chainID) external override view returns (ChainConfig memory) {\r... */\n      swap2\n      pop\n      pop\n      jump\t// out\n        /* \"RouterConfig.sol\":10657:10857  function addChainID(uint256 chainID) external onlyOwner returns (bool) {\r... */\n    tag_48:\n        /* \"RouterConfig.sol\":4356:4361  owner */\n      sload(0x0a)\n        /* \"RouterConfig.sol\":10722:10726  bool */\n      0x00\n      swap1\n      sub(shl(0xa0, 0x01), 0x01)\n        /* \"RouterConfig.sol\":4356:4361  owner */\n      and\n        /* \"RouterConfig.sol\":4342:4352  msg.sender */\n      caller\n        /* \"RouterConfig.sol\":4342:4361  msg.sender == owner */\n      eq\n        /* \"RouterConfig.sol\":4334:4376  require(msg.sender == owner, \"only owner\") */\n      tag_183\n      jumpi\n      mload(0x40)\n      shl(0xe5, 0x461bcd)\n      dup2\n      mstore\n      0x04\n      add\n      tag_184\n      swap1\n      tag_185\n      jump\t// in\n    tag_184:\n      mload(0x40)\n      dup1\n      swap2\n      sub\n      swap1\n      revert\n    tag_183:\n        /* \"RouterConfig.sol\":10748:10771  isChainIDExist(chainID) */\n      tag_187\n        /* \"RouterConfig.sol\":10763:10770  chainID */\n      dup3\n        /* \"RouterConfig.sol\":10748:10762  isChainIDExist */\n      tag_171\n        /* \"RouterConfig.sol\":10748:10771  isChainIDExist(chainID) */\n      jump\t// in\n    tag_187:\n        /* \"RouterConfig.sol\":10747:10771  !isChainIDExist(chainID) */\n      iszero\n        /* \"RouterConfig.sol\":10739:10790  require(!isChainIDExist(chainID), \"chain ID exist\") */\n      tag_188\n      jumpi\n      mload(0x40)\n      shl(0xe5, 0x461bcd)\n      dup2\n      mstore\n        /* \"#utility.yul\":12563:12565   */\n      0x20\n        /* \"RouterConfig.sol\":10739:10790  require(!isChainIDExist(chainID), \"chain ID exist\") */\n      0x04\n      dup3\n      add\n        /* \"#utility.yul\":12545:12566   */\n      mstore\n        /* \"#utility.yul\":12602:12604   */\n      0x0e\n        /* \"#utility.yul\":12582:12600   */\n      0x24\n      dup3\n      add\n        /* \"#utility.yul\":12575:12605   */\n      mstore\n      shl(0x92, 0x18da185a5b88125108195e1a5cdd)\n        /* \"#utility.yul\":12621:12639   */\n      0x44\n      dup3\n      add\n        /* \"#utility.yul\":12614:12658   */\n      mstore\n        /* \"#utility.yul\":12675:12693   */\n      0x64\n      add\n        /* \"RouterConfig.sol\":10739:10790  require(!isChainIDExist(chainID), \"chain ID exist\") */\n      tag_184\n        /* \"#utility.yul\":12535:12699   */\n      jump\n        /* \"RouterConfig.sol\":10739:10790  require(!isChainIDExist(chainID), \"chain ID exist\") */\n    tag_188:\n      pop\n        /* \"RouterConfig.sol\":10801:10813  _allChainIDs */\n      0x00\n        /* \"RouterConfig.sol\":10801:10827  _allChainIDs.push(chainID) */\n      dup1\n      sload\n      0x01\n      dup2\n      dup2\n      add\n      dup4\n      sstore\n      swap2\n      dup1\n      mstore\n      0x290decd9548b62a8d60345a988386fc84ba6bc95484008f6362f93160ef3e563\n      add\n      dup3\n      swap1\n      sstore\n        /* \"RouterConfig.sol\":4387:4388  _ */\n    tag_186:\n        /* \"RouterConfig.sol\":10657:10857  function addChainID(uint256 chainID) external onlyOwner returns (bool) {\r... */\n      swap2\n      swap1\n      pop\n      jump\t// out\n        /* \"RouterConfig.sol\":6375:6574  function getUserTokenConfig(string calldata tokenID, uint256 chainID) external override view returns (TokenConfig memory) {\r... */\n    tag_54:\n      0x40\n      dup1\n      mload\n      0x60\n      dup2\n      add\n      dup3\n      mstore\n      0x00\n      dup1\n      dup3\n      mstore\n      0x20\n      dup3\n      add\n      dup2\n      swap1\n      mstore\n      swap2\n      dup2\n      add\n      swap2\n      swap1\n      swap2\n      mstore\n        /* \"RouterConfig.sol\":6515:6531  _userTokenConfig */\n      0x05\n        /* \"RouterConfig.sol\":6515:6557  _userTokenConfig[stringToBytes32(tokenID)] */\n      0x00\n        /* \"RouterConfig.sol\":6532:6556  stringToBytes32(tokenID) */\n      tag_195\n        /* \"RouterConfig.sol\":6548:6555  tokenID */\n      dup7\n      dup7\n        /* \"RouterConfig.sol\":6532:6556  stringToBytes32(tokenID) */\n      dup1\n      dup1\n      0x1f\n      add\n      0x20\n      dup1\n      swap2\n      div\n      mul\n      0x20\n      add\n      mload(0x40)\n      swap1\n      dup2\n      add\n      0x40\n      mstore\n      dup1\n      swap4\n      swap3\n      swap2\n      swap1\n      dup2\n      dup2\n      mstore\n      0x20\n      add\n      dup4\n      dup4\n      dup1\n      dup3\n      dup5\n      calldatacopy\n      0x00\n      swap3\n      add\n      swap2\n      swap1\n      swap2\n      mstore\n      pop\n        /* \"RouterConfig.sol\":6532:6547  stringToBytes32 */\n      tag_196\n      swap3\n      pop\n      pop\n      pop\n        /* \"RouterConfig.sol\":6532:6556  stringToBytes32(tokenID) */\n      jump\t// in\n    tag_195:\n        /* \"RouterConfig.sol\":6515:6557  _userTokenConfig[stringToBytes32(tokenID)] */\n      dup2\n      mstore\n      0x20\n      dup1\n      dup3\n      add\n      swap3\n      swap1\n      swap3\n      mstore\n      0x40\n      swap1\n      dup2\n      add\n      0x00\n      swap1\n      dup2\n      keccak256\n        /* \"RouterConfig.sol\":6515:6566  _userTokenConfig[stringToBytes32(tokenID)][chainID] */\n      dup6\n      dup3\n      mstore\n      dup4\n      mstore\n      dup2\n      swap1\n      keccak256\n        /* \"RouterConfig.sol\":6508:6566  return _userTokenConfig[stringToBytes32(tokenID)][chainID] */\n      dup2\n      mload\n      0x60\n      dup2\n      add\n      dup4\n      mstore\n      dup2\n      sload\n      0xff\n      dup2\n      and\n      dup3\n      mstore\n      0x0100\n      swap1\n      div\n      sub(shl(0xa0, 0x01), 0x01)\n      and\n      swap4\n      dup2\n      add\n      swap4\n      swap1\n      swap4\n      mstore\n      0x01\n      add\n      sload\n      swap1\n      dup3\n      add\n      mstore\n      swap1\n      pop\n        /* \"RouterConfig.sol\":6375:6574  function getUserTokenConfig(string calldata tokenID, uint256 chainID) external override view returns (TokenConfig memory) {\r... */\n    tag_194:\n      swap4\n      swap3\n      pop\n      pop\n      pop\n      jump\t// out\n        /* \"RouterConfig.sol\":9444:9682  function setUserTokenConfig(string calldata tokenID, uint256 chainID, TokenConfig calldata config) external checkTokenConfig(config) returns (bool) {\r... */\n    tag_60:\n        /* \"RouterConfig.sol\":9586:9590  bool */\n      0x00\n        /* \"RouterConfig.sol\":2480:2609  modifier checkTokenConfig(TokenConfig memory config) {\r... */\n      tag_197\n      calldatasize\n      dup4\n      swap1\n      sub\n      dup4\n      add\n        /* \"RouterConfig.sol\":9569:9575  config */\n      dup4\n        /* \"RouterConfig.sol\":2480:2609  modifier checkTokenConfig(TokenConfig memory config) {\r... */\n      tag_198\n      jump\t// in\n    tag_197:\n        /* \"RouterConfig.sol\":2552:2574  config.ContractAddress */\n      0x20\n      dup2\n      add\n      mload\n      sub(shl(0xa0, 0x01), 0x01)\n        /* \"RouterConfig.sol\":2552:2588  config.ContractAddress != address(0) */\n      and\n        /* \"RouterConfig.sol\":2544:2589  require(config.ContractAddress != address(0)) */\n      tag_200\n      jumpi\n      0x00\n      dup1\n      revert\n    tag_200:\n        /* \"RouterConfig.sol\":9610:9674  _setTokenConfig(stringToBytes32(tokenID), chainID, config, true) */\n      tag_202\n        /* \"RouterConfig.sol\":9626:9650  stringToBytes32(tokenID) */\n      tag_203\n        /* \"RouterConfig.sol\":9642:9649  tokenID */\n      dup8\n      dup8\n        /* \"RouterConfig.sol\":9626:9650  stringToBytes32(tokenID) */\n      dup1\n      dup1\n      0x1f\n      add\n      0x20\n      dup1\n      swap2\n      div\n      mul\n      0x20\n      add\n      mload(0x40)\n      swap1\n      dup2\n      add\n      0x40\n      mstore\n      dup1\n      swap4\n      swap3\n      swap2\n      swap1\n      dup2\n      dup2\n      mstore\n      0x20\n      add\n      dup4\n      dup4\n      dup1\n      dup3\n      dup5\n      calldatacopy\n      0x00\n      swap3\n      add\n      swap2\n      swap1\n      swap2\n      mstore\n      pop\n        /* \"RouterConfig.sol\":9626:9641  stringToBytes32 */\n      tag_196\n      swap3\n      pop\n      pop\n      pop\n        /* \"RouterConfig.sol\":9626:9650  stringToBytes32(tokenID) */\n      jump\t// in\n    tag_203:\n        /* \"RouterConfig.sol\":9652:9659  chainID */\n      dup6\n        /* \"RouterConfig.sol\":9610:9674  _setTokenConfig(stringToBytes32(tokenID), chainID, config, true) */\n      tag_204\n      calldatasize\n      dup8\n      swap1\n      sub\n      dup8\n      add\n        /* \"RouterConfig.sol\":9661:9667  config */\n      dup8\n        /* \"RouterConfig.sol\":9610:9674  _setTokenConfig(stringToBytes32(tokenID), chainID, config, true) */\n      tag_198\n      jump\t// in\n    tag_204:\n        /* \"RouterConfig.sol\":9669:9673  true */\n      0x01\n        /* \"RouterConfig.sol\":9610:9625  _setTokenConfig */\n      tag_205\n        /* \"RouterConfig.sol\":9610:9674  _setTokenConfig(stringToBytes32(tokenID), chainID, config, true) */\n      jump\t// in\n    tag_202:\n        /* \"RouterConfig.sol\":9603:9674  return _setTokenConfig(stringToBytes32(tokenID), chainID, config, true) */\n      swap7\n        /* \"RouterConfig.sol\":9444:9682  function setUserTokenConfig(string calldata tokenID, uint256 chainID, TokenConfig calldata config) external checkTokenConfig(config) returns (bool) {\r... */\n      swap6\n      pop\n      pop\n      pop\n      pop\n      pop\n      pop\n      jump\t// out\n        /* \"RouterConfig.sol\":6176:6367  function getTokenConfig(string calldata tokenID, uint256 chainID) external override view returns (TokenConfig memory) {\r... */\n    tag_64:\n      0x40\n      dup1\n      mload\n      0x60\n      dup2\n      add\n      dup3\n      mstore\n      0x00\n      dup1\n      dup3\n      mstore\n      0x20\n      dup3\n      add\n      dup2\n      swap1\n      mstore\n      swap2\n      dup2\n      add\n      swap2\n      swap1\n      swap2\n      mstore\n        /* \"RouterConfig.sol\":6312:6324  _tokenConfig */\n      0x04\n        /* \"RouterConfig.sol\":6312:6350  _tokenConfig[stringToBytes32(tokenID)] */\n      0x00\n        /* \"RouterConfig.sol\":6325:6349  stringToBytes32(tokenID) */\n      tag_195\n        /* \"RouterConfig.sol\":6341:6348  tokenID */\n      dup7\n      dup7\n        /* \"RouterConfig.sol\":6325:6349  stringToBytes32(tokenID) */\n      dup1\n      dup1\n      0x1f\n      add\n      0x20\n      dup1\n      swap2\n      div\n      mul\n      0x20\n      add\n      mload(0x40)\n      swap1\n      dup2\n      add\n      0x40\n      mstore\n      dup1\n      swap4\n      swap3\n      swap2\n      swap1\n      dup2\n      dup2\n      mstore\n      0x20\n      add\n      dup4\n      dup4\n      dup1\n      dup3\n      dup5\n      calldatacopy\n      0x00\n      swap3\n      add\n      swap2\n      swap1\n      swap2\n      mstore\n      pop\n        /* \"RouterConfig.sol\":6325:6340  stringToBytes32 */\n      tag_196\n      swap3\n      pop\n      pop\n      pop\n        /* \"RouterConfig.sol\":6325:6349  stringToBytes32(tokenID) */\n      jump\t// in\n        /* \"RouterConfig.sol\":7901:8241  function setChainConfig(uint256 chainID, ChainConfig calldata config) external onlyOwner checkChainconfig(config) returns (bool) {\r... */\n    tag_69:\n        /* \"RouterConfig.sol\":4356:4361  owner */\n      sload(0x0a)\n        /* \"RouterConfig.sol\":8024:8028  bool */\n      0x00\n      swap1\n      sub(shl(0xa0, 0x01), 0x01)\n        /* \"RouterConfig.sol\":4356:4361  owner */\n      and\n        /* \"RouterConfig.sol\":4342:4352  msg.sender */\n      caller\n        /* \"RouterConfig.sol\":4342:4361  msg.sender == owner */\n      eq\n        /* \"RouterConfig.sol\":4334:4376  require(msg.sender == owner, \"only owner\") */\n      tag_210\n      jumpi\n      mload(0x40)\n      shl(0xe5, 0x461bcd)\n      dup2\n      mstore\n      0x04\n      add\n      tag_184\n      swap1\n      tag_185\n      jump\t// in\n    tag_210:\n        /* \"RouterConfig.sol\":2120:2472  modifier checkChainconfig(ChainConfig memory config) {\r... */\n      tag_212\n        /* \"RouterConfig.sol\":8007:8013  config */\n      dup3\n        /* \"RouterConfig.sol\":2120:2472  modifier checkChainconfig(ChainConfig memory config) {\r... */\n      tag_213\n      jump\t// in\n    tag_212:\n        /* \"RouterConfig.sol\":2192:2213  config.RouterContract */\n      0x20\n      dup2\n      add\n      mload\n      sub(shl(0xa0, 0x01), 0x01)\n        /* \"RouterConfig.sol\":2192:2227  config.RouterContract != address(0) */\n      and\n        /* \"RouterConfig.sol\":2184:2252  require(config.RouterContract != address(0), \"zero router contract\") */\n      tag_215\n      jumpi\n      mload(0x40)\n      shl(0xe5, 0x461bcd)\n      dup2\n      mstore\n        /* \"#utility.yul\":16752:16754   */\n      0x20\n        /* \"RouterConfig.sol\":2184:2252  require(config.RouterContract != address(0), \"zero router contract\") */\n      0x04\n      dup3\n      add\n        /* \"#utility.yul\":16734:16755   */\n      mstore\n        /* \"#utility.yul\":16791:16793   */\n      0x14\n        /* \"#utility.yul\":16771:16789   */\n      0x24\n      dup3\n      add\n        /* \"#utility.yul\":16764:16794   */\n      mstore\n      shl(0x62, 0x1e995c9bc81c9bdd5d195c8818dbdb9d1c9858dd)\n        /* \"#utility.yul\":16810:16828   */\n      0x44\n      dup3\n      add\n        /* \"#utility.yul\":16803:16853   */\n      mstore\n        /* \"#utility.yul\":16870:16888   */\n      0x64\n      add\n        /* \"RouterConfig.sol\":2184:2252  require(config.RouterContract != address(0), \"zero router contract\") */\n      tag_184\n        /* \"#utility.yul\":16724:16894   */\n      jump\n        /* \"RouterConfig.sol\":2184:2252  require(config.RouterContract != address(0), \"zero router contract\") */\n    tag_215:\n        /* \"RouterConfig.sol\":2294:2295  0 */\n      0x00\n        /* \"RouterConfig.sol\":2271:2277  config */\n      dup2\n        /* \"RouterConfig.sol\":2271:2291  config.Confirmations */\n      0x40\n      add\n      mload\n      sub(shl(0x40, 0x01), 0x01)\n        /* \"RouterConfig.sol\":2271:2295  config.Confirmations > 0 */\n      and\n      gt\n        /* \"RouterConfig.sol\":2263:2328  require(config.Confirmations > 0, \"zero confirmations is unsafe\") */\n      tag_218\n      jumpi\n      mload(0x40)\n      shl(0xe5, 0x461bcd)\n      dup2\n      mstore\n        /* \"#utility.yul\":15021:15023   */\n      0x20\n        /* \"RouterConfig.sol\":2263:2328  require(config.Confirmations > 0, \"zero confirmations is unsafe\") */\n      0x04\n      dup3\n      add\n        /* \"#utility.yul\":15003:15024   */\n      mstore\n        /* \"#utility.yul\":15060:15062   */\n      0x1c\n        /* \"#utility.yul\":15040:15058   */\n      0x24\n      dup3\n      add\n        /* \"#utility.yul\":15033:15063   */\n      mstore\n        /* \"#utility.yul\":15099:15129   */\n      0x7a65726f20636f6e6669726d6174696f6e7320697320756e7361666500000000\n        /* \"#utility.yul\":15079:15097   */\n      0x44\n      dup3\n      add\n        /* \"#utility.yul\":15072:15130   */\n      mstore\n        /* \"#utility.yul\":15147:15165   */\n      0x64\n      add\n        /* \"RouterConfig.sol\":2263:2328  require(config.Confirmations > 0, \"zero confirmations is unsafe\") */\n      tag_184\n        /* \"#utility.yul\":14993:15171   */\n      jump\n        /* \"RouterConfig.sol\":2263:2328  require(config.Confirmations > 0, \"zero confirmations is unsafe\") */\n    tag_218:\n        /* \"RouterConfig.sol\":2353:2370  config.BlockChain */\n      dup1\n      mload\n        /* \"RouterConfig.sol\":2347:2378  bytes(config.BlockChain).length */\n      mload\n        /* \"RouterConfig.sol\":2347:2382  bytes(config.BlockChain).length > 0 */\n      iszero\n      dup1\n      iszero\n      swap1\n        /* \"RouterConfig.sol\":2347:2424  bytes(config.BlockChain).length > 0 && bytes(config.BlockChain).length <= 128 */\n      tag_221\n      jumpi\n      pop\n        /* \"RouterConfig.sol\":2392:2409  config.BlockChain */\n      dup1\n      mload\n        /* \"RouterConfig.sol\":2386:2417  bytes(config.BlockChain).length */\n      mload\n        /* \"RouterConfig.sol\":2421:2424  128 */\n      0x80\n      lt\n        /* \"RouterConfig.sol\":2386:2424  bytes(config.BlockChain).length <= 128 */\n      iszero\n        /* \"RouterConfig.sol\":2347:2424  bytes(config.BlockChain).length > 0 && bytes(config.BlockChain).length <= 128 */\n    tag_221:\n        /* \"RouterConfig.sol\":2339:2452  require(bytes(config.BlockChain).length > 0 && bytes(config.BlockChain).length <= 128, \"wrong BlockChain length\") */\n      tag_222\n      jumpi\n      mload(0x40)\n      shl(0xe5, 0x461bcd)\n      dup2\n      mstore\n        /* \"#utility.yul\":17452:17454   */\n      0x20\n        /* \"RouterConfig.sol\":2339:2452  require(bytes(config.BlockChain).length > 0 && bytes(config.BlockChain).length <= 128, \"wrong BlockChain length\") */\n      0x04\n      dup3\n      add\n        /* \"#utility.yul\":17434:17455   */\n      mstore\n        /* \"#utility.yul\":17491:17493   */\n      0x17\n        /* \"#utility.yul\":17471:17489   */\n      0x24\n      dup3\n      add\n        /* \"#utility.yul\":17464:17494   */\n      mstore\n        /* \"#utility.yul\":17530:17555   */\n      0x77726f6e6720426c6f636b436861696e206c656e677468000000000000000000\n        /* \"#utility.yul\":17510:17528   */\n      0x44\n      dup3\n      add\n        /* \"#utility.yul\":17503:17556   */\n      mstore\n        /* \"#utility.yul\":17573:17591   */\n      0x64\n      add\n        /* \"RouterConfig.sol\":2339:2452  require(bytes(config.BlockChain).length > 0 && bytes(config.BlockChain).length <= 128, \"wrong BlockChain length\") */\n      tag_184\n        /* \"#utility.yul\":17424:17597   */\n      jump\n        /* \"RouterConfig.sol\":2339:2452  require(bytes(config.BlockChain).length > 0 && bytes(config.BlockChain).length <= 128, \"wrong BlockChain length\") */\n    tag_222:\n        /* \"RouterConfig.sol\":8059:8060  0 */\n      0x00\n        /* \"RouterConfig.sol\":8049:8056  chainID */\n      dup5\n        /* \"RouterConfig.sol\":8049:8060  chainID > 0 */\n      gt\n        /* \"RouterConfig.sol\":8041:8077  require(chainID > 0, \"zero chainID\") */\n      tag_226\n      jumpi\n      mload(0x40)\n      shl(0xe5, 0x461bcd)\n      dup2\n      mstore\n      0x04\n      add\n      tag_184\n      swap1\n      tag_228\n      jump\t// in\n    tag_226:\n        /* \"RouterConfig.sol\":8088:8109  _chainConfig[chainID] */\n      0x00\n      dup5\n      dup2\n      mstore\n        /* \"RouterConfig.sol\":8088:8100  _chainConfig */\n      0x03\n        /* \"RouterConfig.sol\":8088:8109  _chainConfig[chainID] */\n      0x20\n      mstore\n      0x40\n      swap1\n      keccak256\n        /* \"RouterConfig.sol\":8112:8118  config */\n      dup4\n      swap1\n        /* \"RouterConfig.sol\":8088:8118  _chainConfig[chainID] = config */\n      tag_229\n        /* \"RouterConfig.sol\":8112:8118  config */\n      dup3\n        /* \"RouterConfig.sol\":8088:8109  _chainConfig[chainID] */\n      dup3\n        /* \"RouterConfig.sol\":8088:8118  _chainConfig[chainID] = config */\n      tag_230\n      jump\t// in\n    tag_229:\n      swap1\n      pop\n      pop\n        /* \"RouterConfig.sol\":8134:8157  isChainIDExist(chainID) */\n      tag_231\n        /* \"RouterConfig.sol\":8149:8156  chainID */\n      dup5\n        /* \"RouterConfig.sol\":8134:8148  isChainIDExist */\n      tag_171\n        /* \"RouterConfig.sol\":8134:8157  isChainIDExist(chainID) */\n      jump\t// in\n    tag_231:\n        /* \"RouterConfig.sol\":8129:8212  if (!isChainIDExist(chainID)) {\r... */\n      tag_232\n      jumpi\n        /* \"RouterConfig.sol\":8174:8186  _allChainIDs */\n      0x00\n        /* \"RouterConfig.sol\":8174:8200  _allChainIDs.push(chainID) */\n      dup1\n      sload\n      0x01\n      dup2\n      add\n      dup3\n      sstore\n      swap1\n      dup1\n      mstore\n      0x290decd9548b62a8d60345a988386fc84ba6bc95484008f6362f93160ef3e563\n      add\n      dup5\n      swap1\n      sstore\n        /* \"RouterConfig.sol\":8129:8212  if (!isChainIDExist(chainID)) {\r... */\n    tag_232:\n      pop\n        /* \"RouterConfig.sol\":8229:8233  true */\n      0x01\n      swap4\n        /* \"RouterConfig.sol\":7901:8241  function setChainConfig(uint256 chainID, ChainConfig calldata config) external onlyOwner checkChainconfig(config) returns (bool) {\r... */\n      swap3\n      pop\n      pop\n      pop\n      jump\t// out\n        /* \"RouterConfig.sol\":6953:7090  function getMPCPubkey(address mpcAddress) external override view returns (string memory) {\r... */\n    tag_74:\n      sub(shl(0xa0, 0x01), 0x01)\n        /* \"RouterConfig.sol\":7060:7082  _mpcPubkey[mpcAddress] */\n      dup2\n      and\n      0x00\n      swap1\n      dup2\n      mstore\n        /* \"RouterConfig.sol\":7060:7070  _mpcPubkey */\n      0x09\n        /* \"RouterConfig.sol\":7060:7082  _mpcPubkey[mpcAddress] */\n      0x20\n      mstore\n      0x40\n      swap1\n      keccak256\n        /* \"RouterConfig.sol\":7053:7082  return _mpcPubkey[mpcAddress] */\n      dup1\n      sload\n        /* \"RouterConfig.sol\":7027:7040  string memory */\n      0x60\n      swap2\n        /* \"RouterConfig.sol\":7060:7082  _mpcPubkey[mpcAddress] */\n      swap1\n        /* \"RouterConfig.sol\":7053:7082  return _mpcPubkey[mpcAddress] */\n      tag_235\n      swap1\n      tag_177\n      jump\t// in\n    tag_235:\n      dup1\n      0x1f\n      add\n      0x20\n      dup1\n      swap2\n      div\n      mul\n      0x20\n      add\n      mload(0x40)\n      swap1\n      dup2\n      add\n      0x40\n      mstore\n      dup1\n      swap3\n      swap2\n      swap1\n      dup2\n      dup2\n      mstore\n      0x20\n      add\n      dup3\n      dup1\n      sload\n      tag_236\n      swap1\n      tag_177\n      jump\t// in\n    tag_236:\n      dup1\n      iszero\n      tag_237\n      jumpi\n      dup1\n      0x1f\n      lt\n      tag_238\n      jumpi\n      0x0100\n      dup1\n      dup4\n      sload\n      div\n      mul\n      dup4\n      mstore\n      swap2\n      0x20\n      add\n      swap2\n      jump(tag_237)\n    tag_238:\n      dup3\n      add\n      swap2\n      swap1\n      0x00\n      mstore\n      keccak256(0x00, 0x20)\n      swap1\n    tag_239:\n      dup2\n      sload\n      dup2\n      mstore\n      swap1\n      0x01\n      add\n      swap1\n      0x20\n      add\n      dup1\n      dup4\n      gt\n      tag_239\n      jumpi\n      dup3\n      swap1\n      sub\n      0x1f\n      and\n      dup3\n      add\n      swap2\n    tag_237:\n      pop\n      pop\n      pop\n      pop\n      pop\n      swap1\n      pop\n        /* \"RouterConfig.sol\":6953:7090  function getMPCPubkey(address mpcAddress) external override view returns (string memory) {\r... */\n      swap2\n      swap1\n      pop\n      jump\t// out\n        /* \"RouterConfig.sol\":10435:10649  function setMPCPubkey(address addr, string calldata pubkey) external onlyOwner returns (bool) {\r... */\n    tag_80:\n        /* \"RouterConfig.sol\":4356:4361  owner */\n      sload(0x0a)\n        /* \"RouterConfig.sol\":10523:10527  bool */\n      0x00\n      swap1\n      sub(shl(0xa0, 0x01), 0x01)\n        /* \"RouterConfig.sol\":4356:4361  owner */\n      and\n        /* \"RouterConfig.sol\":4342:4352  msg.sender */\n      caller\n        /* \"RouterConfig.sol\":4342:4361  msg.sender == owner */\n      eq\n        /* \"RouterConfig.sol\":4334:4376  require(msg.sender == owner, \"only owner\") */\n      tag_241\n      jumpi\n      mload(0x40)\n      shl(0xe5, 0x461bcd)\n      dup2\n      mstore\n      0x04\n      add\n      tag_184\n      swap1\n      tag_185\n      jump\t// in\n    tag_241:\n      sub(shl(0xa0, 0x01), 0x01)\n        /* \"RouterConfig.sol\":10548:10566  addr != address(0) */\n      dup5\n      and\n        /* \"RouterConfig.sol\":10540:10583  require(addr != address(0), \"zero address\") */\n      tag_244\n      jumpi\n      mload(0x40)\n      shl(0xe5, 0x461bcd)\n      dup2\n      mstore\n        /* \"#utility.yul\":15378:15380   */\n      0x20\n        /* \"RouterConfig.sol\":10540:10583  require(addr != address(0), \"zero address\") */\n      0x04\n      dup3\n      add\n        /* \"#utility.yul\":15360:15381   */\n      mstore\n        /* \"#utility.yul\":15417:15419   */\n      0x0c\n        /* \"#utility.yul\":15397:15415   */\n      0x24\n      dup3\n      add\n        /* \"#utility.yul\":15390:15420   */\n      mstore\n      shl(0xa0, 0x7a65726f2061646472657373)\n        /* \"#utility.yul\":15436:15454   */\n      0x44\n      dup3\n      add\n        /* \"#utility.yul\":15429:15471   */\n      mstore\n        /* \"#utility.yul\":15488:15506   */\n      0x64\n      add\n        /* \"RouterConfig.sol\":10540:10583  require(addr != address(0), \"zero address\") */\n      tag_184\n        /* \"#utility.yul\":15350:15512   */\n      jump\n        /* \"RouterConfig.sol\":10540:10583  require(addr != address(0), \"zero address\") */\n    tag_244:\n      sub(shl(0xa0, 0x01), 0x01)\n        /* \"RouterConfig.sol\":10594:10610  _mpcPubkey[addr] */\n      dup5\n      and\n      0x00\n      swap1\n      dup2\n      mstore\n        /* \"RouterConfig.sol\":10594:10604  _mpcPubkey */\n      0x09\n        /* \"RouterConfig.sol\":10594:10610  _mpcPubkey[addr] */\n      0x20\n      mstore\n      0x40\n      swap1\n      keccak256\n        /* \"RouterConfig.sol\":10594:10619  _mpcPubkey[addr] = pubkey */\n      tag_247\n      swap1\n        /* \"RouterConfig.sol\":10613:10619  pubkey */\n      dup5\n      dup5\n        /* \"RouterConfig.sol\":10594:10619  _mpcPubkey[addr] = pubkey */\n      tag_248\n      jump\t// in\n    tag_247:\n      pop\n        /* \"RouterConfig.sol\":10637:10641  true */\n      0x01\n      swap5\n        /* \"RouterConfig.sol\":10435:10649  function setMPCPubkey(address addr, string calldata pubkey) external onlyOwner returns (bool) {\r... */\n      swap4\n      pop\n      pop\n      pop\n      pop\n      jump\t// out\n        /* \"RouterConfig.sol\":11590:12096  function removeTokenID(string calldata tokenID) external onlyOwner returns (bool) {\r... */\n    tag_85:\n        /* \"RouterConfig.sol\":4356:4361  owner */\n      sload(0x0a)\n        /* \"RouterConfig.sol\":11666:11670  bool */\n      0x00\n      swap1\n      sub(shl(0xa0, 0x01), 0x01)\n        /* \"RouterConfig.sol\":4356:4361  owner */\n      and\n        /* \"RouterConfig.sol\":4342:4352  msg.sender */\n      caller\n        /* \"RouterConfig.sol\":4342:4361  msg.sender == owner */\n      eq\n        /* \"RouterConfig.sol\":4334:4376  require(msg.sender == owner, \"only owner\") */\n      tag_250\n      jumpi\n      mload(0x40)\n      shl(0xe5, 0x461bcd)\n      dup2\n      mstore\n      0x04\n      add\n      tag_184\n      swap1\n      tag_185\n      jump\t// in\n    tag_250:\n        /* \"RouterConfig.sol\":11683:11700  bytes32 bsTokenID */\n      0x00\n        /* \"RouterConfig.sol\":11703:11727  stringToBytes32(tokenID) */\n      tag_253\n        /* \"RouterConfig.sol\":11719:11726  tokenID */\n      dup5\n      dup5\n        /* \"RouterConfig.sol\":11703:11727  stringToBytes32(tokenID) */\n      dup1\n      dup1\n      0x1f\n      add\n      0x20\n      dup1\n      swap2\n      div\n      mul\n      0x20\n      add\n      mload(0x40)\n      swap1\n      dup2\n      add\n      0x40\n      mstore\n      dup1\n      swap4\n      swap3\n      swap2\n      swap1\n      dup2\n      dup2\n      mstore\n      0x20\n      add\n      dup4\n      dup4\n      dup1\n      dup3\n      dup5\n      calldatacopy\n      0x00\n      swap3\n      add\n      swap2\n      swap1\n      swap2\n      mstore\n      pop\n        /* \"RouterConfig.sol\":11703:11718  stringToBytes32 */\n      tag_196\n      swap3\n      pop\n      pop\n      pop\n        /* \"RouterConfig.sol\":11703:11727  stringToBytes32(tokenID) */\n      jump\t// in\n    tag_253:\n        /* \"RouterConfig.sol\":11683:11727  bytes32 bsTokenID = stringToBytes32(tokenID) */\n      swap1\n      pop\n        /* \"RouterConfig.sol\":11743:11752  uint256 i */\n      0x00\n        /* \"RouterConfig.sol\":11738:12066  for (uint256 i = 0; i < _allTokenIDs.length; ++i) {\r... */\n    tag_254:\n        /* \"RouterConfig.sol\":11762:11774  _allTokenIDs */\n      0x01\n        /* \"RouterConfig.sol\":11762:11781  _allTokenIDs.length */\n      sload\n        /* \"RouterConfig.sol\":11758:11781  i < _allTokenIDs.length */\n      dup2\n      lt\n        /* \"RouterConfig.sol\":11738:12066  for (uint256 i = 0; i < _allTokenIDs.length; ++i) {\r... */\n      iszero\n      tag_255\n      jumpi\n        /* \"RouterConfig.sol\":11826:11835  bsTokenID */\n      dup2\n        /* \"RouterConfig.sol\":11807:11819  _allTokenIDs */\n      0x01\n        /* \"RouterConfig.sol\":11820:11821  i */\n      dup3\n        /* \"RouterConfig.sol\":11807:11822  _allTokenIDs[i] */\n      dup2\n      sload\n      dup2\n      lt\n      tag_258\n      jumpi\n      tag_258\n      tag_259\n      jump\t// in\n    tag_258:\n      swap1\n      0x00\n      mstore\n      keccak256(0x00, 0x20)\n      add\n      sload\n        /* \"RouterConfig.sol\":11807:11835  _allTokenIDs[i] == bsTokenID */\n      eq\n        /* \"RouterConfig.sol\":11803:12055  if (_allTokenIDs[i] == bsTokenID) {\r... */\n      iszero\n      tag_261\n      jumpi\n        /* \"RouterConfig.sol\":11856:11973  for (; i+1 < _allTokenIDs.length; ++i) {\r... */\n    tag_262:\n        /* \"RouterConfig.sol\":11869:11881  _allTokenIDs */\n      0x01\n        /* \"RouterConfig.sol\":11869:11888  _allTokenIDs.length */\n      dup1\n      sload\n      swap1\n        /* \"RouterConfig.sol\":11863:11866  i+1 */\n      tag_265\n      swap1\n        /* \"RouterConfig.sol\":11863:11864  i */\n      dup4\n      swap1\n        /* \"RouterConfig.sol\":11863:11866  i+1 */\n      tag_266\n      jump\t// in\n    tag_265:\n        /* \"RouterConfig.sol\":11863:11888  i+1 < _allTokenIDs.length */\n      lt\n        /* \"RouterConfig.sol\":11856:11973  for (; i+1 < _allTokenIDs.length; ++i) {\r... */\n      iszero\n      tag_263\n      jumpi\n        /* \"RouterConfig.sol\":11936:11948  _allTokenIDs */\n      0x01\n        /* \"RouterConfig.sol\":11949:11952  i+1 */\n      tag_267\n        /* \"RouterConfig.sol\":11949:11950  i */\n      dup3\n        /* \"RouterConfig.sol\":11936:11948  _allTokenIDs */\n      dup3\n        /* \"RouterConfig.sol\":11949:11952  i+1 */\n      tag_266\n      jump\t// in\n    tag_267:\n        /* \"RouterConfig.sol\":11936:11953  _allTokenIDs[i+1] */\n      dup2\n      sload\n      dup2\n      lt\n      tag_269\n      jumpi\n      tag_269\n      tag_259\n      jump\t// in\n    tag_269:\n      swap1\n      0x00\n      mstore\n      keccak256(0x00, 0x20)\n      add\n      sload\n        /* \"RouterConfig.sol\":11918:11930  _allTokenIDs */\n      0x01\n        /* \"RouterConfig.sol\":11931:11932  i */\n      dup3\n        /* \"RouterConfig.sol\":11918:11933  _allTokenIDs[i] */\n      dup2\n      sload\n      dup2\n      lt\n      tag_272\n      jumpi\n      tag_272\n      tag_259\n      jump\t// in\n    tag_272:\n      0x00\n      swap2\n      dup3\n      mstore\n      0x20\n      swap1\n      swap2\n      keccak256\n      add\n        /* \"RouterConfig.sol\":11918:11953  _allTokenIDs[i] = _allTokenIDs[i+1] */\n      sstore\n        /* \"RouterConfig.sol\":11890:11893  ++i */\n      tag_274\n      dup2\n      tag_275\n      jump\t// in\n    tag_274:\n      swap1\n      pop\n        /* \"RouterConfig.sol\":11856:11973  for (; i+1 < _allTokenIDs.length; ++i) {\r... */\n      jump(tag_262)\n    tag_263:\n        /* \"RouterConfig.sol\":11991:12003  _allTokenIDs */\n      0x01\n        /* \"RouterConfig.sol\":11991:12009  _allTokenIDs.pop() */\n      dup1\n      sload\n      dup1\n      tag_277\n      jumpi\n      tag_277\n      tag_278\n      jump\t// in\n    tag_277:\n      0x01\n      swap1\n      sub\n      dup2\n      dup2\n      swap1\n      0x00\n      mstore\n      keccak256(0x00, 0x20)\n      add\n      0x00\n      swap1\n      sstore\n      swap1\n      sstore\n        /* \"RouterConfig.sol\":12035:12039  true */\n      0x01\n        /* \"RouterConfig.sol\":12028:12039  return true */\n      swap3\n      pop\n      pop\n      pop\n      jump(tag_252)\n        /* \"RouterConfig.sol\":11803:12055  if (_allTokenIDs[i] == bsTokenID) {\r... */\n    tag_261:\n        /* \"RouterConfig.sol\":11783:11786  ++i */\n      tag_280\n      dup2\n      tag_275\n      jump\t// in\n    tag_280:\n      swap1\n      pop\n        /* \"RouterConfig.sol\":11738:12066  for (uint256 i = 0; i < _allTokenIDs.length; ++i) {\r... */\n      jump(tag_254)\n    tag_255:\n      pop\n        /* \"RouterConfig.sol\":12083:12088  false */\n      0x00\n        /* \"RouterConfig.sol\":12076:12088  return false */\n      swap2\n      pop\n      pop\n        /* \"RouterConfig.sol\":4387:4388  _ */\n    tag_252:\n        /* \"RouterConfig.sol\":11590:12096  function removeTokenID(string calldata tokenID) external onlyOwner returns (bool) {\r... */\n      swap3\n      swap2\n      pop\n      pop\n      jump\t// out\n        /* \"RouterConfig.sol\":6782:6945  function getCustomConfig(uint256 chainID, string calldata key) external override view returns (string memory) {\r... */\n    tag_90:\n        /* \"RouterConfig.sol\":6877:6890  string memory */\n      0x60\n        /* \"RouterConfig.sol\":6910:6923  _customConfig */\n      0x07\n        /* \"RouterConfig.sol\":6910:6932  _customConfig[chainID] */\n      0x00\n        /* \"RouterConfig.sol\":6924:6931  chainID */\n      dup6\n        /* \"RouterConfig.sol\":6910:6932  _customConfig[chainID] */\n      dup2\n      mstore\n      0x20\n      add\n      swap1\n      dup2\n      mstore\n      0x20\n      add\n      0x00\n      keccak256\n        /* \"RouterConfig.sol\":6933:6936  key */\n      dup4\n      dup4\n        /* \"RouterConfig.sol\":6910:6937  _customConfig[chainID][key] */\n      mload(0x40)\n      tag_282\n      swap3\n      swap2\n      swap1\n      tag_283\n      jump\t// in\n    tag_282:\n      swap1\n      dup2\n      mstore\n      0x20\n      add\n      mload(0x40)\n      dup1\n      swap2\n      sub\n      swap1\n      keccak256\n        /* \"RouterConfig.sol\":6903:6937  return _customConfig[chainID][key] */\n      dup1\n      sload\n      tag_284\n      swap1\n      tag_177\n      jump\t// in\n    tag_284:\n      dup1\n      0x1f\n      add\n      0x20\n      dup1\n      swap2\n      div\n      mul\n      0x20\n      add\n      mload(0x40)\n      swap1\n      dup2\n      add\n      0x40\n      mstore\n      dup1\n      swap3\n      swap2\n      swap1\n      dup2\n      dup2\n      mstore\n      0x20\n      add\n      dup3\n      dup1\n      sload\n      tag_285\n      swap1\n      tag_177\n      jump\t// in\n    tag_285:\n      dup1\n      iszero\n      tag_286\n      jumpi\n      dup1\n      0x1f\n      lt\n      tag_287\n      jumpi\n      0x0100\n      dup1\n      dup4\n      sload\n      div\n      mul\n      dup4\n      mstore\n      swap2\n      0x20\n      add\n      swap2\n      jump(tag_286)\n    tag_287:\n      dup3\n      add\n      swap2\n      swap1\n      0x00\n      mstore\n      keccak256(0x00, 0x20)\n      swap1\n    tag_288:\n      dup2\n      sload\n      dup2\n      mstore\n      swap1\n      0x01\n      add\n      swap1\n      0x20\n      add\n      dup1\n      dup4\n      gt\n      tag_288\n      jumpi\n      dup3\n      swap1\n      sub\n      0x1f\n      and\n      dup3\n      add\n      swap2\n    tag_286:\n      pop\n      pop\n      pop\n      pop\n      pop\n      swap1\n      pop\n        /* \"RouterConfig.sol\":6782:6945  function getCustomConfig(uint256 chainID, string calldata key) external override view returns (string memory) {\r... */\n      swap4\n      swap3\n      pop\n      pop\n      pop\n      jump\t// out\n        /* \"RouterConfig.sol\":4904:5199  function getAllTokenIDs() external override view returns (string[] memory result) {\r... */\n    tag_93:\n        /* \"RouterConfig.sol\":5014:5026  _allTokenIDs */\n      0x01\n        /* \"RouterConfig.sol\":5014:5033  _allTokenIDs.length */\n      sload\n        /* \"RouterConfig.sol\":4962:4984  string[] memory result */\n      0x60\n      swap1\n        /* \"RouterConfig.sol\":5014:5033  _allTokenIDs.length */\n      dup1\n      sub(shl(0x40, 0x01), 0x01)\n        /* \"RouterConfig.sol\":5053:5073  new string[](length) */\n      dup2\n      gt\n      iszero\n      tag_291\n      jumpi\n      tag_291\n      tag_292\n      jump\t// in\n    tag_291:\n      mload(0x40)\n      swap1\n      dup1\n      dup3\n      mstore\n      dup1\n      0x20\n      mul\n      0x20\n      add\n      dup3\n      add\n      0x40\n      mstore\n      dup1\n      iszero\n      tag_293\n      jumpi\n      dup2\n      0x20\n      add\n    tag_294:\n      0x60\n      dup2\n      mstore\n      0x20\n      add\n      swap1\n      0x01\n      swap1\n      sub\n      swap1\n      dup2\n      tag_294\n      jumpi\n      swap1\n      pop\n    tag_293:\n      pop\n        /* \"RouterConfig.sol\":5044:5073  result = new string[](length) */\n      swap2\n      pop\n        /* \"RouterConfig.sol\":5089:5098  uint256 i */\n      0x00\n        /* \"RouterConfig.sol\":5084:5192  for (uint256 i = 0; i < length; ++i) {\r... */\n    tag_295:\n        /* \"RouterConfig.sol\":5108:5114  length */\n      dup2\n        /* \"RouterConfig.sol\":5104:5105  i */\n      dup2\n        /* \"RouterConfig.sol\":5104:5114  i < length */\n      lt\n        /* \"RouterConfig.sol\":5084:5192  for (uint256 i = 0; i < length; ++i) {\r... */\n      iszero\n      tag_296\n      jumpi\n        /* \"RouterConfig.sol\":5148:5180  bytes32ToString(_allTokenIDs[i]) */\n      tag_298\n        /* \"RouterConfig.sol\":5164:5176  _allTokenIDs */\n      0x01\n        /* \"RouterConfig.sol\":5177:5178  i */\n      dup3\n        /* \"RouterConfig.sol\":5164:5179  _allTokenIDs[i] */\n      dup2\n      sload\n      dup2\n      lt\n      tag_300\n      jumpi\n      tag_300\n      tag_259\n      jump\t// in\n    tag_300:\n      swap1\n      0x00\n      mstore\n      keccak256(0x00, 0x20)\n      add\n      sload\n        /* \"RouterConfig.sol\":5148:5163  bytes32ToString */\n      tag_302\n        /* \"RouterConfig.sol\":5148:5180  bytes32ToString(_allTokenIDs[i]) */\n      jump\t// in\n    tag_298:\n        /* \"RouterConfig.sol\":5136:5142  result */\n      dup4\n        /* \"RouterConfig.sol\":5143:5144  i */\n      dup3\n        /* \"RouterConfig.sol\":5136:5145  result[i] */\n      dup2\n      mload\n      dup2\n      lt\n      tag_304\n      jumpi\n      tag_304\n      tag_259\n      jump\t// in\n    tag_304:\n      0x20\n      mul\n      0x20\n      add\n      add\n        /* \"RouterConfig.sol\":5136:5180  result[i] = bytes32ToString(_allTokenIDs[i]) */\n      dup2\n      swap1\n      mstore\n      pop\n        /* \"RouterConfig.sol\":5116:5119  ++i */\n      dup1\n      tag_305\n      swap1\n      tag_275\n      jump\t// in\n    tag_305:\n      swap1\n      pop\n        /* \"RouterConfig.sol\":5084:5192  for (uint256 i = 0; i < length; ++i) {\r... */\n      jump(tag_295)\n    tag_296:\n      pop\n        /* \"RouterConfig.sol\":4986:5199  {\r... */\n      pop\n        /* \"RouterConfig.sol\":4904:5199  function getAllTokenIDs() external override view returns (string[] memory result) {\r... */\n      swap1\n      jump\t// out\n        /* \"RouterConfig.sol\":7812:7893  function updateConfig() external onlyOwner {\r... */\n    tag_97:\n        /* \"RouterConfig.sol\":4356:4361  owner */\n      and(sub(shl(0xa0, 0x01), 0x01), sload(0x0a))\n        /* \"RouterConfig.sol\":4342:4352  msg.sender */\n      caller\n        /* \"RouterConfig.sol\":4342:4361  msg.sender == owner */\n      eq\n        /* \"RouterConfig.sol\":4334:4376  require(msg.sender == owner, \"only owner\") */\n      tag_307\n      jumpi\n      mload(0x40)\n      shl(0xe5, 0x461bcd)\n      dup2\n      mstore\n      0x04\n      add\n      tag_184\n      swap1\n      tag_185\n      jump\t// in\n    tag_307:\n        /* \"RouterConfig.sol\":7871:7885  UpdateConfig() */\n      mload(0x40)\n      0x22590461e7ba17e1fe7580cb0ea47f283d3b2248f04873dfbe926d08fe4c5ab9\n      swap1\n      0x00\n      swap1\n      log1\n        /* \"RouterConfig.sol\":7812:7893  function updateConfig() external onlyOwner {\r... */\n      jump\t// out\n        /* \"RouterConfig.sol\":13153:13634  function removeAllMultichainTokens(string calldata tokenID) external onlyOwner {\r... */\n    tag_100:\n        /* \"RouterConfig.sol\":4356:4361  owner */\n      and(sub(shl(0xa0, 0x01), 0x01), sload(0x0a))\n        /* \"RouterConfig.sol\":4342:4352  msg.sender */\n      caller\n        /* \"RouterConfig.sol\":4342:4361  msg.sender == owner */\n      eq\n        /* \"RouterConfig.sol\":4334:4376  require(msg.sender == owner, \"only owner\") */\n      tag_311\n      jumpi\n      mload(0x40)\n      shl(0xe5, 0x461bcd)\n      dup2\n      mstore\n      0x04\n      add\n      tag_184\n      swap1\n      tag_185\n      jump\t// in\n    tag_311:\n        /* \"RouterConfig.sol\":13243:13260  bytes32 bsTokenID */\n      0x00\n        /* \"RouterConfig.sol\":13263:13287  stringToBytes32(tokenID) */\n      tag_314\n        /* \"RouterConfig.sol\":13279:13286  tokenID */\n      dup4\n      dup4\n        /* \"RouterConfig.sol\":13263:13287  stringToBytes32(tokenID) */\n      dup1\n      dup1\n      0x1f\n      add\n      0x20\n      dup1\n      swap2\n      div\n      mul\n      0x20\n      add\n      mload(0x40)\n      swap1\n      dup2\n      add\n      0x40\n      mstore\n      dup1\n      swap4\n      swap3\n      swap2\n      swap1\n      dup2\n      dup2\n      mstore\n      0x20\n      add\n      dup4\n      dup4\n      dup1\n      dup3\n      dup5\n      calldatacopy\n      0x00\n      swap3\n      add\n      swap2\n      swap1\n      swap2\n      mstore\n      pop\n        /* \"RouterConfig.sol\":13263:13278  stringToBytes32 */\n      tag_196\n      swap3\n      pop\n      pop\n      pop\n        /* \"RouterConfig.sol\":13263:13287  stringToBytes32(tokenID) */\n      jump\t// in\n    tag_314:\n        /* \"RouterConfig.sol\":13298:13333  MultichainToken[] storage _mcTokens */\n      0x00\n        /* \"RouterConfig.sol\":13336:13367  _allMultichainTokens[bsTokenID] */\n      dup2\n      dup2\n      mstore\n        /* \"RouterConfig.sol\":13336:13356  _allMultichainTokens */\n      0x02\n        /* \"RouterConfig.sol\":13336:13367  _allMultichainTokens[bsTokenID] */\n      0x20\n      mstore\n      0x40\n      dup2\n      keccak256\n        /* \"RouterConfig.sol\":13243:13287  bytes32 bsTokenID = stringToBytes32(tokenID) */\n      swap2\n      swap3\n      pop\n        /* \"RouterConfig.sol\":13378:13578  for (uint256 i = 0; i < _mcTokens.length; ++i) {\r... */\n    tag_315:\n        /* \"RouterConfig.sol\":13402:13418  _mcTokens.length */\n      dup2\n      sload\n        /* \"RouterConfig.sol\":13398:13418  i < _mcTokens.length */\n      dup2\n      lt\n        /* \"RouterConfig.sol\":13378:13578  for (uint256 i = 0; i < _mcTokens.length; ++i) {\r... */\n      iszero\n      tag_316\n      jumpi\n        /* \"RouterConfig.sol\":13440:13471  MultichainToken memory _mcToken */\n      0x00\n        /* \"RouterConfig.sol\":13474:13483  _mcTokens */\n      dup3\n        /* \"RouterConfig.sol\":13484:13485  i */\n      dup3\n        /* \"RouterConfig.sol\":13474:13486  _mcTokens[i] */\n      dup2\n      sload\n      dup2\n      lt\n      tag_319\n      jumpi\n      tag_319\n      tag_259\n      jump\t// in\n    tag_319:\n      0x00\n      swap2\n      dup3\n      mstore\n      0x20\n      dup1\n      dup4\n      keccak256\n        /* \"RouterConfig.sol\":13440:13486  MultichainToken memory _mcToken = _mcTokens[i] */\n      0x40\n      dup1\n      mload\n      dup1\n      dup3\n      add\n      dup3\n      mstore\n        /* \"RouterConfig.sol\":13474:13486  _mcTokens[i] */\n      0x02\n      swap1\n      swap5\n      mul\n      swap1\n      swap2\n      add\n        /* \"RouterConfig.sol\":13440:13486  MultichainToken memory _mcToken = _mcTokens[i] */\n      dup1\n      sload\n      dup1\n      dup6\n      mstore\n      0x01\n      swap1\n      swap2\n      add\n      sload\n      sub(shl(0xa0, 0x01), 0x01)\n      swap1\n      dup2\n      and\n      swap5\n      dup5\n      add\n      swap5\n      dup6\n      mstore\n        /* \"RouterConfig.sol\":13501:13530  _tokenIDMap[_mcToken.ChainID] */\n      swap1\n      dup6\n      mstore\n        /* \"RouterConfig.sol\":13501:13512  _tokenIDMap */\n      0x08\n        /* \"RouterConfig.sol\":13501:13530  _tokenIDMap[_mcToken.ChainID] */\n      dup4\n      mstore\n      dup2\n      dup6\n      keccak256\n        /* \"RouterConfig.sol\":13531:13552  _mcToken.TokenAddress */\n      swap4\n      mload\n        /* \"RouterConfig.sol\":13501:13553  _tokenIDMap[_mcToken.ChainID][_mcToken.TokenAddress] */\n      and\n      dup5\n      mstore\n      swap2\n      swap1\n      mstore\n      dup2\n      keccak256\n        /* \"RouterConfig.sol\":13501:13566  _tokenIDMap[_mcToken.ChainID][_mcToken.TokenAddress] = bytes32(0) */\n      sstore\n      pop\n        /* \"RouterConfig.sol\":13420:13423  ++i */\n      tag_321\n      dup2\n      tag_275\n      jump\t// in\n    tag_321:\n      swap1\n      pop\n        /* \"RouterConfig.sol\":13378:13578  for (uint256 i = 0; i < _mcTokens.length; ++i) {\r... */\n      jump(tag_315)\n    tag_316:\n      pop\n        /* \"RouterConfig.sol\":13595:13626  _allMultichainTokens[bsTokenID] */\n      0x00\n      dup3\n      dup2\n      mstore\n        /* \"RouterConfig.sol\":13595:13615  _allMultichainTokens */\n      0x02\n        /* \"RouterConfig.sol\":13595:13626  _allMultichainTokens[bsTokenID] */\n      0x20\n      mstore\n      0x40\n      dup2\n      keccak256\n        /* \"RouterConfig.sol\":13588:13626  delete _allMultichainTokens[bsTokenID] */\n      tag_322\n      swap2\n      tag_323\n      jump\t// in\n    tag_322:\n        /* \"RouterConfig.sol\":13232:13634  {\r... */\n      pop\n      pop\n        /* \"RouterConfig.sol\":13153:13634  function removeAllMultichainTokens(string calldata tokenID) external onlyOwner {\r... */\n      pop\n      pop\n      jump\t// out\n        /* \"RouterConfig.sol\":5207:5394  function getAllMultichainTokens(string calldata tokenID) external override view returns (MultichainToken[] memory) {\r... */\n    tag_107:\n        /* \"RouterConfig.sol\":5296:5320  MultichainToken[] memory */\n      0x60\n        /* \"RouterConfig.sol\":5340:5360  _allMultichainTokens */\n      0x02\n        /* \"RouterConfig.sol\":5340:5386  _allMultichainTokens[stringToBytes32(tokenID)] */\n      0x00\n        /* \"RouterConfig.sol\":5361:5385  stringToBytes32(tokenID) */\n      tag_325\n        /* \"RouterConfig.sol\":5377:5384  tokenID */\n      dup6\n      dup6\n        /* \"RouterConfig.sol\":5361:5385  stringToBytes32(tokenID) */\n      dup1\n      dup1\n      0x1f\n      add\n      0x20\n      dup1\n      swap2\n      div\n      mul\n      0x20\n      add\n      mload(0x40)\n      swap1\n      dup2\n      add\n      0x40\n      mstore\n      dup1\n      swap4\n      swap3\n      swap2\n      swap1\n      dup2\n      dup2\n      mstore\n      0x20\n      add\n      dup4\n      dup4\n      dup1\n      dup3\n      dup5\n      calldatacopy\n      0x00\n      swap3\n      add\n      swap2\n      swap1\n      swap2\n      mstore\n      pop\n        /* \"RouterConfig.sol\":5361:5376  stringToBytes32 */\n      tag_196\n      swap3\n      pop\n      pop\n      pop\n        /* \"RouterConfig.sol\":5361:5385  stringToBytes32(tokenID) */\n      jump\t// in\n    tag_325:\n        /* \"RouterConfig.sol\":5340:5386  _allMultichainTokens[stringToBytes32(tokenID)] */\n      dup2\n      mstore\n      0x20\n      add\n      swap1\n      dup2\n      mstore\n      0x20\n      add\n      0x00\n      keccak256\n        /* \"RouterConfig.sol\":5333:5386  return _allMultichainTokens[stringToBytes32(tokenID)] */\n      dup1\n      sload\n      dup1\n      0x20\n      mul\n      0x20\n      add\n      mload(0x40)\n      swap1\n      dup2\n      add\n      0x40\n      mstore\n      dup1\n      swap3\n      swap2\n      swap1\n      dup2\n      dup2\n      mstore\n      0x20\n      add\n      0x00\n      swap1\n    tag_326:\n      dup3\n      dup3\n      lt\n      iszero\n      tag_327\n      jumpi\n      0x00\n      dup5\n      dup2\n      mstore\n      0x20\n      swap1\n      dup2\n      swap1\n      keccak256\n      0x40\n      dup1\n      mload\n      dup1\n      dup3\n      add\n      swap1\n      swap2\n      mstore\n      0x02\n      dup6\n      mul\n      swap1\n      swap2\n      add\n      dup1\n      sload\n      dup3\n      mstore\n      0x01\n      swap1\n      dup2\n      add\n      sload\n      sub(shl(0xa0, 0x01), 0x01)\n      and\n      dup3\n      dup5\n      add\n      mstore\n      swap1\n      dup4\n      mstore\n      swap1\n      swap3\n      add\n      swap2\n      add\n      jump(tag_326)\n    tag_327:\n      pop\n      pop\n      pop\n      pop\n      swap1\n      pop\n        /* \"RouterConfig.sol\":5207:5394  function getAllMultichainTokens(string calldata tokenID) external override view returns (MultichainToken[] memory) {\r... */\n      swap3\n      swap2\n      pop\n      pop\n      jump\t// out\n        /* \"RouterConfig.sol\":13642:14280  function removeMultichainToken(string calldata tokenID, uint256 chainID) external onlyOwner returns (bool) {\r... */\n    tag_112:\n        /* \"RouterConfig.sol\":4356:4361  owner */\n      sload(0x0a)\n        /* \"RouterConfig.sol\":13743:13747  bool */\n      0x00\n      swap1\n      sub(shl(0xa0, 0x01), 0x01)\n        /* \"RouterConfig.sol\":4356:4361  owner */\n      and\n        /* \"RouterConfig.sol\":4342:4352  msg.sender */\n      caller\n        /* \"RouterConfig.sol\":4342:4361  msg.sender == owner */\n      eq\n        /* \"RouterConfig.sol\":4334:4376  require(msg.sender == owner, \"only owner\") */\n      tag_330\n      jumpi\n      mload(0x40)\n      shl(0xe5, 0x461bcd)\n      dup2\n      mstore\n      0x04\n      add\n      tag_184\n      swap1\n      tag_185\n      jump\t// in\n    tag_330:\n        /* \"RouterConfig.sol\":13760:13795  MultichainToken[] storage _mcTokens */\n      0x00\n        /* \"RouterConfig.sol\":13798:13818  _allMultichainTokens */\n      0x02\n        /* \"RouterConfig.sol\":13798:13844  _allMultichainTokens[stringToBytes32(tokenID)] */\n      0x00\n        /* \"RouterConfig.sol\":13819:13843  stringToBytes32(tokenID) */\n      tag_333\n        /* \"RouterConfig.sol\":13835:13842  tokenID */\n      dup8\n      dup8\n        /* \"RouterConfig.sol\":13819:13843  stringToBytes32(tokenID) */\n      dup1\n      dup1\n      0x1f\n      add\n      0x20\n      dup1\n      swap2\n      div\n      mul\n      0x20\n      add\n      mload(0x40)\n      swap1\n      dup2\n      add\n      0x40\n      mstore\n      dup1\n      swap4\n      swap3\n      swap2\n      swap1\n      dup2\n      dup2\n      mstore\n      0x20\n      add\n      dup4\n      dup4\n      dup1\n      dup3\n      dup5\n      calldatacopy\n      0x00\n      swap3\n      add\n      swap2\n      swap1\n      swap2\n      mstore\n      pop\n        /* \"RouterConfig.sol\":13819:13834  stringToBytes32 */\n      tag_196\n      swap3\n      pop\n      pop\n      pop\n        /* \"RouterConfig.sol\":13819:13843  stringToBytes32(tokenID) */\n      jump\t// in\n    tag_333:\n        /* \"RouterConfig.sol\":13798:13844  _allMultichainTokens[stringToBytes32(tokenID)] */\n      dup2\n      mstore\n      0x20\n      add\n      swap1\n      dup2\n      mstore\n      0x20\n      add\n      0x00\n      keccak256\n        /* \"RouterConfig.sol\":13760:13844  MultichainToken[] storage _mcTokens = _allMultichainTokens[stringToBytes32(tokenID)] */\n      swap1\n      pop\n        /* \"RouterConfig.sol\":13860:13869  uint256 i */\n      0x00\n        /* \"RouterConfig.sol\":13855:14250  for (uint256 i = 0; i < _mcTokens.length; ++i) {\r... */\n    tag_334:\n        /* \"RouterConfig.sol\":13879:13895  _mcTokens.length */\n      dup2\n      sload\n        /* \"RouterConfig.sol\":13875:13895  i < _mcTokens.length */\n      dup2\n      lt\n        /* \"RouterConfig.sol\":13855:14250  for (uint256 i = 0; i < _mcTokens.length; ++i) {\r... */\n      iszero\n      tag_335\n      jumpi\n        /* \"RouterConfig.sol\":13945:13952  chainID */\n      dup4\n        /* \"RouterConfig.sol\":13921:13930  _mcTokens */\n      dup3\n        /* \"RouterConfig.sol\":13931:13932  i */\n      dup3\n        /* \"RouterConfig.sol\":13921:13933  _mcTokens[i] */\n      dup2\n      sload\n      dup2\n      lt\n      tag_338\n      jumpi\n      tag_338\n      tag_259\n      jump\t// in\n    tag_338:\n      swap1\n      0x00\n      mstore\n      keccak256(0x00, 0x20)\n      swap1\n      0x02\n      mul\n      add\n        /* \"RouterConfig.sol\":13921:13941  _mcTokens[i].ChainID */\n      0x00\n      add\n      sload\n        /* \"RouterConfig.sol\":13921:13952  _mcTokens[i].ChainID == chainID */\n      eq\n        /* \"RouterConfig.sol\":13917:14239  if (_mcTokens[i].ChainID == chainID) {\r... */\n      iszero\n      tag_340\n      jumpi\n        /* \"RouterConfig.sol\":14031:14032  0 */\n      0x00\n        /* \"RouterConfig.sol\":13973:13993  _tokenIDMap[chainID] */\n      dup5\n      dup2\n      mstore\n        /* \"RouterConfig.sol\":13973:13984  _tokenIDMap */\n      0x08\n        /* \"RouterConfig.sol\":13973:13993  _tokenIDMap[chainID] */\n      0x20\n      mstore\n      0x40\n      dup2\n      keccak256\n        /* \"RouterConfig.sol\":13994:14006  _mcTokens[i] */\n      dup4\n      sload\n        /* \"RouterConfig.sol\":14031:14032  0 */\n      dup3\n      swap1\n        /* \"RouterConfig.sol\":13994:14003  _mcTokens */\n      dup6\n      swap1\n        /* \"RouterConfig.sol\":14004:14005  i */\n      dup6\n      swap1\n        /* \"RouterConfig.sol\":13994:14006  _mcTokens[i] */\n      dup2\n      lt\n      tag_342\n      jumpi\n      tag_342\n      tag_259\n      jump\t// in\n    tag_342:\n      0x00\n      swap2\n      dup3\n      mstore\n      0x20\n      dup1\n      dup4\n      keccak256\n        /* \"RouterConfig.sol\":13994:14019  _mcTokens[i].TokenAddress */\n      0x01\n        /* \"RouterConfig.sol\":13994:14006  _mcTokens[i] */\n      0x02\n      swap1\n      swap4\n      mul\n      add\n        /* \"RouterConfig.sol\":13994:14019  _mcTokens[i].TokenAddress */\n      swap2\n      swap1\n      swap2\n      add\n      sload\n      sub(shl(0xa0, 0x01), 0x01)\n      and\n        /* \"RouterConfig.sol\":13973:14020  _tokenIDMap[chainID][_mcTokens[i].TokenAddress] */\n      dup4\n      mstore\n      dup3\n      add\n      swap3\n      swap1\n      swap3\n      mstore\n      0x40\n      add\n      swap1\n      keccak256\n        /* \"RouterConfig.sol\":13973:14033  _tokenIDMap[chainID][_mcTokens[i].TokenAddress] = bytes32(0) */\n      sstore\n        /* \"RouterConfig.sol\":14052:14160  for (; i+1 < _mcTokens.length; ++i) {\r... */\n    tag_344:\n        /* \"RouterConfig.sol\":14065:14081  _mcTokens.length */\n      dup2\n      sload\n        /* \"RouterConfig.sol\":14059:14062  i+1 */\n      tag_347\n        /* \"RouterConfig.sol\":14059:14060  i */\n      dup3\n        /* \"RouterConfig.sol\":14061:14062  1 */\n      0x01\n        /* \"RouterConfig.sol\":14059:14062  i+1 */\n      tag_266\n      jump\t// in\n    tag_347:\n        /* \"RouterConfig.sol\":14059:14081  i+1 < _mcTokens.length */\n      lt\n        /* \"RouterConfig.sol\":14052:14160  for (; i+1 < _mcTokens.length; ++i) {\r... */\n      iszero\n      tag_345\n      jumpi\n        /* \"RouterConfig.sol\":14126:14135  _mcTokens */\n      dup2\n        /* \"RouterConfig.sol\":14136:14139  i+1 */\n      tag_348\n        /* \"RouterConfig.sol\":14136:14137  i */\n      dup3\n        /* \"RouterConfig.sol\":14138:14139  1 */\n      0x01\n        /* \"RouterConfig.sol\":14136:14139  i+1 */\n      tag_266\n      jump\t// in\n    tag_348:\n        /* \"RouterConfig.sol\":14126:14140  _mcTokens[i+1] */\n      dup2\n      sload\n      dup2\n      lt\n      tag_350\n      jumpi\n      tag_350\n      tag_259\n      jump\t// in\n    tag_350:\n      swap1\n      0x00\n      mstore\n      keccak256(0x00, 0x20)\n      swap1\n      0x02\n      mul\n      add\n        /* \"RouterConfig.sol\":14111:14120  _mcTokens */\n      dup3\n        /* \"RouterConfig.sol\":14121:14122  i */\n      dup3\n        /* \"RouterConfig.sol\":14111:14123  _mcTokens[i] */\n      dup2\n      sload\n      dup2\n      lt\n      tag_353\n      jumpi\n      tag_353\n      tag_259\n      jump\t// in\n    tag_353:\n      0x00\n      swap2\n      dup3\n      mstore\n      0x20\n      swap1\n      swap2\n      keccak256\n        /* \"RouterConfig.sol\":14111:14140  _mcTokens[i] = _mcTokens[i+1] */\n      dup3\n      sload\n        /* \"RouterConfig.sol\":14111:14123  _mcTokens[i] */\n      0x02\n      swap1\n      swap3\n      mul\n      add\n        /* \"RouterConfig.sol\":14111:14140  _mcTokens[i] = _mcTokens[i+1] */\n      swap1\n      dup2\n      sstore\n      0x01\n      swap2\n      dup3\n      add\n      sload\n      swap2\n      add\n      dup1\n      sload\n      not(sub(shl(0xa0, 0x01), 0x01))\n      and\n      sub(shl(0xa0, 0x01), 0x01)\n      swap1\n      swap3\n      and\n      swap2\n      swap1\n      swap2\n      or\n      swap1\n      sstore\n        /* \"RouterConfig.sol\":14083:14086  ++i */\n      tag_355\n      dup2\n      tag_275\n      jump\t// in\n    tag_355:\n      swap1\n      pop\n        /* \"RouterConfig.sol\":14052:14160  for (; i+1 < _mcTokens.length; ++i) {\r... */\n      jump(tag_344)\n    tag_345:\n        /* \"RouterConfig.sol\":14178:14187  _mcTokens */\n      dup2\n        /* \"RouterConfig.sol\":14178:14193  _mcTokens.pop() */\n      dup1\n      sload\n      dup1\n      tag_357\n      jumpi\n      tag_357\n      tag_278\n      jump\t// in\n    tag_357:\n      0x00\n      dup3\n      dup2\n      mstore\n      0x20\n      dup2\n      keccak256\n      0x02\n      not(0x00)\n      swap1\n      swap4\n      add\n      swap3\n      dup4\n      mul\n      add\n      swap1\n      dup2\n      sstore\n      0x01\n      swap1\n      dup2\n      add\n      dup1\n      sload\n      not(sub(shl(0xa0, 0x01), 0x01))\n      and\n      swap1\n      sstore\n      swap2\n      sstore\n      swap3\n      pop\n        /* \"RouterConfig.sol\":14212:14223  return true */\n      tag_194\n      swap2\n      pop\n      pop\n      jump\n        /* \"RouterConfig.sol\":13917:14239  if (_mcTokens[i].ChainID == chainID) {\r... */\n    tag_340:\n        /* \"RouterConfig.sol\":13897:13900  ++i */\n      tag_359\n      dup2\n      tag_275\n      jump\t// in\n    tag_359:\n      swap1\n      pop\n        /* \"RouterConfig.sol\":13855:14250  for (uint256 i = 0; i < _mcTokens.length; ++i) {\r... */\n      jump(tag_334)\n    tag_335:\n      pop\n        /* \"RouterConfig.sol\":14267:14272  false */\n      0x00\n      swap6\n        /* \"RouterConfig.sol\":13642:14280  function removeMultichainToken(string calldata tokenID, uint256 chainID) external onlyOwner returns (bool) {\r... */\n      swap5\n      pop\n      pop\n      pop\n      pop\n      pop\n      jump\t// out\n        /* \"RouterConfig.sol\":6582:6774  function getSwapConfig(string calldata tokenID, uint256 toChainID) external override view returns (SwapConfig memory) {\r... */\n    tag_116:\n        /* \"RouterConfig.sol\":6681:6698  SwapConfig memory */\n      tag_360\n      mload(0x40)\n      dup1\n      0xc0\n      add\n      0x40\n      mstore\n      dup1\n      0x00\n      dup2\n      mstore\n      0x20\n      add\n      0x00\n      dup2\n      mstore\n      0x20\n      add\n      0x00\n      dup2\n      mstore\n      0x20\n      add\n      0x00\n      dup2\n      mstore\n      0x20\n      add\n      0x00\n      dup2\n      mstore\n      0x20\n      add\n      0x00\n      dup2\n      mstore\n      pop\n      swap1\n      jump\n    tag_360:\n        /* \"RouterConfig.sol\":6718:6729  _swapConfig */\n      0x06\n        /* \"RouterConfig.sol\":6718:6755  _swapConfig[stringToBytes32(tokenID)] */\n      0x00\n        /* \"RouterConfig.sol\":6730:6754  stringToBytes32(tokenID) */\n      tag_363\n        /* \"RouterConfig.sol\":6746:6753  tokenID */\n      dup7\n      dup7\n        /* \"RouterConfig.sol\":6730:6754  stringToBytes32(tokenID) */\n      dup1\n      dup1\n      0x1f\n      add\n      0x20\n      dup1\n      swap2\n      div\n      mul\n      0x20\n      add\n      mload(0x40)\n      swap1\n      dup2\n      add\n      0x40\n      mstore\n      dup1\n      swap4\n      swap3\n      swap2\n      swap1\n      dup2\n      dup2\n      mstore\n      0x20\n      add\n      dup4\n      dup4\n      dup1\n      dup3\n      dup5\n      calldatacopy\n      0x00\n      swap3\n      add\n      swap2\n      swap1\n      swap2\n      mstore\n      pop\n        /* \"RouterConfig.sol\":6730:6745  stringToBytes32 */\n      tag_196\n      swap3\n      pop\n      pop\n      pop\n        /* \"RouterConfig.sol\":6730:6754  stringToBytes32(tokenID) */\n      jump\t// in\n    tag_363:\n        /* \"RouterConfig.sol\":6718:6755  _swapConfig[stringToBytes32(tokenID)] */\n      dup2\n      mstore\n      0x20\n      add\n      swap1\n      dup2\n      mstore\n      0x20\n      add\n      0x00\n      keccak256\n        /* \"RouterConfig.sol\":6718:6766  _swapConfig[stringToBytes32(tokenID)][toChainID] */\n      0x00\n        /* \"RouterConfig.sol\":6756:6765  toChainID */\n      dup4\n        /* \"RouterConfig.sol\":6718:6766  _swapConfig[stringToBytes32(tokenID)][toChainID] */\n      dup2\n      mstore\n      0x20\n      add\n      swap1\n      dup2\n      mstore\n      0x20\n      add\n      0x00\n      keccak256\n        /* \"RouterConfig.sol\":6711:6766  return _swapConfig[stringToBytes32(tokenID)][toChainID] */\n      mload(0x40)\n      dup1\n      0xc0\n      add\n      0x40\n      mstore\n      swap1\n      dup2\n      0x00\n      dup3\n      add\n      sload\n      dup2\n      mstore\n      0x20\n      add\n      0x01\n      dup3\n      add\n      sload\n      dup2\n      mstore\n      0x20\n      add\n      0x02\n      dup3\n      add\n      sload\n      dup2\n      mstore\n      0x20\n      add\n      0x03\n      dup3\n      add\n      sload\n      dup2\n      mstore\n      0x20\n      add\n      0x04\n      dup3\n      add\n      sload\n      dup2\n      mstore\n      0x20\n      add\n      0x05\n      dup3\n      add\n      sload\n      dup2\n      mstore\n      pop\n      pop\n      swap1\n      pop\n        /* \"RouterConfig.sol\":6582:6774  function getSwapConfig(string calldata tokenID, uint256 toChainID) external override view returns (SwapConfig memory) {\r... */\n      swap4\n      swap3\n      pop\n      pop\n      pop\n      jump\t// out\n        /* \"RouterConfig.sol\":7652:7804  function isTokenIDExist(string calldata tokenID) public override view returns (bool) {\r... */\n    tag_121:\n        /* \"RouterConfig.sol\":7731:7735  bool */\n      0x00\n        /* \"RouterConfig.sol\":7755:7796  _isTokenIDExist(stringToBytes32(tokenID)) */\n      tag_194\n        /* \"RouterConfig.sol\":7771:7795  stringToBytes32(tokenID) */\n      tag_366\n        /* \"RouterConfig.sol\":7787:7794  tokenID */\n      dup5\n      dup5\n        /* \"RouterConfig.sol\":7771:7795  stringToBytes32(tokenID) */\n      dup1\n      dup1\n      0x1f\n      add\n      0x20\n      dup1\n      swap2\n      div\n      mul\n      0x20\n      add\n      mload(0x40)\n      swap1\n      dup2\n      add\n      0x40\n      mstore\n      dup1\n      swap4\n      swap3\n      swap2\n      swap1\n      dup2\n      dup2\n      mstore\n      0x20\n      add\n      dup4\n      dup4\n      dup1\n      dup3\n      dup5\n      calldatacopy\n      0x00\n      swap3\n      add\n      swap2\n      swap1\n      swap2\n      mstore\n      pop\n        /* \"RouterConfig.sol\":7771:7786  stringToBytes32 */\n      tag_196\n      swap3\n      pop\n      pop\n      pop\n        /* \"RouterConfig.sol\":7771:7795  stringToBytes32(tokenID) */\n      jump\t// in\n    tag_366:\n        /* \"RouterConfig.sol\":7755:7770  _isTokenIDExist */\n      tag_367\n        /* \"RouterConfig.sol\":7755:7796  _isTokenIDExist(stringToBytes32(tokenID)) */\n      jump\t// in\n        /* \"RouterConfig.sol\":5402:5829  function getMultichainToken(string calldata tokenID, uint256 chainID) public override view returns (address) {\r... */\n    tag_125:\n        /* \"RouterConfig.sol\":5502:5509  address */\n      0x00\n        /* \"RouterConfig.sol\":5522:5557  MultichainToken[] storage _mcTokens */\n      dup1\n        /* \"RouterConfig.sol\":5560:5580  _allMultichainTokens */\n      0x02\n        /* \"RouterConfig.sol\":5560:5606  _allMultichainTokens[stringToBytes32(tokenID)] */\n      0x00\n        /* \"RouterConfig.sol\":5581:5605  stringToBytes32(tokenID) */\n      tag_369\n        /* \"RouterConfig.sol\":5597:5604  tokenID */\n      dup8\n      dup8\n        /* \"RouterConfig.sol\":5581:5605  stringToBytes32(tokenID) */\n      dup1\n      dup1\n      0x1f\n      add\n      0x20\n      dup1\n      swap2\n      div\n      mul\n      0x20\n      add\n      mload(0x40)\n      swap1\n      dup2\n      add\n      0x40\n      mstore\n      dup1\n      swap4\n      swap3\n      swap2\n      swap1\n      dup2\n      dup2\n      mstore\n      0x20\n      add\n      dup4\n      dup4\n      dup1\n      dup3\n      dup5\n      calldatacopy\n      0x00\n      swap3\n      add\n      swap2\n      swap1\n      swap2\n      mstore\n      pop\n        /* \"RouterConfig.sol\":5581:5596  stringToBytes32 */\n      tag_196\n      swap3\n      pop\n      pop\n      pop\n        /* \"RouterConfig.sol\":5581:5605  stringToBytes32(tokenID) */\n      jump\t// in\n    tag_369:\n        /* \"RouterConfig.sol\":5560:5606  _allMultichainTokens[stringToBytes32(tokenID)] */\n      dup2\n      mstore\n      0x20\n      add\n      swap1\n      dup2\n      mstore\n      0x20\n      add\n      0x00\n      keccak256\n        /* \"RouterConfig.sol\":5522:5606  MultichainToken[] storage _mcTokens = _allMultichainTokens[stringToBytes32(tokenID)] */\n      swap1\n      pop\n        /* \"RouterConfig.sol\":5622:5631  uint256 i */\n      0x00\n        /* \"RouterConfig.sol\":5617:5794  for (uint256 i = 0; i < _mcTokens.length; ++i) {\r... */\n    tag_370:\n        /* \"RouterConfig.sol\":5641:5657  _mcTokens.length */\n      dup2\n      sload\n        /* \"RouterConfig.sol\":5637:5657  i < _mcTokens.length */\n      dup2\n      lt\n        /* \"RouterConfig.sol\":5617:5794  for (uint256 i = 0; i < _mcTokens.length; ++i) {\r... */\n      iszero\n      tag_335\n      jumpi\n        /* \"RouterConfig.sol\":5707:5714  chainID */\n      dup4\n        /* \"RouterConfig.sol\":5683:5692  _mcTokens */\n      dup3\n        /* \"RouterConfig.sol\":5693:5694  i */\n      dup3\n        /* \"RouterConfig.sol\":5683:5695  _mcTokens[i] */\n      dup2\n      sload\n      dup2\n      lt\n      tag_374\n      jumpi\n      tag_374\n      tag_259\n      jump\t// in\n    tag_374:\n      swap1\n      0x00\n      mstore\n      keccak256(0x00, 0x20)\n      swap1\n      0x02\n      mul\n      add\n        /* \"RouterConfig.sol\":5683:5703  _mcTokens[i].ChainID */\n      0x00\n      add\n      sload\n        /* \"RouterConfig.sol\":5683:5714  _mcTokens[i].ChainID == chainID */\n      eq\n        /* \"RouterConfig.sol\":5679:5783  if (_mcTokens[i].ChainID == chainID) {\r... */\n      iszero\n      tag_376\n      jumpi\n        /* \"RouterConfig.sol\":5742:5751  _mcTokens */\n      dup2\n        /* \"RouterConfig.sol\":5752:5753  i */\n      dup2\n        /* \"RouterConfig.sol\":5742:5754  _mcTokens[i] */\n      dup2\n      sload\n      dup2\n      lt\n      tag_378\n      jumpi\n      tag_378\n      tag_259\n      jump\t// in\n    tag_378:\n      0x00\n      swap2\n      dup3\n      mstore\n      0x20\n      swap1\n      swap2\n      keccak256\n        /* \"RouterConfig.sol\":5742:5767  _mcTokens[i].TokenAddress */\n      0x01\n        /* \"RouterConfig.sol\":5742:5754  _mcTokens[i] */\n      0x02\n      swap1\n      swap3\n      mul\n      add\n        /* \"RouterConfig.sol\":5742:5767  _mcTokens[i].TokenAddress */\n      add\n      sload\n      sub(shl(0xa0, 0x01), 0x01)\n      and\n      swap3\n      pop\n        /* \"RouterConfig.sol\":5735:5767  return _mcTokens[i].TokenAddress */\n      tag_194\n      swap2\n      pop\n      pop\n      jump\n        /* \"RouterConfig.sol\":5679:5783  if (_mcTokens[i].ChainID == chainID) {\r... */\n    tag_376:\n        /* \"RouterConfig.sol\":5659:5662  ++i */\n      tag_380\n      dup2\n      tag_275\n      jump\t// in\n    tag_380:\n      swap1\n      pop\n        /* \"RouterConfig.sol\":5617:5794  for (uint256 i = 0; i < _mcTokens.length; ++i) {\r... */\n      jump(tag_370)\n        /* \"RouterConfig.sol\":9216:9436  function setTokenConfig(string calldata tokenID, uint256 chainID, TokenConfig calldata config) external onlyOwner returns (bool) {\r... */\n    tag_129:\n        /* \"RouterConfig.sol\":4356:4361  owner */\n      sload(0x0a)\n        /* \"RouterConfig.sol\":9339:9343  bool */\n      0x00\n      swap1\n      sub(shl(0xa0, 0x01), 0x01)\n        /* \"RouterConfig.sol\":4356:4361  owner */\n      and\n        /* \"RouterConfig.sol\":4342:4352  msg.sender */\n      caller\n        /* \"RouterConfig.sol\":4342:4361  msg.sender == owner */\n      eq\n        /* \"RouterConfig.sol\":4334:4376  require(msg.sender == owner, \"only owner\") */\n      tag_382\n      jumpi\n      mload(0x40)\n      shl(0xe5, 0x461bcd)\n      dup2\n      mstore\n      0x04\n      add\n      tag_184\n      swap1\n      tag_185\n      jump\t// in\n    tag_382:\n        /* \"RouterConfig.sol\":9363:9428  _setTokenConfig(stringToBytes32(tokenID), chainID, config, false) */\n      tag_385\n        /* \"RouterConfig.sol\":9379:9403  stringToBytes32(tokenID) */\n      tag_386\n        /* \"RouterConfig.sol\":9395:9402  tokenID */\n      dup7\n      dup7\n        /* \"RouterConfig.sol\":9379:9403  stringToBytes32(tokenID) */\n      dup1\n      dup1\n      0x1f\n      add\n      0x20\n      dup1\n      swap2\n      div\n      mul\n      0x20\n      add\n      mload(0x40)\n      swap1\n      dup2\n      add\n      0x40\n      mstore\n      dup1\n      swap4\n      swap3\n      swap2\n      swap1\n      dup2\n      dup2\n      mstore\n      0x20\n      add\n      dup4\n      dup4\n      dup1\n      dup3\n      dup5\n      calldatacopy\n      0x00\n      swap3\n      add\n      swap2\n      swap1\n      swap2\n      mstore\n      pop\n        /* \"RouterConfig.sol\":9379:9394  stringToBytes32 */\n      tag_196\n      swap3\n      pop\n      pop\n      pop\n        /* \"RouterConfig.sol\":9379:9403  stringToBytes32(tokenID) */\n      jump\t// in\n    tag_386:\n        /* \"RouterConfig.sol\":9405:9412  chainID */\n      dup5\n        /* \"RouterConfig.sol\":9363:9428  _setTokenConfig(stringToBytes32(tokenID), chainID, config, false) */\n      tag_387\n      calldatasize\n      dup7\n      swap1\n      sub\n      dup7\n      add\n        /* \"RouterConfig.sol\":9414:9420  config */\n      dup7\n        /* \"RouterConfig.sol\":9363:9428  _setTokenConfig(stringToBytes32(tokenID), chainID, config, false) */\n      tag_198\n      jump\t// in\n    tag_387:\n        /* \"RouterConfig.sol\":9422:9427  false */\n      0x00\n        /* \"RouterConfig.sol\":9363:9378  _setTokenConfig */\n      tag_205\n        /* \"RouterConfig.sol\":9363:9428  _setTokenConfig(stringToBytes32(tokenID), chainID, config, false) */\n      jump\t// in\n    tag_385:\n        /* \"RouterConfig.sol\":9356:9428  return _setTokenConfig(stringToBytes32(tokenID), chainID, config, false) */\n      swap6\n        /* \"RouterConfig.sol\":9216:9436  function setTokenConfig(string calldata tokenID, uint256 chainID, TokenConfig calldata config) external onlyOwner returns (bool) {\r... */\n      swap5\n      pop\n      pop\n      pop\n      pop\n      pop\n      jump\t// out\n        /* \"RouterConfig.sol\":9690:9956  function pickUserTokenConfig(string calldata tokenID, uint256 chainID) external onlyOwner returns (bool) {\r... */\n    tag_133:\n        /* \"RouterConfig.sol\":4356:4361  owner */\n      sload(0x0a)\n        /* \"RouterConfig.sol\":9789:9793  bool */\n      0x00\n      swap1\n      sub(shl(0xa0, 0x01), 0x01)\n        /* \"RouterConfig.sol\":4356:4361  owner */\n      and\n        /* \"RouterConfig.sol\":4342:4352  msg.sender */\n      caller\n        /* \"RouterConfig.sol\":4342:4361  msg.sender == owner */\n      eq\n        /* \"RouterConfig.sol\":4334:4376  require(msg.sender == owner, \"only owner\") */\n      tag_389\n      jumpi\n      mload(0x40)\n      shl(0xe5, 0x461bcd)\n      dup2\n      mstore\n      0x04\n      add\n      tag_184\n      swap1\n      tag_185\n      jump\t// in\n    tag_389:\n        /* \"RouterConfig.sol\":9806:9823  bytes32 bsTokenID */\n      0x00\n        /* \"RouterConfig.sol\":9826:9850  stringToBytes32(tokenID) */\n      tag_392\n        /* \"RouterConfig.sol\":9842:9849  tokenID */\n      dup6\n      dup6\n        /* \"RouterConfig.sol\":9826:9850  stringToBytes32(tokenID) */\n      dup1\n      dup1\n      0x1f\n      add\n      0x20\n      dup1\n      swap2\n      div\n      mul\n      0x20\n      add\n      mload(0x40)\n      swap1\n      dup2\n      add\n      0x40\n      mstore\n      dup1\n      swap4\n      swap3\n      swap2\n      swap1\n      dup2\n      dup2\n      mstore\n      0x20\n      add\n      dup4\n      dup4\n      dup1\n      dup3\n      dup5\n      calldatacopy\n      0x00\n      swap3\n      add\n      swap2\n      swap1\n      swap2\n      mstore\n      pop\n        /* \"RouterConfig.sol\":9826:9841  stringToBytes32 */\n      tag_196\n      swap3\n      pop\n      pop\n      pop\n        /* \"RouterConfig.sol\":9826:9850  stringToBytes32(tokenID) */\n      jump\t// in\n    tag_392:\n        /* \"RouterConfig.sol\":9904:9931  _userTokenConfig[bsTokenID] */\n      0x00\n      dup2\n      dup2\n      mstore\n        /* \"RouterConfig.sol\":9904:9920  _userTokenConfig */\n      0x05\n        /* \"RouterConfig.sol\":9904:9931  _userTokenConfig[bsTokenID] */\n      0x20\n      swap1\n      dup2\n      mstore\n      0x40\n      dup1\n      dup4\n      keccak256\n        /* \"RouterConfig.sol\":9904:9940  _userTokenConfig[bsTokenID][chainID] */\n      dup8\n      dup5\n      mstore\n      dup3\n      mstore\n      dup1\n      dup4\n      keccak256\n        /* \"RouterConfig.sol\":9868:9948  _setTokenConfig(bsTokenID, chainID, _userTokenConfig[bsTokenID][chainID], false) */\n      dup2\n      mload\n      0x60\n      dup2\n      add\n      dup4\n      mstore\n      dup2\n      sload\n      0xff\n      dup2\n      and\n      dup3\n      mstore\n      0x0100\n      swap1\n      div\n      sub(shl(0xa0, 0x01), 0x01)\n      and\n      swap4\n      dup2\n      add\n      swap4\n      swap1\n      swap4\n      mstore\n      0x01\n      add\n      sload\n      swap1\n      dup3\n      add\n      mstore\n        /* \"RouterConfig.sol\":9904:9931  _userTokenConfig[bsTokenID] */\n      swap2\n      swap3\n      pop\n        /* \"RouterConfig.sol\":9868:9948  _setTokenConfig(bsTokenID, chainID, _userTokenConfig[bsTokenID][chainID], false) */\n      tag_385\n      swap2\n        /* \"RouterConfig.sol\":9904:9931  _userTokenConfig[bsTokenID] */\n      dup4\n      swap2\n        /* \"RouterConfig.sol\":9904:9940  _userTokenConfig[bsTokenID][chainID] */\n      dup7\n      swap2\n        /* \"RouterConfig.sol\":9868:9948  _setTokenConfig(bsTokenID, chainID, _userTokenConfig[bsTokenID][chainID], false) */\n      swap1\n        /* \"RouterConfig.sol\":9868:9883  _setTokenConfig */\n      tag_205\n        /* \"RouterConfig.sol\":9868:9948  _setTokenConfig(bsTokenID, chainID, _userTokenConfig[bsTokenID][chainID], false) */\n      jump\t// in\n        /* \"RouterConfig.sol\":5837:6020  function getTokenID(uint256 chainID, address tokenAddress) external override view returns (string memory) {\r... */\n    tag_138:\n        /* \"RouterConfig.sol\":5977:5997  _tokenIDMap[chainID] */\n      0x00\n      dup3\n      dup2\n      mstore\n        /* \"RouterConfig.sol\":5977:5988  _tokenIDMap */\n      0x08\n        /* \"RouterConfig.sol\":5977:5997  _tokenIDMap[chainID] */\n      0x20\n      swap1\n      dup2\n      mstore\n      0x40\n      dup1\n      dup4\n      keccak256\n      sub(shl(0xa0, 0x01), 0x01)\n        /* \"RouterConfig.sol\":5977:6011  _tokenIDMap[chainID][tokenAddress] */\n      dup6\n      and\n      dup5\n      mstore\n      swap1\n      swap2\n      mstore\n      swap1\n      keccak256\n      sload\n        /* \"RouterConfig.sol\":5928:5941  string memory */\n      0x60\n      swap1\n        /* \"RouterConfig.sol\":5961:6012  bytes32ToString(_tokenIDMap[chainID][tokenAddress]) */\n      tag_194\n      swap1\n        /* \"RouterConfig.sol\":5961:5976  bytes32ToString */\n      tag_302\n        /* \"RouterConfig.sol\":5961:6012  bytes32ToString(_tokenIDMap[chainID][tokenAddress]) */\n      jump\t// in\n        /* \"RouterConfig.sol\":12963:13145  function setMultichainToken(string calldata tokenID, uint256 chainID, address token) public onlyOwner {\r... */\n    tag_143:\n        /* \"RouterConfig.sol\":4356:4361  owner */\n      and(sub(shl(0xa0, 0x01), 0x01), sload(0x0a))\n        /* \"RouterConfig.sol\":4342:4352  msg.sender */\n      caller\n        /* \"RouterConfig.sol\":4342:4361  msg.sender == owner */\n      eq\n        /* \"RouterConfig.sol\":4334:4376  require(msg.sender == owner, \"only owner\") */\n      tag_397\n      jumpi\n      mload(0x40)\n      shl(0xe5, 0x461bcd)\n      dup2\n      mstore\n      0x04\n      add\n      tag_184\n      swap1\n      tag_185\n      jump\t// in\n    tag_397:\n        /* \"RouterConfig.sol\":13076:13137  _setMultichainToken(stringToBytes32(tokenID), chainID, token) */\n      tag_322\n        /* \"RouterConfig.sol\":13096:13120  stringToBytes32(tokenID) */\n      tag_401\n        /* \"RouterConfig.sol\":13112:13119  tokenID */\n      dup6\n      dup6\n        /* \"RouterConfig.sol\":13096:13120  stringToBytes32(tokenID) */\n      dup1\n      dup1\n      0x1f\n      add\n      0x20\n      dup1\n      swap2\n      div\n      mul\n      0x20\n      add\n      mload(0x40)\n      swap1\n      dup2\n      add\n      0x40\n      mstore\n      dup1\n      swap4\n      swap3\n      swap2\n      swap1\n      dup2\n      dup2\n      mstore\n      0x20\n      add\n      dup4\n      dup4\n      dup1\n      dup3\n      dup5\n      calldatacopy\n      0x00\n      swap3\n      add\n      swap2\n      swap1\n      swap2\n      mstore\n      pop\n        /* \"RouterConfig.sol\":13096:13111  stringToBytes32 */\n      tag_196\n      swap3\n      pop\n      pop\n      pop\n        /* \"RouterConfig.sol\":13096:13120  stringToBytes32(tokenID) */\n      jump\t// in\n    tag_401:\n        /* \"RouterConfig.sol\":13122:13129  chainID */\n      dup4\n        /* \"RouterConfig.sol\":13131:13136  token */\n      dup4\n        /* \"RouterConfig.sol\":13076:13095  _setMultichainToken */\n      tag_402\n        /* \"RouterConfig.sol\":13076:13137  _setMultichainToken(stringToBytes32(tokenID), chainID, token) */\n      jump\t// in\n        /* \"RouterConfig.sol\":9964:10178  function setSwapConfig(string calldata tokenID, uint256 toChainID, SwapConfig calldata config) external onlyOwner returns (bool) {\r... */\n    tag_147:\n        /* \"RouterConfig.sol\":4356:4361  owner */\n      sload(0x0a)\n        /* \"RouterConfig.sol\":10087:10091  bool */\n      0x00\n      swap1\n      sub(shl(0xa0, 0x01), 0x01)\n        /* \"RouterConfig.sol\":4356:4361  owner */\n      and\n        /* \"RouterConfig.sol\":4342:4352  msg.sender */\n      caller\n        /* \"RouterConfig.sol\":4342:4361  msg.sender == owner */\n      eq\n        /* \"RouterConfig.sol\":4334:4376  require(msg.sender == owner, \"only owner\") */\n      tag_404\n      jumpi\n      mload(0x40)\n      shl(0xe5, 0x461bcd)\n      dup2\n      mstore\n      0x04\n      add\n      tag_184\n      swap1\n      tag_185\n      jump\t// in\n    tag_404:\n        /* \"RouterConfig.sol\":10111:10170  _setSwapConfig(stringToBytes32(tokenID), toChainID, config) */\n      tag_385\n        /* \"RouterConfig.sol\":10126:10150  stringToBytes32(tokenID) */\n      tag_408\n        /* \"RouterConfig.sol\":10142:10149  tokenID */\n      dup7\n      dup7\n        /* \"RouterConfig.sol\":10126:10150  stringToBytes32(tokenID) */\n      dup1\n      dup1\n      0x1f\n      add\n      0x20\n      dup1\n      swap2\n      div\n      mul\n      0x20\n      add\n      mload(0x40)\n      swap1\n      dup2\n      add\n      0x40\n      mstore\n      dup1\n      swap4\n      swap3\n      swap2\n      swap1\n      dup2\n      dup2\n      mstore\n      0x20\n      add\n      dup4\n      dup4\n      dup1\n      dup3\n      dup5\n      calldatacopy\n      0x00\n      swap3\n      add\n      swap2\n      swap1\n      swap2\n      mstore\n      pop\n        /* \"RouterConfig.sol\":10126:10141  stringToBytes32 */\n      tag_196\n      swap3\n      pop\n      pop\n      pop\n        /* \"RouterConfig.sol\":10126:10150  stringToBytes32(tokenID) */\n      jump\t// in\n    tag_408:\n        /* \"RouterConfig.sol\":10152:10161  toChainID */\n      dup5\n        /* \"RouterConfig.sol\":10111:10170  _setSwapConfig(stringToBytes32(tokenID), toChainID, config) */\n      tag_409\n      calldatasize\n      dup7\n      swap1\n      sub\n      dup7\n      add\n        /* \"RouterConfig.sol\":10163:10169  config */\n      dup7\n        /* \"RouterConfig.sol\":10111:10170  _setSwapConfig(stringToBytes32(tokenID), toChainID, config) */\n      tag_410\n      jump\t// in\n    tag_409:\n        /* \"RouterConfig.sol\":10111:10125  _setSwapConfig */\n      tag_411\n        /* \"RouterConfig.sol\":10111:10170  _setSwapConfig(stringToBytes32(tokenID), toChainID, config) */\n      jump\t// in\n        /* \"RouterConfig.sol\":4782:4896  function getAllChainIDs() external override view returns (uint256[] memory) {\r... */\n    tag_150:\n        /* \"RouterConfig.sol\":4840:4856  uint256[] memory */\n      0x60\n        /* \"RouterConfig.sol\":4876:4888  _allChainIDs */\n      0x00\n        /* \"RouterConfig.sol\":4869:4888  return _allChainIDs */\n      dup1\n      sload\n      dup1\n      0x20\n      mul\n      0x20\n      add\n      mload(0x40)\n      swap1\n      dup2\n      add\n      0x40\n      mstore\n      dup1\n      swap3\n      swap2\n      swap1\n      dup2\n      dup2\n      mstore\n      0x20\n      add\n      dup3\n      dup1\n      sload\n      dup1\n      iszero\n      tag_413\n      jumpi\n      0x20\n      mul\n      dup3\n      add\n      swap2\n      swap1\n      0x00\n      mstore\n      keccak256(0x00, 0x20)\n      swap1\n    tag_414:\n      dup2\n      sload\n      dup2\n      mstore\n      0x20\n      add\n      swap1\n      0x01\n      add\n      swap1\n      dup1\n      dup4\n      gt\n      tag_414\n      jumpi\n    tag_413:\n      pop\n      pop\n      pop\n      pop\n      pop\n      swap1\n      pop\n        /* \"RouterConfig.sol\":4782:4896  function getAllChainIDs() external override view returns (uint256[] memory) {\r... */\n      swap1\n      jump\t// out\n        /* \"RouterConfig.sol\":11314:11582  function addTokenID(string calldata tokenID) external onlyOwner returns (bool) {\r... */\n    tag_155:\n        /* \"RouterConfig.sol\":4356:4361  owner */\n      sload(0x0a)\n        /* \"RouterConfig.sol\":11387:11391  bool */\n      0x00\n      swap1\n      sub(shl(0xa0, 0x01), 0x01)\n        /* \"RouterConfig.sol\":4356:4361  owner */\n      and\n        /* \"RouterConfig.sol\":4342:4352  msg.sender */\n      caller\n        /* \"RouterConfig.sol\":4342:4361  msg.sender == owner */\n      eq\n        /* \"RouterConfig.sol\":4334:4376  require(msg.sender == owner, \"only owner\") */\n      tag_416\n      jumpi\n      mload(0x40)\n      shl(0xe5, 0x461bcd)\n      dup2\n      mstore\n      0x04\n      add\n      tag_184\n      swap1\n      tag_185\n      jump\t// in\n    tag_416:\n        /* \"RouterConfig.sol\":11404:11421  bytes32 bsTokenID */\n      0x00\n        /* \"RouterConfig.sol\":11424:11448  stringToBytes32(tokenID) */\n      tag_419\n        /* \"RouterConfig.sol\":11440:11447  tokenID */\n      dup5\n      dup5\n        /* \"RouterConfig.sol\":11424:11448  stringToBytes32(tokenID) */\n      dup1\n      dup1\n      0x1f\n      add\n      0x20\n      dup1\n      swap2\n      div\n      mul\n      0x20\n      add\n      mload(0x40)\n      swap1\n      dup2\n      add\n      0x40\n      mstore\n      dup1\n      swap4\n      swap3\n      swap2\n      swap1\n      dup2\n      dup2\n      mstore\n      0x20\n      add\n      dup4\n      dup4\n      dup1\n      dup3\n      dup5\n      calldatacopy\n      0x00\n      swap3\n      add\n      swap2\n      swap1\n      swap2\n      mstore\n      pop\n        /* \"RouterConfig.sol\":11424:11439  stringToBytes32 */\n      tag_196\n      swap3\n      pop\n      pop\n      pop\n        /* \"RouterConfig.sol\":11424:11448  stringToBytes32(tokenID) */\n      jump\t// in\n    tag_419:\n        /* \"RouterConfig.sol\":11404:11448  bytes32 bsTokenID = stringToBytes32(tokenID) */\n      swap1\n      pop\n        /* \"RouterConfig.sol\":11468:11494  _isTokenIDExist(bsTokenID) */\n      tag_420\n        /* \"RouterConfig.sol\":11484:11493  bsTokenID */\n      dup2\n        /* \"RouterConfig.sol\":11468:11483  _isTokenIDExist */\n      tag_367\n        /* \"RouterConfig.sol\":11468:11494  _isTokenIDExist(bsTokenID) */\n      jump\t// in\n    tag_420:\n        /* \"RouterConfig.sol\":11467:11494  !_isTokenIDExist(bsTokenID) */\n      iszero\n        /* \"RouterConfig.sol\":11459:11513  require(!_isTokenIDExist(bsTokenID), \"token ID exist\") */\n      tag_421\n      jumpi\n      mload(0x40)\n      shl(0xe5, 0x461bcd)\n      dup2\n      mstore\n        /* \"#utility.yul\":11875:11877   */\n      0x20\n        /* \"RouterConfig.sol\":11459:11513  require(!_isTokenIDExist(bsTokenID), \"token ID exist\") */\n      0x04\n      dup3\n      add\n        /* \"#utility.yul\":11857:11878   */\n      mstore\n        /* \"#utility.yul\":11914:11916   */\n      0x0e\n        /* \"#utility.yul\":11894:11912   */\n      0x24\n      dup3\n      add\n        /* \"#utility.yul\":11887:11917   */\n      mstore\n      shl(0x92, 0x1d1bdad95b88125108195e1a5cdd)\n        /* \"#utility.yul\":11933:11951   */\n      0x44\n      dup3\n      add\n        /* \"#utility.yul\":11926:11970   */\n      mstore\n        /* \"#utility.yul\":11987:12005   */\n      0x64\n      add\n        /* \"RouterConfig.sol\":11459:11513  require(!_isTokenIDExist(bsTokenID), \"token ID exist\") */\n      tag_184\n        /* \"#utility.yul\":11847:12011   */\n      jump\n        /* \"RouterConfig.sol\":11459:11513  require(!_isTokenIDExist(bsTokenID), \"token ID exist\") */\n    tag_421:\n        /* \"RouterConfig.sol\":11524:11536  _allTokenIDs */\n      0x01\n        /* \"RouterConfig.sol\":11524:11552  _allTokenIDs.push(bsTokenID) */\n      dup1\n      sload\n      dup1\n      dup3\n      add\n      dup3\n      sstore\n      0x00\n      dup3\n      swap1\n      mstore\n      0xb10e2d527612073b26eecdfd717e6a320cf44b4afac2b0732d9fcbe2b7fa0cf6\n      add\n      swap2\n      swap1\n      swap2\n      sstore\n        /* \"RouterConfig.sol\":11524:11536  _allTokenIDs */\n      swap4\n        /* \"RouterConfig.sol\":11314:11582  function addTokenID(string calldata tokenID) external onlyOwner returns (bool) {\r... */\n      swap3\n      pop\n      pop\n      pop\n      jump\t// out\n        /* \"RouterConfig.sol\":10186:10427  function setCustomConfig(uint256 chainID, string calldata key, string calldata data) external onlyOwner returns (bool) {\r... */\n    tag_160:\n        /* \"RouterConfig.sol\":4356:4361  owner */\n      sload(0x0a)\n        /* \"RouterConfig.sol\":10299:10303  bool */\n      0x00\n      swap1\n      sub(shl(0xa0, 0x01), 0x01)\n        /* \"RouterConfig.sol\":4356:4361  owner */\n      and\n        /* \"RouterConfig.sol\":4342:4352  msg.sender */\n      caller\n        /* \"RouterConfig.sol\":4342:4361  msg.sender == owner */\n      eq\n        /* \"RouterConfig.sol\":4334:4376  require(msg.sender == owner, \"only owner\") */\n      tag_426\n      jumpi\n      mload(0x40)\n      shl(0xe5, 0x461bcd)\n      dup2\n      mstore\n      0x04\n      add\n      tag_184\n      swap1\n      tag_185\n      jump\t// in\n    tag_426:\n        /* \"RouterConfig.sol\":10334:10335  0 */\n      0x00\n        /* \"RouterConfig.sol\":10324:10331  chainID */\n      dup7\n        /* \"RouterConfig.sol\":10324:10335  chainID > 0 */\n      gt\n        /* \"RouterConfig.sol\":10316:10352  require(chainID > 0, \"zero chainID\") */\n      tag_429\n      jumpi\n      mload(0x40)\n      shl(0xe5, 0x461bcd)\n      dup2\n      mstore\n      0x04\n      add\n      tag_184\n      swap1\n      tag_228\n      jump\t// in\n    tag_429:\n        /* \"RouterConfig.sol\":10393:10397  data */\n      dup3\n      dup3\n        /* \"RouterConfig.sol\":10363:10376  _customConfig */\n      0x07\n        /* \"RouterConfig.sol\":10363:10385  _customConfig[chainID] */\n      0x00\n        /* \"RouterConfig.sol\":10377:10384  chainID */\n      dup10\n        /* \"RouterConfig.sol\":10363:10385  _customConfig[chainID] */\n      dup2\n      mstore\n      0x20\n      add\n      swap1\n      dup2\n      mstore\n      0x20\n      add\n      0x00\n      keccak256\n        /* \"RouterConfig.sol\":10386:10389  key */\n      dup8\n      dup8\n        /* \"RouterConfig.sol\":10363:10390  _customConfig[chainID][key] */\n      mload(0x40)\n      tag_431\n      swap3\n      swap2\n      swap1\n      tag_283\n      jump\t// in\n    tag_431:\n      swap1\n      dup2\n      mstore\n      mload(0x40)\n      swap1\n      dup2\n      swap1\n      sub\n      0x20\n      add\n      swap1\n      keccak256\n        /* \"RouterConfig.sol\":10363:10397  _customConfig[chainID][key] = data */\n      tag_432\n      swap3\n        /* \"RouterConfig.sol\":10363:10390  _customConfig[chainID][key] */\n      swap1\n      swap2\n        /* \"RouterConfig.sol\":10363:10397  _customConfig[chainID][key] = data */\n      tag_248\n      jump\t// in\n    tag_432:\n      pop\n        /* \"RouterConfig.sol\":10415:10419  true */\n      0x01\n      swap7\n        /* \"RouterConfig.sol\":10186:10427  function setCustomConfig(uint256 chainID, string calldata key, string calldata data) external onlyOwner returns (bool) {\r... */\n      swap6\n      pop\n      pop\n      pop\n      pop\n      pop\n      pop\n      jump\t// out\n        /* \"RouterConfig.sol\":10865:11306  function removeChainID(uint256 chainID) external onlyOwner returns (bool) {\r... */\n    tag_164:\n        /* \"RouterConfig.sol\":4356:4361  owner */\n      sload(0x0a)\n        /* \"RouterConfig.sol\":10933:10937  bool */\n      0x00\n      swap1\n      sub(shl(0xa0, 0x01), 0x01)\n        /* \"RouterConfig.sol\":4356:4361  owner */\n      and\n        /* \"RouterConfig.sol\":4342:4352  msg.sender */\n      caller\n        /* \"RouterConfig.sol\":4342:4361  msg.sender == owner */\n      eq\n        /* \"RouterConfig.sol\":4334:4376  require(msg.sender == owner, \"only owner\") */\n      tag_434\n      jumpi\n      mload(0x40)\n      shl(0xe5, 0x461bcd)\n      dup2\n      mstore\n      0x04\n      add\n      tag_184\n      swap1\n      tag_185\n      jump\t// in\n    tag_434:\n        /* \"RouterConfig.sol\":10955:10964  uint256 i */\n      0x00\n        /* \"RouterConfig.sol\":10950:11276  for (uint256 i = 0; i < _allChainIDs.length; ++i) {\r... */\n    tag_437:\n        /* \"RouterConfig.sol\":10974:10986  _allChainIDs */\n      0x00\n        /* \"RouterConfig.sol\":10974:10993  _allChainIDs.length */\n      sload\n        /* \"RouterConfig.sol\":10970:10993  i < _allChainIDs.length */\n      dup2\n      lt\n        /* \"RouterConfig.sol\":10950:11276  for (uint256 i = 0; i < _allChainIDs.length; ++i) {\r... */\n      iszero\n      tag_438\n      jumpi\n        /* \"RouterConfig.sol\":11038:11045  chainID */\n      dup3\n        /* \"RouterConfig.sol\":11019:11031  _allChainIDs */\n      0x00\n        /* \"RouterConfig.sol\":11032:11033  i */\n      dup3\n        /* \"RouterConfig.sol\":11019:11034  _allChainIDs[i] */\n      dup2\n      sload\n      dup2\n      lt\n      tag_441\n      jumpi\n      tag_441\n      tag_259\n      jump\t// in\n    tag_441:\n      swap1\n      0x00\n      mstore\n      keccak256(0x00, 0x20)\n      add\n      sload\n        /* \"RouterConfig.sol\":11019:11045  _allChainIDs[i] == chainID */\n      eq\n        /* \"RouterConfig.sol\":11015:11265  if (_allChainIDs[i] == chainID) {\r... */\n      iszero\n      tag_443\n      jumpi\n        /* \"RouterConfig.sol\":11066:11183  for (; i+1 < _allChainIDs.length; ++i) {\r... */\n    tag_444:\n        /* \"RouterConfig.sol\":11079:11091  _allChainIDs */\n      0x00\n        /* \"RouterConfig.sol\":11079:11098  _allChainIDs.length */\n      sload\n        /* \"RouterConfig.sol\":11073:11076  i+1 */\n      tag_447\n        /* \"RouterConfig.sol\":11073:11074  i */\n      dup3\n        /* \"RouterConfig.sol\":11075:11076  1 */\n      0x01\n        /* \"RouterConfig.sol\":11073:11076  i+1 */\n      tag_266\n      jump\t// in\n    tag_447:\n        /* \"RouterConfig.sol\":11073:11098  i+1 < _allChainIDs.length */\n      lt\n        /* \"RouterConfig.sol\":11066:11183  for (; i+1 < _allChainIDs.length; ++i) {\r... */\n      iszero\n      tag_445\n      jumpi\n        /* \"RouterConfig.sol\":11146:11158  _allChainIDs */\n      0x00\n        /* \"RouterConfig.sol\":11159:11162  i+1 */\n      tag_448\n        /* \"RouterConfig.sol\":11159:11160  i */\n      dup3\n        /* \"RouterConfig.sol\":11161:11162  1 */\n      0x01\n        /* \"RouterConfig.sol\":11159:11162  i+1 */\n      tag_266\n      jump\t// in\n    tag_448:\n        /* \"RouterConfig.sol\":11146:11163  _allChainIDs[i+1] */\n      dup2\n      sload\n      dup2\n      lt\n      tag_450\n      jumpi\n      tag_450\n      tag_259\n      jump\t// in\n    tag_450:\n      swap1\n      0x00\n      mstore\n      keccak256(0x00, 0x20)\n      add\n      sload\n        /* \"RouterConfig.sol\":11128:11140  _allChainIDs */\n      0x00\n        /* \"RouterConfig.sol\":11141:11142  i */\n      dup3\n        /* \"RouterConfig.sol\":11128:11143  _allChainIDs[i] */\n      dup2\n      sload\n      dup2\n      lt\n      tag_453\n      jumpi\n      tag_453\n      tag_259\n      jump\t// in\n    tag_453:\n      0x00\n      swap2\n      dup3\n      mstore\n      0x20\n      swap1\n      swap2\n      keccak256\n      add\n        /* \"RouterConfig.sol\":11128:11163  _allChainIDs[i] = _allChainIDs[i+1] */\n      sstore\n        /* \"RouterConfig.sol\":11100:11103  ++i */\n      tag_455\n      dup2\n      tag_275\n      jump\t// in\n    tag_455:\n      swap1\n      pop\n        /* \"RouterConfig.sol\":11066:11183  for (; i+1 < _allChainIDs.length; ++i) {\r... */\n      jump(tag_444)\n    tag_445:\n        /* \"RouterConfig.sol\":11201:11213  _allChainIDs */\n      0x00\n        /* \"RouterConfig.sol\":11201:11219  _allChainIDs.pop() */\n      dup1\n      sload\n      dup1\n      tag_457\n      jumpi\n      tag_457\n      tag_278\n      jump\t// in\n    tag_457:\n      0x01\n      swap1\n      sub\n      dup2\n      dup2\n      swap1\n      0x00\n      mstore\n      keccak256(0x00, 0x20)\n      add\n      0x00\n      swap1\n      sstore\n      swap1\n      sstore\n        /* \"RouterConfig.sol\":11245:11249  true */\n      0x01\n        /* \"RouterConfig.sol\":11238:11249  return true */\n      swap2\n      pop\n      pop\n        /* \"RouterConfig.sol\":10657:10857  function addChainID(uint256 chainID) external onlyOwner returns (bool) {\r... */\n      swap2\n      swap1\n      pop\n      jump\t// out\n        /* \"RouterConfig.sol\":11015:11265  if (_allChainIDs[i] == chainID) {\r... */\n    tag_443:\n        /* \"RouterConfig.sol\":10995:10998  ++i */\n      tag_459\n      dup2\n      tag_275\n      jump\t// in\n    tag_459:\n      swap1\n      pop\n        /* \"RouterConfig.sol\":10950:11276  for (uint256 i = 0; i < _allChainIDs.length; ++i) {\r... */\n      jump(tag_437)\n    tag_438:\n      pop\n        /* \"RouterConfig.sol\":11293:11298  false */\n      0x00\n      swap3\n        /* \"RouterConfig.sol\":10865:11306  function removeChainID(uint256 chainID) external onlyOwner returns (bool) {\r... */\n      swap2\n      pop\n      pop\n      jump\t// out\n        /* \"RouterConfig.sol\":4619:4774  function transferOwnership(address newOwner) public onlyOwner {\r... */\n    tag_168:\n        /* \"RouterConfig.sol\":4356:4361  owner */\n      and(sub(shl(0xa0, 0x01), 0x01), sload(0x0a))\n        /* \"RouterConfig.sol\":4342:4352  msg.sender */\n      caller\n        /* \"RouterConfig.sol\":4342:4361  msg.sender == owner */\n      eq\n        /* \"RouterConfig.sol\":4334:4376  require(msg.sender == owner, \"only owner\") */\n      tag_461\n      jumpi\n      mload(0x40)\n      shl(0xe5, 0x461bcd)\n      dup2\n      mstore\n      0x04\n      add\n      tag_184\n      swap1\n      tag_185\n      jump\t// in\n    tag_461:\n        /* \"RouterConfig.sol\":4697:4739  OwnershipTransferred(msg.sender, newOwner) */\n      mload(0x40)\n      sub(shl(0xa0, 0x01), 0x01)\n      dup3\n      and\n      swap1\n        /* \"RouterConfig.sol\":4718:4728  msg.sender */\n      caller\n      swap1\n        /* \"RouterConfig.sol\":4697:4739  OwnershipTransferred(msg.sender, newOwner) */\n      0x8be0079c531659141344cd1fd0a4f28419497f9722a3daafe3b4186f6b6457e0\n      swap1\n      0x00\n      swap1\n      log3\n        /* \"RouterConfig.sol\":4750:4755  owner */\n      0x0a\n        /* \"RouterConfig.sol\":4750:4766  owner = newOwner */\n      dup1\n      sload\n      not(sub(shl(0xa0, 0x01), 0x01))\n      and\n      sub(shl(0xa0, 0x01), 0x01)\n      swap3\n      swap1\n      swap3\n      and\n      swap2\n      swap1\n      swap2\n      or\n      swap1\n      sstore\n        /* \"RouterConfig.sol\":4619:4774  function transferOwnership(address newOwner) public onlyOwner {\r... */\n      jump\t// out\n        /* \"RouterConfig.sol\":7098:7370  function isChainIDExist(uint256 chainID) public override view returns (bool) {\r... */\n    tag_171:\n        /* \"RouterConfig.sol\":7169:7173  bool */\n      0x00\n      dup1\n        /* \"RouterConfig.sol\":7186:7340  for (uint256 i = 0; i < _allChainIDs.length; ++i) {\r... */\n    tag_465:\n        /* \"RouterConfig.sol\":7210:7222  _allChainIDs */\n      0x00\n        /* \"RouterConfig.sol\":7210:7229  _allChainIDs.length */\n      sload\n        /* \"RouterConfig.sol\":7206:7229  i < _allChainIDs.length */\n      dup2\n      lt\n        /* \"RouterConfig.sol\":7186:7340  for (uint256 i = 0; i < _allChainIDs.length; ++i) {\r... */\n      iszero\n      tag_438\n      jumpi\n        /* \"RouterConfig.sol\":7274:7281  chainID */\n      dup3\n        /* \"RouterConfig.sol\":7255:7267  _allChainIDs */\n      0x00\n        /* \"RouterConfig.sol\":7268:7269  i */\n      dup3\n        /* \"RouterConfig.sol\":7255:7270  _allChainIDs[i] */\n      dup2\n      sload\n      dup2\n      lt\n      tag_469\n      jumpi\n      tag_469\n      tag_259\n      jump\t// in\n    tag_469:\n      swap1\n      0x00\n      mstore\n      keccak256(0x00, 0x20)\n      add\n      sload\n        /* \"RouterConfig.sol\":7255:7281  _allChainIDs[i] == chainID */\n      eq\n        /* \"RouterConfig.sol\":7251:7329  if (_allChainIDs[i] == chainID) {\r... */\n      iszero\n      tag_471\n      jumpi\n      pop\n        /* \"RouterConfig.sol\":7309:7313  true */\n      0x01\n      swap3\n        /* \"RouterConfig.sol\":7098:7370  function isChainIDExist(uint256 chainID) public override view returns (bool) {\r... */\n      swap2\n      pop\n      pop\n      jump\t// out\n        /* \"RouterConfig.sol\":7251:7329  if (_allChainIDs[i] == chainID) {\r... */\n    tag_471:\n        /* \"RouterConfig.sol\":7231:7234  ++i */\n      tag_472\n      dup2\n      tag_275\n      jump\t// in\n    tag_472:\n      swap1\n      pop\n        /* \"RouterConfig.sol\":7186:7340  for (uint256 i = 0; i < _allChainIDs.length; ++i) {\r... */\n      jump(tag_465)\n        /* \"RouterConfig.sol\":14288:14453  function stringToBytes32(string memory str) internal pure returns (bytes32 result) {\r... */\n    tag_196:\n        /* \"RouterConfig.sol\":14431:14433  32 */\n      0x20\n        /* \"RouterConfig.sol\":14422:14434  add(str, 32) */\n      add\n        /* \"RouterConfig.sol\":14416:14435  mload(add(str, 32)) */\n      mload\n      swap1\n        /* \"RouterConfig.sol\":14288:14453  function stringToBytes32(string memory str) internal pure returns (bytes32 result) {\r... */\n      jump\t// out\n        /* \"RouterConfig.sol\":8249:8878  function _setTokenConfig(bytes32 tokenID, uint256 chainID, TokenConfig memory config, bool isUser) internal checkTokenConfig(config) returns (bool) {\r... */\n    tag_205:\n        /* \"RouterConfig.sol\":2552:2574  config.ContractAddress */\n      0x20\n      dup3\n      add\n      mload\n        /* \"RouterConfig.sol\":8391:8395  bool */\n      0x00\n      swap1\n        /* \"RouterConfig.sol\":8374:8380  config */\n      dup4\n      swap1\n      sub(shl(0xa0, 0x01), 0x01)\n        /* \"RouterConfig.sol\":2552:2588  config.ContractAddress != address(0) */\n      and\n        /* \"RouterConfig.sol\":2544:2589  require(config.ContractAddress != address(0)) */\n      tag_475\n      jumpi\n      0x00\n      dup1\n      revert\n    tag_475:\n        /* \"RouterConfig.sol\":8416:8437  tokenID != bytes32(0) */\n      dup6\n        /* \"RouterConfig.sol\":8408:8455  require(tokenID != bytes32(0), \"empty tokenID\") */\n      tag_477\n      jumpi\n      mload(0x40)\n      shl(0xe5, 0x461bcd)\n      dup2\n      mstore\n      0x04\n      add\n      tag_184\n      swap1\n      tag_479\n      jump\t// in\n    tag_477:\n        /* \"RouterConfig.sol\":8484:8485  0 */\n      0x00\n        /* \"RouterConfig.sol\":8474:8481  chainID */\n      dup6\n        /* \"RouterConfig.sol\":8474:8485  chainID > 0 */\n      gt\n        /* \"RouterConfig.sol\":8466:8502  require(chainID > 0, \"zero chainID\") */\n      tag_480\n      jumpi\n      mload(0x40)\n      shl(0xe5, 0x461bcd)\n      dup2\n      mstore\n      0x04\n      add\n      tag_184\n      swap1\n      tag_228\n      jump\t// in\n    tag_480:\n        /* \"RouterConfig.sol\":8517:8523  isUser */\n      dup3\n        /* \"RouterConfig.sol\":8513:8849  if (isUser) {\r... */\n      iszero\n      tag_482\n      jumpi\n        /* \"RouterConfig.sol\":8540:8565  _userTokenConfig[tokenID] */\n      0x00\n      dup7\n      dup2\n      mstore\n        /* \"RouterConfig.sol\":8540:8556  _userTokenConfig */\n      0x05\n        /* \"RouterConfig.sol\":8540:8565  _userTokenConfig[tokenID] */\n      0x20\n      swap1\n      dup2\n      mstore\n      0x40\n      dup1\n      dup4\n      keccak256\n        /* \"RouterConfig.sol\":8540:8574  _userTokenConfig[tokenID][chainID] */\n      dup9\n      dup5\n      mstore\n      dup3\n      mstore\n      swap2\n      dup3\n      swap1\n      keccak256\n        /* \"RouterConfig.sol\":8540:8583  _userTokenConfig[tokenID][chainID] = config */\n      dup7\n      mload\n      dup2\n      sload\n      swap3\n      dup9\n      add\n      mload\n      sub(shl(0xa0, 0x01), 0x01)\n      and\n      0x0100\n      mul\n      not(sub(shl(0xa8, 0x01), 0x01))\n      swap1\n      swap4\n      and\n      0xff\n      swap1\n      swap2\n      and\n      or\n      swap2\n      swap1\n      swap2\n      or\n      dup2\n      sstore\n      swap1\n      dup6\n      add\n      mload\n      0x01\n      swap1\n      swap2\n      add\n      sstore\n        /* \"RouterConfig.sol\":8513:8849  if (isUser) {\r... */\n      jump(tag_487)\n    tag_482:\n        /* \"RouterConfig.sol\":8616:8637  _tokenConfig[tokenID] */\n      0x00\n      dup7\n      dup2\n      mstore\n        /* \"RouterConfig.sol\":8616:8628  _tokenConfig */\n      0x04\n        /* \"RouterConfig.sol\":8616:8637  _tokenConfig[tokenID] */\n      0x20\n      swap1\n      dup2\n      mstore\n      0x40\n      dup1\n      dup4\n      keccak256\n        /* \"RouterConfig.sol\":8616:8646  _tokenConfig[tokenID][chainID] */\n      dup9\n      dup5\n      mstore\n      dup3\n      mstore\n      swap2\n      dup3\n      swap1\n      keccak256\n        /* \"RouterConfig.sol\":8616:8655  _tokenConfig[tokenID][chainID] = config */\n      dup7\n      mload\n      dup2\n      sload\n      swap3\n      dup9\n      add\n      mload\n      sub(shl(0xa0, 0x01), 0x01)\n      and\n      0x0100\n      mul\n      not(sub(shl(0xa8, 0x01), 0x01))\n      swap1\n      swap4\n      and\n      0xff\n      swap1\n      swap2\n      and\n      or\n      swap2\n      swap1\n      swap2\n      or\n      dup2\n      sstore\n      swap1\n      dup6\n      add\n      mload\n      0x01\n      swap1\n      swap2\n      add\n      sstore\n        /* \"RouterConfig.sol\":8675:8699  _isTokenIDExist(tokenID) */\n      tag_484\n        /* \"RouterConfig.sol\":8629:8636  tokenID */\n      dup7\n        /* \"RouterConfig.sol\":8675:8690  _isTokenIDExist */\n      tag_367\n        /* \"RouterConfig.sol\":8675:8699  _isTokenIDExist(tokenID) */\n      jump\t// in\n    tag_484:\n        /* \"RouterConfig.sol\":8670:8762  if (!_isTokenIDExist(tokenID)) {\r... */\n      tag_485\n      jumpi\n        /* \"RouterConfig.sol\":8720:8732  _allTokenIDs */\n      0x01\n        /* \"RouterConfig.sol\":8720:8746  _allTokenIDs.push(tokenID) */\n      dup1\n      sload\n      dup1\n      dup3\n      add\n      dup3\n      sstore\n      0x00\n      swap2\n      swap1\n      swap2\n      mstore\n      0xb10e2d527612073b26eecdfd717e6a320cf44b4afac2b0732d9fcbe2b7fa0cf6\n      add\n      dup7\n      swap1\n      sstore\n        /* \"RouterConfig.sol\":8670:8762  if (!_isTokenIDExist(tokenID)) {\r... */\n    tag_485:\n        /* \"RouterConfig.sol\":8776:8837  _setMultichainToken(tokenID, chainID, config.ContractAddress) */\n      tag_487\n        /* \"RouterConfig.sol\":8796:8803  tokenID */\n      dup7\n        /* \"RouterConfig.sol\":8805:8812  chainID */\n      dup7\n        /* \"RouterConfig.sol\":8814:8820  config */\n      dup7\n        /* \"RouterConfig.sol\":8814:8836  config.ContractAddress */\n      0x20\n      add\n      mload\n        /* \"RouterConfig.sol\":8776:8795  _setMultichainToken */\n      tag_402\n        /* \"RouterConfig.sol\":8776:8837  _setMultichainToken(tokenID, chainID, config.ContractAddress) */\n      jump\t// in\n    tag_487:\n      pop\n        /* \"RouterConfig.sol\":8866:8870  true */\n      0x01\n      swap6\n        /* \"RouterConfig.sol\":8249:8878  function _setTokenConfig(bytes32 tokenID, uint256 chainID, TokenConfig memory config, bool isUser) internal checkTokenConfig(config) returns (bool) {\r... */\n      swap5\n      pop\n      pop\n      pop\n      pop\n      pop\n      jump\t// out\n        /* \"RouterConfig.sol\":14461:14790  function bytes32ToString(bytes32 data) internal pure returns (string memory) {\r... */\n    tag_302:\n        /* \"RouterConfig.sol\":14523:14536  string memory */\n      0x60\n        /* \"RouterConfig.sol\":14549:14556  uint8 i */\n      0x00\n        /* \"RouterConfig.sol\":14571:14632  while (i < 32 && data[i] != 0) {\r... */\n    tag_489:\n        /* \"RouterConfig.sol\":14582:14584  32 */\n      0x20\n        /* \"RouterConfig.sol\":14578:14579  i */\n      dup2\n        /* \"RouterConfig.sol\":14578:14584  i < 32 */\n      0xff\n      and\n      lt\n        /* \"RouterConfig.sol\":14578:14600  i < 32 && data[i] != 0 */\n      dup1\n      iszero\n      tag_491\n      jumpi\n      pop\n        /* \"RouterConfig.sol\":14588:14592  data */\n      dup3\n        /* \"RouterConfig.sol\":14593:14594  i */\n      dup2\n        /* \"RouterConfig.sol\":14588:14595  data[i] */\n      0xff\n      and\n      0x20\n      dup2\n      lt\n      tag_493\n      jumpi\n      tag_493\n      tag_259\n      jump\t// in\n    tag_493:\n      byte\n      0xf8\n      shl\n      not(sub(shl(0xf8, 0x01), 0x01))\n        /* \"RouterConfig.sol\":14588:14600  data[i] != 0 */\n      and\n      iszero\n      iszero\n        /* \"RouterConfig.sol\":14578:14600  i < 32 && data[i] != 0 */\n    tag_491:\n        /* \"RouterConfig.sol\":14571:14632  while (i < 32 && data[i] != 0) {\r... */\n      iszero\n      tag_490\n      jumpi\n        /* \"RouterConfig.sol\":14617:14620  ++i */\n      tag_494\n      dup2\n      tag_495\n      jump\t// in\n    tag_494:\n      swap1\n      pop\n        /* \"RouterConfig.sol\":14571:14632  while (i < 32 && data[i] != 0) {\r... */\n      jump(tag_489)\n    tag_490:\n        /* \"RouterConfig.sol\":14642:14657  bytes memory bs */\n      0x00\n        /* \"RouterConfig.sol\":14670:14671  i */\n      dup2\n        /* \"RouterConfig.sol\":14660:14672  new bytes(i) */\n      0xff\n      and\n      sub(shl(0x40, 0x01), 0x01)\n      dup2\n      gt\n      iszero\n      tag_497\n      jumpi\n      tag_497\n      tag_292\n      jump\t// in\n    tag_497:\n      mload(0x40)\n      swap1\n      dup1\n      dup3\n      mstore\n      dup1\n      0x1f\n      add\n      not(0x1f)\n      and\n      0x20\n      add\n      dup3\n      add\n      0x40\n      mstore\n      dup1\n      iszero\n      tag_498\n      jumpi\n      0x20\n      dup3\n      add\n      dup2\n      dup1\n      calldatasize\n      dup4\n      calldatacopy\n      add\n      swap1\n      pop\n    tag_498:\n      pop\n        /* \"RouterConfig.sol\":14642:14672  bytes memory bs = new bytes(i) */\n      swap1\n      pop\n        /* \"RouterConfig.sol\":14688:14695  uint8 j */\n      0x00\n        /* \"RouterConfig.sol\":14683:14755  for (uint8 j = 0; j < i; ++j) {\r... */\n    tag_499:\n        /* \"RouterConfig.sol\":14705:14706  i */\n      dup3\n        /* \"RouterConfig.sol\":14701:14706  j < i */\n      0xff\n      and\n        /* \"RouterConfig.sol\":14701:14702  j */\n      dup2\n        /* \"RouterConfig.sol\":14701:14706  j < i */\n      0xff\n      and\n      lt\n        /* \"RouterConfig.sol\":14683:14755  for (uint8 j = 0; j < i; ++j) {\r... */\n      iszero\n      tag_500\n      jumpi\n        /* \"RouterConfig.sol\":14736:14740  data */\n      dup5\n        /* \"RouterConfig.sol\":14741:14742  j */\n      dup2\n        /* \"RouterConfig.sol\":14736:14743  data[j] */\n      0xff\n      and\n      0x20\n      dup2\n      lt\n      tag_503\n      jumpi\n      tag_503\n      tag_259\n      jump\t// in\n    tag_503:\n      byte\n      0xf8\n      shl\n        /* \"RouterConfig.sol\":14728:14730  bs */\n      dup3\n        /* \"RouterConfig.sol\":14731:14732  j */\n      dup3\n        /* \"RouterConfig.sol\":14728:14733  bs[j] */\n      0xff\n      and\n      dup2\n      mload\n      dup2\n      lt\n      tag_505\n      jumpi\n      tag_505\n      tag_259\n      jump\t// in\n    tag_505:\n      0x20\n      add\n      add\n        /* \"RouterConfig.sol\":14728:14743  bs[j] = data[j] */\n      swap1\n      not(sub(shl(0xf8, 0x01), 0x01))\n      and\n      swap1\n      dup2\n      0x00\n      byte\n      swap1\n      mstore8\n      pop\n        /* \"RouterConfig.sol\":14708:14711  ++j */\n      tag_506\n      dup2\n      tag_495\n      jump\t// in\n    tag_506:\n      swap1\n      pop\n        /* \"RouterConfig.sol\":14683:14755  for (uint8 j = 0; j < i; ++j) {\r... */\n      jump(tag_499)\n    tag_500:\n      pop\n        /* \"RouterConfig.sol\":14779:14781  bs */\n      swap4\n        /* \"RouterConfig.sol\":14461:14790  function bytes32ToString(bytes32 data) internal pure returns (string memory) {\r... */\n      swap3\n      pop\n      pop\n      pop\n      jump\t// out\n        /* \"RouterConfig.sol\":7378:7644  function _isTokenIDExist(bytes32 tokenID) internal view returns (bool) {\r... */\n    tag_367:\n        /* \"RouterConfig.sol\":7443:7447  bool */\n      0x00\n      dup1\n        /* \"RouterConfig.sol\":7460:7614  for (uint256 i = 0; i < _allTokenIDs.length; ++i) {\r... */\n    tag_508:\n        /* \"RouterConfig.sol\":7484:7496  _allTokenIDs */\n      0x01\n        /* \"RouterConfig.sol\":7484:7503  _allTokenIDs.length */\n      sload\n        /* \"RouterConfig.sol\":7480:7503  i < _allTokenIDs.length */\n      dup2\n      lt\n        /* \"RouterConfig.sol\":7460:7614  for (uint256 i = 0; i < _allTokenIDs.length; ++i) {\r... */\n      iszero\n      tag_438\n      jumpi\n        /* \"RouterConfig.sol\":7548:7555  tokenID */\n      dup3\n        /* \"RouterConfig.sol\":7529:7541  _allTokenIDs */\n      0x01\n        /* \"RouterConfig.sol\":7542:7543  i */\n      dup3\n        /* \"RouterConfig.sol\":7529:7544  _allTokenIDs[i] */\n      dup2\n      sload\n      dup2\n      lt\n      tag_512\n      jumpi\n      tag_512\n      tag_259\n      jump\t// in\n    tag_512:\n      swap1\n      0x00\n      mstore\n      keccak256(0x00, 0x20)\n      add\n      sload\n        /* \"RouterConfig.sol\":7529:7555  _allTokenIDs[i] == tokenID */\n      eq\n        /* \"RouterConfig.sol\":7525:7603  if (_allTokenIDs[i] == tokenID) {\r... */\n      iszero\n      tag_514\n      jumpi\n      pop\n        /* \"RouterConfig.sol\":7583:7587  true */\n      0x01\n      swap3\n        /* \"RouterConfig.sol\":7378:7644  function _isTokenIDExist(bytes32 tokenID) internal view returns (bool) {\r... */\n      swap2\n      pop\n      pop\n      jump\t// out\n        /* \"RouterConfig.sol\":7525:7603  if (_allTokenIDs[i] == tokenID) {\r... */\n    tag_514:\n        /* \"RouterConfig.sol\":7505:7508  ++i */\n      tag_515\n      dup2\n      tag_275\n      jump\t// in\n    tag_515:\n      swap1\n      pop\n        /* \"RouterConfig.sol\":7460:7614  for (uint256 i = 0; i < _allTokenIDs.length; ++i) {\r... */\n      jump(tag_508)\n        /* \"RouterConfig.sol\":12104:12955  function _setMultichainToken(bytes32 tokenID, uint256 chainID, address token) internal {\r... */\n    tag_402:\n        /* \"RouterConfig.sol\":12210:12231  tokenID != bytes32(0) */\n      dup3\n        /* \"RouterConfig.sol\":12202:12249  require(tokenID != bytes32(0), \"empty tokenID\") */\n      tag_517\n      jumpi\n      mload(0x40)\n      shl(0xe5, 0x461bcd)\n      dup2\n      mstore\n      0x04\n      add\n      tag_184\n      swap1\n      tag_479\n      jump\t// in\n    tag_517:\n        /* \"RouterConfig.sol\":12278:12279  0 */\n      0x00\n        /* \"RouterConfig.sol\":12268:12275  chainID */\n      dup3\n        /* \"RouterConfig.sol\":12268:12279  chainID > 0 */\n      gt\n        /* \"RouterConfig.sol\":12260:12296  require(chainID > 0, \"zero chainID\") */\n      tag_519\n      jumpi\n      mload(0x40)\n      shl(0xe5, 0x461bcd)\n      dup2\n      mstore\n      0x04\n      add\n      tag_184\n      swap1\n      tag_228\n      jump\t// in\n    tag_519:\n        /* \"RouterConfig.sol\":12307:12342  MultichainToken[] storage _mcTokens */\n      0x00\n        /* \"RouterConfig.sol\":12345:12374  _allMultichainTokens[tokenID] */\n      dup4\n      dup2\n      mstore\n        /* \"RouterConfig.sol\":12345:12365  _allMultichainTokens */\n      0x02\n        /* \"RouterConfig.sol\":12345:12374  _allMultichainTokens[tokenID] */\n      0x20\n      mstore\n      0x40\n      dup2\n      keccak256\n      swap1\n        /* \"RouterConfig.sol\":12385:12842  for (uint256 i = 0; i < _mcTokens.length; ++i) {\r... */\n    tag_521:\n        /* \"RouterConfig.sol\":12409:12425  _mcTokens.length */\n      dup2\n      sload\n        /* \"RouterConfig.sol\":12405:12425  i < _mcTokens.length */\n      dup2\n      lt\n        /* \"RouterConfig.sol\":12385:12842  for (uint256 i = 0; i < _mcTokens.length; ++i) {\r... */\n      iszero\n      tag_522\n      jumpi\n        /* \"RouterConfig.sol\":12475:12482  chainID */\n      dup4\n        /* \"RouterConfig.sol\":12451:12460  _mcTokens */\n      dup3\n        /* \"RouterConfig.sol\":12461:12462  i */\n      dup3\n        /* \"RouterConfig.sol\":12451:12463  _mcTokens[i] */\n      dup2\n      sload\n      dup2\n      lt\n      tag_525\n      jumpi\n      tag_525\n      tag_259\n      jump\t// in\n    tag_525:\n      swap1\n      0x00\n      mstore\n      keccak256(0x00, 0x20)\n      swap1\n      0x02\n      mul\n      add\n        /* \"RouterConfig.sol\":12451:12471  _mcTokens[i].ChainID */\n      0x00\n      add\n      sload\n        /* \"RouterConfig.sol\":12451:12482  _mcTokens[i].ChainID == chainID */\n      eq\n        /* \"RouterConfig.sol\":12447:12831  if (_mcTokens[i].ChainID == chainID) {\r... */\n      iszero\n      tag_527\n      jumpi\n        /* \"RouterConfig.sol\":12503:12519  address oldToken */\n      0x00\n        /* \"RouterConfig.sol\":12522:12531  _mcTokens */\n      dup3\n        /* \"RouterConfig.sol\":12532:12533  i */\n      dup3\n        /* \"RouterConfig.sol\":12522:12534  _mcTokens[i] */\n      dup2\n      sload\n      dup2\n      lt\n      tag_529\n      jumpi\n      tag_529\n      tag_259\n      jump\t// in\n    tag_529:\n      0x00\n      swap2\n      dup3\n      mstore\n      0x20\n      swap1\n      swap2\n      keccak256\n        /* \"RouterConfig.sol\":12522:12547  _mcTokens[i].TokenAddress */\n      0x01\n        /* \"RouterConfig.sol\":12522:12534  _mcTokens[i] */\n      0x02\n      swap1\n      swap3\n      mul\n      add\n        /* \"RouterConfig.sol\":12522:12547  _mcTokens[i].TokenAddress */\n      add\n      sload\n      sub(shl(0xa0, 0x01), 0x01)\n      swap1\n      dup2\n      and\n      swap2\n      pop\n        /* \"RouterConfig.sol\":12570:12587  token != oldToken */\n      dup5\n      and\n      dup2\n      eq\n        /* \"RouterConfig.sol\":12566:12791  if (token != oldToken) {\r... */\n      tag_531\n      jumpi\n        /* \"RouterConfig.sol\":12640:12645  token */\n      dup4\n        /* \"RouterConfig.sol\":12612:12621  _mcTokens */\n      dup4\n        /* \"RouterConfig.sol\":12622:12623  i */\n      dup4\n        /* \"RouterConfig.sol\":12612:12624  _mcTokens[i] */\n      dup2\n      sload\n      dup2\n      lt\n      tag_533\n      jumpi\n      tag_533\n      tag_259\n      jump\t// in\n    tag_533:\n      0x00\n      swap2\n      dup3\n      mstore\n      0x20\n      dup1\n      dup4\n      keccak256\n      0x02\n      swap3\n      swap1\n      swap3\n      mul\n      swap1\n      swap2\n      add\n        /* \"RouterConfig.sol\":12612:12637  _mcTokens[i].TokenAddress */\n      0x01\n      add\n        /* \"RouterConfig.sol\":12612:12645  _mcTokens[i].TokenAddress = token */\n      dup1\n      sload\n      not(sub(shl(0xa0, 0x01), 0x01))\n      and\n      sub(shl(0xa0, 0x01), 0x01)\n      swap5\n      dup6\n      and\n      or\n      swap1\n      sstore\n        /* \"RouterConfig.sol\":12668:12688  _tokenIDMap[chainID] */\n      dup8\n      dup3\n      mstore\n        /* \"RouterConfig.sol\":12668:12679  _tokenIDMap */\n      0x08\n        /* \"RouterConfig.sol\":12668:12688  _tokenIDMap[chainID] */\n      dup2\n      mstore\n      0x40\n      dup1\n      dup4\n      keccak256\n        /* \"RouterConfig.sol\":12668:12698  _tokenIDMap[chainID][oldToken] */\n      dup6\n      dup6\n      and\n      dup5\n      mstore\n      swap1\n      swap2\n      mstore\n      dup1\n      dup3\n      keccak256\n        /* \"RouterConfig.sol\":12668:12711  _tokenIDMap[chainID][oldToken] = bytes32(0) */\n      dup3\n      swap1\n      sstore\n        /* \"RouterConfig.sol\":12734:12761  _tokenIDMap[chainID][token] */\n      swap2\n      dup7\n      and\n      dup2\n      mstore\n      keccak256\n        /* \"RouterConfig.sol\":12734:12771  _tokenIDMap[chainID][token] = tokenID */\n      dup7\n      swap1\n      sstore\n        /* \"RouterConfig.sol\":12566:12791  if (token != oldToken) {\r... */\n    tag_531:\n        /* \"RouterConfig.sol\":12809:12816  return; */\n      pop\n      pop\n      pop\n        /* \"RouterConfig.sol\":12104:12955  function _setMultichainToken(bytes32 tokenID, uint256 chainID, address token) internal {\r... */\n      pop\n      pop\n      pop\n      jump\t// out\n        /* \"RouterConfig.sol\":12447:12831  if (_mcTokens[i].ChainID == chainID) {\r... */\n    tag_527:\n        /* \"RouterConfig.sol\":12427:12430  ++i */\n      tag_535\n      dup2\n      tag_275\n      jump\t// in\n    tag_535:\n      swap1\n      pop\n        /* \"RouterConfig.sol\":12385:12842  for (uint256 i = 0; i < _mcTokens.length; ++i) {\r... */\n      jump(tag_521)\n    tag_522:\n      pop\n        /* \"RouterConfig.sol\":12867:12898  MultichainToken(chainID, token) */\n      0x40\n      dup1\n      mload\n      dup1\n      dup3\n      add\n      dup3\n      mstore\n      dup5\n      dup2\n      mstore\n      sub(shl(0xa0, 0x01), 0x01)\n      swap4\n      dup5\n      and\n      0x20\n      dup1\n      dup4\n      add\n      dup3\n      dup2\n      mstore\n        /* \"RouterConfig.sol\":12852:12899  _mcTokens.push(MultichainToken(chainID, token)) */\n      dup6\n      sload\n      0x01\n      dup1\n      dup3\n      add\n      dup9\n      sstore\n      0x00\n      swap8\n      dup9\n      mstore\n      dup4\n      dup9\n      keccak256\n      swap6\n      mload\n      0x02\n      swap1\n      swap3\n      mul\n      swap1\n      swap6\n      add\n      swap1\n      dup2\n      sstore\n      swap1\n      mload\n      swap4\n      add\n      dup1\n      sload\n      not(sub(shl(0xa0, 0x01), 0x01))\n      and\n      swap4\n      swap1\n      swap7\n      and\n      swap3\n      swap1\n      swap3\n      or\n      swap1\n      swap5\n      sstore\n        /* \"RouterConfig.sol\":12910:12930  _tokenIDMap[chainID] */\n      swap4\n      dup3\n      mstore\n        /* \"RouterConfig.sol\":12910:12921  _tokenIDMap */\n      0x08\n        /* \"RouterConfig.sol\":12910:12930  _tokenIDMap[chainID] */\n      dup5\n      mstore\n      dup1\n      dup3\n      keccak256\n        /* \"RouterConfig.sol\":12910:12937  _tokenIDMap[chainID][token] */\n      swap3\n      dup3\n      mstore\n      swap2\n      swap1\n      swap3\n      mstore\n      swap1\n      keccak256\n        /* \"RouterConfig.sol\":12910:12947  _tokenIDMap[chainID][token] = tokenID */\n      sstore\n        /* \"RouterConfig.sol\":12104:12955  function _setMultichainToken(bytes32 tokenID, uint256 chainID, address token) internal {\r... */\n      jump\t// out\n        /* \"RouterConfig.sol\":8886:9208  function _setSwapConfig(bytes32 tokenID, uint256 toChainID, SwapConfig memory config) internal checkSwapConfig(config) returns (bool) {\r... */\n    tag_411:\n        /* \"RouterConfig.sol\":9014:9018  bool */\n      0x00\n        /* \"RouterConfig.sol\":8997:9003  config */\n      dup2\n        /* \"RouterConfig.sol\":2708:2709  0 */\n      0x00\n        /* \"RouterConfig.sol\":2687:2693  config */\n      dup2\n        /* \"RouterConfig.sol\":2687:2705  config.MaximumSwap */\n      0x00\n      add\n      mload\n        /* \"RouterConfig.sol\":2687:2709  config.MaximumSwap > 0 */\n      gt\n        /* \"RouterConfig.sol\":2679:2730  require(config.MaximumSwap > 0, \"zero MaximumSwap\") */\n      tag_538\n      jumpi\n      mload(0x40)\n      shl(0xe5, 0x461bcd)\n      dup2\n      mstore\n        /* \"#utility.yul\":12218:12220   */\n      0x20\n        /* \"RouterConfig.sol\":2679:2730  require(config.MaximumSwap > 0, \"zero MaximumSwap\") */\n      0x04\n      dup3\n      add\n        /* \"#utility.yul\":12200:12221   */\n      mstore\n        /* \"#utility.yul\":12257:12259   */\n      0x10\n        /* \"#utility.yul\":12237:12255   */\n      0x24\n      dup3\n      add\n        /* \"#utility.yul\":12230:12260   */\n      mstore\n      shl(0x84, 0x07a65726f204d6178696d756d5377617)\n        /* \"#utility.yul\":12276:12294   */\n      0x44\n      dup3\n      add\n        /* \"#utility.yul\":12269:12315   */\n      mstore\n        /* \"#utility.yul\":12332:12350   */\n      0x64\n      add\n        /* \"RouterConfig.sol\":2679:2730  require(config.MaximumSwap > 0, \"zero MaximumSwap\") */\n      tag_184\n        /* \"#utility.yul\":12190:12356   */\n      jump\n        /* \"RouterConfig.sol\":2679:2730  require(config.MaximumSwap > 0, \"zero MaximumSwap\") */\n    tag_538:\n        /* \"RouterConfig.sol\":2770:2771  0 */\n      0x00\n        /* \"RouterConfig.sol\":2749:2755  config */\n      dup2\n        /* \"RouterConfig.sol\":2749:2767  config.MinimumSwap */\n      0x20\n      add\n      mload\n        /* \"RouterConfig.sol\":2749:2771  config.MinimumSwap > 0 */\n      gt\n        /* \"RouterConfig.sol\":2741:2792  require(config.MinimumSwap > 0, \"zero MinimumSwap\") */\n      tag_541\n      jumpi\n      mload(0x40)\n      shl(0xe5, 0x461bcd)\n      dup2\n      mstore\n        /* \"#utility.yul\":16407:16409   */\n      0x20\n        /* \"RouterConfig.sol\":2741:2792  require(config.MinimumSwap > 0, \"zero MinimumSwap\") */\n      0x04\n      dup3\n      add\n        /* \"#utility.yul\":16389:16410   */\n      mstore\n        /* \"#utility.yul\":16446:16448   */\n      0x10\n        /* \"#utility.yul\":16426:16444   */\n      0x24\n      dup3\n      add\n        /* \"#utility.yul\":16419:16449   */\n      mstore\n      shl(0x84, 0x07a65726f204d696e696d756d5377617)\n        /* \"#utility.yul\":16465:16483   */\n      0x44\n      dup3\n      add\n        /* \"#utility.yul\":16458:16504   */\n      mstore\n        /* \"#utility.yul\":16521:16539   */\n      0x64\n      add\n        /* \"RouterConfig.sol\":2741:2792  require(config.MinimumSwap > 0, \"zero MinimumSwap\") */\n      tag_184\n        /* \"#utility.yul\":16379:16545   */\n      jump\n        /* \"RouterConfig.sol\":2741:2792  require(config.MinimumSwap > 0, \"zero MinimumSwap\") */\n    tag_541:\n        /* \"RouterConfig.sol\":2838:2839  0 */\n      0x00\n        /* \"RouterConfig.sol\":2811:2817  config */\n      dup2\n        /* \"RouterConfig.sol\":2811:2835  config.BigValueThreshold */\n      0x40\n      add\n      mload\n        /* \"RouterConfig.sol\":2811:2839  config.BigValueThreshold > 0 */\n      gt\n        /* \"RouterConfig.sol\":2803:2866  require(config.BigValueThreshold > 0, \"zero BigValueThreshold\") */\n      tag_544\n      jumpi\n      mload(0x40)\n      shl(0xe5, 0x461bcd)\n      dup2\n      mstore\n        /* \"#utility.yul\":17101:17103   */\n      0x20\n        /* \"RouterConfig.sol\":2803:2866  require(config.BigValueThreshold > 0, \"zero BigValueThreshold\") */\n      0x04\n      dup3\n      add\n        /* \"#utility.yul\":17083:17104   */\n      mstore\n        /* \"#utility.yul\":17140:17142   */\n      0x16\n        /* \"#utility.yul\":17120:17138   */\n      0x24\n      dup3\n      add\n        /* \"#utility.yul\":17113:17143   */\n      mstore\n      shl(0x52, 0x1e995c9bc8109a59d5985b1d59551a1c995cda1bdb19)\n        /* \"#utility.yul\":17159:17177   */\n      0x44\n      dup3\n      add\n        /* \"#utility.yul\":17152:17204   */\n      mstore\n        /* \"#utility.yul\":17221:17239   */\n      0x64\n      add\n        /* \"RouterConfig.sol\":2803:2866  require(config.BigValueThreshold > 0, \"zero BigValueThreshold\") */\n      tag_184\n        /* \"#utility.yul\":17073:17245   */\n      jump\n        /* \"RouterConfig.sol\":2803:2866  require(config.BigValueThreshold > 0, \"zero BigValueThreshold\") */\n    tag_544:\n        /* \"RouterConfig.sol\":2907:2925  config.MinimumSwap */\n      0x20\n      dup2\n      add\n      mload\n        /* \"RouterConfig.sol\":2885:2903  config.MaximumSwap */\n      dup2\n      mload\n        /* \"RouterConfig.sol\":2885:2925  config.MaximumSwap >= config.MinimumSwap */\n      lt\n      iszero\n        /* \"RouterConfig.sol\":2877:2955  require(config.MaximumSwap >= config.MinimumSwap, \"MaximumSwap < MinimumSwap\") */\n      tag_547\n      jumpi\n      mload(0x40)\n      shl(0xe5, 0x461bcd)\n      dup2\n      mstore\n        /* \"#utility.yul\":14667:14669   */\n      0x20\n        /* \"RouterConfig.sol\":2877:2955  require(config.MaximumSwap >= config.MinimumSwap, \"MaximumSwap < MinimumSwap\") */\n      0x04\n      dup3\n      add\n        /* \"#utility.yul\":14649:14670   */\n      mstore\n        /* \"#utility.yul\":14706:14708   */\n      0x19\n        /* \"#utility.yul\":14686:14704   */\n      0x24\n      dup3\n      add\n        /* \"#utility.yul\":14679:14709   */\n      mstore\n        /* \"#utility.yul\":14745:14772   */\n      0x4d6178696d756d53776170203c204d696e696d756d5377617000000000000000\n        /* \"#utility.yul\":14725:14743   */\n      0x44\n      dup3\n      add\n        /* \"#utility.yul\":14718:14773   */\n      mstore\n        /* \"#utility.yul\":14790:14808   */\n      0x64\n      add\n        /* \"RouterConfig.sol\":2877:2955  require(config.MaximumSwap >= config.MinimumSwap, \"MaximumSwap < MinimumSwap\") */\n      tag_184\n        /* \"#utility.yul\":14639:14814   */\n      jump\n        /* \"RouterConfig.sol\":2877:2955  require(config.MaximumSwap >= config.MinimumSwap, \"MaximumSwap < MinimumSwap\") */\n    tag_547:\n        /* \"RouterConfig.sol\":2999:3005  config */\n      dup1\n        /* \"RouterConfig.sol\":2999:3020  config.MinimumSwapFee */\n      0xa0\n      add\n      mload\n        /* \"RouterConfig.sol\":2974:2980  config */\n      dup2\n        /* \"RouterConfig.sol\":2974:2995  config.MaximumSwapFee */\n      0x80\n      add\n      mload\n        /* \"RouterConfig.sol\":2974:3020  config.MaximumSwapFee >= config.MinimumSwapFee */\n      lt\n      iszero\n        /* \"RouterConfig.sol\":2966:3056  require(config.MaximumSwapFee >= config.MinimumSwapFee, \"MaximumSwapFee < MinimumSwapFee\") */\n      tag_550\n      jumpi\n      mload(0x40)\n      shl(0xe5, 0x461bcd)\n      dup2\n      mstore\n        /* \"#utility.yul\":13966:13968   */\n      0x20\n        /* \"RouterConfig.sol\":2966:3056  require(config.MaximumSwapFee >= config.MinimumSwapFee, \"MaximumSwapFee < MinimumSwapFee\") */\n      0x04\n      dup3\n      add\n        /* \"#utility.yul\":13948:13969   */\n      mstore\n        /* \"#utility.yul\":14005:14007   */\n      0x1f\n        /* \"#utility.yul\":13985:14003   */\n      0x24\n      dup3\n      add\n        /* \"#utility.yul\":13978:14008   */\n      mstore\n        /* \"#utility.yul\":14044:14077   */\n      0x4d6178696d756d53776170466565203c204d696e696d756d5377617046656500\n        /* \"#utility.yul\":14024:14042   */\n      0x44\n      dup3\n      add\n        /* \"#utility.yul\":14017:14078   */\n      mstore\n        /* \"#utility.yul\":14095:14113   */\n      0x64\n      add\n        /* \"RouterConfig.sol\":2966:3056  require(config.MaximumSwapFee >= config.MinimumSwapFee, \"MaximumSwapFee < MinimumSwapFee\") */\n      tag_184\n        /* \"#utility.yul\":13938:14119   */\n      jump\n        /* \"RouterConfig.sol\":2966:3056  require(config.MaximumSwapFee >= config.MinimumSwapFee, \"MaximumSwapFee < MinimumSwapFee\") */\n    tag_550:\n        /* \"RouterConfig.sol\":3097:3103  config */\n      dup1\n        /* \"RouterConfig.sol\":3097:3118  config.MinimumSwapFee */\n      0xa0\n      add\n      mload\n        /* \"RouterConfig.sol\":3075:3081  config */\n      dup2\n        /* \"RouterConfig.sol\":3075:3093  config.MinimumSwap */\n      0x20\n      add\n      mload\n        /* \"RouterConfig.sol\":3075:3118  config.MinimumSwap >= config.MinimumSwapFee */\n      lt\n      iszero\n        /* \"RouterConfig.sol\":3067:3151  require(config.MinimumSwap >= config.MinimumSwapFee, \"MinimumSwap < MinimumSwapFee\") */\n      tag_553\n      jumpi\n      mload(0x40)\n      shl(0xe5, 0x461bcd)\n      dup2\n      mstore\n        /* \"#utility.yul\":13609:13611   */\n      0x20\n        /* \"RouterConfig.sol\":3067:3151  require(config.MinimumSwap >= config.MinimumSwapFee, \"MinimumSwap < MinimumSwapFee\") */\n      0x04\n      dup3\n      add\n        /* \"#utility.yul\":13591:13612   */\n      mstore\n        /* \"#utility.yul\":13648:13650   */\n      0x1c\n        /* \"#utility.yul\":13628:13646   */\n      0x24\n      dup3\n      add\n        /* \"#utility.yul\":13621:13651   */\n      mstore\n        /* \"#utility.yul\":13687:13717   */\n      0x4d696e696d756d53776170203c204d696e696d756d5377617046656500000000\n        /* \"#utility.yul\":13667:13685   */\n      0x44\n      dup3\n      add\n        /* \"#utility.yul\":13660:13718   */\n      mstore\n        /* \"#utility.yul\":13735:13753   */\n      0x64\n      add\n        /* \"RouterConfig.sol\":3067:3151  require(config.MinimumSwap >= config.MinimumSwapFee, \"MinimumSwap < MinimumSwapFee\") */\n      tag_184\n        /* \"#utility.yul\":13581:13759   */\n      jump\n        /* \"RouterConfig.sol\":3067:3151  require(config.MinimumSwap >= config.MinimumSwapFee, \"MinimumSwap < MinimumSwapFee\") */\n    tag_553:\n        /* \"RouterConfig.sol\":3201:3208  1000000 */\n      0x0f4240\n        /* \"RouterConfig.sol\":3170:3176  config */\n      dup2\n        /* \"RouterConfig.sol\":3170:3198  config.SwapFeeRatePerMillion */\n      0x60\n      add\n      mload\n        /* \"RouterConfig.sol\":3170:3208  config.SwapFeeRatePerMillion < 1000000 */\n      lt\n        /* \"RouterConfig.sol\":3162:3245  require(config.SwapFeeRatePerMillion < 1000000, \"SwapFeeRatePerMillion >= 1000000\") */\n      tag_556\n      jumpi\n      mload(0x40)\n      shl(0xe5, 0x461bcd)\n      dup2\n      mstore\n        /* \"#utility.yul\":13248:13250   */\n      0x20\n        /* \"RouterConfig.sol\":3162:3245  require(config.SwapFeeRatePerMillion < 1000000, \"SwapFeeRatePerMillion >= 1000000\") */\n      0x04\n      dup3\n      add\n        /* \"#utility.yul\":13230:13251   */\n      dup2\n      swap1\n      mstore\n        /* \"#utility.yul\":13267:13285   */\n      0x24\n      dup3\n      add\n        /* \"#utility.yul\":13260:13290   */\n      mstore\n        /* \"#utility.yul\":13326:13360   */\n      0x53776170466565526174655065724d696c6c696f6e203e3d2031303030303030\n        /* \"#utility.yul\":13306:13324   */\n      0x44\n      dup3\n      add\n        /* \"#utility.yul\":13299:13361   */\n      mstore\n        /* \"#utility.yul\":13378:13396   */\n      0x64\n      add\n        /* \"RouterConfig.sol\":3162:3245  require(config.SwapFeeRatePerMillion < 1000000, \"SwapFeeRatePerMillion >= 1000000\") */\n      tag_184\n        /* \"#utility.yul\":13220:13402   */\n      jump\n        /* \"RouterConfig.sol\":3162:3245  require(config.SwapFeeRatePerMillion < 1000000, \"SwapFeeRatePerMillion >= 1000000\") */\n    tag_556:\n        /* \"RouterConfig.sol\":3295:3296  0 */\n      0x00\n        /* \"RouterConfig.sol\":3264:3270  config */\n      dup2\n        /* \"RouterConfig.sol\":3264:3292  config.SwapFeeRatePerMillion */\n      0x60\n      add\n      mload\n        /* \"RouterConfig.sol\":3264:3296  config.SwapFeeRatePerMillion > 0 */\n      gt\n        /* \"RouterConfig.sol\":3264:3326  config.SwapFeeRatePerMillion > 0 || config.MinimumSwapFee == 0 */\n      dup1\n      tag_559\n      jumpi\n      pop\n        /* \"RouterConfig.sol\":3300:3321  config.MinimumSwapFee */\n      0xa0\n      dup2\n      add\n      mload\n        /* \"RouterConfig.sol\":3300:3326  config.MinimumSwapFee == 0 */\n      iszero\n        /* \"RouterConfig.sol\":3264:3326  config.SwapFeeRatePerMillion > 0 || config.MinimumSwapFee == 0 */\n    tag_559:\n        /* \"RouterConfig.sol\":3256:3351  require(config.SwapFeeRatePerMillion > 0 || config.MinimumSwapFee == 0, \"wrong MinimumSwapFee\") */\n      tag_560\n      jumpi\n      mload(0x40)\n      shl(0xe5, 0x461bcd)\n      dup2\n      mstore\n        /* \"#utility.yul\":16058:16060   */\n      0x20\n        /* \"RouterConfig.sol\":3256:3351  require(config.SwapFeeRatePerMillion > 0 || config.MinimumSwapFee == 0, \"wrong MinimumSwapFee\") */\n      0x04\n      dup3\n      add\n        /* \"#utility.yul\":16040:16061   */\n      mstore\n        /* \"#utility.yul\":16097:16099   */\n      0x14\n        /* \"#utility.yul\":16077:16095   */\n      0x24\n      dup3\n      add\n        /* \"#utility.yul\":16070:16100   */\n      mstore\n      shl(0x60, 0x77726f6e67204d696e696d756d53776170466565)\n        /* \"#utility.yul\":16116:16134   */\n      0x44\n      dup3\n      add\n        /* \"#utility.yul\":16109:16159   */\n      mstore\n        /* \"#utility.yul\":16176:16194   */\n      0x64\n      add\n        /* \"RouterConfig.sol\":3256:3351  require(config.SwapFeeRatePerMillion > 0 || config.MinimumSwapFee == 0, \"wrong MinimumSwapFee\") */\n      tag_184\n        /* \"#utility.yul\":16030:16200   */\n      jump\n        /* \"RouterConfig.sol\":3256:3351  require(config.SwapFeeRatePerMillion > 0 || config.MinimumSwapFee == 0, \"wrong MinimumSwapFee\") */\n    tag_560:\n        /* \"RouterConfig.sol\":9039:9060  tokenID != bytes32(0) */\n      dup5\n        /* \"RouterConfig.sol\":9031:9078  require(tokenID != bytes32(0), \"empty tokenID\") */\n      tag_564\n      jumpi\n      mload(0x40)\n      shl(0xe5, 0x461bcd)\n      dup2\n      mstore\n      0x04\n      add\n      tag_184\n      swap1\n      tag_479\n      jump\t// in\n    tag_564:\n        /* \"RouterConfig.sol\":9109:9110  0 */\n      0x00\n        /* \"RouterConfig.sol\":9097:9106  toChainID */\n      dup5\n        /* \"RouterConfig.sol\":9097:9110  toChainID > 0 */\n      gt\n        /* \"RouterConfig.sol\":9089:9127  require(toChainID > 0, \"zero chainID\") */\n      tag_566\n      jumpi\n      mload(0x40)\n      shl(0xe5, 0x461bcd)\n      dup2\n      mstore\n      0x04\n      add\n      tag_184\n      swap1\n      tag_228\n      jump\t// in\n    tag_566:\n      pop\n      pop\n        /* \"RouterConfig.sol\":9138:9158  _swapConfig[tokenID] */\n      0x00\n      swap3\n      dup4\n      mstore\n        /* \"RouterConfig.sol\":9138:9149  _swapConfig */\n      0x06\n        /* \"RouterConfig.sol\":9138:9158  _swapConfig[tokenID] */\n      0x20\n      swap1\n      dup2\n      mstore\n      0x40\n      dup1\n      dup6\n      keccak256\n        /* \"RouterConfig.sol\":9138:9169  _swapConfig[tokenID][toChainID] */\n      swap4\n      dup6\n      mstore\n      swap3\n      dup2\n      mstore\n      swap3\n      dup3\n      swap1\n      keccak256\n        /* \"RouterConfig.sol\":9138:9178  _swapConfig[tokenID][toChainID] = config */\n      dup2\n      mload\n      dup2\n      sstore\n      swap3\n      dup2\n      add\n      mload\n      0x01\n      dup1\n      dup6\n      add\n      swap2\n      swap1\n      swap2\n      sstore\n      swap2\n      dup2\n      add\n      mload\n      0x02\n      dup5\n      add\n      sstore\n      0x60\n      dup2\n      add\n      mload\n      0x03\n      dup5\n      add\n      sstore\n      0x80\n      dup2\n      add\n      mload\n      0x04\n      dup5\n      add\n      sstore\n      0xa0\n      add\n      mload\n      0x05\n      swap1\n      swap3\n      add\n      swap2\n      swap1\n      swap2\n      sstore\n      swap1\n        /* \"RouterConfig.sol\":8886:9208  function _setSwapConfig(bytes32 tokenID, uint256 toChainID, SwapConfig memory config) internal checkSwapConfig(config) returns (bool) {\r... */\n      jump\t// out\n    tag_248:\n      dup3\n      dup1\n      sload\n      tag_568\n      swap1\n      tag_177\n      jump\t// in\n    tag_568:\n      swap1\n      0x00\n      mstore\n      keccak256(0x00, 0x20)\n      swap1\n      0x1f\n      add\n      0x20\n      swap1\n      div\n      dup2\n      add\n      swap3\n      dup3\n      tag_570\n      jumpi\n      0x00\n      dup6\n      sstore\n      jump(tag_573)\n    tag_570:\n      dup3\n      0x1f\n      lt\n      tag_571\n      jumpi\n      dup3\n      dup1\n      add\n      not(0xff)\n      dup3\n      calldataload\n      and\n      or\n      dup6\n      sstore\n      jump(tag_573)\n    tag_571:\n      dup3\n      dup1\n      add\n      0x01\n      add\n      dup6\n      sstore\n      dup3\n      iszero\n      tag_573\n      jumpi\n      swap2\n      dup3\n      add\n    tag_572:\n      dup3\n      dup2\n      gt\n      iszero\n      tag_573\n      jumpi\n      dup3\n      calldataload\n      dup3\n      sstore\n      swap2\n      0x20\n      add\n      swap2\n      swap1\n      0x01\n      add\n      swap1\n      jump(tag_572)\n    tag_573:\n      pop\n      tag_574\n      swap3\n      swap2\n      pop\n      tag_575\n      jump\t// in\n    tag_574:\n      pop\n      swap1\n      jump\t// out\n    tag_323:\n      pop\n      dup1\n      sload\n      0x00\n      dup3\n      sstore\n      0x02\n      mul\n      swap1\n      0x00\n      mstore\n      keccak256(0x00, 0x20)\n      swap1\n      dup2\n      add\n      swap1\n      tag_577\n      swap2\n      swap1\n      tag_578\n      jump\t// in\n    tag_577:\n      pop\n      jump\t// out\n    tag_575:\n    tag_579:\n      dup1\n      dup3\n      gt\n      iszero\n      tag_574\n      jumpi\n      0x00\n      dup2\n      sstore\n      0x01\n      add\n      jump(tag_579)\n    tag_578:\n    tag_581:\n      dup1\n      dup3\n      gt\n      iszero\n      tag_574\n      jumpi\n      0x00\n      dup2\n      sstore\n      0x01\n      dup2\n      add\n      dup1\n      sload\n      not(sub(shl(0xa0, 0x01), 0x01))\n      and\n      swap1\n      sstore\n      0x02\n      add\n      jump(tag_581)\n        /* \"#utility.yul\":14:148   */\n    tag_584:\n        /* \"#utility.yul\":82:102   */\n      dup1\n      calldataload\n        /* \"#utility.yul\":111:142   */\n      tag_186\n        /* \"#utility.yul\":82:102   */\n      dup2\n        /* \"#utility.yul\":111:142   */\n      tag_587\n      jump\t// in\n        /* \"#utility.yul\":153:501   */\n    tag_588:\n        /* \"#utility.yul\":205:213   */\n      0x00\n        /* \"#utility.yul\":215:221   */\n      dup1\n        /* \"#utility.yul\":269:272   */\n      dup4\n        /* \"#utility.yul\":262:266   */\n      0x1f\n        /* \"#utility.yul\":254:260   */\n      dup5\n        /* \"#utility.yul\":250:267   */\n      add\n        /* \"#utility.yul\":246:273   */\n      slt\n        /* \"#utility.yul\":236:238   */\n      tag_590\n      jumpi\n        /* \"#utility.yul\":287:288   */\n      0x00\n        /* \"#utility.yul\":284:285   */\n      dup1\n        /* \"#utility.yul\":277:289   */\n      revert\n        /* \"#utility.yul\":236:238   */\n    tag_590:\n      pop\n        /* \"#utility.yul\":310:330   */\n      dup2\n      calldataload\n      sub(shl(0x40, 0x01), 0x01)\n        /* \"#utility.yul\":342:372   */\n      dup2\n      gt\n        /* \"#utility.yul\":339:341   */\n      iszero\n      tag_591\n      jumpi\n        /* \"#utility.yul\":385:386   */\n      0x00\n        /* \"#utility.yul\":382:383   */\n      dup1\n        /* \"#utility.yul\":375:387   */\n      revert\n        /* \"#utility.yul\":339:341   */\n    tag_591:\n        /* \"#utility.yul\":422:426   */\n      0x20\n        /* \"#utility.yul\":414:420   */\n      dup4\n        /* \"#utility.yul\":410:427   */\n      add\n        /* \"#utility.yul\":398:427   */\n      swap2\n      pop\n        /* \"#utility.yul\":474:477   */\n      dup4\n        /* \"#utility.yul\":467:471   */\n      0x20\n        /* \"#utility.yul\":458:464   */\n      dup3\n        /* \"#utility.yul\":450:456   */\n      dup6\n        /* \"#utility.yul\":446:465   */\n      add\n        /* \"#utility.yul\":442:472   */\n      add\n        /* \"#utility.yul\":439:478   */\n      gt\n        /* \"#utility.yul\":436:438   */\n      iszero\n      tag_592\n      jumpi\n        /* \"#utility.yul\":491:492   */\n      0x00\n        /* \"#utility.yul\":488:489   */\n      dup1\n        /* \"#utility.yul\":481:493   */\n      revert\n        /* \"#utility.yul\":436:438   */\n    tag_592:\n        /* \"#utility.yul\":226:501   */\n      swap3\n      pop\n      swap3\n      swap1\n      pop\n      jump\t// out\n        /* \"#utility.yul\":506:638   */\n    tag_593:\n        /* \"#utility.yul\":573:593   */\n      dup1\n      calldataload\n        /* \"#utility.yul\":602:632   */\n      tag_186\n        /* \"#utility.yul\":573:593   */\n      dup2\n        /* \"#utility.yul\":602:632   */\n      tag_596\n      jump\t// in\n        /* \"#utility.yul\":643:890   */\n    tag_73:\n        /* \"#utility.yul\":702:708   */\n      0x00\n        /* \"#utility.yul\":755:757   */\n      0x20\n        /* \"#utility.yul\":743:752   */\n      dup3\n        /* \"#utility.yul\":734:741   */\n      dup5\n        /* \"#utility.yul\":730:753   */\n      sub\n        /* \"#utility.yul\":726:758   */\n      slt\n        /* \"#utility.yul\":723:725   */\n      iszero\n      tag_598\n      jumpi\n        /* \"#utility.yul\":771:772   */\n      0x00\n        /* \"#utility.yul\":768:769   */\n      dup1\n        /* \"#utility.yul\":761:773   */\n      revert\n        /* \"#utility.yul\":723:725   */\n    tag_598:\n        /* \"#utility.yul\":810:819   */\n      dup2\n        /* \"#utility.yul\":797:820   */\n      calldataload\n        /* \"#utility.yul\":829:860   */\n      tag_194\n        /* \"#utility.yul\":854:859   */\n      dup2\n        /* \"#utility.yul\":829:860   */\n      tag_587\n      jump\t// in\n        /* \"#utility.yul\":895:1441   */\n    tag_79:\n        /* \"#utility.yul\":975:981   */\n      0x00\n        /* \"#utility.yul\":983:989   */\n      dup1\n        /* \"#utility.yul\":991:997   */\n      0x00\n        /* \"#utility.yul\":1044:1046   */\n      0x40\n        /* \"#utility.yul\":1032:1041   */\n      dup5\n        /* \"#utility.yul\":1023:1030   */\n      dup7\n        /* \"#utility.yul\":1019:1042   */\n      sub\n        /* \"#utility.yul\":1015:1047   */\n      slt\n        /* \"#utility.yul\":1012:1014   */\n      iszero\n      tag_601\n      jumpi\n        /* \"#utility.yul\":1060:1061   */\n      0x00\n        /* \"#utility.yul\":1057:1058   */\n      dup1\n        /* \"#utility.yul\":1050:1062   */\n      revert\n        /* \"#utility.yul\":1012:1014   */\n    tag_601:\n        /* \"#utility.yul\":1099:1108   */\n      dup4\n        /* \"#utility.yul\":1086:1109   */\n      calldataload\n        /* \"#utility.yul\":1118:1149   */\n      tag_602\n        /* \"#utility.yul\":1143:1148   */\n      dup2\n        /* \"#utility.yul\":1118:1149   */\n      tag_587\n      jump\t// in\n    tag_602:\n        /* \"#utility.yul\":1168:1173   */\n      swap3\n      pop\n        /* \"#utility.yul\":1224:1226   */\n      0x20\n        /* \"#utility.yul\":1209:1227   */\n      dup5\n      add\n        /* \"#utility.yul\":1196:1228   */\n      calldataload\n      sub(shl(0x40, 0x01), 0x01)\n        /* \"#utility.yul\":1240:1270   */\n      dup2\n      gt\n        /* \"#utility.yul\":1237:1239   */\n      iszero\n      tag_603\n      jumpi\n        /* \"#utility.yul\":1283:1284   */\n      0x00\n        /* \"#utility.yul\":1280:1281   */\n      dup1\n        /* \"#utility.yul\":1273:1285   */\n      revert\n        /* \"#utility.yul\":1237:1239   */\n    tag_603:\n        /* \"#utility.yul\":1322:1381   */\n      tag_604\n        /* \"#utility.yul\":1373:1380   */\n      dup7\n        /* \"#utility.yul\":1364:1370   */\n      dup3\n        /* \"#utility.yul\":1353:1362   */\n      dup8\n        /* \"#utility.yul\":1349:1371   */\n      add\n        /* \"#utility.yul\":1322:1381   */\n      tag_588\n      jump\t// in\n    tag_604:\n        /* \"#utility.yul\":1002:1441   */\n      swap5\n      swap8\n        /* \"#utility.yul\":1400:1408   */\n      swap1\n      swap7\n      pop\n        /* \"#utility.yul\":1296:1381   */\n      swap4\n      swap5\n      pop\n      pop\n      pop\n      pop\n        /* \"#utility.yul\":1002:1441   */\n      jump\t// out\n        /* \"#utility.yul\":1446:1857   */\n    tag_84:\n        /* \"#utility.yul\":1517:1523   */\n      0x00\n        /* \"#utility.yul\":1525:1531   */\n      dup1\n        /* \"#utility.yul\":1578:1580   */\n      0x20\n        /* \"#utility.yul\":1566:1575   */\n      dup4\n        /* \"#utility.yul\":1557:1564   */\n      dup6\n        /* \"#utility.yul\":1553:1576   */\n      sub\n        /* \"#utility.yul\":1549:1581   */\n      slt\n        /* \"#utility.yul\":1546:1548   */\n      iszero\n      tag_606\n      jumpi\n        /* \"#utility.yul\":1594:1595   */\n      0x00\n        /* \"#utility.yul\":1591:1592   */\n      dup1\n        /* \"#utility.yul\":1584:1596   */\n      revert\n        /* \"#utility.yul\":1546:1548   */\n    tag_606:\n        /* \"#utility.yul\":1634:1643   */\n      dup3\n        /* \"#utility.yul\":1621:1644   */\n      calldataload\n      sub(shl(0x40, 0x01), 0x01)\n        /* \"#utility.yul\":1659:1665   */\n      dup2\n        /* \"#utility.yul\":1656:1686   */\n      gt\n        /* \"#utility.yul\":1653:1655   */\n      iszero\n      tag_607\n      jumpi\n        /* \"#utility.yul\":1699:1700   */\n      0x00\n        /* \"#utility.yul\":1696:1697   */\n      dup1\n        /* \"#utility.yul\":1689:1701   */\n      revert\n        /* \"#utility.yul\":1653:1655   */\n    tag_607:\n        /* \"#utility.yul\":1738:1797   */\n      tag_608\n        /* \"#utility.yul\":1789:1796   */\n      dup6\n        /* \"#utility.yul\":1780:1786   */\n      dup3\n        /* \"#utility.yul\":1769:1778   */\n      dup7\n        /* \"#utility.yul\":1765:1787   */\n      add\n        /* \"#utility.yul\":1738:1797   */\n      tag_588\n      jump\t// in\n    tag_608:\n        /* \"#utility.yul\":1816:1824   */\n      swap1\n      swap7\n        /* \"#utility.yul\":1712:1797   */\n      swap1\n      swap6\n      pop\n        /* \"#utility.yul\":1536:1857   */\n      swap4\n      pop\n      pop\n      pop\n      pop\n      jump\t// out\n        /* \"#utility.yul\":1862:2341   */\n    tag_53:\n        /* \"#utility.yul\":1942:1948   */\n      0x00\n        /* \"#utility.yul\":1950:1956   */\n      dup1\n        /* \"#utility.yul\":1958:1964   */\n      0x00\n        /* \"#utility.yul\":2011:2013   */\n      0x40\n        /* \"#utility.yul\":1999:2008   */\n      dup5\n        /* \"#utility.yul\":1990:1997   */\n      dup7\n        /* \"#utility.yul\":1986:2009   */\n      sub\n        /* \"#utility.yul\":1982:2014   */\n      slt\n        /* \"#utility.yul\":1979:1981   */\n      iszero\n      tag_610\n      jumpi\n        /* \"#utility.yul\":2027:2028   */\n      0x00\n        /* \"#utility.yul\":2024:2025   */\n      dup1\n        /* \"#utility.yul\":2017:2029   */\n      revert\n        /* \"#utility.yul\":1979:1981   */\n    tag_610:\n        /* \"#utility.yul\":2067:2076   */\n      dup4\n        /* \"#utility.yul\":2054:2077   */\n      calldataload\n      sub(shl(0x40, 0x01), 0x01)\n        /* \"#utility.yul\":2092:2098   */\n      dup2\n        /* \"#utility.yul\":2089:2119   */\n      gt\n        /* \"#utility.yul\":2086:2088   */\n      iszero\n      tag_611\n      jumpi\n        /* \"#utility.yul\":2132:2133   */\n      0x00\n        /* \"#utility.yul\":2129:2130   */\n      dup1\n        /* \"#utility.yul\":2122:2134   */\n      revert\n        /* \"#utility.yul\":2086:2088   */\n    tag_611:\n        /* \"#utility.yul\":2171:2230   */\n      tag_612\n        /* \"#utility.yul\":2222:2229   */\n      dup7\n        /* \"#utility.yul\":2213:2219   */\n      dup3\n        /* \"#utility.yul\":2202:2211   */\n      dup8\n        /* \"#utility.yul\":2198:2220   */\n      add\n        /* \"#utility.yul\":2171:2230   */\n      tag_588\n      jump\t// in\n    tag_612:\n        /* \"#utility.yul\":2249:2257   */\n      swap1\n      swap8\n        /* \"#utility.yul\":2145:2230   */\n      swap1\n      swap7\n      pop\n        /* \"#utility.yul\":2331:2333   */\n      0x20\n        /* \"#utility.yul\":2316:2334   */\n      swap6\n      swap1\n      swap6\n      add\n        /* \"#utility.yul\":2303:2335   */\n      calldataload\n      swap5\n        /* \"#utility.yul\":1969:2341   */\n      swap4\n      pop\n      pop\n      pop\n      pop\n      jump\t// out\n        /* \"#utility.yul\":2346:2960   */\n    tag_142:\n        /* \"#utility.yul\":2435:2441   */\n      0x00\n        /* \"#utility.yul\":2443:2449   */\n      dup1\n        /* \"#utility.yul\":2451:2457   */\n      0x00\n        /* \"#utility.yul\":2459:2465   */\n      dup1\n        /* \"#utility.yul\":2512:2514   */\n      0x60\n        /* \"#utility.yul\":2500:2509   */\n      dup6\n        /* \"#utility.yul\":2491:2498   */\n      dup8\n        /* \"#utility.yul\":2487:2510   */\n      sub\n        /* \"#utility.yul\":2483:2515   */\n      slt\n        /* \"#utility.yul\":2480:2482   */\n      iszero\n      tag_614\n      jumpi\n        /* \"#utility.yul\":2528:2529   */\n      0x00\n        /* \"#utility.yul\":2525:2526   */\n      dup1\n        /* \"#utility.yul\":2518:2530   */\n      revert\n        /* \"#utility.yul\":2480:2482   */\n    tag_614:\n        /* \"#utility.yul\":2568:2577   */\n      dup5\n        /* \"#utility.yul\":2555:2578   */\n      calldataload\n      sub(shl(0x40, 0x01), 0x01)\n        /* \"#utility.yul\":2593:2599   */\n      dup2\n        /* \"#utility.yul\":2590:2620   */\n      gt\n        /* \"#utility.yul\":2587:2589   */\n      iszero\n      tag_615\n      jumpi\n        /* \"#utility.yul\":2633:2634   */\n      0x00\n        /* \"#utility.yul\":2630:2631   */\n      dup1\n        /* \"#utility.yul\":2623:2635   */\n      revert\n        /* \"#utility.yul\":2587:2589   */\n    tag_615:\n        /* \"#utility.yul\":2672:2731   */\n      tag_616\n        /* \"#utility.yul\":2723:2730   */\n      dup8\n        /* \"#utility.yul\":2714:2720   */\n      dup3\n        /* \"#utility.yul\":2703:2712   */\n      dup9\n        /* \"#utility.yul\":2699:2721   */\n      add\n        /* \"#utility.yul\":2672:2731   */\n      tag_588\n      jump\t// in\n    tag_616:\n        /* \"#utility.yul\":2750:2758   */\n      swap1\n      swap6\n      pop\n        /* \"#utility.yul\":2646:2731   */\n      swap4\n      pop\n      pop\n        /* \"#utility.yul\":2832:2834   */\n      0x20\n        /* \"#utility.yul\":2817:2835   */\n      dup6\n      add\n        /* \"#utility.yul\":2804:2836   */\n      calldataload\n      swap2\n      pop\n        /* \"#utility.yul\":2886:2888   */\n      0x40\n        /* \"#utility.yul\":2871:2889   */\n      dup6\n      add\n        /* \"#utility.yul\":2858:2890   */\n      calldataload\n        /* \"#utility.yul\":2899:2930   */\n      tag_617\n        /* \"#utility.yul\":2858:2890   */\n      dup2\n        /* \"#utility.yul\":2899:2930   */\n      tag_587\n      jump\t// in\n    tag_617:\n        /* \"#utility.yul\":2470:2960   */\n      swap4\n      swap7\n      swap3\n      swap6\n      pop\n      swap1\n      swap4\n      pop\n      pop\n      jump\t// out\n        /* \"#utility.yul\":2965:3603   */\n    tag_146:\n        /* \"#utility.yul\":3082:3088   */\n      0x00\n        /* \"#utility.yul\":3090:3096   */\n      dup1\n        /* \"#utility.yul\":3098:3104   */\n      0x00\n        /* \"#utility.yul\":3106:3112   */\n      dup1\n        /* \"#utility.yul\":3150:3159   */\n      dup5\n        /* \"#utility.yul\":3141:3148   */\n      dup7\n        /* \"#utility.yul\":3137:3160   */\n      sub\n        /* \"#utility.yul\":3180:3183   */\n      0x0100\n        /* \"#utility.yul\":3176:3178   */\n      dup2\n        /* \"#utility.yul\":3172:3184   */\n      slt\n        /* \"#utility.yul\":3169:3171   */\n      iszero\n      tag_619\n      jumpi\n        /* \"#utility.yul\":3197:3198   */\n      0x00\n        /* \"#utility.yul\":3194:3195   */\n      dup1\n        /* \"#utility.yul\":3187:3199   */\n      revert\n        /* \"#utility.yul\":3169:3171   */\n    tag_619:\n        /* \"#utility.yul\":3237:3246   */\n      dup6\n        /* \"#utility.yul\":3224:3247   */\n      calldataload\n      sub(shl(0x40, 0x01), 0x01)\n        /* \"#utility.yul\":3262:3268   */\n      dup2\n        /* \"#utility.yul\":3259:3289   */\n      gt\n        /* \"#utility.yul\":3256:3258   */\n      iszero\n      tag_620\n      jumpi\n        /* \"#utility.yul\":3302:3303   */\n      0x00\n        /* \"#utility.yul\":3299:3300   */\n      dup1\n        /* \"#utility.yul\":3292:3304   */\n      revert\n        /* \"#utility.yul\":3256:3258   */\n    tag_620:\n        /* \"#utility.yul\":3341:3400   */\n      tag_621\n        /* \"#utility.yul\":3392:3399   */\n      dup9\n        /* \"#utility.yul\":3383:3389   */\n      dup3\n        /* \"#utility.yul\":3372:3381   */\n      dup10\n        /* \"#utility.yul\":3368:3390   */\n      add\n        /* \"#utility.yul\":3341:3400   */\n      tag_588\n      jump\t// in\n    tag_621:\n        /* \"#utility.yul\":3419:3427   */\n      swap1\n      swap7\n      pop\n        /* \"#utility.yul\":3315:3400   */\n      swap5\n      pop\n      pop\n        /* \"#utility.yul\":3501:3503   */\n      0x20\n        /* \"#utility.yul\":3486:3504   */\n      dup7\n      add\n        /* \"#utility.yul\":3473:3505   */\n      calldataload\n      swap3\n      pop\n        /* \"#utility.yul\":3539:3542   */\n      0xc0\n      not(0x3f)\n        /* \"#utility.yul\":3521:3537   */\n      dup3\n      add\n        /* \"#utility.yul\":3517:3543   */\n      slt\n        /* \"#utility.yul\":3514:3516   */\n      iszero\n      tag_622\n      jumpi\n        /* \"#utility.yul\":3556:3557   */\n      0x00\n        /* \"#utility.yul\":3553:3554   */\n      dup1\n        /* \"#utility.yul\":3546:3558   */\n      revert\n        /* \"#utility.yul\":3514:3516   */\n    tag_622:\n      pop\n        /* \"#utility.yul\":3117:3603   */\n      swap3\n      swap6\n      swap2\n      swap5\n      pop\n      swap3\n        /* \"#utility.yul\":3594:3596   */\n      0x40\n        /* \"#utility.yul\":3579:3597   */\n      add\n      swap2\n      pop\n        /* \"#utility.yul\":3117:3603   */\n      jump\t// out\n        /* \"#utility.yul\":3608:4246   */\n    tag_59:\n        /* \"#utility.yul\":3726:3732   */\n      0x00\n        /* \"#utility.yul\":3734:3740   */\n      dup1\n        /* \"#utility.yul\":3742:3748   */\n      0x00\n        /* \"#utility.yul\":3750:3756   */\n      dup1\n        /* \"#utility.yul\":3794:3803   */\n      dup5\n        /* \"#utility.yul\":3785:3792   */\n      dup7\n        /* \"#utility.yul\":3781:3804   */\n      sub\n        /* \"#utility.yul\":3824:3827   */\n      0xa0\n        /* \"#utility.yul\":3820:3822   */\n      dup2\n        /* \"#utility.yul\":3816:3828   */\n      slt\n        /* \"#utility.yul\":3813:3815   */\n      iszero\n      tag_624\n      jumpi\n        /* \"#utility.yul\":3841:3842   */\n      0x00\n        /* \"#utility.yul\":3838:3839   */\n      dup1\n        /* \"#utility.yul\":3831:3843   */\n      revert\n        /* \"#utility.yul\":3813:3815   */\n    tag_624:\n        /* \"#utility.yul\":3881:3890   */\n      dup6\n        /* \"#utility.yul\":3868:3891   */\n      calldataload\n      sub(shl(0x40, 0x01), 0x01)\n        /* \"#utility.yul\":3906:3912   */\n      dup2\n        /* \"#utility.yul\":3903:3933   */\n      gt\n        /* \"#utility.yul\":3900:3902   */\n      iszero\n      tag_625\n      jumpi\n        /* \"#utility.yul\":3946:3947   */\n      0x00\n        /* \"#utility.yul\":3943:3944   */\n      dup1\n        /* \"#utility.yul\":3936:3948   */\n      revert\n        /* \"#utility.yul\":3900:3902   */\n    tag_625:\n        /* \"#utility.yul\":3985:4044   */\n      tag_626\n        /* \"#utility.yul\":4036:4043   */\n      dup9\n        /* \"#utility.yul\":4027:4033   */\n      dup3\n        /* \"#utility.yul\":4016:4025   */\n      dup10\n        /* \"#utility.yul\":4012:4034   */\n      add\n        /* \"#utility.yul\":3985:4044   */\n      tag_588\n      jump\t// in\n    tag_626:\n        /* \"#utility.yul\":4063:4071   */\n      swap1\n      swap7\n      pop\n        /* \"#utility.yul\":3959:4044   */\n      swap5\n      pop\n      pop\n        /* \"#utility.yul\":4145:4147   */\n      0x20\n        /* \"#utility.yul\":4130:4148   */\n      dup7\n      add\n        /* \"#utility.yul\":4117:4149   */\n      calldataload\n      swap3\n      pop\n        /* \"#utility.yul\":4183:4185   */\n      0x60\n      not(0x3f)\n        /* \"#utility.yul\":4165:4181   */\n      dup3\n      add\n        /* \"#utility.yul\":4161:4186   */\n      slt\n        /* \"#utility.yul\":4158:4160   */\n      iszero\n      tag_622\n      jumpi\n        /* \"#utility.yul\":4199:4200   */\n      0x00\n        /* \"#utility.yul\":4196:4197   */\n      dup1\n        /* \"#utility.yul\":4189:4201   */\n      revert\n        /* \"#utility.yul\":4251:5026   */\n    tag_410:\n        /* \"#utility.yul\":4336:4342   */\n      0x00\n        /* \"#utility.yul\":4389:4392   */\n      0xc0\n        /* \"#utility.yul\":4377:4386   */\n      dup3\n        /* \"#utility.yul\":4368:4375   */\n      dup5\n        /* \"#utility.yul\":4364:4387   */\n      sub\n        /* \"#utility.yul\":4360:4393   */\n      slt\n        /* \"#utility.yul\":4357:4359   */\n      iszero\n      tag_629\n      jumpi\n        /* \"#utility.yul\":4406:4407   */\n      0x00\n        /* \"#utility.yul\":4403:4404   */\n      dup1\n        /* \"#utility.yul\":4396:4408   */\n      revert\n        /* \"#utility.yul\":4357:4359   */\n    tag_629:\n        /* \"#utility.yul\":4439:4441   */\n      0x40\n        /* \"#utility.yul\":4433:4442   */\n      mload\n        /* \"#utility.yul\":4481:4484   */\n      0xc0\n        /* \"#utility.yul\":4473:4479   */\n      dup2\n        /* \"#utility.yul\":4469:4485   */\n      add\n        /* \"#utility.yul\":4551:4557   */\n      dup2\n        /* \"#utility.yul\":4539:4549   */\n      dup2\n        /* \"#utility.yul\":4536:4558   */\n      lt\n      sub(shl(0x40, 0x01), 0x01)\n        /* \"#utility.yul\":4503:4513   */\n      dup3\n        /* \"#utility.yul\":4500:4534   */\n      gt\n        /* \"#utility.yul\":4497:4559   */\n      or\n        /* \"#utility.yul\":4494:4496   */\n      iszero\n      tag_631\n      jumpi\n        /* \"#utility.yul\":4562:4580   */\n      tag_631\n      tag_292\n      jump\t// in\n    tag_631:\n        /* \"#utility.yul\":4602:4612   */\n      dup1\n        /* \"#utility.yul\":4598:4600   */\n      0x40\n        /* \"#utility.yul\":4591:4613   */\n      mstore\n      pop\n        /* \"#utility.yul\":4650:4659   */\n      dup3\n        /* \"#utility.yul\":4637:4660   */\n      calldataload\n        /* \"#utility.yul\":4629:4635   */\n      dup2\n        /* \"#utility.yul\":4622:4661   */\n      mstore\n        /* \"#utility.yul\":4722:4724   */\n      0x20\n        /* \"#utility.yul\":4711:4720   */\n      dup4\n        /* \"#utility.yul\":4707:4725   */\n      add\n        /* \"#utility.yul\":4694:4726   */\n      calldataload\n        /* \"#utility.yul\":4689:4691   */\n      0x20\n        /* \"#utility.yul\":4681:4687   */\n      dup3\n        /* \"#utility.yul\":4677:4692   */\n      add\n        /* \"#utility.yul\":4670:4727   */\n      mstore\n        /* \"#utility.yul\":4788:4790   */\n      0x40\n        /* \"#utility.yul\":4777:4786   */\n      dup4\n        /* \"#utility.yul\":4773:4791   */\n      add\n        /* \"#utility.yul\":4760:4792   */\n      calldataload\n        /* \"#utility.yul\":4755:4757   */\n      0x40\n        /* \"#utility.yul\":4747:4753   */\n      dup3\n        /* \"#utility.yul\":4743:4758   */\n      add\n        /* \"#utility.yul\":4736:4793   */\n      mstore\n        /* \"#utility.yul\":4854:4856   */\n      0x60\n        /* \"#utility.yul\":4843:4852   */\n      dup4\n        /* \"#utility.yul\":4839:4857   */\n      add\n        /* \"#utility.yul\":4826:4858   */\n      calldataload\n        /* \"#utility.yul\":4821:4823   */\n      0x60\n        /* \"#utility.yul\":4813:4819   */\n      dup3\n        /* \"#utility.yul\":4809:4824   */\n      add\n        /* \"#utility.yul\":4802:4859   */\n      mstore\n        /* \"#utility.yul\":4921:4924   */\n      0x80\n        /* \"#utility.yul\":4910:4919   */\n      dup4\n        /* \"#utility.yul\":4906:4925   */\n      add\n        /* \"#utility.yul\":4893:4926   */\n      calldataload\n        /* \"#utility.yul\":4887:4890   */\n      0x80\n        /* \"#utility.yul\":4879:4885   */\n      dup3\n        /* \"#utility.yul\":4875:4891   */\n      add\n        /* \"#utility.yul\":4868:4927   */\n      mstore\n        /* \"#utility.yul\":4989:4992   */\n      0xa0\n        /* \"#utility.yul\":4978:4987   */\n      dup4\n        /* \"#utility.yul\":4974:4993   */\n      add\n        /* \"#utility.yul\":4961:4994   */\n      calldataload\n        /* \"#utility.yul\":4955:4958   */\n      0xa0\n        /* \"#utility.yul\":4947:4953   */\n      dup3\n        /* \"#utility.yul\":4943:4959   */\n      add\n        /* \"#utility.yul\":4936:4995   */\n      mstore\n        /* \"#utility.yul\":5014:5020   */\n      dup1\n        /* \"#utility.yul\":5004:5020   */\n      swap2\n      pop\n      pop\n        /* \"#utility.yul\":4347:5026   */\n      swap3\n      swap2\n      pop\n      pop\n      jump\t// out\n        /* \"#utility.yul\":5031:5767   */\n    tag_198:\n        /* \"#utility.yul\":5117:5123   */\n      0x00\n        /* \"#utility.yul\":5170:5172   */\n      0x60\n        /* \"#utility.yul\":5158:5167   */\n      dup3\n        /* \"#utility.yul\":5149:5156   */\n      dup5\n        /* \"#utility.yul\":5145:5168   */\n      sub\n        /* \"#utility.yul\":5141:5173   */\n      slt\n        /* \"#utility.yul\":5138:5140   */\n      iszero\n      tag_633\n      jumpi\n        /* \"#utility.yul\":5186:5187   */\n      0x00\n        /* \"#utility.yul\":5183:5184   */\n      dup1\n        /* \"#utility.yul\":5176:5188   */\n      revert\n        /* \"#utility.yul\":5138:5140   */\n    tag_633:\n        /* \"#utility.yul\":5219:5221   */\n      0x40\n        /* \"#utility.yul\":5213:5222   */\n      mload\n        /* \"#utility.yul\":5261:5263   */\n      0x60\n        /* \"#utility.yul\":5253:5259   */\n      dup2\n        /* \"#utility.yul\":5249:5264   */\n      add\n        /* \"#utility.yul\":5330:5336   */\n      dup2\n        /* \"#utility.yul\":5318:5328   */\n      dup2\n        /* \"#utility.yul\":5315:5337   */\n      lt\n      sub(shl(0x40, 0x01), 0x01)\n        /* \"#utility.yul\":5282:5292   */\n      dup3\n        /* \"#utility.yul\":5279:5313   */\n      gt\n        /* \"#utility.yul\":5276:5338   */\n      or\n        /* \"#utility.yul\":5273:5275   */\n      iszero\n      tag_635\n      jumpi\n        /* \"#utility.yul\":5341:5359   */\n      tag_635\n      tag_292\n      jump\t// in\n    tag_635:\n        /* \"#utility.yul\":5377:5379   */\n      0x40\n        /* \"#utility.yul\":5370:5392   */\n      mstore\n        /* \"#utility.yul\":5414:5437   */\n      dup3\n      calldataload\n        /* \"#utility.yul\":5477:5481   */\n      0xff\n        /* \"#utility.yul\":5466:5482   */\n      dup2\n      and\n        /* \"#utility.yul\":5456:5483   */\n      dup2\n      eq\n        /* \"#utility.yul\":5446:5448   */\n      tag_636\n      jumpi\n        /* \"#utility.yul\":5497:5498   */\n      0x00\n        /* \"#utility.yul\":5494:5495   */\n      dup1\n        /* \"#utility.yul\":5487:5499   */\n      revert\n        /* \"#utility.yul\":5446:5448   */\n    tag_636:\n        /* \"#utility.yul\":5510:5531   */\n      dup2\n      mstore\n        /* \"#utility.yul\":5583:5585   */\n      0x20\n        /* \"#utility.yul\":5568:5586   */\n      dup4\n      add\n        /* \"#utility.yul\":5555:5587   */\n      calldataload\n        /* \"#utility.yul\":5596:5629   */\n      tag_637\n        /* \"#utility.yul\":5555:5587   */\n      dup2\n        /* \"#utility.yul\":5596:5629   */\n      tag_587\n      jump\t// in\n    tag_637:\n        /* \"#utility.yul\":5657:5659   */\n      0x20\n        /* \"#utility.yul\":5645:5660   */\n      dup3\n      add\n        /* \"#utility.yul\":5638:5670   */\n      mstore\n        /* \"#utility.yul\":5731:5733   */\n      0x40\n        /* \"#utility.yul\":5716:5734   */\n      swap3\n      dup4\n      add\n        /* \"#utility.yul\":5703:5735   */\n      calldataload\n        /* \"#utility.yul\":5686:5701   */\n      swap3\n      dup2\n      add\n        /* \"#utility.yul\":5679:5736   */\n      swap3\n      swap1\n      swap3\n      mstore\n      pop\n        /* \"#utility.yul\":5649:5655   */\n      swap2\n        /* \"#utility.yul\":5128:5767   */\n      swap1\n      pop\n      jump\t// out\n        /* \"#utility.yul\":5772:5952   */\n    tag_42:\n        /* \"#utility.yul\":5831:5837   */\n      0x00\n        /* \"#utility.yul\":5884:5886   */\n      0x20\n        /* \"#utility.yul\":5872:5881   */\n      dup3\n        /* \"#utility.yul\":5863:5870   */\n      dup5\n        /* \"#utility.yul\":5859:5882   */\n      sub\n        /* \"#utility.yul\":5855:5887   */\n      slt\n        /* \"#utility.yul\":5852:5854   */\n      iszero\n      tag_639\n      jumpi\n        /* \"#utility.yul\":5900:5901   */\n      0x00\n        /* \"#utility.yul\":5897:5898   */\n      dup1\n        /* \"#utility.yul\":5890:5902   */\n      revert\n        /* \"#utility.yul\":5852:5854   */\n    tag_639:\n      pop\n        /* \"#utility.yul\":5923:5946   */\n      calldataload\n      swap2\n        /* \"#utility.yul\":5842:5952   */\n      swap1\n      pop\n      jump\t// out\n        /* \"#utility.yul\":5957:6272   */\n    tag_137:\n        /* \"#utility.yul\":6025:6031   */\n      0x00\n        /* \"#utility.yul\":6033:6039   */\n      dup1\n        /* \"#utility.yul\":6086:6088   */\n      0x40\n        /* \"#utility.yul\":6074:6083   */\n      dup4\n        /* \"#utility.yul\":6065:6072   */\n      dup6\n        /* \"#utility.yul\":6061:6084   */\n      sub\n        /* \"#utility.yul\":6057:6089   */\n      slt\n        /* \"#utility.yul\":6054:6056   */\n      iszero\n      tag_641\n      jumpi\n        /* \"#utility.yul\":6102:6103   */\n      0x00\n        /* \"#utility.yul\":6099:6100   */\n      dup1\n        /* \"#utility.yul\":6092:6104   */\n      revert\n        /* \"#utility.yul\":6054:6056   */\n    tag_641:\n        /* \"#utility.yul\":6138:6147   */\n      dup3\n        /* \"#utility.yul\":6125:6148   */\n      calldataload\n        /* \"#utility.yul\":6115:6148   */\n      swap2\n      pop\n        /* \"#utility.yul\":6198:6200   */\n      0x20\n        /* \"#utility.yul\":6187:6196   */\n      dup4\n        /* \"#utility.yul\":6183:6201   */\n      add\n        /* \"#utility.yul\":6170:6202   */\n      calldataload\n        /* \"#utility.yul\":6211:6242   */\n      tag_642\n        /* \"#utility.yul\":6236:6241   */\n      dup2\n        /* \"#utility.yul\":6211:6242   */\n      tag_587\n      jump\t// in\n    tag_642:\n        /* \"#utility.yul\":6261:6266   */\n      dup1\n        /* \"#utility.yul\":6251:6266   */\n      swap2\n      pop\n      pop\n        /* \"#utility.yul\":6044:6272   */\n      swap3\n      pop\n      swap3\n      swap1\n      pop\n      jump\t// out\n        /* \"#utility.yul\":6277:6756   */\n    tag_89:\n        /* \"#utility.yul\":6357:6363   */\n      0x00\n        /* \"#utility.yul\":6365:6371   */\n      dup1\n        /* \"#utility.yul\":6373:6379   */\n      0x00\n        /* \"#utility.yul\":6426:6428   */\n      0x40\n        /* \"#utility.yul\":6414:6423   */\n      dup5\n        /* \"#utility.yul\":6405:6412   */\n      dup7\n        /* \"#utility.yul\":6401:6424   */\n      sub\n        /* \"#utility.yul\":6397:6429   */\n      slt\n        /* \"#utility.yul\":6394:6396   */\n      iszero\n      tag_644\n      jumpi\n        /* \"#utility.yul\":6442:6443   */\n      0x00\n        /* \"#utility.yul\":6439:6440   */\n      dup1\n        /* \"#utility.yul\":6432:6444   */\n      revert\n        /* \"#utility.yul\":6394:6396   */\n    tag_644:\n        /* \"#utility.yul\":6478:6487   */\n      dup4\n        /* \"#utility.yul\":6465:6488   */\n      calldataload\n        /* \"#utility.yul\":6455:6488   */\n      swap3\n      pop\n        /* \"#utility.yul\":6539:6541   */\n      0x20\n        /* \"#utility.yul\":6528:6537   */\n      dup5\n        /* \"#utility.yul\":6524:6542   */\n      add\n        /* \"#utility.yul\":6511:6543   */\n      calldataload\n      sub(shl(0x40, 0x01), 0x01)\n        /* \"#utility.yul\":6558:6564   */\n      dup2\n        /* \"#utility.yul\":6555:6585   */\n      gt\n        /* \"#utility.yul\":6552:6554   */\n      iszero\n      tag_603\n      jumpi\n        /* \"#utility.yul\":6598:6599   */\n      0x00\n        /* \"#utility.yul\":6595:6596   */\n      dup1\n        /* \"#utility.yul\":6588:6600   */\n      revert\n        /* \"#utility.yul\":6761:7550   */\n    tag_159:\n        /* \"#utility.yul\":6862:6868   */\n      0x00\n        /* \"#utility.yul\":6870:6876   */\n      dup1\n        /* \"#utility.yul\":6878:6884   */\n      0x00\n        /* \"#utility.yul\":6886:6892   */\n      dup1\n        /* \"#utility.yul\":6894:6900   */\n      0x00\n        /* \"#utility.yul\":6947:6949   */\n      0x60\n        /* \"#utility.yul\":6935:6944   */\n      dup7\n        /* \"#utility.yul\":6926:6933   */\n      dup9\n        /* \"#utility.yul\":6922:6945   */\n      sub\n        /* \"#utility.yul\":6918:6950   */\n      slt\n        /* \"#utility.yul\":6915:6917   */\n      iszero\n      tag_648\n      jumpi\n        /* \"#utility.yul\":6963:6964   */\n      0x00\n        /* \"#utility.yul\":6960:6961   */\n      dup1\n        /* \"#utility.yul\":6953:6965   */\n      revert\n        /* \"#utility.yul\":6915:6917   */\n    tag_648:\n        /* \"#utility.yul\":6999:7008   */\n      dup6\n        /* \"#utility.yul\":6986:7009   */\n      calldataload\n        /* \"#utility.yul\":6976:7009   */\n      swap5\n      pop\n        /* \"#utility.yul\":7060:7062   */\n      0x20\n        /* \"#utility.yul\":7049:7058   */\n      dup7\n        /* \"#utility.yul\":7045:7063   */\n      add\n        /* \"#utility.yul\":7032:7064   */\n      calldataload\n      sub(shl(0x40, 0x01), 0x01)\n        /* \"#utility.yul\":7124:7126   */\n      dup1\n        /* \"#utility.yul\":7116:7122   */\n      dup3\n        /* \"#utility.yul\":7113:7127   */\n      gt\n        /* \"#utility.yul\":7110:7112   */\n      iszero\n      tag_649\n      jumpi\n        /* \"#utility.yul\":7140:7141   */\n      0x00\n        /* \"#utility.yul\":7137:7138   */\n      dup1\n        /* \"#utility.yul\":7130:7142   */\n      revert\n        /* \"#utility.yul\":7110:7112   */\n    tag_649:\n        /* \"#utility.yul\":7179:7238   */\n      tag_650\n        /* \"#utility.yul\":7230:7237   */\n      dup10\n        /* \"#utility.yul\":7221:7227   */\n      dup4\n        /* \"#utility.yul\":7210:7219   */\n      dup11\n        /* \"#utility.yul\":7206:7228   */\n      add\n        /* \"#utility.yul\":7179:7238   */\n      tag_588\n      jump\t// in\n    tag_650:\n        /* \"#utility.yul\":7257:7265   */\n      swap1\n      swap7\n      pop\n        /* \"#utility.yul\":7153:7238   */\n      swap5\n      pop\n        /* \"#utility.yul\":7345:7347   */\n      0x40\n        /* \"#utility.yul\":7330:7348   */\n      dup9\n      add\n        /* \"#utility.yul\":7317:7349   */\n      calldataload\n      swap2\n      pop\n        /* \"#utility.yul\":7361:7377   */\n      dup1\n      dup3\n      gt\n        /* \"#utility.yul\":7358:7360   */\n      iszero\n      tag_651\n      jumpi\n        /* \"#utility.yul\":7390:7391   */\n      0x00\n        /* \"#utility.yul\":7387:7388   */\n      dup1\n        /* \"#utility.yul\":7380:7392   */\n      revert\n        /* \"#utility.yul\":7358:7360   */\n    tag_651:\n      pop\n        /* \"#utility.yul\":7429:7490   */\n      tag_652\n        /* \"#utility.yul\":7482:7489   */\n      dup9\n        /* \"#utility.yul\":7471:7479   */\n      dup3\n        /* \"#utility.yul\":7460:7469   */\n      dup10\n        /* \"#utility.yul\":7456:7480   */\n      add\n        /* \"#utility.yul\":7429:7490   */\n      tag_588\n      jump\t// in\n    tag_652:\n        /* \"#utility.yul\":6905:7550   */\n      swap7\n      swap10\n      swap6\n      swap9\n      pop\n      swap4\n      swap7\n      pop\n        /* \"#utility.yul\":7509:7517   */\n      swap3\n      swap5\n        /* \"#utility.yul\":7403:7490   */\n      swap4\n        /* \"#utility.yul\":6905:7550   */\n      swap3\n      pop\n      pop\n      pop\n      jump\t// out\n        /* \"#utility.yul\":7555:8012   */\n    tag_68:\n        /* \"#utility.yul\":7652:7658   */\n      0x00\n        /* \"#utility.yul\":7660:7666   */\n      dup1\n        /* \"#utility.yul\":7713:7715   */\n      0x40\n        /* \"#utility.yul\":7701:7710   */\n      dup4\n        /* \"#utility.yul\":7692:7699   */\n      dup6\n        /* \"#utility.yul\":7688:7711   */\n      sub\n        /* \"#utility.yul\":7684:7716   */\n      slt\n        /* \"#utility.yul\":7681:7683   */\n      iszero\n      tag_654\n      jumpi\n        /* \"#utility.yul\":7729:7730   */\n      0x00\n        /* \"#utility.yul\":7726:7727   */\n      dup1\n        /* \"#utility.yul\":7719:7731   */\n      revert\n        /* \"#utility.yul\":7681:7683   */\n    tag_654:\n        /* \"#utility.yul\":7765:7774   */\n      dup3\n        /* \"#utility.yul\":7752:7775   */\n      calldataload\n        /* \"#utility.yul\":7742:7775   */\n      swap2\n      pop\n        /* \"#utility.yul\":7826:7828   */\n      0x20\n        /* \"#utility.yul\":7815:7824   */\n      dup4\n        /* \"#utility.yul\":7811:7829   */\n      add\n        /* \"#utility.yul\":7798:7830   */\n      calldataload\n      sub(shl(0x40, 0x01), 0x01)\n        /* \"#utility.yul\":7845:7851   */\n      dup2\n        /* \"#utility.yul\":7842:7872   */\n      gt\n        /* \"#utility.yul\":7839:7841   */\n      iszero\n      tag_655\n      jumpi\n        /* \"#utility.yul\":7885:7886   */\n      0x00\n        /* \"#utility.yul\":7882:7883   */\n      dup1\n        /* \"#utility.yul\":7875:7887   */\n      revert\n        /* \"#utility.yul\":7839:7841   */\n    tag_655:\n        /* \"#utility.yul\":7908:7930   */\n      dup4\n      add\n        /* \"#utility.yul\":7964:7967   */\n      0x80\n        /* \"#utility.yul\":7946:7962   */\n      dup2\n      dup7\n      sub\n        /* \"#utility.yul\":7942:7968   */\n      slt\n        /* \"#utility.yul\":7939:7941   */\n      iszero\n      tag_642\n      jumpi\n        /* \"#utility.yul\":7981:7982   */\n      0x00\n        /* \"#utility.yul\":7978:7979   */\n      dup1\n        /* \"#utility.yul\":7971:7983   */\n      revert\n        /* \"#utility.yul\":8017:8489   */\n    tag_657:\n        /* \"#utility.yul\":8059:8062   */\n      0x00\n        /* \"#utility.yul\":8097:8102   */\n      dup2\n        /* \"#utility.yul\":8091:8103   */\n      mload\n        /* \"#utility.yul\":8124:8130   */\n      dup1\n        /* \"#utility.yul\":8119:8122   */\n      dup5\n        /* \"#utility.yul\":8112:8131   */\n      mstore\n        /* \"#utility.yul\":8149:8150   */\n      0x00\n        /* \"#utility.yul\":8159:8321   */\n    tag_659:\n        /* \"#utility.yul\":8173:8179   */\n      dup2\n        /* \"#utility.yul\":8170:8171   */\n      dup2\n        /* \"#utility.yul\":8167:8180   */\n      lt\n        /* \"#utility.yul\":8159:8321   */\n      iszero\n      tag_661\n      jumpi\n        /* \"#utility.yul\":8235:8239   */\n      0x20\n        /* \"#utility.yul\":8291:8304   */\n      dup2\n      dup6\n      add\n        /* \"#utility.yul\":8287:8309   */\n      dup2\n      add\n        /* \"#utility.yul\":8281:8310   */\n      mload\n        /* \"#utility.yul\":8263:8274   */\n      dup7\n      dup4\n      add\n        /* \"#utility.yul\":8259:8279   */\n      dup3\n      add\n        /* \"#utility.yul\":8252:8311   */\n      mstore\n        /* \"#utility.yul\":8188:8200   */\n      add\n        /* \"#utility.yul\":8159:8321   */\n      jump(tag_659)\n    tag_661:\n        /* \"#utility.yul\":8339:8345   */\n      dup2\n        /* \"#utility.yul\":8336:8337   */\n      dup2\n        /* \"#utility.yul\":8333:8346   */\n      gt\n        /* \"#utility.yul\":8330:8332   */\n      iszero\n      tag_662\n      jumpi\n        /* \"#utility.yul\":8405:8406   */\n      0x00\n        /* \"#utility.yul\":8398:8402   */\n      0x20\n        /* \"#utility.yul\":8389:8395   */\n      dup4\n        /* \"#utility.yul\":8384:8387   */\n      dup8\n        /* \"#utility.yul\":8380:8396   */\n      add\n        /* \"#utility.yul\":8376:8403   */\n      add\n        /* \"#utility.yul\":8369:8407   */\n      mstore\n        /* \"#utility.yul\":8330:8332   */\n    tag_662:\n      pop\n        /* \"#utility.yul\":8471:8473   */\n      0x1f\n        /* \"#utility.yul\":8450:8465   */\n      add\n      not(0x1f)\n        /* \"#utility.yul\":8446:8475   */\n      and\n        /* \"#utility.yul\":8437:8476   */\n      swap3\n      swap1\n      swap3\n      add\n        /* \"#utility.yul\":8478:8482   */\n      0x20\n        /* \"#utility.yul\":8433:8483   */\n      add\n      swap3\n        /* \"#utility.yul\":8067:8489   */\n      swap2\n      pop\n      pop\n      jump\t// out\n        /* \"#utility.yul\":8494:8767   */\n    tag_283:\n        /* \"#utility.yul\":8679:8685   */\n      dup2\n        /* \"#utility.yul\":8671:8677   */\n      dup4\n        /* \"#utility.yul\":8666:8669   */\n      dup3\n        /* \"#utility.yul\":8653:8686   */\n      calldatacopy\n        /* \"#utility.yul\":8635:8638   */\n      0x00\n        /* \"#utility.yul\":8705:8721   */\n      swap2\n      add\n        /* \"#utility.yul\":8730:8743   */\n      swap1\n      dup2\n      mstore\n        /* \"#utility.yul\":8705:8721   */\n      swap2\n        /* \"#utility.yul\":8643:8767   */\n      swap1\n      pop\n      jump\t// out\n        /* \"#utility.yul\":8980:9783   */\n    tag_95:\n        /* \"#utility.yul\":9142:9146   */\n      0x00\n        /* \"#utility.yul\":9171:9173   */\n      0x20\n        /* \"#utility.yul\":9211:9213   */\n      dup1\n        /* \"#utility.yul\":9200:9209   */\n      dup4\n        /* \"#utility.yul\":9196:9214   */\n      add\n        /* \"#utility.yul\":9241:9243   */\n      dup2\n        /* \"#utility.yul\":9230:9239   */\n      dup5\n        /* \"#utility.yul\":9223:9244   */\n      mstore\n        /* \"#utility.yul\":9264:9270   */\n      dup1\n        /* \"#utility.yul\":9299:9305   */\n      dup6\n        /* \"#utility.yul\":9293:9306   */\n      mload\n        /* \"#utility.yul\":9330:9336   */\n      dup1\n        /* \"#utility.yul\":9322:9328   */\n      dup4\n        /* \"#utility.yul\":9315:9337   */\n      mstore\n        /* \"#utility.yul\":9368:9370   */\n      0x40\n        /* \"#utility.yul\":9357:9366   */\n      dup7\n        /* \"#utility.yul\":9353:9371   */\n      add\n        /* \"#utility.yul\":9346:9371   */\n      swap2\n      pop\n        /* \"#utility.yul\":9430:9432   */\n      0x40\n        /* \"#utility.yul\":9420:9426   */\n      dup2\n        /* \"#utility.yul\":9417:9418   */\n      0x05\n        /* \"#utility.yul\":9413:9427   */\n      shl\n        /* \"#utility.yul\":9402:9411   */\n      dup8\n        /* \"#utility.yul\":9398:9428   */\n      add\n        /* \"#utility.yul\":9394:9433   */\n      add\n        /* \"#utility.yul\":9380:9433   */\n      swap3\n      pop\n        /* \"#utility.yul\":9468:9470   */\n      dup4\n        /* \"#utility.yul\":9460:9466   */\n      dup8\n        /* \"#utility.yul\":9456:9471   */\n      add\n        /* \"#utility.yul\":9489:9490   */\n      0x00\n        /* \"#utility.yul\":9499:9754   */\n    tag_666:\n        /* \"#utility.yul\":9513:9519   */\n      dup3\n        /* \"#utility.yul\":9510:9511   */\n      dup2\n        /* \"#utility.yul\":9507:9520   */\n      lt\n        /* \"#utility.yul\":9499:9754   */\n      iszero\n      tag_668\n      jumpi\n        /* \"#utility.yul\":9606:9608   */\n      0x3f\n        /* \"#utility.yul\":9602:9609   */\n      not\n        /* \"#utility.yul\":9590:9599   */\n      dup9\n        /* \"#utility.yul\":9582:9588   */\n      dup7\n        /* \"#utility.yul\":9578:9600   */\n      sub\n        /* \"#utility.yul\":9574:9610   */\n      add\n        /* \"#utility.yul\":9569:9572   */\n      dup5\n        /* \"#utility.yul\":9562:9611   */\n      mstore\n        /* \"#utility.yul\":9634:9674   */\n      tag_669\n        /* \"#utility.yul\":9667:9673   */\n      dup6\n        /* \"#utility.yul\":9658:9664   */\n      dup4\n        /* \"#utility.yul\":9652:9665   */\n      mload\n        /* \"#utility.yul\":9634:9674   */\n      tag_657\n      jump\t// in\n    tag_669:\n        /* \"#utility.yul\":9624:9674   */\n      swap5\n      pop\n        /* \"#utility.yul\":9732:9744   */\n      swap3\n      dup6\n      add\n      swap3\n        /* \"#utility.yul\":9697:9712   */\n      swap1\n      dup6\n      add\n      swap1\n        /* \"#utility.yul\":9535:9536   */\n      0x01\n        /* \"#utility.yul\":9528:9537   */\n      add\n        /* \"#utility.yul\":9499:9754   */\n      jump(tag_666)\n    tag_668:\n      pop\n        /* \"#utility.yul\":9771:9777   */\n      swap3\n      swap8\n        /* \"#utility.yul\":9151:9783   */\n      swap7\n      pop\n      pop\n      pop\n      pop\n      pop\n      pop\n      pop\n      jump\t// out\n        /* \"#utility.yul\":9788:10614   */\n    tag_109:\n        /* \"#utility.yul\":10021:10023   */\n      0x20\n        /* \"#utility.yul\":10073:10094   */\n      dup1\n      dup3\n      mstore\n        /* \"#utility.yul\":10143:10156   */\n      dup3\n      mload\n        /* \"#utility.yul\":10046:10064   */\n      dup3\n      dup3\n      add\n        /* \"#utility.yul\":10165:10187   */\n      dup2\n      swap1\n      mstore\n        /* \"#utility.yul\":9992:9996   */\n      0x00\n      swap2\n        /* \"#utility.yul\":10021:10023   */\n      swap1\n        /* \"#utility.yul\":10206:10208   */\n      0x40\n      swap1\n        /* \"#utility.yul\":10224:10242   */\n      dup2\n      dup6\n      add\n      swap1\n        /* \"#utility.yul\":10265:10280   */\n      dup7\n      dup5\n      add\n        /* \"#utility.yul\":9992:9996   */\n      dup6\n        /* \"#utility.yul\":10308:10588   */\n    tag_671:\n        /* \"#utility.yul\":10322:10328   */\n      dup3\n        /* \"#utility.yul\":10319:10320   */\n      dup2\n        /* \"#utility.yul\":10316:10329   */\n      lt\n        /* \"#utility.yul\":10308:10588   */\n      iszero\n      tag_673\n      jumpi\n        /* \"#utility.yul\":10381:10394   */\n      dup2\n      mload\n        /* \"#utility.yul\":10419:10428   */\n      dup1\n      mload\n        /* \"#utility.yul\":10407:10429   */\n      dup6\n      mstore\n        /* \"#utility.yul\":10473:10484   */\n      dup7\n      add\n        /* \"#utility.yul\":10467:10485   */\n      mload\n      sub(shl(0xa0, 0x01), 0x01)\n        /* \"#utility.yul\":10463:10507   */\n      and\n        /* \"#utility.yul\":10449:10461   */\n      dup7\n      dup6\n      add\n        /* \"#utility.yul\":10442:10508   */\n      mstore\n        /* \"#utility.yul\":10528:10540   */\n      swap3\n      dup5\n      add\n      swap3\n        /* \"#utility.yul\":10563:10578   */\n      swap1\n      dup6\n      add\n      swap1\n        /* \"#utility.yul\":10504:10505   */\n      0x01\n        /* \"#utility.yul\":10337:10346   */\n      add\n        /* \"#utility.yul\":10308:10588   */\n      jump(tag_671)\n    tag_673:\n      pop\n        /* \"#utility.yul\":10605:10608   */\n      swap2\n      swap8\n        /* \"#utility.yul\":10001:10614   */\n      swap7\n      pop\n      pop\n      pop\n      pop\n      pop\n      pop\n      pop\n      jump\t// out\n        /* \"#utility.yul\":10619:11251   */\n    tag_152:\n        /* \"#utility.yul\":10790:10792   */\n      0x20\n        /* \"#utility.yul\":10842:10863   */\n      dup1\n      dup3\n      mstore\n        /* \"#utility.yul\":10912:10925   */\n      dup3\n      mload\n        /* \"#utility.yul\":10815:10833   */\n      dup3\n      dup3\n      add\n        /* \"#utility.yul\":10934:10956   */\n      dup2\n      swap1\n      mstore\n        /* \"#utility.yul\":10761:10765   */\n      0x00\n      swap2\n        /* \"#utility.yul\":10790:10792   */\n      swap1\n        /* \"#utility.yul\":11013:11028   */\n      dup5\n      dup3\n      add\n      swap1\n        /* \"#utility.yul\":10987:10989   */\n      0x40\n        /* \"#utility.yul\":10972:10990   */\n      dup6\n      add\n      swap1\n        /* \"#utility.yul\":10761:10765   */\n      dup5\n        /* \"#utility.yul\":11056:11225   */\n    tag_675:\n        /* \"#utility.yul\":11070:11076   */\n      dup2\n        /* \"#utility.yul\":11067:11068   */\n      dup2\n        /* \"#utility.yul\":11064:11077   */\n      lt\n        /* \"#utility.yul\":11056:11225   */\n      iszero\n      tag_677\n      jumpi\n        /* \"#utility.yul\":11131:11144   */\n      dup4\n      mload\n        /* \"#utility.yul\":11119:11145   */\n      dup4\n      mstore\n        /* \"#utility.yul\":11200:11215   */\n      swap3\n      dup5\n      add\n      swap3\n        /* \"#utility.yul\":11165:11177   */\n      swap2\n      dup5\n      add\n      swap2\n        /* \"#utility.yul\":11092:11093   */\n      0x01\n        /* \"#utility.yul\":11085:11094   */\n      add\n        /* \"#utility.yul\":11056:11225   */\n      jump(tag_675)\n    tag_677:\n      pop\n        /* \"#utility.yul\":11242:11245   */\n      swap1\n      swap7\n        /* \"#utility.yul\":10770:11251   */\n      swap6\n      pop\n      pop\n      pop\n      pop\n      pop\n      pop\n      jump\t// out\n        /* \"#utility.yul\":11448:11668   */\n    tag_76:\n        /* \"#utility.yul\":11597:11599   */\n      0x20\n        /* \"#utility.yul\":11586:11595   */\n      dup2\n        /* \"#utility.yul\":11579:11600   */\n      mstore\n        /* \"#utility.yul\":11560:11564   */\n      0x00\n        /* \"#utility.yul\":11617:11662   */\n      tag_194\n        /* \"#utility.yul\":11658:11660   */\n      0x20\n        /* \"#utility.yul\":11647:11656   */\n      dup4\n        /* \"#utility.yul\":11643:11661   */\n      add\n        /* \"#utility.yul\":11635:11641   */\n      dup5\n        /* \"#utility.yul\":11617:11662   */\n      tag_657\n      jump\t// in\n        /* \"#utility.yul\":12704:13041   */\n    tag_479:\n        /* \"#utility.yul\":12906:12908   */\n      0x20\n        /* \"#utility.yul\":12888:12909   */\n      dup1\n      dup3\n      mstore\n        /* \"#utility.yul\":12945:12947   */\n      0x0d\n        /* \"#utility.yul\":12925:12943   */\n      swap1\n      dup3\n      add\n        /* \"#utility.yul\":12918:12948   */\n      mstore\n      shl(0x9a, 0x195b5c1d1e481d1bdad95b9251)\n        /* \"#utility.yul\":12979:12981   */\n      0x40\n        /* \"#utility.yul\":12964:12982   */\n      dup3\n      add\n        /* \"#utility.yul\":12957:13000   */\n      mstore\n        /* \"#utility.yul\":13032:13034   */\n      0x60\n        /* \"#utility.yul\":13017:13035   */\n      add\n      swap1\n        /* \"#utility.yul\":12878:13041   */\n      jump\t// out\n        /* \"#utility.yul\":14124:14460   */\n    tag_228:\n        /* \"#utility.yul\":14326:14328   */\n      0x20\n        /* \"#utility.yul\":14308:14329   */\n      dup1\n      dup3\n      mstore\n        /* \"#utility.yul\":14365:14367   */\n      0x0c\n        /* \"#utility.yul\":14345:14363   */\n      swap1\n      dup3\n      add\n        /* \"#utility.yul\":14338:14368   */\n      mstore\n      shl(0xa2, 0x1e995c9bc818da185a5b9251)\n        /* \"#utility.yul\":14399:14401   */\n      0x40\n        /* \"#utility.yul\":14384:14402   */\n      dup3\n      add\n        /* \"#utility.yul\":14377:14419   */\n      mstore\n        /* \"#utility.yul\":14451:14453   */\n      0x60\n        /* \"#utility.yul\":14436:14454   */\n      add\n      swap1\n        /* \"#utility.yul\":14298:14460   */\n      jump\t// out\n        /* \"#utility.yul\":15517:15851   */\n    tag_185:\n        /* \"#utility.yul\":15719:15721   */\n      0x20\n        /* \"#utility.yul\":15701:15722   */\n      dup1\n      dup3\n      mstore\n        /* \"#utility.yul\":15758:15760   */\n      0x0a\n        /* \"#utility.yul\":15738:15756   */\n      swap1\n      dup3\n      add\n        /* \"#utility.yul\":15731:15761   */\n      mstore\n      shl(0xb1, 0x37b7363c9037bbb732b9)\n        /* \"#utility.yul\":15792:15794   */\n      0x40\n        /* \"#utility.yul\":15777:15795   */\n      dup3\n      add\n        /* \"#utility.yul\":15770:15810   */\n      mstore\n        /* \"#utility.yul\":15842:15844   */\n      0x60\n        /* \"#utility.yul\":15827:15845   */\n      add\n      swap1\n        /* \"#utility.yul\":15691:15851   */\n      jump\t// out\n        /* \"#utility.yul\":17602:18280   */\n    tag_45:\n        /* \"#utility.yul\":17785:17787   */\n      0x20\n        /* \"#utility.yul\":17774:17783   */\n      dup2\n        /* \"#utility.yul\":17767:17788   */\n      mstore\n        /* \"#utility.yul\":17748:17752   */\n      0x00\n        /* \"#utility.yul\":17823:17829   */\n      dup3\n        /* \"#utility.yul\":17817:17830   */\n      mload\n        /* \"#utility.yul\":17866:17870   */\n      0x80\n        /* \"#utility.yul\":17861:17863   */\n      0x20\n        /* \"#utility.yul\":17850:17859   */\n      dup5\n        /* \"#utility.yul\":17846:17864   */\n      add\n        /* \"#utility.yul\":17839:17871   */\n      mstore\n        /* \"#utility.yul\":17894:17946   */\n      tag_699\n        /* \"#utility.yul\":17941:17944   */\n      0xa0\n        /* \"#utility.yul\":17930:17939   */\n      dup5\n        /* \"#utility.yul\":17926:17945   */\n      add\n        /* \"#utility.yul\":17912:17924   */\n      dup3\n        /* \"#utility.yul\":17894:17946   */\n      tag_657\n      jump\t// in\n    tag_699:\n        /* \"#utility.yul\":17880:17946   */\n      swap1\n      pop\n        /* \"#utility.yul\":18027:18028   */\n      0x01\n        /* \"#utility.yul\":18023:18024   */\n      dup1\n        /* \"#utility.yul\":18018:18021   */\n      0xa0\n        /* \"#utility.yul\":18014:18025   */\n      shl\n        /* \"#utility.yul\":18010:18029   */\n      sub\n        /* \"#utility.yul\":18004:18006   */\n      0x20\n        /* \"#utility.yul\":17996:18002   */\n      dup6\n        /* \"#utility.yul\":17992:18007   */\n      add\n        /* \"#utility.yul\":17986:18008   */\n      mload\n        /* \"#utility.yul\":17982:18030   */\n      and\n        /* \"#utility.yul\":17977:17979   */\n      0x40\n        /* \"#utility.yul\":17966:17975   */\n      dup5\n        /* \"#utility.yul\":17962:17980   */\n      add\n        /* \"#utility.yul\":17955:18031   */\n      mstore\n        /* \"#utility.yul\":18080:18082   */\n      0x40\n        /* \"#utility.yul\":18072:18078   */\n      dup5\n        /* \"#utility.yul\":18068:18083   */\n      add\n        /* \"#utility.yul\":18062:18084   */\n      mload\n      sub(shl(0x40, 0x01), 0x01)\n        /* \"#utility.yul\":18177:18179   */\n      dup1\n        /* \"#utility.yul\":18161:18175   */\n      dup3\n        /* \"#utility.yul\":18157:18180   */\n      and\n        /* \"#utility.yul\":18152:18154   */\n      0x60\n        /* \"#utility.yul\":18141:18150   */\n      dup7\n        /* \"#utility.yul\":18137:18155   */\n      add\n        /* \"#utility.yul\":18130:18181   */\n      mstore\n        /* \"#utility.yul\":18247:18249   */\n      dup1\n        /* \"#utility.yul\":18241:18243   */\n      0x60\n        /* \"#utility.yul\":18233:18239   */\n      dup8\n        /* \"#utility.yul\":18229:18244   */\n      add\n        /* \"#utility.yul\":18223:18245   */\n      mload\n        /* \"#utility.yul\":18219:18250   */\n      and\n        /* \"#utility.yul\":18212:18216   */\n      0x80\n        /* \"#utility.yul\":18201:18210   */\n      dup7\n        /* \"#utility.yul\":18197:18217   */\n      add\n        /* \"#utility.yul\":18190:18251   */\n      mstore\n      pop\n      pop\n        /* \"#utility.yul\":18268:18274   */\n      dup1\n        /* \"#utility.yul\":18260:18274   */\n      swap2\n      pop\n      pop\n        /* \"#utility.yul\":17757:18280   */\n      swap3\n      swap2\n      pop\n      pop\n      jump\t// out\n        /* \"#utility.yul\":19248:19501   */\n    tag_702:\n        /* \"#utility.yul\":19320:19322   */\n      0x40\n        /* \"#utility.yul\":19314:19323   */\n      mload\n        /* \"#utility.yul\":19362:19366   */\n      0x80\n        /* \"#utility.yul\":19350:19367   */\n      dup2\n      add\n      sub(shl(0x40, 0x01), 0x01)\n        /* \"#utility.yul\":19382:19416   */\n      dup2\n      gt\n        /* \"#utility.yul\":19418:19440   */\n      dup3\n      dup3\n      lt\n        /* \"#utility.yul\":19379:19441   */\n      or\n        /* \"#utility.yul\":19376:19378   */\n      iszero\n      tag_705\n      jumpi\n        /* \"#utility.yul\":19444:19462   */\n      tag_705\n      tag_292\n      jump\t// in\n    tag_705:\n        /* \"#utility.yul\":19480:19482   */\n      0x40\n        /* \"#utility.yul\":19473:19495   */\n      mstore\n        /* \"#utility.yul\":19294:19501   */\n      swap1\n      jump\t// out\n        /* \"#utility.yul\":19506:19781   */\n    tag_706:\n        /* \"#utility.yul\":19577:19579   */\n      0x40\n        /* \"#utility.yul\":19571:19580   */\n      mload\n        /* \"#utility.yul\":19642:19644   */\n      0x1f\n        /* \"#utility.yul\":19623:19636   */\n      dup3\n      add\n      not(0x1f)\n        /* \"#utility.yul\":19619:19646   */\n      and\n        /* \"#utility.yul\":19607:19647   */\n      dup2\n      add\n      sub(shl(0x40, 0x01), 0x01)\n        /* \"#utility.yul\":19662:19696   */\n      dup2\n      gt\n        /* \"#utility.yul\":19698:19720   */\n      dup3\n      dup3\n      lt\n        /* \"#utility.yul\":19659:19721   */\n      or\n        /* \"#utility.yul\":19656:19658   */\n      iszero\n      tag_709\n      jumpi\n        /* \"#utility.yul\":19724:19742   */\n      tag_709\n      tag_292\n      jump\t// in\n    tag_709:\n        /* \"#utility.yul\":19760:19762   */\n      0x40\n        /* \"#utility.yul\":19753:19775   */\n      mstore\n        /* \"#utility.yul\":19551:19781   */\n      swap2\n      swap1\n      pop\n      jump\t// out\n        /* \"#utility.yul\":19912:20040   */\n    tag_266:\n        /* \"#utility.yul\":19952:19955   */\n      0x00\n        /* \"#utility.yul\":19983:19984   */\n      dup3\n        /* \"#utility.yul\":19979:19985   */\n      not\n        /* \"#utility.yul\":19976:19977   */\n      dup3\n        /* \"#utility.yul\":19973:19986   */\n      gt\n        /* \"#utility.yul\":19970:19972   */\n      iszero\n      tag_714\n      jumpi\n        /* \"#utility.yul\":19989:20007   */\n      tag_714\n      tag_715\n      jump\t// in\n    tag_714:\n      pop\n        /* \"#utility.yul\":20025:20034   */\n      add\n      swap1\n        /* \"#utility.yul\":19960:20040   */\n      jump\t// out\n        /* \"#utility.yul\":20045:20590   */\n    tag_716:\n        /* \"#utility.yul\":20147:20149   */\n      0x1f\n        /* \"#utility.yul\":20142:20145   */\n      dup3\n        /* \"#utility.yul\":20139:20150   */\n      gt\n        /* \"#utility.yul\":20136:20138   */\n      iszero\n      tag_718\n      jumpi\n        /* \"#utility.yul\":20183:20184   */\n      0x00\n        /* \"#utility.yul\":20208:20213   */\n      dup2\n        /* \"#utility.yul\":20204:20206   */\n      dup2\n        /* \"#utility.yul\":20197:20214   */\n      mstore\n        /* \"#utility.yul\":20253:20257   */\n      0x20\n        /* \"#utility.yul\":20249:20251   */\n      dup2\n        /* \"#utility.yul\":20239:20258   */\n      keccak256\n        /* \"#utility.yul\":20323:20325   */\n      0x1f\n        /* \"#utility.yul\":20311:20321   */\n      dup6\n        /* \"#utility.yul\":20307:20326   */\n      add\n        /* \"#utility.yul\":20304:20305   */\n      0x05\n        /* \"#utility.yul\":20300:20327   */\n      shr\n        /* \"#utility.yul\":20294:20298   */\n      dup2\n        /* \"#utility.yul\":20290:20328   */\n      add\n        /* \"#utility.yul\":20359:20363   */\n      0x20\n        /* \"#utility.yul\":20347:20357   */\n      dup7\n        /* \"#utility.yul\":20344:20364   */\n      lt\n        /* \"#utility.yul\":20341:20343   */\n      iszero\n      tag_719\n      jumpi\n      pop\n        /* \"#utility.yul\":20382:20386   */\n      dup1\n        /* \"#utility.yul\":20341:20343   */\n    tag_719:\n        /* \"#utility.yul\":20437:20439   */\n      0x1f\n        /* \"#utility.yul\":20432:20435   */\n      dup6\n        /* \"#utility.yul\":20428:20440   */\n      add\n        /* \"#utility.yul\":20425:20426   */\n      0x05\n        /* \"#utility.yul\":20421:20441   */\n      shr\n        /* \"#utility.yul\":20415:20419   */\n      dup3\n        /* \"#utility.yul\":20411:20442   */\n      add\n        /* \"#utility.yul\":20401:20442   */\n      swap2\n      pop\n        /* \"#utility.yul\":20492:20574   */\n    tag_720:\n        /* \"#utility.yul\":20510:20512   */\n      dup2\n        /* \"#utility.yul\":20503:20508   */\n      dup2\n        /* \"#utility.yul\":20500:20513   */\n      lt\n        /* \"#utility.yul\":20492:20574   */\n      iszero\n      tag_531\n      jumpi\n        /* \"#utility.yul\":20555:20572   */\n      dup3\n      dup2\n      sstore\n        /* \"#utility.yul\":20536:20537   */\n      0x01\n        /* \"#utility.yul\":20525:20538   */\n      add\n        /* \"#utility.yul\":20492:20574   */\n      jump(tag_720)\n        /* \"#utility.yul\":20136:20138   */\n    tag_718:\n        /* \"#utility.yul\":20126:20590   */\n      pop\n      pop\n      pop\n      jump\t// out\n        /* \"#utility.yul\":20595:21699   */\n    tag_213:\n        /* \"#utility.yul\":20701:20710   */\n      0x00\n        /* \"#utility.yul\":20760:20764   */\n      0x80\n        /* \"#utility.yul\":20752:20757   */\n      dup3\n        /* \"#utility.yul\":20736:20750   */\n      calldatasize\n        /* \"#utility.yul\":20732:20758   */\n      sub\n        /* \"#utility.yul\":20728:20765   */\n      slt\n        /* \"#utility.yul\":20725:20727   */\n      iszero\n      tag_724\n      jumpi\n        /* \"#utility.yul\":20778:20779   */\n      0x00\n        /* \"#utility.yul\":20775:20776   */\n      dup1\n        /* \"#utility.yul\":20768:20780   */\n      revert\n        /* \"#utility.yul\":20725:20727   */\n    tag_724:\n        /* \"#utility.yul\":20806:20828   */\n      tag_725\n      tag_702\n      jump\t// in\n    tag_725:\n        /* \"#utility.yul\":20864:20869   */\n      dup3\n        /* \"#utility.yul\":20851:20870   */\n      calldataload\n      sub(shl(0x40, 0x01), 0x01)\n        /* \"#utility.yul\":20930:20932   */\n      dup1\n        /* \"#utility.yul\":20922:20928   */\n      dup3\n        /* \"#utility.yul\":20919:20933   */\n      gt\n        /* \"#utility.yul\":20916:20918   */\n      iszero\n      tag_726\n      jumpi\n        /* \"#utility.yul\":20946:20947   */\n      0x00\n        /* \"#utility.yul\":20943:20944   */\n      dup1\n        /* \"#utility.yul\":20936:20948   */\n      revert\n        /* \"#utility.yul\":20916:20918   */\n    tag_726:\n        /* \"#utility.yul\":20969:20987   */\n      swap1\n      dup5\n      add\n      swap1\n        /* \"#utility.yul\":21025:21039   */\n      calldatasize\n        /* \"#utility.yul\":21018:21022   */\n      0x1f\n        /* \"#utility.yul\":21010:21023   */\n      dup4\n      add\n        /* \"#utility.yul\":21006:21040   */\n      slt\n        /* \"#utility.yul\":20996:20998   */\n      tag_727\n      jumpi\n        /* \"#utility.yul\":21054:21055   */\n      0x00\n        /* \"#utility.yul\":21051:21052   */\n      dup1\n        /* \"#utility.yul\":21044:21056   */\n      revert\n        /* \"#utility.yul\":20996:20998   */\n    tag_727:\n        /* \"#utility.yul\":21090:21092   */\n      dup2\n        /* \"#utility.yul\":21077:21093   */\n      calldataload\n        /* \"#utility.yul\":21112:21116   */\n      0x20\n        /* \"#utility.yul\":21135:21137   */\n      dup3\n        /* \"#utility.yul\":21131:21133   */\n      dup3\n        /* \"#utility.yul\":21128:21138   */\n      gt\n        /* \"#utility.yul\":21125:21127   */\n      iszero\n      tag_729\n      jumpi\n        /* \"#utility.yul\":21141:21159   */\n      tag_729\n      tag_292\n      jump\t// in\n    tag_729:\n        /* \"#utility.yul\":21183:21236   */\n      tag_730\n        /* \"#utility.yul\":21226:21228   */\n      0x1f\n        /* \"#utility.yul\":21207:21220   */\n      dup4\n      add\n      not(0x1f)\n        /* \"#utility.yul\":21203:21230   */\n      and\n        /* \"#utility.yul\":21199:21235   */\n      dup3\n      add\n        /* \"#utility.yul\":21183:21236   */\n      tag_706\n      jump\t// in\n    tag_730:\n        /* \"#utility.yul\":21170:21236   */\n      swap3\n      pop\n        /* \"#utility.yul\":21259:21261   */\n      dup2\n        /* \"#utility.yul\":21252:21257   */\n      dup4\n        /* \"#utility.yul\":21245:21262   */\n      mstore\n        /* \"#utility.yul\":21299:21313   */\n      calldatasize\n        /* \"#utility.yul\":21294:21296   */\n      dup2\n        /* \"#utility.yul\":21289:21291   */\n      dup4\n        /* \"#utility.yul\":21285:21287   */\n      dup7\n        /* \"#utility.yul\":21281:21292   */\n      add\n        /* \"#utility.yul\":21277:21297   */\n      add\n        /* \"#utility.yul\":21274:21314   */\n      gt\n        /* \"#utility.yul\":21271:21273   */\n      iszero\n      tag_731\n      jumpi\n        /* \"#utility.yul\":21327:21328   */\n      0x00\n        /* \"#utility.yul\":21324:21325   */\n      dup1\n        /* \"#utility.yul\":21317:21329   */\n      revert\n        /* \"#utility.yul\":21271:21273   */\n    tag_731:\n        /* \"#utility.yul\":21382:21384   */\n      dup2\n        /* \"#utility.yul\":21377:21379   */\n      dup2\n        /* \"#utility.yul\":21373:21375   */\n      dup6\n        /* \"#utility.yul\":21369:21380   */\n      add\n        /* \"#utility.yul\":21364:21366   */\n      dup3\n        /* \"#utility.yul\":21357:21362   */\n      dup6\n        /* \"#utility.yul\":21353:21367   */\n      add\n        /* \"#utility.yul\":21340:21385   */\n      calldatacopy\n        /* \"#utility.yul\":21426:21427   */\n      0x00\n        /* \"#utility.yul\":21421:21423   */\n      dup2\n        /* \"#utility.yul\":21416:21418   */\n      dup4\n        /* \"#utility.yul\":21409:21414   */\n      dup6\n        /* \"#utility.yul\":21405:21419   */\n      add\n        /* \"#utility.yul\":21401:21424   */\n      add\n        /* \"#utility.yul\":21394:21428   */\n      mstore\n        /* \"#utility.yul\":21453:21458   */\n      dup3\n        /* \"#utility.yul\":21444:21451   */\n      dup6\n        /* \"#utility.yul\":21437:21459   */\n      mstore\n        /* \"#utility.yul\":21493:21527   */\n      tag_732\n        /* \"#utility.yul\":21523:21525   */\n      dup2\n        /* \"#utility.yul\":21516:21521   */\n      dup9\n        /* \"#utility.yul\":21512:21526   */\n      add\n        /* \"#utility.yul\":21493:21527   */\n      tag_584\n      jump\t// in\n    tag_732:\n        /* \"#utility.yul\":21488:21490   */\n      dup2\n        /* \"#utility.yul\":21479:21486   */\n      dup7\n        /* \"#utility.yul\":21475:21491   */\n      add\n        /* \"#utility.yul\":21468:21528   */\n      mstore\n      pop\n      pop\n      pop\n      pop\n        /* \"#utility.yul\":21562:21595   */\n      tag_733\n        /* \"#utility.yul\":21591:21593   */\n      0x40\n        /* \"#utility.yul\":21584:21589   */\n      dup5\n        /* \"#utility.yul\":21580:21594   */\n      add\n        /* \"#utility.yul\":21562:21595   */\n      tag_593\n      jump\t// in\n    tag_733:\n        /* \"#utility.yul\":21557:21559   */\n      0x40\n        /* \"#utility.yul\":21548:21555   */\n      dup3\n        /* \"#utility.yul\":21544:21560   */\n      add\n        /* \"#utility.yul\":21537:21596   */\n      mstore\n        /* \"#utility.yul\":21630:21663   */\n      tag_734\n        /* \"#utility.yul\":21659:21661   */\n      0x60\n        /* \"#utility.yul\":21652:21657   */\n      dup5\n        /* \"#utility.yul\":21648:21662   */\n      add\n        /* \"#utility.yul\":21630:21663   */\n      tag_593\n      jump\t// in\n    tag_734:\n        /* \"#utility.yul\":21625:21627   */\n      0x60\n        /* \"#utility.yul\":21612:21628   */\n      dup3\n      add\n        /* \"#utility.yul\":21605:21664   */\n      mstore\n        /* \"#utility.yul\":21616:21623   */\n      swap3\n        /* \"#utility.yul\":20715:21699   */\n      swap2\n      pop\n      pop\n      jump\t// out\n        /* \"#utility.yul\":21704:22084   */\n    tag_177:\n        /* \"#utility.yul\":21783:21784   */\n      0x01\n        /* \"#utility.yul\":21779:21791   */\n      dup2\n      dup2\n      shr\n      swap1\n        /* \"#utility.yul\":21826:21838   */\n      dup3\n      and\n      dup1\n        /* \"#utility.yul\":21847:21849   */\n      tag_736\n      jumpi\n        /* \"#utility.yul\":21901:21905   */\n      0x7f\n        /* \"#utility.yul\":21893:21899   */\n      dup3\n        /* \"#utility.yul\":21889:21906   */\n      and\n        /* \"#utility.yul\":21879:21906   */\n      swap2\n      pop\n        /* \"#utility.yul\":21847:21849   */\n    tag_736:\n        /* \"#utility.yul\":21954:21956   */\n      0x20\n        /* \"#utility.yul\":21946:21952   */\n      dup3\n        /* \"#utility.yul\":21943:21957   */\n      lt\n        /* \"#utility.yul\":21923:21941   */\n      dup2\n        /* \"#utility.yul\":21920:21958   */\n      eq\n        /* \"#utility.yul\":21917:21919   */\n      iszero\n      tag_737\n      jumpi\n        /* \"#utility.yul\":22000:22010   */\n      0x4e487b71\n        /* \"#utility.yul\":21995:21998   */\n      0xe0\n        /* \"#utility.yul\":21991:22011   */\n      shl\n        /* \"#utility.yul\":21988:21989   */\n      0x00\n        /* \"#utility.yul\":21981:22012   */\n      mstore\n        /* \"#utility.yul\":22035:22039   */\n      0x22\n        /* \"#utility.yul\":22032:22033   */\n      0x04\n        /* \"#utility.yul\":22025:22040   */\n      mstore\n        /* \"#utility.yul\":22063:22067   */\n      0x24\n        /* \"#utility.yul\":22060:22061   */\n      0x00\n        /* \"#utility.yul\":22053:22068   */\n      revert\n        /* \"#utility.yul\":21917:21919   */\n    tag_737:\n      pop\n        /* \"#utility.yul\":21759:22084   */\n      swap2\n      swap1\n      pop\n      jump\t// out\n        /* \"#utility.yul\":22260:22395   */\n    tag_275:\n        /* \"#utility.yul\":22299:22302   */\n      0x00\n      not(0x00)\n        /* \"#utility.yul\":22320:22337   */\n      dup3\n      eq\n        /* \"#utility.yul\":22317:22319   */\n      iszero\n      tag_742\n      jumpi\n        /* \"#utility.yul\":22340:22358   */\n      tag_742\n      tag_715\n      jump\t// in\n    tag_742:\n      pop\n        /* \"#utility.yul\":22387:22388   */\n      0x01\n        /* \"#utility.yul\":22376:22389   */\n      add\n      swap1\n        /* \"#utility.yul\":22307:22395   */\n      jump\t// out\n        /* \"#utility.yul\":22400:22575   */\n    tag_495:\n        /* \"#utility.yul\":22437:22440   */\n      0x00\n        /* \"#utility.yul\":22481:22485   */\n      0xff\n        /* \"#utility.yul\":22474:22479   */\n      dup3\n        /* \"#utility.yul\":22470:22486   */\n      and\n        /* \"#utility.yul\":22510:22514   */\n      0xff\n        /* \"#utility.yul\":22501:22508   */\n      dup2\n        /* \"#utility.yul\":22498:22515   */\n      eq\n        /* \"#utility.yul\":22495:22497   */\n      iszero\n      tag_745\n      jumpi\n        /* \"#utility.yul\":22518:22536   */\n      tag_745\n      tag_715\n      jump\t// in\n    tag_745:\n        /* \"#utility.yul\":22567:22568   */\n      0x01\n        /* \"#utility.yul\":22554:22569   */\n      add\n      swap3\n        /* \"#utility.yul\":22445:22575   */\n      swap2\n      pop\n      pop\n      jump\t// out\n        /* \"#utility.yul\":22580:22707   */\n    tag_715:\n        /* \"#utility.yul\":22641:22651   */\n      0x4e487b71\n        /* \"#utility.yul\":22636:22639   */\n      0xe0\n        /* \"#utility.yul\":22632:22652   */\n      shl\n        /* \"#utility.yul\":22629:22630   */\n      0x00\n        /* \"#utility.yul\":22622:22653   */\n      mstore\n        /* \"#utility.yul\":22672:22676   */\n      0x11\n        /* \"#utility.yul\":22669:22670   */\n      0x04\n        /* \"#utility.yul\":22662:22677   */\n      mstore\n        /* \"#utility.yul\":22696:22700   */\n      0x24\n        /* \"#utility.yul\":22693:22694   */\n      0x00\n        /* \"#utility.yul\":22686:22701   */\n      revert\n        /* \"#utility.yul\":22712:22839   */\n    tag_278:\n        /* \"#utility.yul\":22773:22783   */\n      0x4e487b71\n        /* \"#utility.yul\":22768:22771   */\n      0xe0\n        /* \"#utility.yul\":22764:22784   */\n      shl\n        /* \"#utility.yul\":22761:22762   */\n      0x00\n        /* \"#utility.yul\":22754:22785   */\n      mstore\n        /* \"#utility.yul\":22804:22808   */\n      0x31\n        /* \"#utility.yul\":22801:22802   */\n      0x04\n        /* \"#utility.yul\":22794:22809   */\n      mstore\n        /* \"#utility.yul\":22828:22832   */\n      0x24\n        /* \"#utility.yul\":22825:22826   */\n      0x00\n        /* \"#utility.yul\":22818:22833   */\n      revert\n        /* \"#utility.yul\":22844:22971   */\n    tag_259:\n        /* \"#utility.yul\":22905:22915   */\n      0x4e487b71\n        /* \"#utility.yul\":22900:22903   */\n      0xe0\n        /* \"#utility.yul\":22896:22916   */\n      shl\n        /* \"#utility.yul\":22893:22894   */\n      0x00\n        /* \"#utility.yul\":22886:22917   */\n      mstore\n        /* \"#utility.yul\":22936:22940   */\n      0x32\n        /* \"#utility.yul\":22933:22934   */\n      0x04\n        /* \"#utility.yul\":22926:22941   */\n      mstore\n        /* \"#utility.yul\":22960:22964   */\n      0x24\n        /* \"#utility.yul\":22957:22958   */\n      0x00\n        /* \"#utility.yul\":22950:22965   */\n      revert\n        /* \"#utility.yul\":22976:23103   */\n    tag_292:\n        /* \"#utility.yul\":23037:23047   */\n      0x4e487b71\n        /* \"#utility.yul\":23032:23035   */\n      0xe0\n        /* \"#utility.yul\":23028:23048   */\n      shl\n        /* \"#utility.yul\":23025:23026   */\n      0x00\n        /* \"#utility.yul\":23018:23049   */\n      mstore\n        /* \"#utility.yul\":23068:23072   */\n      0x41\n        /* \"#utility.yul\":23065:23066   */\n      0x04\n        /* \"#utility.yul\":23058:23073   */\n      mstore\n        /* \"#utility.yul\":23092:23096   */\n      0x24\n        /* \"#utility.yul\":23089:23090   */\n      0x00\n        /* \"#utility.yul\":23082:23097   */\n      revert\n        /* \"#utility.yul\":23108:23284   */\n    tag_750:\n        /* \"#utility.yul\":23153:23164   */\n      0x00\n        /* \"#utility.yul\":23205:23208   */\n      dup2\n        /* \"#utility.yul\":23192:23209   */\n      calldataload\n        /* \"#utility.yul\":23218:23249   */\n      tag_252\n        /* \"#utility.yul\":23243:23248   */\n      dup2\n        /* \"#utility.yul\":23218:23249   */\n      tag_587\n      jump\t// in\n        /* \"#utility.yul\":23289:23463   */\n    tag_753:\n        /* \"#utility.yul\":23333:23344   */\n      0x00\n        /* \"#utility.yul\":23385:23388   */\n      dup2\n        /* \"#utility.yul\":23372:23389   */\n      calldataload\n        /* \"#utility.yul\":23398:23428   */\n      tag_252\n        /* \"#utility.yul\":23422:23427   */\n      dup2\n        /* \"#utility.yul\":23398:23428   */\n      tag_596\n      jump\t// in\n        /* \"#utility.yul\":23668:25678   */\n    tag_230:\n        /* \"#utility.yul\":23848:23853   */\n      dup2\n        /* \"#utility.yul\":23835:23854   */\n      calldataload\n        /* \"#utility.yul\":23933:23935   */\n      0x1e\n        /* \"#utility.yul\":23929:23936   */\n      not\n        /* \"#utility.yul\":23921:23926   */\n      dup4\n        /* \"#utility.yul\":23905:23919   */\n      calldatasize\n        /* \"#utility.yul\":23901:23927   */\n      sub\n        /* \"#utility.yul\":23897:23937   */\n      add\n        /* \"#utility.yul\":23877:23895   */\n      dup2\n        /* \"#utility.yul\":23873:23938   */\n      slt\n        /* \"#utility.yul\":23863:23865   */\n      tag_759\n      jumpi\n        /* \"#utility.yul\":23952:23953   */\n      0x00\n        /* \"#utility.yul\":23949:23950   */\n      dup1\n        /* \"#utility.yul\":23942:23954   */\n      revert\n        /* \"#utility.yul\":23863:23865   */\n    tag_759:\n        /* \"#utility.yul\":23977:24007   */\n      dup3\n      add\n        /* \"#utility.yul\":24030:24048   */\n      dup1\n      calldataload\n      sub(shl(0x40, 0x01), 0x01)\n        /* \"#utility.yul\":24060:24090   */\n      dup2\n      gt\n        /* \"#utility.yul\":24057:24059   */\n      iszero\n      tag_760\n      jumpi\n        /* \"#utility.yul\":24103:24104   */\n      0x00\n        /* \"#utility.yul\":24100:24101   */\n      dup1\n        /* \"#utility.yul\":24093:24105   */\n      revert\n        /* \"#utility.yul\":24057:24059   */\n    tag_760:\n        /* \"#utility.yul\":24126:24130   */\n      0x20\n        /* \"#utility.yul\":24181:24187   */\n      dup2\n        /* \"#utility.yul\":24165:24179   */\n      calldatasize\n        /* \"#utility.yul\":24161:24188   */\n      sub\n        /* \"#utility.yul\":24156:24158   */\n      dup2\n        /* \"#utility.yul\":24150:24154   */\n      dup5\n        /* \"#utility.yul\":24146:24159   */\n      add\n        /* \"#utility.yul\":24142:24189   */\n      sgt\n        /* \"#utility.yul\":24139:24141   */\n      iszero\n      tag_761\n      jumpi\n        /* \"#utility.yul\":24202:24203   */\n      0x00\n        /* \"#utility.yul\":24199:24200   */\n      dup1\n        /* \"#utility.yul\":24192:24204   */\n      revert\n        /* \"#utility.yul\":24139:24141   */\n    tag_761:\n        /* \"#utility.yul\":24215:24312   */\n      tag_762\n        /* \"#utility.yul\":24305:24311   */\n      dup3\n        /* \"#utility.yul\":24265:24303   */\n      tag_763\n        /* \"#utility.yul\":24297:24301   */\n      dup7\n        /* \"#utility.yul\":24291:24302   */\n      sload\n        /* \"#utility.yul\":24265:24303   */\n      tag_177\n      jump\t// in\n    tag_763:\n        /* \"#utility.yul\":24259:24263   */\n      dup7\n        /* \"#utility.yul\":24215:24312   */\n      tag_716\n      jump\t// in\n    tag_762:\n        /* \"#utility.yul\":24338:24339   */\n      0x00\n        /* \"#utility.yul\":24366:24368   */\n      0x1f\n        /* \"#utility.yul\":24358:24364   */\n      dup4\n        /* \"#utility.yul\":24355:24369   */\n      gt\n        /* \"#utility.yul\":24383:24384   */\n      0x01\n        /* \"#utility.yul\":24378:25022   */\n      dup2\n      eq\n      tag_765\n      jumpi\n        /* \"#utility.yul\":25068:25069   */\n      0x00\n        /* \"#utility.yul\":25085:25091   */\n      dup5\n        /* \"#utility.yul\":25082:25084   */\n      iszero\n      tag_766\n      jumpi\n      pop\n        /* \"#utility.yul\":25150:25170   */\n      dup5\n      dup3\n      add\n        /* \"#utility.yul\":25146:25175   */\n      dup4\n      add\n        /* \"#utility.yul\":25133:25176   */\n      calldataload\n        /* \"#utility.yul\":25082:25084   */\n    tag_766:\n      not(0x00)\n        /* \"#utility.yul\":22217:22218   */\n      0x03\n        /* \"#utility.yul\":22213:22224   */\n      dup7\n      swap1\n      shl\n        /* \"#utility.yul\":22209:22233   */\n      shr\n        /* \"#utility.yul\":22205:22234   */\n      not\n        /* \"#utility.yul\":22195:22235   */\n      and\n        /* \"#utility.yul\":22241:22242   */\n      0x01\n        /* \"#utility.yul\":22237:22248   */\n      dup6\n      swap1\n      shl\n        /* \"#utility.yul\":22192:22249   */\n      or\n        /* \"#utility.yul\":25203:25286   */\n      dup7\n      sstore\n        /* \"#utility.yul\":24348:25296   */\n      jump(tag_764)\n        /* \"#utility.yul\":24378:25022   */\n    tag_765:\n        /* \"#utility.yul\":19859:19860   */\n      0x00\n        /* \"#utility.yul\":19852:19866   */\n      dup7\n      dup2\n      mstore\n        /* \"#utility.yul\":19896:19900   */\n      0x20\n        /* \"#utility.yul\":19883:19901   */\n      swap1\n      keccak256\n      not(0x1f)\n        /* \"#utility.yul\":24414:24434   */\n      dup6\n      and\n      swap1\n        /* \"#utility.yul\":24518:24527   */\n      dup4\n        /* \"#utility.yul\":24540:24775   */\n    tag_769:\n        /* \"#utility.yul\":24554:24561   */\n      dup3\n        /* \"#utility.yul\":24551:24552   */\n      dup2\n        /* \"#utility.yul\":24548:24562   */\n      lt\n        /* \"#utility.yul\":24540:24775   */\n      iszero\n      tag_771\n      jumpi\n        /* \"#utility.yul\":24645:24665   */\n      dup8\n      dup6\n      add\n        /* \"#utility.yul\":24641:24670   */\n      dup7\n      add\n        /* \"#utility.yul\":24628:24671   */\n      calldataload\n        /* \"#utility.yul\":24613:24672   */\n      dup3\n      sstore\n        /* \"#utility.yul\":24743:24761   */\n      swap4\n      dup6\n      add\n      swap4\n        /* \"#utility.yul\":24711:24712   */\n      0x01\n        /* \"#utility.yul\":24699:24713   */\n      swap1\n      swap2\n      add\n      swap1\n        /* \"#utility.yul\":24570:24580   */\n      dup6\n      add\n        /* \"#utility.yul\":24540:24775   */\n      jump(tag_769)\n    tag_771:\n        /* \"#utility.yul\":24544:24547   */\n      pop\n        /* \"#utility.yul\":24803:24809   */\n      dup6\n        /* \"#utility.yul\":24794:24801   */\n      dup3\n        /* \"#utility.yul\":24791:24810   */\n      lt\n        /* \"#utility.yul\":24788:24790   */\n      iszero\n      tag_772\n      jumpi\n        /* \"#utility.yul\":24943:24944   */\n      0x00\n        /* \"#utility.yul\":24939:24945   */\n      not\n        /* \"#utility.yul\":24933:24936   */\n      0xf8\n        /* \"#utility.yul\":24924:24930   */\n      dup8\n        /* \"#utility.yul\":24921:24922   */\n      0x03\n        /* \"#utility.yul\":24917:24931   */\n      shl\n        /* \"#utility.yul\":24913:24937   */\n      and\n        /* \"#utility.yul\":24909:24946   */\n      shr\n        /* \"#utility.yul\":24905:24947   */\n      not\n        /* \"#utility.yul\":24899:24901   */\n      dup6\n        /* \"#utility.yul\":24887:24896   */\n      dup6\n        /* \"#utility.yul\":24881:24885   */\n      dup10\n        /* \"#utility.yul\":24877:24897   */\n      add\n        /* \"#utility.yul\":24873:24902   */\n      add\n        /* \"#utility.yul\":24860:24903   */\n      calldataload\n        /* \"#utility.yul\":24856:24948   */\n      and\n        /* \"#utility.yul\":24848:24854   */\n      dup2\n        /* \"#utility.yul\":24841:24949   */\n      sstore\n        /* \"#utility.yul\":24788:24790   */\n    tag_772:\n      pop\n      pop\n        /* \"#utility.yul\":25009:25010   */\n      0x01\n        /* \"#utility.yul\":25000:25006   */\n      dup5\n        /* \"#utility.yul\":24997:24998   */\n      0x01\n        /* \"#utility.yul\":24993:25007   */\n      shl\n        /* \"#utility.yul\":24989:25011   */\n      add\n        /* \"#utility.yul\":24983:24987   */\n      dup7\n        /* \"#utility.yul\":24976:25012   */\n      sstore\n        /* \"#utility.yul\":24348:25296   */\n    tag_764:\n      pop\n      pop\n        /* \"#utility.yul\":25333:25334   */\n      0x01\n        /* \"#utility.yul\":25327:25331   */\n      dup5\n        /* \"#utility.yul\":25323:25335   */\n      add\n        /* \"#utility.yul\":25305:25335   */\n      swap3\n      pop\n        /* \"#utility.yul\":25344:25448   */\n      tag_773\n        /* \"#utility.yul\":25404:25447   */\n      tag_774\n        /* \"#utility.yul\":25443:25445   */\n      dup3\n        /* \"#utility.yul\":25436:25441   */\n      dup8\n        /* \"#utility.yul\":25432:25446   */\n      add\n        /* \"#utility.yul\":25404:25447   */\n      tag_750\n      jump\t// in\n    tag_774:\n        /* \"#utility.yul\":23572:23583   */\n      dup5\n      sload\n      not(sub(shl(0xa0, 0x01), 0x01))\n        /* \"#utility.yul\":23568:23622   */\n      and\n      sub(shl(0xa0, 0x01), 0x01)\n        /* \"#utility.yul\":23624:23655   */\n      swap2\n      swap1\n      swap2\n      and\n        /* \"#utility.yul\":23565:23656   */\n      or\n        /* \"#utility.yul\":23552:23657   */\n      dup5\n      sstore\n        /* \"#utility.yul\":23542:23663   */\n      jump\n        /* \"#utility.yul\":25344:25448   */\n    tag_773:\n      pop\n      pop\n        /* \"#utility.yul\":25457:25558   */\n      tag_775\n        /* \"#utility.yul\":25515:25557   */\n      tag_776\n        /* \"#utility.yul\":25553:25555   */\n      0x40\n        /* \"#utility.yul\":25546:25551   */\n      dup6\n        /* \"#utility.yul\":25542:25556   */\n      add\n        /* \"#utility.yul\":25515:25557   */\n      tag_753\n      jump\t// in\n    tag_776:\n        /* \"#utility.yul\":25503:25513   */\n      dup3\n        /* \"#utility.yul\":25961:25972   */\n      dup1\n      sload\n      not(shl(0xa0, 0xffffffffffffffff))\n        /* \"#utility.yul\":25997:26039   */\n      and\n        /* \"#utility.yul\":26066:26069   */\n      0xa0\n        /* \"#utility.yul\":26045:26060   */\n      swap3\n      swap1\n      swap3\n      shl\n      shl(0xa0, 0xffffffffffffffff)\n        /* \"#utility.yul\":26041:26091   */\n      and\n        /* \"#utility.yul\":25994:26092   */\n      swap2\n      swap1\n      swap2\n      or\n        /* \"#utility.yul\":25981:26093   */\n      swap1\n      sstore\n        /* \"#utility.yul\":25941:26099   */\n      jump\n        /* \"#utility.yul\":25457:25558   */\n    tag_775:\n      pop\n        /* \"#utility.yul\":25567:25672   */\n      tag_778\n        /* \"#utility.yul\":25629:25671   */\n      tag_779\n        /* \"#utility.yul\":25667:25669   */\n      0x60\n        /* \"#utility.yul\":25660:25665   */\n      dup5\n        /* \"#utility.yul\":25656:25670   */\n      add\n        /* \"#utility.yul\":25629:25671   */\n      tag_753\n      jump\t// in\n    tag_779:\n        /* \"#utility.yul\":25625:25626   */\n      0x02\n        /* \"#utility.yul\":25619:25623   */\n      dup4\n        /* \"#utility.yul\":25615:25627   */\n      add\n      sub(shl(0x40, 0x01), 0x01)\n        /* \"#utility.yul\":25830:25835   */\n      dup3\n        /* \"#utility.yul\":25826:25856   */\n      and\n      sub(shl(0x40, 0x01), 0x01)\n        /* \"#utility.yul\":25800:25823   */\n      not\n        /* \"#utility.yul\":25793:25797   */\n      dup3\n        /* \"#utility.yul\":25787:25798   */\n      sload\n        /* \"#utility.yul\":25783:25824   */\n      and\n        /* \"#utility.yul\":25780:25857   */\n      or\n        /* \"#utility.yul\":25774:25778   */\n      dup2\n        /* \"#utility.yul\":25767:25858   */\n      sstore\n        /* \"#utility.yul\":25757:25864   */\n      pop\n      pop\n      jump\n        /* \"#utility.yul\":25567:25672   */\n    tag_778:\n        /* \"#utility.yul\":23799:25678   */\n      pop\n      pop\n      jump\t// out\n        /* \"#utility.yul\":26104:26235   */\n    tag_587:\n      sub(shl(0xa0, 0x01), 0x01)\n        /* \"#utility.yul\":26179:26210   */\n      dup2\n      and\n        /* \"#utility.yul\":26169:26211   */\n      dup2\n      eq\n        /* \"#utility.yul\":26159:26161   */\n      tag_577\n      jumpi\n        /* \"#utility.yul\":26225:26226   */\n      0x00\n        /* \"#utility.yul\":26222:26223   */\n      dup1\n        /* \"#utility.yul\":26215:26227   */\n      revert\n        /* \"#utility.yul\":26240:26369   */\n    tag_596:\n      sub(shl(0x40, 0x01), 0x01)\n        /* \"#utility.yul\":26318:26323   */\n      dup2\n        /* \"#utility.yul\":26314:26344   */\n      and\n        /* \"#utility.yul\":26307:26312   */\n      dup2\n        /* \"#utility.yul\":26304:26345   */\n      eq\n        /* \"#utility.yul\":26294:26296   */\n      tag_577\n      jumpi\n        /* \"#utility.yul\":26359:26360   */\n      0x00\n        /* \"#utility.yul\":26356:26357   */\n      dup1\n        /* \"#utility.yul\":26349:26361   */\n      revert\n\n    auxdata: 0xa2646970667358221220cd7be542ccd90d172e5ded487c5668cd6517cbe39b0364bebd0324fa1632b42664736f6c63430008060033\n}\n",
				"bytecode": {
					"linkReferences": {},
					"object": "608060405234801561001057600080fd5b50600a80546001600160a01b03191633179055612e62806100326000396000f3fe608060405234801561001057600080fd5b50600436106101da5760003560e01c80639026b20511610104578063c5e7601a116100a2578063e671242a11610071578063e671242a1461049a578063e90768c6146104ad578063f2fde38b146104c0578063fd15ea70146104d357600080fd5b8063c5e7601a1461044c578063ca29ee961461045f578063e27112d514610472578063e3e016641461048757600080fd5b8063b735ab5a116100de578063b735ab5a14610400578063ba6e0d0f14610413578063bc772a2814610426578063c4fb2e4b1461043957600080fd5b80639026b2051461037b5780639af93e7a1461038e578063af611ca0146103ed57600080fd5b80635b7518581161017c578063747fd44c1161014b578063747fd44c1461031357806383f5d5d41461031d5780638da5cb5b146103305780638fcb62a31461035b57600080fd5b80635b751858146102c55780635d58d0a1146102d857806361387d61146102eb578063684a10b3146102fe57600080fd5b80633252c1d0116101b85780633252c1d01461026c578063459511d11461027f57806346bd32f51461029257806358bb97fb146102a557600080fd5b806319ed16dc146101df57806320c29bca146102085780632879196f1461022b575b600080fd5b6101f26101ed366004612694565b6104e6565b6040516101ff91906129a9565b60405180910390f35b61021b610216366004612694565b6105f3565b60405190151581526020016101ff565b61023e610239366004612443565b6106aa565b60408051825160ff1681526020808401516001600160a01b03169082015291810151908201526060016101ff565b61021b61027a366004612553565b61075e565b61023e61028d366004612443565b6107e9565b61021b6102a0366004612788565b610849565b6102b86102b3366004612391565b610a14565b6040516101ff9190612925565b61021b6102d33660046123ae565b610ac0565b61021b6102e6366004612402565b610b60565b6102b86102f93660046126dd565b610cbe565b610306610d83565b6040516101ff9190612827565b61031b610e3b565b005b61031b61032b366004612402565b610e90565b600a54610343906001600160a01b031681565b6040516001600160a01b0390911681526020016101ff565b61036e610369366004612402565b610fa5565b6040516101ff9190612889565b61021b610389366004612443565b61106c565b6103a161039c366004612443565b611274565b6040516101ff9190600060c082019050825182526020830151602083015260408301516040830152606083015160608301526080830151608083015260a083015160a083015292915050565b61021b6103fb366004612402565b61135f565b61034361040e366004612443565b6113a8565b61021b610421366004612553565b61147e565b61021b610434366004612443565b61150d565b6102b86104473660046126ad565b6115d2565b61031b61045a36600461248e565b611601565b61021b61046d3660046124ec565b611674565b61047a6116f8565b6040516101ff91906128e1565b61021b610495366004612402565b611750565b61021b6104a836600461270f565b611842565b61021b6104bb366004612694565b6118db565b61031b6104ce366004612391565b6119f0565b61021b6104e1366004612694565b611a72565b6040805160808101825260608082526000602083018190529282018390528101919091526000828152600360205260409081902081516080810190925280548290829061053290612b8f565b80601f016020809104026020016040519081016040528092919081815260200182805461055e90612b8f565b80156105ab5780601f10610580576101008083540402835291602001916105ab565b820191906000526020600020905b81548152906001019060200180831161058e57829003601f168201915b505050918352505060018201546001600160a01b03811660208301526001600160401b03600160a01b9091048116604083015260029092015490911660609091015292915050565b600a546000906001600160a01b031633146106295760405162461bcd60e51b815260040161062090612985565b60405180910390fd5b61063282611a72565b156106705760405162461bcd60e51b815260206004820152600e60248201526d18da185a5b88125108195e1a5cdd60921b6044820152606401610620565b5060008054600181810183559180527f290decd9548b62a8d60345a988386fc84ba6bc95484008f6362f93160ef3e563018290555b919050565b60408051606081018252600080825260208201819052918101919091526005600061070a86868080601f016020809104026020016040519081016040528093929190818152602001838380828437600092019190915250611abe92505050565b81526020808201929092526040908101600090812085825283528190208151606081018352815460ff8116825261010090046001600160a01b031693810193909352600101549082015290505b9392505050565b600061076f36839003830183612624565b60208101516001600160a01b031661078657600080fd5b6107df6107c887878080601f016020809104026020016040519081016040528093929190818152602001838380828437600092019190915250611abe92505050565b856107d836879003870187612624565b6001611ac5565b9695505050505050565b60408051606081018252600080825260208201819052918101919091526004600061070a86868080601f016020809104026020016040519081016040528093929190818152602001838380828437600092019190915250611abe92505050565b600a546000906001600160a01b031633146108765760405162461bcd60e51b815260040161062090612985565b61087f82612ac1565b60208101516001600160a01b03166108d05760405162461bcd60e51b81526020600482015260146024820152731e995c9bc81c9bdd5d195c8818dbdb9d1c9858dd60621b6044820152606401610620565b600081604001516001600160401b03161161092d5760405162461bcd60e51b815260206004820152601c60248201527f7a65726f20636f6e6669726d6174696f6e7320697320756e73616665000000006044820152606401610620565b805151158015906109415750805151608010155b61098d5760405162461bcd60e51b815260206004820152601760248201527f77726f6e6720426c6f636b436861696e206c656e6774680000000000000000006044820152606401610620565b600084116109ad5760405162461bcd60e51b81526004016106209061295f565b600084815260036020526040902083906109c78282612c77565b9050506109d384611a72565b610a0a57600080546001810182559080527f290decd9548b62a8d60345a988386fc84ba6bc95484008f6362f93160ef3e563018490555b5060019392505050565b6001600160a01b0381166000908152600960205260409020805460609190610a3b90612b8f565b80601f0160208091040260200160405190810160405280929190818152602001828054610a6790612b8f565b8015610ab45780601f10610a8957610100808354040283529160200191610ab4565b820191906000526020600020905b815481529060010190602001808311610a9757829003601f168201915b50505050509050919050565b600a546000906001600160a01b03163314610aed5760405162461bcd60e51b815260040161062090612985565b6001600160a01b038416610b325760405162461bcd60e51b815260206004820152600c60248201526b7a65726f206164647265737360a01b6044820152606401610620565b6001600160a01b0384166000908152600960205260409020610b5590848461224f565b506001949350505050565b600a546000906001600160a01b03163314610b8d5760405162461bcd60e51b815260040161062090612985565b6000610bce84848080601f016020809104026020016040519081016040528093929190818152602001838380828437600092019190915250611abe92505050565b905060005b600154811015610cb1578160018281548110610bf157610bf1612c31565b90600052602060002001541415610ca1575b6001805490610c13908390612a5e565b1015610c6f576001610c258282612a5e565b81548110610c3557610c35612c31565b906000526020600020015460018281548110610c5357610c53612c31565b600091825260209091200155610c6881612bca565b9050610c03565b6001805480610c8057610c80612c1b565b60019003818190600052602060002001600090559055600192505050610cb8565b610caa81612bca565b9050610bd3565b5060009150505b92915050565b6060600760008581526020019081526020016000208383604051610ce3929190612817565b90815260200160405180910390208054610cfc90612b8f565b80601f0160208091040260200160405190810160405280929190818152602001828054610d2890612b8f565b8015610d755780601f10610d4a57610100808354040283529160200191610d75565b820191906000526020600020905b815481529060010190602001808311610d5857829003601f168201915b505050505090509392505050565b600154606090806001600160401b03811115610da157610da1612c47565b604051908082528060200260200182016040528015610dd457816020015b6060815260200190600190039081610dbf5790505b50915060005b81811015610e3657610e0860018281548110610df857610df8612c31565b9060005260206000200154611c28565b838281518110610e1a57610e1a612c31565b602002602001018190525080610e2f90612bca565b9050610dda565b505090565b600a546001600160a01b03163314610e655760405162461bcd60e51b815260040161062090612985565b6040517f22590461e7ba17e1fe7580cb0ea47f283d3b2248f04873dfbe926d08fe4c5ab990600090a1565b600a546001600160a01b03163314610eba5760405162461bcd60e51b815260040161062090612985565b6000610efb83838080601f016020809104026020016040519081016040528093929190818152602001838380828437600092019190915250611abe92505050565b60008181526002602052604081209192505b8154811015610f87576000828281548110610f2a57610f2a612c31565b60009182526020808320604080518082018252600290940290910180548085526001909101546001600160a01b0390811694840194855290855260088352818520935116845291905281205550610f8081612bca565b9050610f0d565b506000828152600260205260408120610f9f916122d3565b50505050565b606060026000610fea85858080601f016020809104026020016040519081016040528093929190818152602001838380828437600092019190915250611abe92505050565b8152602001908152602001600020805480602002602001604051908101604052809291908181526020016000905b828210156110605760008481526020908190206040805180820190915260028502909101805482526001908101546001600160a01b0316828401529083529092019101611018565b50505050905092915050565b600a546000906001600160a01b031633146110995760405162461bcd60e51b815260040161062090612985565b6000600260006110de87878080601f016020809104026020016040519081016040528093929190818152602001838380828437600092019190915250611abe92505050565b8152602001908152602001600020905060005b8154811015611268578382828154811061110d5761110d612c31565b90600052602060002090600202016000015414156112585760008481526008602052604081208354829085908590811061114957611149612c31565b60009182526020808320600160029093020191909101546001600160a01b031683528201929092526040019020555b8154611185826001612a5e565b10156112115781611197826001612a5e565b815481106111a7576111a7612c31565b90600052602060002090600202018282815481106111c7576111c7612c31565b600091825260209091208254600290920201908155600191820154910180546001600160a01b0319166001600160a01b0390921691909117905561120a81612bca565b9050611178565b8180548061122157611221612c1b565b600082815260208120600260001990930192830201908155600190810180546001600160a01b031916905591559250610757915050565b61126181612bca565b90506110f1565b50600095945050505050565b6112ad6040518060c001604052806000815260200160008152602001600081526020016000815260200160008152602001600081525090565b600660006112f086868080601f016020809104026020016040519081016040528093929190818152602001838380828437600092019190915250611abe92505050565b815260200190815260200160002060008381526020019081526020016000206040518060c0016040529081600082015481526020016001820154815260200160028201548152602001600382015481526020016004820154815260200160058201548152505090509392505050565b60006107576113a384848080601f016020809104026020016040519081016040528093929190818152602001838380828437600092019190915250611abe92505050565b611d2e565b600080600260006113ee87878080601f016020809104026020016040519081016040528093929190818152602001838380828437600092019190915250611abe92505050565b8152602001908152602001600020905060005b8154811015611268578382828154811061141d5761141d612c31565b906000526020600020906002020160000154141561146e5781818154811061144757611447612c31565b60009182526020909120600160029092020101546001600160a01b03169250610757915050565b61147781612bca565b9050611401565b600a546000906001600160a01b031633146114ab5760405162461bcd60e51b815260040161062090612985565b6115046114ed86868080601f016020809104026020016040519081016040528093929190818152602001838380828437600092019190915250611abe92505050565b846114fd36869003860186612624565b6000611ac5565b95945050505050565b600a546000906001600160a01b0316331461153a5760405162461bcd60e51b815260040161062090612985565b600061157b85858080601f016020809104026020016040519081016040528093929190818152602001838380828437600092019190915250611abe92505050565b600081815260056020908152604080832087845282528083208151606081018352815460ff8116825261010090046001600160a01b0316938101939093526001015490820152919250611504918391869190611ac5565b60008281526008602090815260408083206001600160a01b038516845290915290205460609061075790611c28565b600a546001600160a01b0316331461162b5760405162461bcd60e51b815260040161062090612985565b610f9f61166d85858080601f016020809104026020016040519081016040528093929190818152602001838380828437600092019190915250611abe92505050565b8383611d7a565b600a546000906001600160a01b031633146116a15760405162461bcd60e51b815260040161062090612985565b6115046116e386868080601f016020809104026020016040519081016040528093929190818152602001838380828437600092019190915250611abe92505050565b846116f3368690038601866125ab565b611f26565b6060600080548060200260200160405190810160405280929190818152602001828054801561174657602002820191906000526020600020905b815481526020019060010190808311611732575b5050505050905090565b600a546000906001600160a01b0316331461177d5760405162461bcd60e51b815260040161062090612985565b60006117be84848080601f016020809104026020016040519081016040528093929190818152602001838380828437600092019190915250611abe92505050565b90506117c981611d2e565b156118075760405162461bcd60e51b815260206004820152600e60248201526d1d1bdad95b88125108195e1a5cdd60921b6044820152606401610620565b60018054808201825560008290527fb10e2d527612073b26eecdfd717e6a320cf44b4afac2b0732d9fcbe2b7fa0cf601919091559392505050565b600a546000906001600160a01b0316331461186f5760405162461bcd60e51b815260040161062090612985565b6000861161188f5760405162461bcd60e51b81526004016106209061295f565b82826007600089815260200190815260200160002087876040516118b4929190612817565b9081526040519081900360200190206118ce92909161224f565b5060019695505050505050565b600a546000906001600160a01b031633146119085760405162461bcd60e51b815260040161062090612985565b60005b6000548110156119e757826000828154811061192957611929612c31565b906000526020600020015414156119d7575b600054611949826001612a5e565b10156119a657600061195c826001612a5e565b8154811061196c5761196c612c31565b90600052602060002001546000828154811061198a5761198a612c31565b60009182526020909120015561199f81612bca565b905061193b565b60008054806119b7576119b7612c1b565b600190038181906000526020600020016000905590556001915050919050565b6119e081612bca565b905061190b565b50600092915050565b600a546001600160a01b03163314611a1a5760405162461bcd60e51b815260040161062090612985565b6040516001600160a01b0382169033907f8be0079c531659141344cd1fd0a4f28419497f9722a3daafe3b4186f6b6457e090600090a3600a80546001600160a01b0319166001600160a01b0392909216919091179055565b6000805b6000548110156119e7578260008281548110611a9457611a94612c31565b90600052602060002001541415611aae5750600192915050565b611ab781612bca565b9050611a76565b6020015190565b602082015160009083906001600160a01b0316611ae157600080fd5b85611afe5760405162461bcd60e51b815260040161062090612938565b60008511611b1e5760405162461bcd60e51b81526004016106209061295f565b8215611b7a57600086815260056020908152604080832088845282529182902086518154928801516001600160a01b0316610100026001600160a81b031990931660ff9091161791909117815590850151600190910155611c1c565b600086815260046020908152604080832088845282529182902086518154928801516001600160a01b0316610100026001600160a81b031990931660ff9091161791909117815590850151600190910155611bd486611d2e565b611c0d576001805480820182556000919091527fb10e2d527612073b26eecdfd717e6a320cf44b4afac2b0732d9fcbe2b7fa0cf6018690555b611c1c86868660200151611d7a565b50600195945050505050565b606060005b60208160ff16108015611c615750828160ff1660208110611c5057611c50612c31565b1a60f81b6001600160f81b03191615155b15611c7657611c6f81612be5565b9050611c2d565b60008160ff166001600160401b03811115611c9357611c93612c47565b6040519080825280601f01601f191660200182016040528015611cbd576020820181803683370190505b50905060005b8260ff168160ff161015611d2657848160ff1660208110611ce657611ce6612c31565b1a60f81b828260ff1681518110611cff57611cff612c31565b60200101906001600160f81b031916908160001a905350611d1f81612be5565b9050611cc3565b509392505050565b6000805b6001548110156119e7578260018281548110611d5057611d50612c31565b90600052602060002001541415611d6a5750600192915050565b611d7381612bca565b9050611d32565b82611d975760405162461bcd60e51b815260040161062090612938565b60008211611db75760405162461bcd60e51b81526004016106209061295f565b6000838152600260205260408120905b8154811015611eb75783828281548110611de357611de3612c31565b9060005260206000209060020201600001541415611ea7576000828281548110611e0f57611e0f612c31565b60009182526020909120600160029092020101546001600160a01b03908116915084168114611e9f5783838381548110611e4b57611e4b612c31565b6000918252602080832060029290920290910160010180546001600160a01b0319166001600160a01b0394851617905587825260088152604080832085851684529091528082208290559186168152208690555b505050505050565b611eb081612bca565b9050611dc7565b506040805180820182528481526001600160a01b0393841660208083018281528554600180820188556000978852838820955160029092029095019081559051930180546001600160a01b03191693909616929092179094559382526008845280822092825291909252902055565b6000816000816000015111611f705760405162461bcd60e51b815260206004820152601060248201526f07a65726f204d6178696d756d537761760841b6044820152606401610620565b6000816020015111611fb75760405162461bcd60e51b815260206004820152601060248201526f07a65726f204d696e696d756d537761760841b6044820152606401610620565b60008160400151116120045760405162461bcd60e51b81526020600482015260166024820152751e995c9bc8109a59d5985b1d59551a1c995cda1bdb1960521b6044820152606401610620565b6020810151815110156120595760405162461bcd60e51b815260206004820152601960248201527f4d6178696d756d53776170203c204d696e696d756d53776170000000000000006044820152606401610620565b8060a00151816080015110156120b15760405162461bcd60e51b815260206004820152601f60248201527f4d6178696d756d53776170466565203c204d696e696d756d53776170466565006044820152606401610620565b8060a00151816020015110156121095760405162461bcd60e51b815260206004820152601c60248201527f4d696e696d756d53776170203c204d696e696d756d53776170466565000000006044820152606401610620565b620f424081606001511061215f5760405162461bcd60e51b815260206004820181905260248201527f53776170466565526174655065724d696c6c696f6e203e3d20313030303030306044820152606401610620565b600081606001511180612174575060a0810151155b6121b75760405162461bcd60e51b815260206004820152601460248201527377726f6e67204d696e696d756d5377617046656560601b6044820152606401610620565b846121d45760405162461bcd60e51b815260040161062090612938565b600084116121f45760405162461bcd60e51b81526004016106209061295f565b50506000928352600660209081526040808520938552928152928290208151815592810151600180850191909155918101516002840155606081015160038401556080810151600484015560a0015160059092019190915590565b82805461225b90612b8f565b90600052602060002090601f01602090048101928261227d57600085556122c3565b82601f106122965782800160ff198235161785556122c3565b828001600101855582156122c3579182015b828111156122c35782358255916020019190600101906122a8565b506122cf9291506122f7565b5090565b50805460008255600202906000526020600020908101906122f4919061230c565b50565b5b808211156122cf57600081556001016122f8565b5b808211156122cf57600081556001810180546001600160a01b031916905560020161230d565b80356106a581612e02565b60008083601f84011261235057600080fd5b5081356001600160401b0381111561236757600080fd5b60208301915083602082850101111561237f57600080fd5b9250929050565b80356106a581612e17565b6000602082840312156123a357600080fd5b813561075781612e02565b6000806000604084860312156123c357600080fd5b83356123ce81612e02565b925060208401356001600160401b038111156123e957600080fd5b6123f58682870161233e565b9497909650939450505050565b6000806020838503121561241557600080fd5b82356001600160401b0381111561242b57600080fd5b6124378582860161233e565b90969095509350505050565b60008060006040848603121561245857600080fd5b83356001600160401b0381111561246e57600080fd5b61247a8682870161233e565b909790965060209590950135949350505050565b600080600080606085870312156124a457600080fd5b84356001600160401b038111156124ba57600080fd5b6124c68782880161233e565b9095509350506020850135915060408501356124e181612e02565b939692955090935050565b60008060008084860361010081121561250457600080fd5b85356001600160401b0381111561251a57600080fd5b6125268882890161233e565b9096509450506020860135925060c0603f198201121561254557600080fd5b509295919450926040019150565b60008060008084860360a081121561256a57600080fd5b85356001600160401b0381111561258057600080fd5b61258c8882890161233e565b909650945050602086013592506060603f198201121561254557600080fd5b600060c082840312156125bd57600080fd5b60405160c081018181106001600160401b03821117156125df576125df612c47565b8060405250823581526020830135602082015260408301356040820152606083013560608201526080830135608082015260a083013560a08201528091505092915050565b60006060828403121561263657600080fd5b604051606081018181106001600160401b038211171561265857612658612c47565b604052823560ff8116811461266c57600080fd5b8152602083013561267c81612e02565b60208201526040928301359281019290925250919050565b6000602082840312156126a657600080fd5b5035919050565b600080604083850312156126c057600080fd5b8235915060208301356126d281612e02565b809150509250929050565b6000806000604084860312156126f257600080fd5b8335925060208401356001600160401b038111156123e957600080fd5b60008060008060006060868803121561272757600080fd5b8535945060208601356001600160401b038082111561274557600080fd5b61275189838a0161233e565b9096509450604088013591508082111561276a57600080fd5b506127778882890161233e565b969995985093965092949392505050565b6000806040838503121561279b57600080fd5b8235915060208301356001600160401b038111156127b857600080fd5b8301608081860312156126d257600080fd5b6000815180845260005b818110156127f0576020818501810151868301820152016127d4565b81811115612802576000602083870101525b50601f01601f19169290920160200192915050565b8183823760009101908152919050565b6000602080830181845280855180835260408601915060408160051b870101925083870160005b8281101561287c57603f1988860301845261286a8583516127ca565b9450928501929085019060010161284e565b5092979650505050505050565b602080825282518282018190526000919060409081850190868401855b828110156128d4578151805185528601516001600160a01b03168685015292840192908501906001016128a6565b5091979650505050505050565b6020808252825182820181905260009190848201906040850190845b81811015612919578351835292840192918401916001016128fd565b50909695505050505050565b60208152600061075760208301846127ca565b6020808252600d908201526c195b5c1d1e481d1bdad95b9251609a1b604082015260600190565b6020808252600c908201526b1e995c9bc818da185a5b925160a21b604082015260600190565b6020808252600a908201526937b7363c9037bbb732b960b11b604082015260600190565b6020815260008251608060208401526129c560a08401826127ca565b905060018060a01b03602085015116604084015260408401516001600160401b03808216606086015280606087015116608086015250508091505092915050565b604051608081016001600160401b0381118282101715612a2857612a28612c47565b60405290565b604051601f8201601f191681016001600160401b0381118282101715612a5657612a56612c47565b604052919050565b60008219821115612a7157612a71612c05565b500190565b601f821115612abc57600081815260208120601f850160051c81016020861015612a9d5750805b601f850160051c820191505b81811015611e9f57828155600101612aa9565b505050565b600060808236031215612ad357600080fd5b612adb612a06565b82356001600160401b0380821115612af257600080fd5b9084019036601f830112612b0557600080fd5b8135602082821115612b1957612b19612c47565b612b2b601f8301601f19168201612a2e565b92508183523681838601011115612b4157600080fd5b81818501828501376000818385010152828552612b5f818801612333565b8186015250505050612b7360408401612386565b6040820152612b8460608401612386565b606082015292915050565b600181811c90821680612ba357607f821691505b60208210811415612bc457634e487b7160e01b600052602260045260246000fd5b50919050565b6000600019821415612bde57612bde612c05565b5060010190565b600060ff821660ff811415612bfc57612bfc612c05565b60010192915050565b634e487b7160e01b600052601160045260246000fd5b634e487b7160e01b600052603160045260246000fd5b634e487b7160e01b600052603260045260246000fd5b634e487b7160e01b600052604160045260246000fd5b60008135610cb881612e02565b60008135610cb881612e17565b8135601e19833603018112612c8b57600080fd5b820180356001600160401b03811115612ca357600080fd5b60208136038184011315612cb657600080fd5b612cca82612cc48654612b8f565b86612a76565b6000601f831160018114612d005760008415612ce857508482018301355b600019600386901b1c1916600185901b178655612d5d565b600086815260209020601f19851690835b82811015612d32578785018601358255938501936001909101908501612d11565b5085821015612d515760001960f88760031b161c198585890101351681555b505060018460011b0186555b5050600184019250612d90612d73828701612c5d565b84546001600160a01b0319166001600160a01b0391909116178455565b5050612dcd612da160408501612c6a565b82805467ffffffffffffffff60a01b191660a09290921b67ffffffffffffffff60a01b16919091179055565b50612dfe612ddd60608401612c6a565b600283016001600160401b0382166001600160401b03198254161781555050565b5050565b6001600160a01b03811681146122f457600080fd5b6001600160401b03811681146122f457600080fdfea2646970667358221220cd7be542ccd90d172e5ded487c5668cd6517cbe39b0364bebd0324fa1632b42664736f6c63430008060033",
					"opcodes": "PUSH1 0x80 PUSH1 0x40 MSTORE CALLVALUE DUP1 ISZERO PUSH2 0x10 JUMPI PUSH1 0x0 DUP1 REVERT JUMPDEST POP PUSH1 0xA DUP1 SLOAD PUSH1 0x1 PUSH1 0x1 PUSH1 0xA0 SHL SUB NOT AND CALLER OR SWAP1 SSTORE PUSH2 0x2E62 DUP1 PUSH2 0x32 PUSH1 0x0 CODECOPY PUSH1 0x0 RETURN INVALID PUSH1 0x80 PUSH1 0x40 MSTORE CALLVALUE DUP1 ISZERO PUSH2 0x10 JUMPI PUSH1 0x0 DUP1 REVERT JUMPDEST POP PUSH1 0x4 CALLDATASIZE LT PUSH2 0x1DA JUMPI PUSH1 0x0 CALLDATALOAD PUSH1 0xE0 SHR DUP1 PUSH4 0x9026B205 GT PUSH2 0x104 JUMPI DUP1 PUSH4 0xC5E7601A GT PUSH2 0xA2 JUMPI DUP1 PUSH4 0xE671242A GT PUSH2 0x71 JUMPI DUP1 PUSH4 0xE671242A EQ PUSH2 0x49A JUMPI DUP1 PUSH4 0xE90768C6 EQ PUSH2 0x4AD JUMPI DUP1 PUSH4 0xF2FDE38B EQ PUSH2 0x4C0 JUMPI DUP1 PUSH4 0xFD15EA70 EQ PUSH2 0x4D3 JUMPI PUSH1 0x0 DUP1 REVERT JUMPDEST DUP1 PUSH4 0xC5E7601A EQ PUSH2 0x44C JUMPI DUP1 PUSH4 0xCA29EE96 EQ PUSH2 0x45F JUMPI DUP1 PUSH4 0xE27112D5 EQ PUSH2 0x472 JUMPI DUP1 PUSH4 0xE3E01664 EQ PUSH2 0x487 JUMPI PUSH1 0x0 DUP1 REVERT JUMPDEST DUP1 PUSH4 0xB735AB5A GT PUSH2 0xDE JUMPI DUP1 PUSH4 0xB735AB5A EQ PUSH2 0x400 JUMPI DUP1 PUSH4 0xBA6E0D0F EQ PUSH2 0x413 JUMPI DUP1 PUSH4 0xBC772A28 EQ PUSH2 0x426 JUMPI DUP1 PUSH4 0xC4FB2E4B EQ PUSH2 0x439 JUMPI PUSH1 0x0 DUP1 REVERT JUMPDEST DUP1 PUSH4 0x9026B205 EQ PUSH2 0x37B JUMPI DUP1 PUSH4 0x9AF93E7A EQ PUSH2 0x38E JUMPI DUP1 PUSH4 0xAF611CA0 EQ PUSH2 0x3ED JUMPI PUSH1 0x0 DUP1 REVERT JUMPDEST DUP1 PUSH4 0x5B751858 GT PUSH2 0x17C JUMPI DUP1 PUSH4 0x747FD44C GT PUSH2 0x14B JUMPI DUP1 PUSH4 0x747FD44C EQ PUSH2 0x313 JUMPI DUP1 PUSH4 0x83F5D5D4 EQ PUSH2 0x31D JUMPI DUP1 PUSH4 0x8DA5CB5B EQ PUSH2 0x330 JUMPI DUP1 PUSH4 0x8FCB62A3 EQ PUSH2 0x35B JUMPI PUSH1 0x0 DUP1 REVERT JUMPDEST DUP1 PUSH4 0x5B751858 EQ PUSH2 0x2C5 JUMPI DUP1 PUSH4 0x5D58D0A1 EQ PUSH2 0x2D8 JUMPI DUP1 PUSH4 0x61387D61 EQ PUSH2 0x2EB JUMPI DUP1 PUSH4 0x684A10B3 EQ PUSH2 0x2FE JUMPI PUSH1 0x0 DUP1 REVERT JUMPDEST DUP1 PUSH4 0x3252C1D0 GT PUSH2 0x1B8 JUMPI DUP1 PUSH4 0x3252C1D0 EQ PUSH2 0x26C JUMPI DUP1 PUSH4 0x459511D1 EQ PUSH2 0x27F JUMPI DUP1 PUSH4 0x46BD32F5 EQ PUSH2 0x292 JUMPI DUP1 PUSH4 0x58BB97FB EQ PUSH2 0x2A5 JUMPI PUSH1 0x0 DUP1 REVERT JUMPDEST DUP1 PUSH4 0x19ED16DC EQ PUSH2 0x1DF JUMPI DUP1 PUSH4 0x20C29BCA EQ PUSH2 0x208 JUMPI DUP1 PUSH4 0x2879196F EQ PUSH2 0x22B JUMPI JUMPDEST PUSH1 0x0 DUP1 REVERT JUMPDEST PUSH2 0x1F2 PUSH2 0x1ED CALLDATASIZE PUSH1 0x4 PUSH2 0x2694 JUMP JUMPDEST PUSH2 0x4E6 JUMP JUMPDEST PUSH1 0x40 MLOAD PUSH2 0x1FF SWAP2 SWAP1 PUSH2 0x29A9 JUMP JUMPDEST PUSH1 0x40 MLOAD DUP1 SWAP2 SUB SWAP1 RETURN JUMPDEST PUSH2 0x21B PUSH2 0x216 CALLDATASIZE PUSH1 0x4 PUSH2 0x2694 JUMP JUMPDEST PUSH2 0x5F3 JUMP JUMPDEST PUSH1 0x40 MLOAD SWAP1 ISZERO ISZERO DUP2 MSTORE PUSH1 0x20 ADD PUSH2 0x1FF JUMP JUMPDEST PUSH2 0x23E PUSH2 0x239 CALLDATASIZE PUSH1 0x4 PUSH2 0x2443 JUMP JUMPDEST PUSH2 0x6AA JUMP JUMPDEST PUSH1 0x40 DUP1 MLOAD DUP3 MLOAD PUSH1 0xFF AND DUP2 MSTORE PUSH1 0x20 DUP1 DUP5 ADD MLOAD PUSH1 0x1 PUSH1 0x1 PUSH1 0xA0 SHL SUB AND SWAP1 DUP3 ADD MSTORE SWAP2 DUP2 ADD MLOAD SWAP1 DUP3 ADD MSTORE PUSH1 0x60 ADD PUSH2 0x1FF JUMP JUMPDEST PUSH2 0x21B PUSH2 0x27A CALLDATASIZE PUSH1 0x4 PUSH2 0x2553 JUMP JUMPDEST PUSH2 0x75E JUMP JUMPDEST PUSH2 0x23E PUSH2 0x28D CALLDATASIZE PUSH1 0x4 PUSH2 0x2443 JUMP JUMPDEST PUSH2 0x7E9 JUMP JUMPDEST PUSH2 0x21B PUSH2 0x2A0 CALLDATASIZE PUSH1 0x4 PUSH2 0x2788 JUMP JUMPDEST PUSH2 0x849 JUMP JUMPDEST PUSH2 0x2B8 PUSH2 0x2B3 CALLDATASIZE PUSH1 0x4 PUSH2 0x2391 JUMP JUMPDEST PUSH2 0xA14 JUMP JUMPDEST PUSH1 0x40 MLOAD PUSH2 0x1FF SWAP2 SWAP1 PUSH2 0x2925 JUMP JUMPDEST PUSH2 0x21B PUSH2 0x2D3 CALLDATASIZE PUSH1 0x4 PUSH2 0x23AE JUMP JUMPDEST PUSH2 0xAC0 JUMP JUMPDEST PUSH2 0x21B PUSH2 0x2E6 CALLDATASIZE PUSH1 0x4 PUSH2 0x2402 JUMP JUMPDEST PUSH2 0xB60 JUMP JUMPDEST PUSH2 0x2B8 PUSH2 0x2F9 CALLDATASIZE PUSH1 0x4 PUSH2 0x26DD JUMP JUMPDEST PUSH2 0xCBE JUMP JUMPDEST PUSH2 0x306 PUSH2 0xD83 JUMP JUMPDEST PUSH1 0x40 MLOAD PUSH2 0x1FF SWAP2 SWAP1 PUSH2 0x2827 JUMP JUMPDEST PUSH2 0x31B PUSH2 0xE3B JUMP JUMPDEST STOP JUMPDEST PUSH2 0x31B PUSH2 0x32B CALLDATASIZE PUSH1 0x4 PUSH2 0x2402 JUMP JUMPDEST PUSH2 0xE90 JUMP JUMPDEST PUSH1 0xA SLOAD PUSH2 0x343 SWAP1 PUSH1 0x1 PUSH1 0x1 PUSH1 0xA0 SHL SUB AND DUP2 JUMP JUMPDEST PUSH1 0x40 MLOAD PUSH1 0x1 PUSH1 0x1 PUSH1 0xA0 SHL SUB SWAP1 SWAP2 AND DUP2 MSTORE PUSH1 0x20 ADD PUSH2 0x1FF JUMP JUMPDEST PUSH2 0x36E PUSH2 0x369 CALLDATASIZE PUSH1 0x4 PUSH2 0x2402 JUMP JUMPDEST PUSH2 0xFA5 JUMP JUMPDEST PUSH1 0x40 MLOAD PUSH2 0x1FF SWAP2 SWAP1 PUSH2 0x2889 JUMP JUMPDEST PUSH2 0x21B PUSH2 0x389 CALLDATASIZE PUSH1 0x4 PUSH2 0x2443 JUMP JUMPDEST PUSH2 0x106C JUMP JUMPDEST PUSH2 0x3A1 PUSH2 0x39C CALLDATASIZE PUSH1 0x4 PUSH2 0x2443 JUMP JUMPDEST PUSH2 0x1274 JUMP JUMPDEST PUSH1 0x40 MLOAD PUSH2 0x1FF SWAP2 SWAP1 PUSH1 0x0 PUSH1 0xC0 DUP3 ADD SWAP1 POP DUP3 MLOAD DUP3 MSTORE PUSH1 0x20 DUP4 ADD MLOAD PUSH1 0x20 DUP4 ADD MSTORE PUSH1 0x40 DUP4 ADD MLOAD PUSH1 0x40 DUP4 ADD MSTORE PUSH1 0x60 DUP4 ADD MLOAD PUSH1 0x60 DUP4 ADD MSTORE PUSH1 0x80 DUP4 ADD MLOAD PUSH1 0x80 DUP4 ADD MSTORE PUSH1 0xA0 DUP4 ADD MLOAD PUSH1 0xA0 DUP4 ADD MSTORE SWAP3 SWAP2 POP POP JUMP JUMPDEST PUSH2 0x21B PUSH2 0x3FB CALLDATASIZE PUSH1 0x4 PUSH2 0x2402 JUMP JUMPDEST PUSH2 0x135F JUMP JUMPDEST PUSH2 0x343 PUSH2 0x40E CALLDATASIZE PUSH1 0x4 PUSH2 0x2443 JUMP JUMPDEST PUSH2 0x13A8 JUMP JUMPDEST PUSH2 0x21B PUSH2 0x421 CALLDATASIZE PUSH1 0x4 PUSH2 0x2553 JUMP JUMPDEST PUSH2 0x147E JUMP JUMPDEST PUSH2 0x21B PUSH2 0x434 CALLDATASIZE PUSH1 0x4 PUSH2 0x2443 JUMP JUMPDEST PUSH2 0x150D JUMP JUMPDEST PUSH2 0x2B8 PUSH2 0x447 CALLDATASIZE PUSH1 0x4 PUSH2 0x26AD JUMP JUMPDEST PUSH2 0x15D2 JUMP JUMPDEST PUSH2 0x31B PUSH2 0x45A CALLDATASIZE PUSH1 0x4 PUSH2 0x248E JUMP JUMPDEST PUSH2 0x1601 JUMP JUMPDEST PUSH2 0x21B PUSH2 0x46D CALLDATASIZE PUSH1 0x4 PUSH2 0x24EC JUMP JUMPDEST PUSH2 0x1674 JUMP JUMPDEST PUSH2 0x47A PUSH2 0x16F8 JUMP JUMPDEST PUSH1 0x40 MLOAD PUSH2 0x1FF SWAP2 SWAP1 PUSH2 0x28E1 JUMP JUMPDEST PUSH2 0x21B PUSH2 0x495 CALLDATASIZE PUSH1 0x4 PUSH2 0x2402 JUMP JUMPDEST PUSH2 0x1750 JUMP JUMPDEST PUSH2 0x21B PUSH2 0x4A8 CALLDATASIZE PUSH1 0x4 PUSH2 0x270F JUMP JUMPDEST PUSH2 0x1842 JUMP JUMPDEST PUSH2 0x21B PUSH2 0x4BB CALLDATASIZE PUSH1 0x4 PUSH2 0x2694 JUMP JUMPDEST PUSH2 0x18DB JUMP JUMPDEST PUSH2 0x31B PUSH2 0x4CE CALLDATASIZE PUSH1 0x4 PUSH2 0x2391 JUMP JUMPDEST PUSH2 0x19F0 JUMP JUMPDEST PUSH2 0x21B PUSH2 0x4E1 CALLDATASIZE PUSH1 0x4 PUSH2 0x2694 JUMP JUMPDEST PUSH2 0x1A72 JUMP JUMPDEST PUSH1 0x40 DUP1 MLOAD PUSH1 0x80 DUP2 ADD DUP3 MSTORE PUSH1 0x60 DUP1 DUP3 MSTORE PUSH1 0x0 PUSH1 0x20 DUP4 ADD DUP2 SWAP1 MSTORE SWAP3 DUP3 ADD DUP4 SWAP1 MSTORE DUP2 ADD SWAP2 SWAP1 SWAP2 MSTORE PUSH1 0x0 DUP3 DUP2 MSTORE PUSH1 0x3 PUSH1 0x20 MSTORE PUSH1 0x40 SWAP1 DUP2 SWAP1 KECCAK256 DUP2 MLOAD PUSH1 0x80 DUP2 ADD SWAP1 SWAP3 MSTORE DUP1 SLOAD DUP3 SWAP1 DUP3 SWAP1 PUSH2 0x532 SWAP1 PUSH2 0x2B8F JUMP JUMPDEST DUP1 PUSH1 0x1F ADD PUSH1 0x20 DUP1 SWAP2 DIV MUL PUSH1 0x20 ADD PUSH1 0x40 MLOAD SWAP1 DUP2 ADD PUSH1 0x40 MSTORE DUP1 SWAP3 SWAP2 SWAP1 DUP2 DUP2 MSTORE PUSH1 0x20 ADD DUP3 DUP1 SLOAD PUSH2 0x55E SWAP1 PUSH2 0x2B8F JUMP JUMPDEST DUP1 ISZERO PUSH2 0x5AB JUMPI DUP1 PUSH1 0x1F LT PUSH2 0x580 JUMPI PUSH2 0x100 DUP1 DUP4 SLOAD DIV MUL DUP4 MSTORE SWAP2 PUSH1 0x20 ADD SWAP2 PUSH2 0x5AB JUMP JUMPDEST DUP3 ADD SWAP2 SWAP1 PUSH1 0x0 MSTORE PUSH1 0x20 PUSH1 0x0 KECCAK256 SWAP1 JUMPDEST DUP2 SLOAD DUP2 MSTORE SWAP1 PUSH1 0x1 ADD SWAP1 PUSH1 0x20 ADD DUP1 DUP4 GT PUSH2 0x58E JUMPI DUP3 SWAP1 SUB PUSH1 0x1F AND DUP3 ADD SWAP2 JUMPDEST POP POP POP SWAP2 DUP4 MSTORE POP POP PUSH1 0x1 DUP3 ADD SLOAD PUSH1 0x1 PUSH1 0x1 PUSH1 0xA0 SHL SUB DUP2 AND PUSH1 0x20 DUP4 ADD MSTORE PUSH1 0x1 PUSH1 0x1 PUSH1 0x40 SHL SUB PUSH1 0x1 PUSH1 0xA0 SHL SWAP1 SWAP2 DIV DUP2 AND PUSH1 0x40 DUP4 ADD MSTORE PUSH1 0x2 SWAP1 SWAP3 ADD SLOAD SWAP1 SWAP2 AND PUSH1 0x60 SWAP1 SWAP2 ADD MSTORE SWAP3 SWAP2 POP POP JUMP JUMPDEST PUSH1 0xA SLOAD PUSH1 0x0 SWAP1 PUSH1 0x1 PUSH1 0x1 PUSH1 0xA0 SHL SUB AND CALLER EQ PUSH2 0x629 JUMPI PUSH1 0x40 MLOAD PUSH3 0x461BCD PUSH1 0xE5 SHL DUP2 MSTORE PUSH1 0x4 ADD PUSH2 0x620 SWAP1 PUSH2 0x2985 JUMP JUMPDEST PUSH1 0x40 MLOAD DUP1 SWAP2 SUB SWAP1 REVERT JUMPDEST PUSH2 0x632 DUP3 PUSH2 0x1A72 JUMP JUMPDEST ISZERO PUSH2 0x670 JUMPI PUSH1 0x40 MLOAD PUSH3 0x461BCD PUSH1 0xE5 SHL DUP2 MSTORE PUSH1 0x20 PUSH1 0x4 DUP3 ADD MSTORE PUSH1 0xE PUSH1 0x24 DUP3 ADD MSTORE PUSH14 0x18DA185A5B88125108195E1A5CDD PUSH1 0x92 SHL PUSH1 0x44 DUP3 ADD MSTORE PUSH1 0x64 ADD PUSH2 0x620 JUMP JUMPDEST POP PUSH1 0x0 DUP1 SLOAD PUSH1 0x1 DUP2 DUP2 ADD DUP4 SSTORE SWAP2 DUP1 MSTORE PUSH32 0x290DECD9548B62A8D60345A988386FC84BA6BC95484008F6362F93160EF3E563 ADD DUP3 SWAP1 SSTORE JUMPDEST SWAP2 SWAP1 POP JUMP JUMPDEST PUSH1 0x40 DUP1 MLOAD PUSH1 0x60 DUP2 ADD DUP3 MSTORE PUSH1 0x0 DUP1 DUP3 MSTORE PUSH1 0x20 DUP3 ADD DUP2 SWAP1 MSTORE SWAP2 DUP2 ADD SWAP2 SWAP1 SWAP2 MSTORE PUSH1 0x5 PUSH1 0x0 PUSH2 0x70A DUP7 DUP7 DUP1 DUP1 PUSH1 0x1F ADD PUSH1 0x20 DUP1 SWAP2 DIV MUL PUSH1 0x20 ADD PUSH1 0x40 MLOAD SWAP1 DUP2 ADD PUSH1 0x40 MSTORE DUP1 SWAP4 SWAP3 SWAP2 SWAP1 DUP2 DUP2 MSTORE PUSH1 0x20 ADD DUP4 DUP4 DUP1 DUP3 DUP5 CALLDATACOPY PUSH1 0x0 SWAP3 ADD SWAP2 SWAP1 SWAP2 MSTORE POP PUSH2 0x1ABE SWAP3 POP POP POP JUMP JUMPDEST DUP2 MSTORE PUSH1 0x20 DUP1 DUP3 ADD SWAP3 SWAP1 SWAP3 MSTORE PUSH1 0x40 SWAP1 DUP2 ADD PUSH1 0x0 SWAP1 DUP2 KECCAK256 DUP6 DUP3 MSTORE DUP4 MSTORE DUP2 SWAP1 KECCAK256 DUP2 MLOAD PUSH1 0x60 DUP2 ADD DUP4 MSTORE DUP2 SLOAD PUSH1 0xFF DUP2 AND DUP3 MSTORE PUSH2 0x100 SWAP1 DIV PUSH1 0x1 PUSH1 0x1 PUSH1 0xA0 SHL SUB AND SWAP4 DUP2 ADD SWAP4 SWAP1 SWAP4 MSTORE PUSH1 0x1 ADD SLOAD SWAP1 DUP3 ADD MSTORE SWAP1 POP JUMPDEST SWAP4 SWAP3 POP POP POP JUMP JUMPDEST PUSH1 0x0 PUSH2 0x76F CALLDATASIZE DUP4 SWAP1 SUB DUP4 ADD DUP4 PUSH2 0x2624 JUMP JUMPDEST PUSH1 0x20 DUP2 ADD MLOAD PUSH1 0x1 PUSH1 0x1 PUSH1 0xA0 SHL SUB AND PUSH2 0x786 JUMPI PUSH1 0x0 DUP1 REVERT JUMPDEST PUSH2 0x7DF PUSH2 0x7C8 DUP8 DUP8 DUP1 DUP1 PUSH1 0x1F ADD PUSH1 0x20 DUP1 SWAP2 DIV MUL PUSH1 0x20 ADD PUSH1 0x40 MLOAD SWAP1 DUP2 ADD PUSH1 0x40 MSTORE DUP1 SWAP4 SWAP3 SWAP2 SWAP1 DUP2 DUP2 MSTORE PUSH1 0x20 ADD DUP4 DUP4 DUP1 DUP3 DUP5 CALLDATACOPY PUSH1 0x0 SWAP3 ADD SWAP2 SWAP1 SWAP2 MSTORE POP PUSH2 0x1ABE SWAP3 POP POP POP JUMP JUMPDEST DUP6 PUSH2 0x7D8 CALLDATASIZE DUP8 SWAP1 SUB DUP8 ADD DUP8 PUSH2 0x2624 JUMP JUMPDEST PUSH1 0x1 PUSH2 0x1AC5 JUMP JUMPDEST SWAP7 SWAP6 POP POP POP POP POP POP JUMP JUMPDEST PUSH1 0x40 DUP1 MLOAD PUSH1 0x60 DUP2 ADD DUP3 MSTORE PUSH1 0x0 DUP1 DUP3 MSTORE PUSH1 0x20 DUP3 ADD DUP2 SWAP1 MSTORE SWAP2 DUP2 ADD SWAP2 SWAP1 SWAP2 MSTORE PUSH1 0x4 PUSH1 0x0 PUSH2 0x70A DUP7 DUP7 DUP1 DUP1 PUSH1 0x1F ADD PUSH1 0x20 DUP1 SWAP2 DIV MUL PUSH1 0x20 ADD PUSH1 0x40 MLOAD SWAP1 DUP2 ADD PUSH1 0x40 MSTORE DUP1 SWAP4 SWAP3 SWAP2 SWAP1 DUP2 DUP2 MSTORE PUSH1 0x20 ADD DUP4 DUP4 DUP1 DUP3 DUP5 CALLDATACOPY PUSH1 0x0 SWAP3 ADD SWAP2 SWAP1 SWAP2 MSTORE POP PUSH2 0x1ABE SWAP3 POP POP POP JUMP JUMPDEST PUSH1 0xA SLOAD PUSH1 0x0 SWAP1 PUSH1 0x1 PUSH1 0x1 PUSH1 0xA0 SHL SUB AND CALLER EQ PUSH2 0x876 JUMPI PUSH1 0x40 MLOAD PUSH3 0x461BCD PUSH1 0xE5 SHL DUP2 MSTORE PUSH1 0x4 ADD PUSH2 0x620 SWAP1 PUSH2 0x2985 JUMP JUMPDEST PUSH2 0x87F DUP3 PUSH2 0x2AC1 JUMP JUMPDEST PUSH1 0x20 DUP2 ADD MLOAD PUSH1 0x1 PUSH1 0x1 PUSH1 0xA0 SHL SUB AND PUSH2 0x8D0 JUMPI PUSH1 0x40 MLOAD PUSH3 0x461BCD PUSH1 0xE5 SHL DUP2 MSTORE PUSH1 0x20 PUSH1 0x4 DUP3 ADD MSTORE PUSH1 0x14 PUSH1 0x24 DUP3 ADD MSTORE PUSH20 0x1E995C9BC81C9BDD5D195C8818DBDB9D1C9858DD PUSH1 0x62 SHL PUSH1 0x44 DUP3 ADD MSTORE PUSH1 0x64 ADD PUSH2 0x620 JUMP JUMPDEST PUSH1 0x0 DUP2 PUSH1 0x40 ADD MLOAD PUSH1 0x1 PUSH1 0x1 PUSH1 0x40 SHL SUB AND GT PUSH2 0x92D JUMPI PUSH1 0x40 MLOAD PUSH3 0x461BCD PUSH1 0xE5 SHL DUP2 MSTORE PUSH1 0x20 PUSH1 0x4 DUP3 ADD MSTORE PUSH1 0x1C PUSH1 0x24 DUP3 ADD MSTORE PUSH32 0x7A65726F20636F6E6669726D6174696F6E7320697320756E7361666500000000 PUSH1 0x44 DUP3 ADD MSTORE PUSH1 0x64 ADD PUSH2 0x620 JUMP JUMPDEST DUP1 MLOAD MLOAD ISZERO DUP1 ISZERO SWAP1 PUSH2 0x941 JUMPI POP DUP1 MLOAD MLOAD PUSH1 0x80 LT ISZERO JUMPDEST PUSH2 0x98D JUMPI PUSH1 0x40 MLOAD PUSH3 0x461BCD PUSH1 0xE5 SHL DUP2 MSTORE PUSH1 0x20 PUSH1 0x4 DUP3 ADD MSTORE PUSH1 0x17 PUSH1 0x24 DUP3 ADD MSTORE PUSH32 0x77726F6E6720426C6F636B436861696E206C656E677468000000000000000000 PUSH1 0x44 DUP3 ADD MSTORE PUSH1 0x64 ADD PUSH2 0x620 JUMP JUMPDEST PUSH1 0x0 DUP5 GT PUSH2 0x9AD JUMPI PUSH1 0x40 MLOAD PUSH3 0x461BCD PUSH1 0xE5 SHL DUP2 MSTORE PUSH1 0x4 ADD PUSH2 0x620 SWAP1 PUSH2 0x295F JUMP JUMPDEST PUSH1 0x0 DUP5 DUP2 MSTORE PUSH1 0x3 PUSH1 0x20 MSTORE PUSH1 0x40 SWAP1 KECCAK256 DUP4 SWAP1 PUSH2 0x9C7 DUP3 DUP3 PUSH2 0x2C77 JUMP JUMPDEST SWAP1 POP POP PUSH2 0x9D3 DUP5 PUSH2 0x1A72 JUMP JUMPDEST PUSH2 0xA0A JUMPI PUSH1 0x0 DUP1 SLOAD PUSH1 0x1 DUP2 ADD DUP3 SSTORE SWAP1 DUP1 MSTORE PUSH32 0x290DECD9548B62A8D60345A988386FC84BA6BC95484008F6362F93160EF3E563 ADD DUP5 SWAP1 SSTORE JUMPDEST POP PUSH1 0x1 SWAP4 SWAP3 POP POP POP JUMP JUMPDEST PUSH1 0x1 PUSH1 0x1 PUSH1 0xA0 SHL SUB DUP2 AND PUSH1 0x0 SWAP1 DUP2 MSTORE PUSH1 0x9 PUSH1 0x20 MSTORE PUSH1 0x40 SWAP1 KECCAK256 DUP1 SLOAD PUSH1 0x60 SWAP2 SWAP1 PUSH2 0xA3B SWAP1 PUSH2 0x2B8F JUMP JUMPDEST DUP1 PUSH1 0x1F ADD PUSH1 0x20 DUP1 SWAP2 DIV MUL PUSH1 0x20 ADD PUSH1 0x40 MLOAD SWAP1 DUP2 ADD PUSH1 0x40 MSTORE DUP1 SWAP3 SWAP2 SWAP1 DUP2 DUP2 MSTORE PUSH1 0x20 ADD DUP3 DUP1 SLOAD PUSH2 0xA67 SWAP1 PUSH2 0x2B8F JUMP JUMPDEST DUP1 ISZERO PUSH2 0xAB4 JUMPI DUP1 PUSH1 0x1F LT PUSH2 0xA89 JUMPI PUSH2 0x100 DUP1 DUP4 SLOAD DIV MUL DUP4 MSTORE SWAP2 PUSH1 0x20 ADD SWAP2 PUSH2 0xAB4 JUMP JUMPDEST DUP3 ADD SWAP2 SWAP1 PUSH1 0x0 MSTORE PUSH1 0x20 PUSH1 0x0 KECCAK256 SWAP1 JUMPDEST DUP2 SLOAD DUP2 MSTORE SWAP1 PUSH1 0x1 ADD SWAP1 PUSH1 0x20 ADD DUP1 DUP4 GT PUSH2 0xA97 JUMPI DUP3 SWAP1 SUB PUSH1 0x1F AND DUP3 ADD SWAP2 JUMPDEST POP POP POP POP POP SWAP1 POP SWAP2 SWAP1 POP JUMP JUMPDEST PUSH1 0xA SLOAD PUSH1 0x0 SWAP1 PUSH1 0x1 PUSH1 0x1 PUSH1 0xA0 SHL SUB AND CALLER EQ PUSH2 0xAED JUMPI PUSH1 0x40 MLOAD PUSH3 0x461BCD PUSH1 0xE5 SHL DUP2 MSTORE PUSH1 0x4 ADD PUSH2 0x620 SWAP1 PUSH2 0x2985 JUMP JUMPDEST PUSH1 0x1 PUSH1 0x1 PUSH1 0xA0 SHL SUB DUP5 AND PUSH2 0xB32 JUMPI PUSH1 0x40 MLOAD PUSH3 0x461BCD PUSH1 0xE5 SHL DUP2 MSTORE PUSH1 0x20 PUSH1 0x4 DUP3 ADD MSTORE PUSH1 0xC PUSH1 0x24 DUP3 ADD MSTORE PUSH12 0x7A65726F2061646472657373 PUSH1 0xA0 SHL PUSH1 0x44 DUP3 ADD MSTORE PUSH1 0x64 ADD PUSH2 0x620 JUMP JUMPDEST PUSH1 0x1 PUSH1 0x1 PUSH1 0xA0 SHL SUB DUP5 AND PUSH1 0x0 SWAP1 DUP2 MSTORE PUSH1 0x9 PUSH1 0x20 MSTORE PUSH1 0x40 SWAP1 KECCAK256 PUSH2 0xB55 SWAP1 DUP5 DUP5 PUSH2 0x224F JUMP JUMPDEST POP PUSH1 0x1 SWAP5 SWAP4 POP POP POP POP JUMP JUMPDEST PUSH1 0xA SLOAD PUSH1 0x0 SWAP1 PUSH1 0x1 PUSH1 0x1 PUSH1 0xA0 SHL SUB AND CALLER EQ PUSH2 0xB8D JUMPI PUSH1 0x40 MLOAD PUSH3 0x461BCD PUSH1 0xE5 SHL DUP2 MSTORE PUSH1 0x4 ADD PUSH2 0x620 SWAP1 PUSH2 0x2985 JUMP JUMPDEST PUSH1 0x0 PUSH2 0xBCE DUP5 DUP5 DUP1 DUP1 PUSH1 0x1F ADD PUSH1 0x20 DUP1 SWAP2 DIV MUL PUSH1 0x20 ADD PUSH1 0x40 MLOAD SWAP1 DUP2 ADD PUSH1 0x40 MSTORE DUP1 SWAP4 SWAP3 SWAP2 SWAP1 DUP2 DUP2 MSTORE PUSH1 0x20 ADD DUP4 DUP4 DUP1 DUP3 DUP5 CALLDATACOPY PUSH1 0x0 SWAP3 ADD SWAP2 SWAP1 SWAP2 MSTORE POP PUSH2 0x1ABE SWAP3 POP POP POP JUMP JUMPDEST SWAP1 POP PUSH1 0x0 JUMPDEST PUSH1 0x1 SLOAD DUP2 LT ISZERO PUSH2 0xCB1 JUMPI DUP2 PUSH1 0x1 DUP3 DUP2 SLOAD DUP2 LT PUSH2 0xBF1 JUMPI PUSH2 0xBF1 PUSH2 0x2C31 JUMP JUMPDEST SWAP1 PUSH1 0x0 MSTORE PUSH1 0x20 PUSH1 0x0 KECCAK256 ADD SLOAD EQ ISZERO PUSH2 0xCA1 JUMPI JUMPDEST PUSH1 0x1 DUP1 SLOAD SWAP1 PUSH2 0xC13 SWAP1 DUP4 SWAP1 PUSH2 0x2A5E JUMP JUMPDEST LT ISZERO PUSH2 0xC6F JUMPI PUSH1 0x1 PUSH2 0xC25 DUP3 DUP3 PUSH2 0x2A5E JUMP JUMPDEST DUP2 SLOAD DUP2 LT PUSH2 0xC35 JUMPI PUSH2 0xC35 PUSH2 0x2C31 JUMP JUMPDEST SWAP1 PUSH1 0x0 MSTORE PUSH1 0x20 PUSH1 0x0 KECCAK256 ADD SLOAD PUSH1 0x1 DUP3 DUP2 SLOAD DUP2 LT PUSH2 0xC53 JUMPI PUSH2 0xC53 PUSH2 0x2C31 JUMP JUMPDEST PUSH1 0x0 SWAP2 DUP3 MSTORE PUSH1 0x20 SWAP1 SWAP2 KECCAK256 ADD SSTORE PUSH2 0xC68 DUP2 PUSH2 0x2BCA JUMP JUMPDEST SWAP1 POP PUSH2 0xC03 JUMP JUMPDEST PUSH1 0x1 DUP1 SLOAD DUP1 PUSH2 0xC80 JUMPI PUSH2 0xC80 PUSH2 0x2C1B JUMP JUMPDEST PUSH1 0x1 SWAP1 SUB DUP2 DUP2 SWAP1 PUSH1 0x0 MSTORE PUSH1 0x20 PUSH1 0x0 KECCAK256 ADD PUSH1 0x0 SWAP1 SSTORE SWAP1 SSTORE PUSH1 0x1 SWAP3 POP POP POP PUSH2 0xCB8 JUMP JUMPDEST PUSH2 0xCAA DUP2 PUSH2 0x2BCA JUMP JUMPDEST SWAP1 POP PUSH2 0xBD3 JUMP JUMPDEST POP PUSH1 0x0 SWAP2 POP POP JUMPDEST SWAP3 SWAP2 POP POP JUMP JUMPDEST PUSH1 0x60 PUSH1 0x7 PUSH1 0x0 DUP6 DUP2 MSTORE PUSH1 0x20 ADD SWAP1 DUP2 MSTORE PUSH1 0x20 ADD PUSH1 0x0 KECCAK256 DUP4 DUP4 PUSH1 0x40 MLOAD PUSH2 0xCE3 SWAP3 SWAP2 SWAP1 PUSH2 0x2817 JUMP JUMPDEST SWAP1 DUP2 MSTORE PUSH1 0x20 ADD PUSH1 0x40 MLOAD DUP1 SWAP2 SUB SWAP1 KECCAK256 DUP1 SLOAD PUSH2 0xCFC SWAP1 PUSH2 0x2B8F JUMP JUMPDEST DUP1 PUSH1 0x1F ADD PUSH1 0x20 DUP1 SWAP2 DIV MUL PUSH1 0x20 ADD PUSH1 0x40 MLOAD SWAP1 DUP2 ADD PUSH1 0x40 MSTORE DUP1 SWAP3 SWAP2 SWAP1 DUP2 DUP2 MSTORE PUSH1 0x20 ADD DUP3 DUP1 SLOAD PUSH2 0xD28 SWAP1 PUSH2 0x2B8F JUMP JUMPDEST DUP1 ISZERO PUSH2 0xD75 JUMPI DUP1 PUSH1 0x1F LT PUSH2 0xD4A JUMPI PUSH2 0x100 DUP1 DUP4 SLOAD DIV MUL DUP4 MSTORE SWAP2 PUSH1 0x20 ADD SWAP2 PUSH2 0xD75 JUMP JUMPDEST DUP3 ADD SWAP2 SWAP1 PUSH1 0x0 MSTORE PUSH1 0x20 PUSH1 0x0 KECCAK256 SWAP1 JUMPDEST DUP2 SLOAD DUP2 MSTORE SWAP1 PUSH1 0x1 ADD SWAP1 PUSH1 0x20 ADD DUP1 DUP4 GT PUSH2 0xD58 JUMPI DUP3 SWAP1 SUB PUSH1 0x1F AND DUP3 ADD SWAP2 JUMPDEST POP POP POP POP POP SWAP1 POP SWAP4 SWAP3 POP POP POP JUMP JUMPDEST PUSH1 0x1 SLOAD PUSH1 0x60 SWAP1 DUP1 PUSH1 0x1 PUSH1 0x1 PUSH1 0x40 SHL SUB DUP2 GT ISZERO PUSH2 0xDA1 JUMPI PUSH2 0xDA1 PUSH2 0x2C47 JUMP JUMPDEST PUSH1 0x40 MLOAD SWAP1 DUP1 DUP3 MSTORE DUP1 PUSH1 0x20 MUL PUSH1 0x20 ADD DUP3 ADD PUSH1 0x40 MSTORE DUP1 ISZERO PUSH2 0xDD4 JUMPI DUP2 PUSH1 0x20 ADD JUMPDEST PUSH1 0x60 DUP2 MSTORE PUSH1 0x20 ADD SWAP1 PUSH1 0x1 SWAP1 SUB SWAP1 DUP2 PUSH2 0xDBF JUMPI SWAP1 POP JUMPDEST POP SWAP2 POP PUSH1 0x0 JUMPDEST DUP2 DUP2 LT ISZERO PUSH2 0xE36 JUMPI PUSH2 0xE08 PUSH1 0x1 DUP3 DUP2 SLOAD DUP2 LT PUSH2 0xDF8 JUMPI PUSH2 0xDF8 PUSH2 0x2C31 JUMP JUMPDEST SWAP1 PUSH1 0x0 MSTORE PUSH1 0x20 PUSH1 0x0 KECCAK256 ADD SLOAD PUSH2 0x1C28 JUMP JUMPDEST DUP4 DUP3 DUP2 MLOAD DUP2 LT PUSH2 0xE1A JUMPI PUSH2 0xE1A PUSH2 0x2C31 JUMP JUMPDEST PUSH1 0x20 MUL PUSH1 0x20 ADD ADD DUP2 SWAP1 MSTORE POP DUP1 PUSH2 0xE2F SWAP1 PUSH2 0x2BCA JUMP JUMPDEST SWAP1 POP PUSH2 0xDDA JUMP JUMPDEST POP POP SWAP1 JUMP JUMPDEST PUSH1 0xA SLOAD PUSH1 0x1 PUSH1 0x1 PUSH1 0xA0 SHL SUB AND CALLER EQ PUSH2 0xE65 JUMPI PUSH1 0x40 MLOAD PUSH3 0x461BCD PUSH1 0xE5 SHL DUP2 MSTORE PUSH1 0x4 ADD PUSH2 0x620 SWAP1 PUSH2 0x2985 JUMP JUMPDEST PUSH1 0x40 MLOAD PUSH32 0x22590461E7BA17E1FE7580CB0EA47F283D3B2248F04873DFBE926D08FE4C5AB9 SWAP1 PUSH1 0x0 SWAP1 LOG1 JUMP JUMPDEST PUSH1 0xA SLOAD PUSH1 0x1 PUSH1 0x1 PUSH1 0xA0 SHL SUB AND CALLER EQ PUSH2 0xEBA JUMPI PUSH1 0x40 MLOAD PUSH3 0x461BCD PUSH1 0xE5 SHL DUP2 MSTORE PUSH1 0x4 ADD PUSH2 0x620 SWAP1 PUSH2 0x2985 JUMP JUMPDEST PUSH1 0x0 PUSH2 0xEFB DUP4 DUP4 DUP1 DUP1 PUSH1 0x1F ADD PUSH1 0x20 DUP1 SWAP2 DIV MUL PUSH1 0x20 ADD PUSH1 0x40 MLOAD SWAP1 DUP2 ADD PUSH1 0x40 MSTORE DUP1 SWAP4 SWAP3 SWAP2 SWAP1 DUP2 DUP2 MSTORE PUSH1 0x20 ADD DUP4 DUP4 DUP1 DUP3 DUP5 CALLDATACOPY PUSH1 0x0 SWAP3 ADD SWAP2 SWAP1 SWAP2 MSTORE POP PUSH2 0x1ABE SWAP3 POP POP POP JUMP JUMPDEST PUSH1 0x0 DUP2 DUP2 MSTORE PUSH1 0x2 PUSH1 0x20 MSTORE PUSH1 0x40 DUP2 KECCAK256 SWAP2 SWAP3 POP JUMPDEST DUP2 SLOAD DUP2 LT ISZERO PUSH2 0xF87 JUMPI PUSH1 0x0 DUP3 DUP3 DUP2 SLOAD DUP2 LT PUSH2 0xF2A JUMPI PUSH2 0xF2A PUSH2 0x2C31 JUMP JUMPDEST PUSH1 0x0 SWAP2 DUP3 MSTORE PUSH1 0x20 DUP1 DUP4 KECCAK256 PUSH1 0x40 DUP1 MLOAD DUP1 DUP3 ADD DUP3 MSTORE PUSH1 0x2 SWAP1 SWAP5 MUL SWAP1 SWAP2 ADD DUP1 SLOAD DUP1 DUP6 MSTORE PUSH1 0x1 SWAP1 SWAP2 ADD SLOAD PUSH1 0x1 PUSH1 0x1 PUSH1 0xA0 SHL SUB SWAP1 DUP2 AND SWAP5 DUP5 ADD SWAP5 DUP6 MSTORE SWAP1 DUP6 MSTORE PUSH1 0x8 DUP4 MSTORE DUP2 DUP6 KECCAK256 SWAP4 MLOAD AND DUP5 MSTORE SWAP2 SWAP1 MSTORE DUP2 KECCAK256 SSTORE POP PUSH2 0xF80 DUP2 PUSH2 0x2BCA JUMP JUMPDEST SWAP1 POP PUSH2 0xF0D JUMP JUMPDEST POP PUSH1 0x0 DUP3 DUP2 MSTORE PUSH1 0x2 PUSH1 0x20 MSTORE PUSH1 0x40 DUP2 KECCAK256 PUSH2 0xF9F SWAP2 PUSH2 0x22D3 JUMP JUMPDEST POP POP POP POP JUMP JUMPDEST PUSH1 0x60 PUSH1 0x2 PUSH1 0x0 PUSH2 0xFEA DUP6 DUP6 DUP1 DUP1 PUSH1 0x1F ADD PUSH1 0x20 DUP1 SWAP2 DIV MUL PUSH1 0x20 ADD PUSH1 0x40 MLOAD SWAP1 DUP2 ADD PUSH1 0x40 MSTORE DUP1 SWAP4 SWAP3 SWAP2 SWAP1 DUP2 DUP2 MSTORE PUSH1 0x20 ADD DUP4 DUP4 DUP1 DUP3 DUP5 CALLDATACOPY PUSH1 0x0 SWAP3 ADD SWAP2 SWAP1 SWAP2 MSTORE POP PUSH2 0x1ABE SWAP3 POP POP POP JUMP JUMPDEST DUP2 MSTORE PUSH1 0x20 ADD SWAP1 DUP2 MSTORE PUSH1 0x20 ADD PUSH1 0x0 KECCAK256 DUP1 SLOAD DUP1 PUSH1 0x20 MUL PUSH1 0x20 ADD PUSH1 0x40 MLOAD SWAP1 DUP2 ADD PUSH1 0x40 MSTORE DUP1 SWAP3 SWAP2 SWAP1 DUP2 DUP2 MSTORE PUSH1 0x20 ADD PUSH1 0x0 SWAP1 JUMPDEST DUP3 DUP3 LT ISZERO PUSH2 0x1060 JUMPI PUSH1 0x0 DUP5 DUP2 MSTORE PUSH1 0x20 SWAP1 DUP2 SWAP1 KECCAK256 PUSH1 0x40 DUP1 MLOAD DUP1 DUP3 ADD SWAP1 SWAP2 MSTORE PUSH1 0x2 DUP6 MUL SWAP1 SWAP2 ADD DUP1 SLOAD DUP3 MSTORE PUSH1 0x1 SWAP1 DUP2 ADD SLOAD PUSH1 0x1 PUSH1 0x1 PUSH1 0xA0 SHL SUB AND DUP3 DUP5 ADD MSTORE SWAP1 DUP4 MSTORE SWAP1 SWAP3 ADD SWAP2 ADD PUSH2 0x1018 JUMP JUMPDEST POP POP POP POP SWAP1 POP SWAP3 SWAP2 POP POP JUMP JUMPDEST PUSH1 0xA SLOAD PUSH1 0x0 SWAP1 PUSH1 0x1 PUSH1 0x1 PUSH1 0xA0 SHL SUB AND CALLER EQ PUSH2 0x1099 JUMPI PUSH1 0x40 MLOAD PUSH3 0x461BCD PUSH1 0xE5 SHL DUP2 MSTORE PUSH1 0x4 ADD PUSH2 0x620 SWAP1 PUSH2 0x2985 JUMP JUMPDEST PUSH1 0x0 PUSH1 0x2 PUSH1 0x0 PUSH2 0x10DE DUP8 DUP8 DUP1 DUP1 PUSH1 0x1F ADD PUSH1 0x20 DUP1 SWAP2 DIV MUL PUSH1 0x20 ADD PUSH1 0x40 MLOAD SWAP1 DUP2 ADD PUSH1 0x40 MSTORE DUP1 SWAP4 SWAP3 SWAP2 SWAP1 DUP2 DUP2 MSTORE PUSH1 0x20 ADD DUP4 DUP4 DUP1 DUP3 DUP5 CALLDATACOPY PUSH1 0x0 SWAP3 ADD SWAP2 SWAP1 SWAP2 MSTORE POP PUSH2 0x1ABE SWAP3 POP POP POP JUMP JUMPDEST DUP2 MSTORE PUSH1 0x20 ADD SWAP1 DUP2 MSTORE PUSH1 0x20 ADD PUSH1 0x0 KECCAK256 SWAP1 POP PUSH1 0x0 JUMPDEST DUP2 SLOAD DUP2 LT ISZERO PUSH2 0x1268 JUMPI DUP4 DUP3 DUP3 DUP2 SLOAD DUP2 LT PUSH2 0x110D JUMPI PUSH2 0x110D PUSH2 0x2C31 JUMP JUMPDEST SWAP1 PUSH1 0x0 MSTORE PUSH1 0x20 PUSH1 0x0 KECCAK256 SWAP1 PUSH1 0x2 MUL ADD PUSH1 0x0 ADD SLOAD EQ ISZERO PUSH2 0x1258 JUMPI PUSH1 0x0 DUP5 DUP2 MSTORE PUSH1 0x8 PUSH1 0x20 MSTORE PUSH1 0x40 DUP2 KECCAK256 DUP4 SLOAD DUP3 SWAP1 DUP6 SWAP1 DUP6 SWAP1 DUP2 LT PUSH2 0x1149 JUMPI PUSH2 0x1149 PUSH2 0x2C31 JUMP JUMPDEST PUSH1 0x0 SWAP2 DUP3 MSTORE PUSH1 0x20 DUP1 DUP4 KECCAK256 PUSH1 0x1 PUSH1 0x2 SWAP1 SWAP4 MUL ADD SWAP2 SWAP1 SWAP2 ADD SLOAD PUSH1 0x1 PUSH1 0x1 PUSH1 0xA0 SHL SUB AND DUP4 MSTORE DUP3 ADD SWAP3 SWAP1 SWAP3 MSTORE PUSH1 0x40 ADD SWAP1 KECCAK256 SSTORE JUMPDEST DUP2 SLOAD PUSH2 0x1185 DUP3 PUSH1 0x1 PUSH2 0x2A5E JUMP JUMPDEST LT ISZERO PUSH2 0x1211 JUMPI DUP2 PUSH2 0x1197 DUP3 PUSH1 0x1 PUSH2 0x2A5E JUMP JUMPDEST DUP2 SLOAD DUP2 LT PUSH2 0x11A7 JUMPI PUSH2 0x11A7 PUSH2 0x2C31 JUMP JUMPDEST SWAP1 PUSH1 0x0 MSTORE PUSH1 0x20 PUSH1 0x0 KECCAK256 SWAP1 PUSH1 0x2 MUL ADD DUP3 DUP3 DUP2 SLOAD DUP2 LT PUSH2 0x11C7 JUMPI PUSH2 0x11C7 PUSH2 0x2C31 JUMP JUMPDEST PUSH1 0x0 SWAP2 DUP3 MSTORE PUSH1 0x20 SWAP1 SWAP2 KECCAK256 DUP3 SLOAD PUSH1 0x2 SWAP1 SWAP3 MUL ADD SWAP1 DUP2 SSTORE PUSH1 0x1 SWAP2 DUP3 ADD SLOAD SWAP2 ADD DUP1 SLOAD PUSH1 0x1 PUSH1 0x1 PUSH1 0xA0 SHL SUB NOT AND PUSH1 0x1 PUSH1 0x1 PUSH1 0xA0 SHL SUB SWAP1 SWAP3 AND SWAP2 SWAP1 SWAP2 OR SWAP1 SSTORE PUSH2 0x120A DUP2 PUSH2 0x2BCA JUMP JUMPDEST SWAP1 POP PUSH2 0x1178 JUMP JUMPDEST DUP2 DUP1 SLOAD DUP1 PUSH2 0x1221 JUMPI PUSH2 0x1221 PUSH2 0x2C1B JUMP JUMPDEST PUSH1 0x0 DUP3 DUP2 MSTORE PUSH1 0x20 DUP2 KECCAK256 PUSH1 0x2 PUSH1 0x0 NOT SWAP1 SWAP4 ADD SWAP3 DUP4 MUL ADD SWAP1 DUP2 SSTORE PUSH1 0x1 SWAP1 DUP2 ADD DUP1 SLOAD PUSH1 0x1 PUSH1 0x1 PUSH1 0xA0 SHL SUB NOT AND SWAP1 SSTORE SWAP2 SSTORE SWAP3 POP PUSH2 0x757 SWAP2 POP POP JUMP JUMPDEST PUSH2 0x1261 DUP2 PUSH2 0x2BCA JUMP JUMPDEST SWAP1 POP PUSH2 0x10F1 JUMP JUMPDEST POP PUSH1 0x0 SWAP6 SWAP5 POP POP POP POP POP JUMP JUMPDEST PUSH2 0x12AD PUSH1 0x40 MLOAD DUP1 PUSH1 0xC0 ADD PUSH1 0x40 MSTORE DUP1 PUSH1 0x0 DUP2 MSTORE PUSH1 0x20 ADD PUSH1 0x0 DUP2 MSTORE PUSH1 0x20 ADD PUSH1 0x0 DUP2 MSTORE PUSH1 0x20 ADD PUSH1 0x0 DUP2 MSTORE PUSH1 0x20 ADD PUSH1 0x0 DUP2 MSTORE PUSH1 0x20 ADD PUSH1 0x0 DUP2 MSTORE POP SWAP1 JUMP JUMPDEST PUSH1 0x6 PUSH1 0x0 PUSH2 0x12F0 DUP7 DUP7 DUP1 DUP1 PUSH1 0x1F ADD PUSH1 0x20 DUP1 SWAP2 DIV MUL PUSH1 0x20 ADD PUSH1 0x40 MLOAD SWAP1 DUP2 ADD PUSH1 0x40 MSTORE DUP1 SWAP4 SWAP3 SWAP2 SWAP1 DUP2 DUP2 MSTORE PUSH1 0x20 ADD DUP4 DUP4 DUP1 DUP3 DUP5 CALLDATACOPY PUSH1 0x0 SWAP3 ADD SWAP2 SWAP1 SWAP2 MSTORE POP PUSH2 0x1ABE SWAP3 POP POP POP JUMP JUMPDEST DUP2 MSTORE PUSH1 0x20 ADD SWAP1 DUP2 MSTORE PUSH1 0x20 ADD PUSH1 0x0 KECCAK256 PUSH1 0x0 DUP4 DUP2 MSTORE PUSH1 0x20 ADD SWAP1 DUP2 MSTORE PUSH1 0x20 ADD PUSH1 0x0 KECCAK256 PUSH1 0x40 MLOAD DUP1 PUSH1 0xC0 ADD PUSH1 0x40 MSTORE SWAP1 DUP2 PUSH1 0x0 DUP3 ADD SLOAD DUP2 MSTORE PUSH1 0x20 ADD PUSH1 0x1 DUP3 ADD SLOAD DUP2 MSTORE PUSH1 0x20 ADD PUSH1 0x2 DUP3 ADD SLOAD DUP2 MSTORE PUSH1 0x20 ADD PUSH1 0x3 DUP3 ADD SLOAD DUP2 MSTORE PUSH1 0x20 ADD PUSH1 0x4 DUP3 ADD SLOAD DUP2 MSTORE PUSH1 0x20 ADD PUSH1 0x5 DUP3 ADD SLOAD DUP2 MSTORE POP POP SWAP1 POP SWAP4 SWAP3 POP POP POP JUMP JUMPDEST PUSH1 0x0 PUSH2 0x757 PUSH2 0x13A3 DUP5 DUP5 DUP1 DUP1 PUSH1 0x1F ADD PUSH1 0x20 DUP1 SWAP2 DIV MUL PUSH1 0x20 ADD PUSH1 0x40 MLOAD SWAP1 DUP2 ADD PUSH1 0x40 MSTORE DUP1 SWAP4 SWAP3 SWAP2 SWAP1 DUP2 DUP2 MSTORE PUSH1 0x20 ADD DUP4 DUP4 DUP1 DUP3 DUP5 CALLDATACOPY PUSH1 0x0 SWAP3 ADD SWAP2 SWAP1 SWAP2 MSTORE POP PUSH2 0x1ABE SWAP3 POP POP POP JUMP JUMPDEST PUSH2 0x1D2E JUMP JUMPDEST PUSH1 0x0 DUP1 PUSH1 0x2 PUSH1 0x0 PUSH2 0x13EE DUP8 DUP8 DUP1 DUP1 PUSH1 0x1F ADD PUSH1 0x20 DUP1 SWAP2 DIV MUL PUSH1 0x20 ADD PUSH1 0x40 MLOAD SWAP1 DUP2 ADD PUSH1 0x40 MSTORE DUP1 SWAP4 SWAP3 SWAP2 SWAP1 DUP2 DUP2 MSTORE PUSH1 0x20 ADD DUP4 DUP4 DUP1 DUP3 DUP5 CALLDATACOPY PUSH1 0x0 SWAP3 ADD SWAP2 SWAP1 SWAP2 MSTORE POP PUSH2 0x1ABE SWAP3 POP POP POP JUMP JUMPDEST DUP2 MSTORE PUSH1 0x20 ADD SWAP1 DUP2 MSTORE PUSH1 0x20 ADD PUSH1 0x0 KECCAK256 SWAP1 POP PUSH1 0x0 JUMPDEST DUP2 SLOAD DUP2 LT ISZERO PUSH2 0x1268 JUMPI DUP4 DUP3 DUP3 DUP2 SLOAD DUP2 LT PUSH2 0x141D JUMPI PUSH2 0x141D PUSH2 0x2C31 JUMP JUMPDEST SWAP1 PUSH1 0x0 MSTORE PUSH1 0x20 PUSH1 0x0 KECCAK256 SWAP1 PUSH1 0x2 MUL ADD PUSH1 0x0 ADD SLOAD EQ ISZERO PUSH2 0x146E JUMPI DUP2 DUP2 DUP2 SLOAD DUP2 LT PUSH2 0x1447 JUMPI PUSH2 0x1447 PUSH2 0x2C31 JUMP JUMPDEST PUSH1 0x0 SWAP2 DUP3 MSTORE PUSH1 0x20 SWAP1 SWAP2 KECCAK256 PUSH1 0x1 PUSH1 0x2 SWAP1 SWAP3 MUL ADD ADD SLOAD PUSH1 0x1 PUSH1 0x1 PUSH1 0xA0 SHL SUB AND SWAP3 POP PUSH2 0x757 SWAP2 POP POP JUMP JUMPDEST PUSH2 0x1477 DUP2 PUSH2 0x2BCA JUMP JUMPDEST SWAP1 POP PUSH2 0x1401 JUMP JUMPDEST PUSH1 0xA SLOAD PUSH1 0x0 SWAP1 PUSH1 0x1 PUSH1 0x1 PUSH1 0xA0 SHL SUB AND CALLER EQ PUSH2 0x14AB JUMPI PUSH1 0x40 MLOAD PUSH3 0x461BCD PUSH1 0xE5 SHL DUP2 MSTORE PUSH1 0x4 ADD PUSH2 0x620 SWAP1 PUSH2 0x2985 JUMP JUMPDEST PUSH2 0x1504 PUSH2 0x14ED DUP7 DUP7 DUP1 DUP1 PUSH1 0x1F ADD PUSH1 0x20 DUP1 SWAP2 DIV MUL PUSH1 0x20 ADD PUSH1 0x40 MLOAD SWAP1 DUP2 ADD PUSH1 0x40 MSTORE DUP1 SWAP4 SWAP3 SWAP2 SWAP1 DUP2 DUP2 MSTORE PUSH1 0x20 ADD DUP4 DUP4 DUP1 DUP3 DUP5 CALLDATACOPY PUSH1 0x0 SWAP3 ADD SWAP2 SWAP1 SWAP2 MSTORE POP PUSH2 0x1ABE SWAP3 POP POP POP JUMP JUMPDEST DUP5 PUSH2 0x14FD CALLDATASIZE DUP7 SWAP1 SUB DUP7 ADD DUP7 PUSH2 0x2624 JUMP JUMPDEST PUSH1 0x0 PUSH2 0x1AC5 JUMP JUMPDEST SWAP6 SWAP5 POP POP POP POP POP JUMP JUMPDEST PUSH1 0xA SLOAD PUSH1 0x0 SWAP1 PUSH1 0x1 PUSH1 0x1 PUSH1 0xA0 SHL SUB AND CALLER EQ PUSH2 0x153A JUMPI PUSH1 0x40 MLOAD PUSH3 0x461BCD PUSH1 0xE5 SHL DUP2 MSTORE PUSH1 0x4 ADD PUSH2 0x620 SWAP1 PUSH2 0x2985 JUMP JUMPDEST PUSH1 0x0 PUSH2 0x157B DUP6 DUP6 DUP1 DUP1 PUSH1 0x1F ADD PUSH1 0x20 DUP1 SWAP2 DIV MUL PUSH1 0x20 ADD PUSH1 0x40 MLOAD SWAP1 DUP2 ADD PUSH1 0x40 MSTORE DUP1 SWAP4 SWAP3 SWAP2 SWAP1 DUP2 DUP2 MSTORE PUSH1 0x20 ADD DUP4 DUP4 DUP1 DUP3 DUP5 CALLDATACOPY PUSH1 0x0 SWAP3 ADD SWAP2 SWAP1 SWAP2 MSTORE POP PUSH2 0x1ABE SWAP3 POP POP POP JUMP JUMPDEST PUSH1 0x0 DUP2 DUP2 MSTORE PUSH1 0x5 PUSH1 0x20 SWAP1 DUP2 MSTORE PUSH1 0x40 DUP1 DUP4 KECCAK256 DUP8 DUP5 MSTORE DUP3 MSTORE DUP1 DUP4 KECCAK256 DUP2 MLOAD PUSH1 0x60 DUP2 ADD DUP4 MSTORE DUP2 SLOAD PUSH1 0xFF DUP2 AND DUP3 MSTORE PUSH2 0x100 SWAP1 DIV PUSH1 0x1 PUSH1 0x1 PUSH1 0xA0 SHL SUB AND SWAP4 DUP2 ADD SWAP4 SWAP1 SWAP4 MSTORE PUSH1 0x1 ADD SLOAD SWAP1 DUP3 ADD MSTORE SWAP2 SWAP3 POP PUSH2 0x1504 SWAP2 DUP4 SWAP2 DUP7 SWAP2 SWAP1 PUSH2 0x1AC5 JUMP JUMPDEST PUSH1 0x0 DUP3 DUP2 MSTORE PUSH1 0x8 PUSH1 0x20 SWAP1 DUP2 MSTORE PUSH1 0x40 DUP1 DUP4 KECCAK256 PUSH1 0x1 PUSH1 0x1 PUSH1 0xA0 SHL SUB DUP6 AND DUP5 MSTORE SWAP1 SWAP2 MSTORE SWAP1 KECCAK256 SLOAD PUSH1 0x60 SWAP1 PUSH2 0x757 SWAP1 PUSH2 0x1C28 JUMP JUMPDEST PUSH1 0xA SLOAD PUSH1 0x1 PUSH1 0x1 PUSH1 0xA0 SHL SUB AND CALLER EQ PUSH2 0x162B JUMPI PUSH1 0x40 MLOAD PUSH3 0x461BCD PUSH1 0xE5 SHL DUP2 MSTORE PUSH1 0x4 ADD PUSH2 0x620 SWAP1 PUSH2 0x2985 JUMP JUMPDEST PUSH2 0xF9F PUSH2 0x166D DUP6 DUP6 DUP1 DUP1 PUSH1 0x1F ADD PUSH1 0x20 DUP1 SWAP2 DIV MUL PUSH1 0x20 ADD PUSH1 0x40 MLOAD SWAP1 DUP2 ADD PUSH1 0x40 MSTORE DUP1 SWAP4 SWAP3 SWAP2 SWAP1 DUP2 DUP2 MSTORE PUSH1 0x20 ADD DUP4 DUP4 DUP1 DUP3 DUP5 CALLDATACOPY PUSH1 0x0 SWAP3 ADD SWAP2 SWAP1 SWAP2 MSTORE POP PUSH2 0x1ABE SWAP3 POP POP POP JUMP JUMPDEST DUP4 DUP4 PUSH2 0x1D7A JUMP JUMPDEST PUSH1 0xA SLOAD PUSH1 0x0 SWAP1 PUSH1 0x1 PUSH1 0x1 PUSH1 0xA0 SHL SUB AND CALLER EQ PUSH2 0x16A1 JUMPI PUSH1 0x40 MLOAD PUSH3 0x461BCD PUSH1 0xE5 SHL DUP2 MSTORE PUSH1 0x4 ADD PUSH2 0x620 SWAP1 PUSH2 0x2985 JUMP JUMPDEST PUSH2 0x1504 PUSH2 0x16E3 DUP7 DUP7 DUP1 DUP1 PUSH1 0x1F ADD PUSH1 0x20 DUP1 SWAP2 DIV MUL PUSH1 0x20 ADD PUSH1 0x40 MLOAD SWAP1 DUP2 ADD PUSH1 0x40 MSTORE DUP1 SWAP4 SWAP3 SWAP2 SWAP1 DUP2 DUP2 MSTORE PUSH1 0x20 ADD DUP4 DUP4 DUP1 DUP3 DUP5 CALLDATACOPY PUSH1 0x0 SWAP3 ADD SWAP2 SWAP1 SWAP2 MSTORE POP PUSH2 0x1ABE SWAP3 POP POP POP JUMP JUMPDEST DUP5 PUSH2 0x16F3 CALLDATASIZE DUP7 SWAP1 SUB DUP7 ADD DUP7 PUSH2 0x25AB JUMP JUMPDEST PUSH2 0x1F26 JUMP JUMPDEST PUSH1 0x60 PUSH1 0x0 DUP1 SLOAD DUP1 PUSH1 0x20 MUL PUSH1 0x20 ADD PUSH1 0x40 MLOAD SWAP1 DUP2 ADD PUSH1 0x40 MSTORE DUP1 SWAP3 SWAP2 SWAP1 DUP2 DUP2 MSTORE PUSH1 0x20 ADD DUP3 DUP1 SLOAD DUP1 ISZERO PUSH2 0x1746 JUMPI PUSH1 0x20 MUL DUP3 ADD SWAP2 SWAP1 PUSH1 0x0 MSTORE PUSH1 0x20 PUSH1 0x0 KECCAK256 SWAP1 JUMPDEST DUP2 SLOAD DUP2 MSTORE PUSH1 0x20 ADD SWAP1 PUSH1 0x1 ADD SWAP1 DUP1 DUP4 GT PUSH2 0x1732 JUMPI JUMPDEST POP POP POP POP POP SWAP1 POP SWAP1 JUMP JUMPDEST PUSH1 0xA SLOAD PUSH1 0x0 SWAP1 PUSH1 0x1 PUSH1 0x1 PUSH1 0xA0 SHL SUB AND CALLER EQ PUSH2 0x177D JUMPI PUSH1 0x40 MLOAD PUSH3 0x461BCD PUSH1 0xE5 SHL DUP2 MSTORE PUSH1 0x4 ADD PUSH2 0x620 SWAP1 PUSH2 0x2985 JUMP JUMPDEST PUSH1 0x0 PUSH2 0x17BE DUP5 DUP5 DUP1 DUP1 PUSH1 0x1F ADD PUSH1 0x20 DUP1 SWAP2 DIV MUL PUSH1 0x20 ADD PUSH1 0x40 MLOAD SWAP1 DUP2 ADD PUSH1 0x40 MSTORE DUP1 SWAP4 SWAP3 SWAP2 SWAP1 DUP2 DUP2 MSTORE PUSH1 0x20 ADD DUP4 DUP4 DUP1 DUP3 DUP5 CALLDATACOPY PUSH1 0x0 SWAP3 ADD SWAP2 SWAP1 SWAP2 MSTORE POP PUSH2 0x1ABE SWAP3 POP POP POP JUMP JUMPDEST SWAP1 POP PUSH2 0x17C9 DUP2 PUSH2 0x1D2E JUMP JUMPDEST ISZERO PUSH2 0x1807 JUMPI PUSH1 0x40 MLOAD PUSH3 0x461BCD PUSH1 0xE5 SHL DUP2 MSTORE PUSH1 0x20 PUSH1 0x4 DUP3 ADD MSTORE PUSH1 0xE PUSH1 0x24 DUP3 ADD MSTORE PUSH14 0x1D1BDAD95B88125108195E1A5CDD PUSH1 0x92 SHL PUSH1 0x44 DUP3 ADD MSTORE PUSH1 0x64 ADD PUSH2 0x620 JUMP JUMPDEST PUSH1 0x1 DUP1 SLOAD DUP1 DUP3 ADD DUP3 SSTORE PUSH1 0x0 DUP3 SWAP1 MSTORE PUSH32 0xB10E2D527612073B26EECDFD717E6A320CF44B4AFAC2B0732D9FCBE2B7FA0CF6 ADD SWAP2 SWAP1 SWAP2 SSTORE SWAP4 SWAP3 POP POP POP JUMP JUMPDEST PUSH1 0xA SLOAD PUSH1 0x0 SWAP1 PUSH1 0x1 PUSH1 0x1 PUSH1 0xA0 SHL SUB AND CALLER EQ PUSH2 0x186F JUMPI PUSH1 0x40 MLOAD PUSH3 0x461BCD PUSH1 0xE5 SHL DUP2 MSTORE PUSH1 0x4 ADD PUSH2 0x620 SWAP1 PUSH2 0x2985 JUMP JUMPDEST PUSH1 0x0 DUP7 GT PUSH2 0x188F JUMPI PUSH1 0x40 MLOAD PUSH3 0x461BCD PUSH1 0xE5 SHL DUP2 MSTORE PUSH1 0x4 ADD PUSH2 0x620 SWAP1 PUSH2 0x295F JUMP JUMPDEST DUP3 DUP3 PUSH1 0x7 PUSH1 0x0 DUP10 DUP2 MSTORE PUSH1 0x20 ADD SWAP1 DUP2 MSTORE PUSH1 0x20 ADD PUSH1 0x0 KECCAK256 DUP8 DUP8 PUSH1 0x40 MLOAD PUSH2 0x18B4 SWAP3 SWAP2 SWAP1 PUSH2 0x2817 JUMP JUMPDEST SWAP1 DUP2 MSTORE PUSH1 0x40 MLOAD SWAP1 DUP2 SWAP1 SUB PUSH1 0x20 ADD SWAP1 KECCAK256 PUSH2 0x18CE SWAP3 SWAP1 SWAP2 PUSH2 0x224F JUMP JUMPDEST POP PUSH1 0x1 SWAP7 SWAP6 POP POP POP POP POP POP JUMP JUMPDEST PUSH1 0xA SLOAD PUSH1 0x0 SWAP1 PUSH1 0x1 PUSH1 0x1 PUSH1 0xA0 SHL SUB AND CALLER EQ PUSH2 0x1908 JUMPI PUSH1 0x40 MLOAD PUSH3 0x461BCD PUSH1 0xE5 SHL DUP2 MSTORE PUSH1 0x4 ADD PUSH2 0x620 SWAP1 PUSH2 0x2985 JUMP JUMPDEST PUSH1 0x0 JUMPDEST PUSH1 0x0 SLOAD DUP2 LT ISZERO PUSH2 0x19E7 JUMPI DUP3 PUSH1 0x0 DUP3 DUP2 SLOAD DUP2 LT PUSH2 0x1929 JUMPI PUSH2 0x1929 PUSH2 0x2C31 JUMP JUMPDEST SWAP1 PUSH1 0x0 MSTORE PUSH1 0x20 PUSH1 0x0 KECCAK256 ADD SLOAD EQ ISZERO PUSH2 0x19D7 JUMPI JUMPDEST PUSH1 0x0 SLOAD PUSH2 0x1949 DUP3 PUSH1 0x1 PUSH2 0x2A5E JUMP JUMPDEST LT ISZERO PUSH2 0x19A6 JUMPI PUSH1 0x0 PUSH2 0x195C DUP3 PUSH1 0x1 PUSH2 0x2A5E JUMP JUMPDEST DUP2 SLOAD DUP2 LT PUSH2 0x196C JUMPI PUSH2 0x196C PUSH2 0x2C31 JUMP JUMPDEST SWAP1 PUSH1 0x0 MSTORE PUSH1 0x20 PUSH1 0x0 KECCAK256 ADD SLOAD PUSH1 0x0 DUP3 DUP2 SLOAD DUP2 LT PUSH2 0x198A JUMPI PUSH2 0x198A PUSH2 0x2C31 JUMP JUMPDEST PUSH1 0x0 SWAP2 DUP3 MSTORE PUSH1 0x20 SWAP1 SWAP2 KECCAK256 ADD SSTORE PUSH2 0x199F DUP2 PUSH2 0x2BCA JUMP JUMPDEST SWAP1 POP PUSH2 0x193B JUMP JUMPDEST PUSH1 0x0 DUP1 SLOAD DUP1 PUSH2 0x19B7 JUMPI PUSH2 0x19B7 PUSH2 0x2C1B JUMP JUMPDEST PUSH1 0x1 SWAP1 SUB DUP2 DUP2 SWAP1 PUSH1 0x0 MSTORE PUSH1 0x20 PUSH1 0x0 KECCAK256 ADD PUSH1 0x0 SWAP1 SSTORE SWAP1 SSTORE PUSH1 0x1 SWAP2 POP POP SWAP2 SWAP1 POP JUMP JUMPDEST PUSH2 0x19E0 DUP2 PUSH2 0x2BCA JUMP JUMPDEST SWAP1 POP PUSH2 0x190B JUMP JUMPDEST POP PUSH1 0x0 SWAP3 SWAP2 POP POP JUMP JUMPDEST PUSH1 0xA SLOAD PUSH1 0x1 PUSH1 0x1 PUSH1 0xA0 SHL SUB AND CALLER EQ PUSH2 0x1A1A JUMPI PUSH1 0x40 MLOAD PUSH3 0x461BCD PUSH1 0xE5 SHL DUP2 MSTORE PUSH1 0x4 ADD PUSH2 0x620 SWAP1 PUSH2 0x2985 JUMP JUMPDEST PUSH1 0x40 MLOAD PUSH1 0x1 PUSH1 0x1 PUSH1 0xA0 SHL SUB DUP3 AND SWAP1 CALLER SWAP1 PUSH32 0x8BE0079C531659141344CD1FD0A4F28419497F9722A3DAAFE3B4186F6B6457E0 SWAP1 PUSH1 0x0 SWAP1 LOG3 PUSH1 0xA DUP1 SLOAD PUSH1 0x1 PUSH1 0x1 PUSH1 0xA0 SHL SUB NOT AND PUSH1 0x1 PUSH1 0x1 PUSH1 0xA0 SHL SUB SWAP3 SWAP1 SWAP3 AND SWAP2 SWAP1 SWAP2 OR SWAP1 SSTORE JUMP JUMPDEST PUSH1 0x0 DUP1 JUMPDEST PUSH1 0x0 SLOAD DUP2 LT ISZERO PUSH2 0x19E7 JUMPI DUP3 PUSH1 0x0 DUP3 DUP2 SLOAD DUP2 LT PUSH2 0x1A94 JUMPI PUSH2 0x1A94 PUSH2 0x2C31 JUMP JUMPDEST SWAP1 PUSH1 0x0 MSTORE PUSH1 0x20 PUSH1 0x0 KECCAK256 ADD SLOAD EQ ISZERO PUSH2 0x1AAE JUMPI POP PUSH1 0x1 SWAP3 SWAP2 POP POP JUMP JUMPDEST PUSH2 0x1AB7 DUP2 PUSH2 0x2BCA JUMP JUMPDEST SWAP1 POP PUSH2 0x1A76 JUMP JUMPDEST PUSH1 0x20 ADD MLOAD SWAP1 JUMP JUMPDEST PUSH1 0x20 DUP3 ADD MLOAD PUSH1 0x0 SWAP1 DUP4 SWAP1 PUSH1 0x1 PUSH1 0x1 PUSH1 0xA0 SHL SUB AND PUSH2 0x1AE1 JUMPI PUSH1 0x0 DUP1 REVERT JUMPDEST DUP6 PUSH2 0x1AFE JUMPI PUSH1 0x40 MLOAD PUSH3 0x461BCD PUSH1 0xE5 SHL DUP2 MSTORE PUSH1 0x4 ADD PUSH2 0x620 SWAP1 PUSH2 0x2938 JUMP JUMPDEST PUSH1 0x0 DUP6 GT PUSH2 0x1B1E JUMPI PUSH1 0x40 MLOAD PUSH3 0x461BCD PUSH1 0xE5 SHL DUP2 MSTORE PUSH1 0x4 ADD PUSH2 0x620 SWAP1 PUSH2 0x295F JUMP JUMPDEST DUP3 ISZERO PUSH2 0x1B7A JUMPI PUSH1 0x0 DUP7 DUP2 MSTORE PUSH1 0x5 PUSH1 0x20 SWAP1 DUP2 MSTORE PUSH1 0x40 DUP1 DUP4 KECCAK256 DUP9 DUP5 MSTORE DUP3 MSTORE SWAP2 DUP3 SWAP1 KECCAK256 DUP7 MLOAD DUP2 SLOAD SWAP3 DUP9 ADD MLOAD PUSH1 0x1 PUSH1 0x1 PUSH1 0xA0 SHL SUB AND PUSH2 0x100 MUL PUSH1 0x1 PUSH1 0x1 PUSH1 0xA8 SHL SUB NOT SWAP1 SWAP4 AND PUSH1 0xFF SWAP1 SWAP2 AND OR SWAP2 SWAP1 SWAP2 OR DUP2 SSTORE SWAP1 DUP6 ADD MLOAD PUSH1 0x1 SWAP1 SWAP2 ADD SSTORE PUSH2 0x1C1C JUMP JUMPDEST PUSH1 0x0 DUP7 DUP2 MSTORE PUSH1 0x4 PUSH1 0x20 SWAP1 DUP2 MSTORE PUSH1 0x40 DUP1 DUP4 KECCAK256 DUP9 DUP5 MSTORE DUP3 MSTORE SWAP2 DUP3 SWAP1 KECCAK256 DUP7 MLOAD DUP2 SLOAD SWAP3 DUP9 ADD MLOAD PUSH1 0x1 PUSH1 0x1 PUSH1 0xA0 SHL SUB AND PUSH2 0x100 MUL PUSH1 0x1 PUSH1 0x1 PUSH1 0xA8 SHL SUB NOT SWAP1 SWAP4 AND PUSH1 0xFF SWAP1 SWAP2 AND OR SWAP2 SWAP1 SWAP2 OR DUP2 SSTORE SWAP1 DUP6 ADD MLOAD PUSH1 0x1 SWAP1 SWAP2 ADD SSTORE PUSH2 0x1BD4 DUP7 PUSH2 0x1D2E JUMP JUMPDEST PUSH2 0x1C0D JUMPI PUSH1 0x1 DUP1 SLOAD DUP1 DUP3 ADD DUP3 SSTORE PUSH1 0x0 SWAP2 SWAP1 SWAP2 MSTORE PUSH32 0xB10E2D527612073B26EECDFD717E6A320CF44B4AFAC2B0732D9FCBE2B7FA0CF6 ADD DUP7 SWAP1 SSTORE JUMPDEST PUSH2 0x1C1C DUP7 DUP7 DUP7 PUSH1 0x20 ADD MLOAD PUSH2 0x1D7A JUMP JUMPDEST POP PUSH1 0x1 SWAP6 SWAP5 POP POP POP POP POP JUMP JUMPDEST PUSH1 0x60 PUSH1 0x0 JUMPDEST PUSH1 0x20 DUP2 PUSH1 0xFF AND LT DUP1 ISZERO PUSH2 0x1C61 JUMPI POP DUP3 DUP2 PUSH1 0xFF AND PUSH1 0x20 DUP2 LT PUSH2 0x1C50 JUMPI PUSH2 0x1C50 PUSH2 0x2C31 JUMP JUMPDEST BYTE PUSH1 0xF8 SHL PUSH1 0x1 PUSH1 0x1 PUSH1 0xF8 SHL SUB NOT AND ISZERO ISZERO JUMPDEST ISZERO PUSH2 0x1C76 JUMPI PUSH2 0x1C6F DUP2 PUSH2 0x2BE5 JUMP JUMPDEST SWAP1 POP PUSH2 0x1C2D JUMP JUMPDEST PUSH1 0x0 DUP2 PUSH1 0xFF AND PUSH1 0x1 PUSH1 0x1 PUSH1 0x40 SHL SUB DUP2 GT ISZERO PUSH2 0x1C93 JUMPI PUSH2 0x1C93 PUSH2 0x2C47 JUMP JUMPDEST PUSH1 0x40 MLOAD SWAP1 DUP1 DUP3 MSTORE DUP1 PUSH1 0x1F ADD PUSH1 0x1F NOT AND PUSH1 0x20 ADD DUP3 ADD PUSH1 0x40 MSTORE DUP1 ISZERO PUSH2 0x1CBD JUMPI PUSH1 0x20 DUP3 ADD DUP2 DUP1 CALLDATASIZE DUP4 CALLDATACOPY ADD SWAP1 POP JUMPDEST POP SWAP1 POP PUSH1 0x0 JUMPDEST DUP3 PUSH1 0xFF AND DUP2 PUSH1 0xFF AND LT ISZERO PUSH2 0x1D26 JUMPI DUP5 DUP2 PUSH1 0xFF AND PUSH1 0x20 DUP2 LT PUSH2 0x1CE6 JUMPI PUSH2 0x1CE6 PUSH2 0x2C31 JUMP JUMPDEST BYTE PUSH1 0xF8 SHL DUP3 DUP3 PUSH1 0xFF AND DUP2 MLOAD DUP2 LT PUSH2 0x1CFF JUMPI PUSH2 0x1CFF PUSH2 0x2C31 JUMP JUMPDEST PUSH1 0x20 ADD ADD SWAP1 PUSH1 0x1 PUSH1 0x1 PUSH1 0xF8 SHL SUB NOT AND SWAP1 DUP2 PUSH1 0x0 BYTE SWAP1 MSTORE8 POP PUSH2 0x1D1F DUP2 PUSH2 0x2BE5 JUMP JUMPDEST SWAP1 POP PUSH2 0x1CC3 JUMP JUMPDEST POP SWAP4 SWAP3 POP POP POP JUMP JUMPDEST PUSH1 0x0 DUP1 JUMPDEST PUSH1 0x1 SLOAD DUP2 LT ISZERO PUSH2 0x19E7 JUMPI DUP3 PUSH1 0x1 DUP3 DUP2 SLOAD DUP2 LT PUSH2 0x1D50 JUMPI PUSH2 0x1D50 PUSH2 0x2C31 JUMP JUMPDEST SWAP1 PUSH1 0x0 MSTORE PUSH1 0x20 PUSH1 0x0 KECCAK256 ADD SLOAD EQ ISZERO PUSH2 0x1D6A JUMPI POP PUSH1 0x1 SWAP3 SWAP2 POP POP JUMP JUMPDEST PUSH2 0x1D73 DUP2 PUSH2 0x2BCA JUMP JUMPDEST SWAP1 POP PUSH2 0x1D32 JUMP JUMPDEST DUP3 PUSH2 0x1D97 JUMPI PUSH1 0x40 MLOAD PUSH3 0x461BCD PUSH1 0xE5 SHL DUP2 MSTORE PUSH1 0x4 ADD PUSH2 0x620 SWAP1 PUSH2 0x2938 JUMP JUMPDEST PUSH1 0x0 DUP3 GT PUSH2 0x1DB7 JUMPI PUSH1 0x40 MLOAD PUSH3 0x461BCD PUSH1 0xE5 SHL DUP2 MSTORE PUSH1 0x4 ADD PUSH2 0x620 SWAP1 PUSH2 0x295F JUMP JUMPDEST PUSH1 0x0 DUP4 DUP2 MSTORE PUSH1 0x2 PUSH1 0x20 MSTORE PUSH1 0x40 DUP2 KECCAK256 SWAP1 JUMPDEST DUP2 SLOAD DUP2 LT ISZERO PUSH2 0x1EB7 JUMPI DUP4 DUP3 DUP3 DUP2 SLOAD DUP2 LT PUSH2 0x1DE3 JUMPI PUSH2 0x1DE3 PUSH2 0x2C31 JUMP JUMPDEST SWAP1 PUSH1 0x0 MSTORE PUSH1 0x20 PUSH1 0x0 KECCAK256 SWAP1 PUSH1 0x2 MUL ADD PUSH1 0x0 ADD SLOAD EQ ISZERO PUSH2 0x1EA7 JUMPI PUSH1 0x0 DUP3 DUP3 DUP2 SLOAD DUP2 LT PUSH2 0x1E0F JUMPI PUSH2 0x1E0F PUSH2 0x2C31 JUMP JUMPDEST PUSH1 0x0 SWAP2 DUP3 MSTORE PUSH1 0x20 SWAP1 SWAP2 KECCAK256 PUSH1 0x1 PUSH1 0x2 SWAP1 SWAP3 MUL ADD ADD SLOAD PUSH1 0x1 PUSH1 0x1 PUSH1 0xA0 SHL SUB SWAP1 DUP2 AND SWAP2 POP DUP5 AND DUP2 EQ PUSH2 0x1E9F JUMPI DUP4 DUP4 DUP4 DUP2 SLOAD DUP2 LT PUSH2 0x1E4B JUMPI PUSH2 0x1E4B PUSH2 0x2C31 JUMP JUMPDEST PUSH1 0x0 SWAP2 DUP3 MSTORE PUSH1 0x20 DUP1 DUP4 KECCAK256 PUSH1 0x2 SWAP3 SWAP1 SWAP3 MUL SWAP1 SWAP2 ADD PUSH1 0x1 ADD DUP1 SLOAD PUSH1 0x1 PUSH1 0x1 PUSH1 0xA0 SHL SUB NOT AND PUSH1 0x1 PUSH1 0x1 PUSH1 0xA0 SHL SUB SWAP5 DUP6 AND OR SWAP1 SSTORE DUP8 DUP3 MSTORE PUSH1 0x8 DUP2 MSTORE PUSH1 0x40 DUP1 DUP4 KECCAK256 DUP6 DUP6 AND DUP5 MSTORE SWAP1 SWAP2 MSTORE DUP1 DUP3 KECCAK256 DUP3 SWAP1 SSTORE SWAP2 DUP7 AND DUP2 MSTORE KECCAK256 DUP7 SWAP1 SSTORE JUMPDEST POP POP POP POP POP POP JUMP JUMPDEST PUSH2 0x1EB0 DUP2 PUSH2 0x2BCA JUMP JUMPDEST SWAP1 POP PUSH2 0x1DC7 JUMP JUMPDEST POP PUSH1 0x40 DUP1 MLOAD DUP1 DUP3 ADD DUP3 MSTORE DUP5 DUP2 MSTORE PUSH1 0x1 PUSH1 0x1 PUSH1 0xA0 SHL SUB SWAP4 DUP5 AND PUSH1 0x20 DUP1 DUP4 ADD DUP3 DUP2 MSTORE DUP6 SLOAD PUSH1 0x1 DUP1 DUP3 ADD DUP9 SSTORE PUSH1 0x0 SWAP8 DUP9 MSTORE DUP4 DUP9 KECCAK256 SWAP6 MLOAD PUSH1 0x2 SWAP1 SWAP3 MUL SWAP1 SWAP6 ADD SWAP1 DUP2 SSTORE SWAP1 MLOAD SWAP4 ADD DUP1 SLOAD PUSH1 0x1 PUSH1 0x1 PUSH1 0xA0 SHL SUB NOT AND SWAP4 SWAP1 SWAP7 AND SWAP3 SWAP1 SWAP3 OR SWAP1 SWAP5 SSTORE SWAP4 DUP3 MSTORE PUSH1 0x8 DUP5 MSTORE DUP1 DUP3 KECCAK256 SWAP3 DUP3 MSTORE SWAP2 SWAP1 SWAP3 MSTORE SWAP1 KECCAK256 SSTORE JUMP JUMPDEST PUSH1 0x0 DUP2 PUSH1 0x0 DUP2 PUSH1 0x0 ADD MLOAD GT PUSH2 0x1F70 JUMPI PUSH1 0x40 MLOAD PUSH3 0x461BCD PUSH1 0xE5 SHL DUP2 MSTORE PUSH1 0x20 PUSH1 0x4 DUP3 ADD MSTORE PUSH1 0x10 PUSH1 0x24 DUP3 ADD MSTORE PUSH16 0x7A65726F204D6178696D756D5377617 PUSH1 0x84 SHL PUSH1 0x44 DUP3 ADD MSTORE PUSH1 0x64 ADD PUSH2 0x620 JUMP JUMPDEST PUSH1 0x0 DUP2 PUSH1 0x20 ADD MLOAD GT PUSH2 0x1FB7 JUMPI PUSH1 0x40 MLOAD PUSH3 0x461BCD PUSH1 0xE5 SHL DUP2 MSTORE PUSH1 0x20 PUSH1 0x4 DUP3 ADD MSTORE PUSH1 0x10 PUSH1 0x24 DUP3 ADD MSTORE PUSH16 0x7A65726F204D696E696D756D5377617 PUSH1 0x84 SHL PUSH1 0x44 DUP3 ADD MSTORE PUSH1 0x64 ADD PUSH2 0x620 JUMP JUMPDEST PUSH1 0x0 DUP2 PUSH1 0x40 ADD MLOAD GT PUSH2 0x2004 JUMPI PUSH1 0x40 MLOAD PUSH3 0x461BCD PUSH1 0xE5 SHL DUP2 MSTORE PUSH1 0x20 PUSH1 0x4 DUP3 ADD MSTORE PUSH1 0x16 PUSH1 0x24 DUP3 ADD MSTORE PUSH22 0x1E995C9BC8109A59D5985B1D59551A1C995CDA1BDB19 PUSH1 0x52 SHL PUSH1 0x44 DUP3 ADD MSTORE PUSH1 0x64 ADD PUSH2 0x620 JUMP JUMPDEST PUSH1 0x20 DUP2 ADD MLOAD DUP2 MLOAD LT ISZERO PUSH2 0x2059 JUMPI PUSH1 0x40 MLOAD PUSH3 0x461BCD PUSH1 0xE5 SHL DUP2 MSTORE PUSH1 0x20 PUSH1 0x4 DUP3 ADD MSTORE PUSH1 0x19 PUSH1 0x24 DUP3 ADD MSTORE PUSH32 0x4D6178696D756D53776170203C204D696E696D756D5377617000000000000000 PUSH1 0x44 DUP3 ADD MSTORE PUSH1 0x64 ADD PUSH2 0x620 JUMP JUMPDEST DUP1 PUSH1 0xA0 ADD MLOAD DUP2 PUSH1 0x80 ADD MLOAD LT ISZERO PUSH2 0x20B1 JUMPI PUSH1 0x40 MLOAD PUSH3 0x461BCD PUSH1 0xE5 SHL DUP2 MSTORE PUSH1 0x20 PUSH1 0x4 DUP3 ADD MSTORE PUSH1 0x1F PUSH1 0x24 DUP3 ADD MSTORE PUSH32 0x4D6178696D756D53776170466565203C204D696E696D756D5377617046656500 PUSH1 0x44 DUP3 ADD MSTORE PUSH1 0x64 ADD PUSH2 0x620 JUMP JUMPDEST DUP1 PUSH1 0xA0 ADD MLOAD DUP2 PUSH1 0x20 ADD MLOAD LT ISZERO PUSH2 0x2109 JUMPI PUSH1 0x40 MLOAD PUSH3 0x461BCD PUSH1 0xE5 SHL DUP2 MSTORE PUSH1 0x20 PUSH1 0x4 DUP3 ADD MSTORE PUSH1 0x1C PUSH1 0x24 DUP3 ADD MSTORE PUSH32 0x4D696E696D756D53776170203C204D696E696D756D5377617046656500000000 PUSH1 0x44 DUP3 ADD MSTORE PUSH1 0x64 ADD PUSH2 0x620 JUMP JUMPDEST PUSH3 0xF4240 DUP2 PUSH1 0x60 ADD MLOAD LT PUSH2 0x215F JUMPI PUSH1 0x40 MLOAD PUSH3 0x461BCD PUSH1 0xE5 SHL DUP2 MSTORE PUSH1 0x20 PUSH1 0x4 DUP3 ADD DUP2 SWAP1 MSTORE PUSH1 0x24 DUP3 ADD MSTORE PUSH32 0x53776170466565526174655065724D696C6C696F6E203E3D2031303030303030 PUSH1 0x44 DUP3 ADD MSTORE PUSH1 0x64 ADD PUSH2 0x620 JUMP JUMPDEST PUSH1 0x0 DUP2 PUSH1 0x60 ADD MLOAD GT DUP1 PUSH2 0x2174 JUMPI POP PUSH1 0xA0 DUP2 ADD MLOAD ISZERO JUMPDEST PUSH2 0x21B7 JUMPI PUSH1 0x40 MLOAD PUSH3 0x461BCD PUSH1 0xE5 SHL DUP2 MSTORE PUSH1 0x20 PUSH1 0x4 DUP3 ADD MSTORE PUSH1 0x14 PUSH1 0x24 DUP3 ADD MSTORE PUSH20 0x77726F6E67204D696E696D756D53776170466565 PUSH1 0x60 SHL PUSH1 0x44 DUP3 ADD MSTORE PUSH1 0x64 ADD PUSH2 0x620 JUMP JUMPDEST DUP5 PUSH2 0x21D4 JUMPI PUSH1 0x40 MLOAD PUSH3 0x461BCD PUSH1 0xE5 SHL DUP2 MSTORE PUSH1 0x4 ADD PUSH2 0x620 SWAP1 PUSH2 0x2938 JUMP JUMPDEST PUSH1 0x0 DUP5 GT PUSH2 0x21F4 JUMPI PUSH1 0x40 MLOAD PUSH3 0x461BCD PUSH1 0xE5 SHL DUP2 MSTORE PUSH1 0x4 ADD PUSH2 0x620 SWAP1 PUSH2 0x295F JUMP JUMPDEST POP POP PUSH1 0x0 SWAP3 DUP4 MSTORE PUSH1 0x6 PUSH1 0x20 SWAP1 DUP2 MSTORE PUSH1 0x40 DUP1 DUP6 KECCAK256 SWAP4 DUP6 MSTORE SWAP3 DUP2 MSTORE SWAP3 DUP3 SWAP1 KECCAK256 DUP2 MLOAD DUP2 SSTORE SWAP3 DUP2 ADD MLOAD PUSH1 0x1 DUP1 DUP6 ADD SWAP2 SWAP1 SWAP2 SSTORE SWAP2 DUP2 ADD MLOAD PUSH1 0x2 DUP5 ADD SSTORE PUSH1 0x60 DUP2 ADD MLOAD PUSH1 0x3 DUP5 ADD SSTORE PUSH1 0x80 DUP2 ADD MLOAD PUSH1 0x4 DUP5 ADD SSTORE PUSH1 0xA0 ADD MLOAD PUSH1 0x5 SWAP1 SWAP3 ADD SWAP2 SWAP1 SWAP2 SSTORE SWAP1 JUMP JUMPDEST DUP3 DUP1 SLOAD PUSH2 0x225B SWAP1 PUSH2 0x2B8F JUMP JUMPDEST SWAP1 PUSH1 0x0 MSTORE PUSH1 0x20 PUSH1 0x0 KECCAK256 SWAP1 PUSH1 0x1F ADD PUSH1 0x20 SWAP1 DIV DUP2 ADD SWAP3 DUP3 PUSH2 0x227D JUMPI PUSH1 0x0 DUP6 SSTORE PUSH2 0x22C3 JUMP JUMPDEST DUP3 PUSH1 0x1F LT PUSH2 0x2296 JUMPI DUP3 DUP1 ADD PUSH1 0xFF NOT DUP3 CALLDATALOAD AND OR DUP6 SSTORE PUSH2 0x22C3 JUMP JUMPDEST DUP3 DUP1 ADD PUSH1 0x1 ADD DUP6 SSTORE DUP3 ISZERO PUSH2 0x22C3 JUMPI SWAP2 DUP3 ADD JUMPDEST DUP3 DUP2 GT ISZERO PUSH2 0x22C3 JUMPI DUP3 CALLDATALOAD DUP3 SSTORE SWAP2 PUSH1 0x20 ADD SWAP2 SWAP1 PUSH1 0x1 ADD SWAP1 PUSH2 0x22A8 JUMP JUMPDEST POP PUSH2 0x22CF SWAP3 SWAP2 POP PUSH2 0x22F7 JUMP JUMPDEST POP SWAP1 JUMP JUMPDEST POP DUP1 SLOAD PUSH1 0x0 DUP3 SSTORE PUSH1 0x2 MUL SWAP1 PUSH1 0x0 MSTORE PUSH1 0x20 PUSH1 0x0 KECCAK256 SWAP1 DUP2 ADD SWAP1 PUSH2 0x22F4 SWAP2 SWAP1 PUSH2 0x230C JUMP JUMPDEST POP JUMP JUMPDEST JUMPDEST DUP1 DUP3 GT ISZERO PUSH2 0x22CF JUMPI PUSH1 0x0 DUP2 SSTORE PUSH1 0x1 ADD PUSH2 0x22F8 JUMP JUMPDEST JUMPDEST DUP1 DUP3 GT ISZERO PUSH2 0x22CF JUMPI PUSH1 0x0 DUP2 SSTORE PUSH1 0x1 DUP2 ADD DUP1 SLOAD PUSH1 0x1 PUSH1 0x1 PUSH1 0xA0 SHL SUB NOT AND SWAP1 SSTORE PUSH1 0x2 ADD PUSH2 0x230D JUMP JUMPDEST DUP1 CALLDATALOAD PUSH2 0x6A5 DUP2 PUSH2 0x2E02 JUMP JUMPDEST PUSH1 0x0 DUP1 DUP4 PUSH1 0x1F DUP5 ADD SLT PUSH2 0x2350 JUMPI PUSH1 0x0 DUP1 REVERT JUMPDEST POP DUP2 CALLDATALOAD PUSH1 0x1 PUSH1 0x1 PUSH1 0x40 SHL SUB DUP2 GT ISZERO PUSH2 0x2367 JUMPI PUSH1 0x0 DUP1 REVERT JUMPDEST PUSH1 0x20 DUP4 ADD SWAP2 POP DUP4 PUSH1 0x20 DUP3 DUP6 ADD ADD GT ISZERO PUSH2 0x237F JUMPI PUSH1 0x0 DUP1 REVERT JUMPDEST SWAP3 POP SWAP3 SWAP1 POP JUMP JUMPDEST DUP1 CALLDATALOAD PUSH2 0x6A5 DUP2 PUSH2 0x2E17 JUMP JUMPDEST PUSH1 0x0 PUSH1 0x20 DUP3 DUP5 SUB SLT ISZERO PUSH2 0x23A3 JUMPI PUSH1 0x0 DUP1 REVERT JUMPDEST DUP2 CALLDATALOAD PUSH2 0x757 DUP2 PUSH2 0x2E02 JUMP JUMPDEST PUSH1 0x0 DUP1 PUSH1 0x0 PUSH1 0x40 DUP5 DUP7 SUB SLT ISZERO PUSH2 0x23C3 JUMPI PUSH1 0x0 DUP1 REVERT JUMPDEST DUP4 CALLDATALOAD PUSH2 0x23CE DUP2 PUSH2 0x2E02 JUMP JUMPDEST SWAP3 POP PUSH1 0x20 DUP5 ADD CALLDATALOAD PUSH1 0x1 PUSH1 0x1 PUSH1 0x40 SHL SUB DUP2 GT ISZERO PUSH2 0x23E9 JUMPI PUSH1 0x0 DUP1 REVERT JUMPDEST PUSH2 0x23F5 DUP7 DUP3 DUP8 ADD PUSH2 0x233E JUMP JUMPDEST SWAP5 SWAP8 SWAP1 SWAP7 POP SWAP4 SWAP5 POP POP POP POP JUMP JUMPDEST PUSH1 0x0 DUP1 PUSH1 0x20 DUP4 DUP6 SUB SLT ISZERO PUSH2 0x2415 JUMPI PUSH1 0x0 DUP1 REVERT JUMPDEST DUP3 CALLDATALOAD PUSH1 0x1 PUSH1 0x1 PUSH1 0x40 SHL SUB DUP2 GT ISZERO PUSH2 0x242B JUMPI PUSH1 0x0 DUP1 REVERT JUMPDEST PUSH2 0x2437 DUP6 DUP3 DUP7 ADD PUSH2 0x233E JUMP JUMPDEST SWAP1 SWAP7 SWAP1 SWAP6 POP SWAP4 POP POP POP POP JUMP JUMPDEST PUSH1 0x0 DUP1 PUSH1 0x0 PUSH1 0x40 DUP5 DUP7 SUB SLT ISZERO PUSH2 0x2458 JUMPI PUSH1 0x0 DUP1 REVERT JUMPDEST DUP4 CALLDATALOAD PUSH1 0x1 PUSH1 0x1 PUSH1 0x40 SHL SUB DUP2 GT ISZERO PUSH2 0x246E JUMPI PUSH1 0x0 DUP1 REVERT JUMPDEST PUSH2 0x247A DUP7 DUP3 DUP8 ADD PUSH2 0x233E JUMP JUMPDEST SWAP1 SWAP8 SWAP1 SWAP7 POP PUSH1 0x20 SWAP6 SWAP1 SWAP6 ADD CALLDATALOAD SWAP5 SWAP4 POP POP POP POP JUMP JUMPDEST PUSH1 0x0 DUP1 PUSH1 0x0 DUP1 PUSH1 0x60 DUP6 DUP8 SUB SLT ISZERO PUSH2 0x24A4 JUMPI PUSH1 0x0 DUP1 REVERT JUMPDEST DUP5 CALLDATALOAD PUSH1 0x1 PUSH1 0x1 PUSH1 0x40 SHL SUB DUP2 GT ISZERO PUSH2 0x24BA JUMPI PUSH1 0x0 DUP1 REVERT JUMPDEST PUSH2 0x24C6 DUP8 DUP3 DUP9 ADD PUSH2 0x233E JUMP JUMPDEST SWAP1 SWAP6 POP SWAP4 POP POP PUSH1 0x20 DUP6 ADD CALLDATALOAD SWAP2 POP PUSH1 0x40 DUP6 ADD CALLDATALOAD PUSH2 0x24E1 DUP2 PUSH2 0x2E02 JUMP JUMPDEST SWAP4 SWAP7 SWAP3 SWAP6 POP SWAP1 SWAP4 POP POP JUMP JUMPDEST PUSH1 0x0 DUP1 PUSH1 0x0 DUP1 DUP5 DUP7 SUB PUSH2 0x100 DUP2 SLT ISZERO PUSH2 0x2504 JUMPI PUSH1 0x0 DUP1 REVERT JUMPDEST DUP6 CALLDATALOAD PUSH1 0x1 PUSH1 0x1 PUSH1 0x40 SHL SUB DUP2 GT ISZERO PUSH2 0x251A JUMPI PUSH1 0x0 DUP1 REVERT JUMPDEST PUSH2 0x2526 DUP9 DUP3 DUP10 ADD PUSH2 0x233E JUMP JUMPDEST SWAP1 SWAP7 POP SWAP5 POP POP PUSH1 0x20 DUP7 ADD CALLDATALOAD SWAP3 POP PUSH1 0xC0 PUSH1 0x3F NOT DUP3 ADD SLT ISZERO PUSH2 0x2545 JUMPI PUSH1 0x0 DUP1 REVERT JUMPDEST POP SWAP3 SWAP6 SWAP2 SWAP5 POP SWAP3 PUSH1 0x40 ADD SWAP2 POP JUMP JUMPDEST PUSH1 0x0 DUP1 PUSH1 0x0 DUP1 DUP5 DUP7 SUB PUSH1 0xA0 DUP2 SLT ISZERO PUSH2 0x256A JUMPI PUSH1 0x0 DUP1 REVERT JUMPDEST DUP6 CALLDATALOAD PUSH1 0x1 PUSH1 0x1 PUSH1 0x40 SHL SUB DUP2 GT ISZERO PUSH2 0x2580 JUMPI PUSH1 0x0 DUP1 REVERT JUMPDEST PUSH2 0x258C DUP9 DUP3 DUP10 ADD PUSH2 0x233E JUMP JUMPDEST SWAP1 SWAP7 POP SWAP5 POP POP PUSH1 0x20 DUP7 ADD CALLDATALOAD SWAP3 POP PUSH1 0x60 PUSH1 0x3F NOT DUP3 ADD SLT ISZERO PUSH2 0x2545 JUMPI PUSH1 0x0 DUP1 REVERT JUMPDEST PUSH1 0x0 PUSH1 0xC0 DUP3 DUP5 SUB SLT ISZERO PUSH2 0x25BD JUMPI PUSH1 0x0 DUP1 REVERT JUMPDEST PUSH1 0x40 MLOAD PUSH1 0xC0 DUP2 ADD DUP2 DUP2 LT PUSH1 0x1 PUSH1 0x1 PUSH1 0x40 SHL SUB DUP3 GT OR ISZERO PUSH2 0x25DF JUMPI PUSH2 0x25DF PUSH2 0x2C47 JUMP JUMPDEST DUP1 PUSH1 0x40 MSTORE POP DUP3 CALLDATALOAD DUP2 MSTORE PUSH1 0x20 DUP4 ADD CALLDATALOAD PUSH1 0x20 DUP3 ADD MSTORE PUSH1 0x40 DUP4 ADD CALLDATALOAD PUSH1 0x40 DUP3 ADD MSTORE PUSH1 0x60 DUP4 ADD CALLDATALOAD PUSH1 0x60 DUP3 ADD MSTORE PUSH1 0x80 DUP4 ADD CALLDATALOAD PUSH1 0x80 DUP3 ADD MSTORE PUSH1 0xA0 DUP4 ADD CALLDATALOAD PUSH1 0xA0 DUP3 ADD MSTORE DUP1 SWAP2 POP POP SWAP3 SWAP2 POP POP JUMP JUMPDEST PUSH1 0x0 PUSH1 0x60 DUP3 DUP5 SUB SLT ISZERO PUSH2 0x2636 JUMPI PUSH1 0x0 DUP1 REVERT JUMPDEST PUSH1 0x40 MLOAD PUSH1 0x60 DUP2 ADD DUP2 DUP2 LT PUSH1 0x1 PUSH1 0x1 PUSH1 0x40 SHL SUB DUP3 GT OR ISZERO PUSH2 0x2658 JUMPI PUSH2 0x2658 PUSH2 0x2C47 JUMP JUMPDEST PUSH1 0x40 MSTORE DUP3 CALLDATALOAD PUSH1 0xFF DUP2 AND DUP2 EQ PUSH2 0x266C JUMPI PUSH1 0x0 DUP1 REVERT JUMPDEST DUP2 MSTORE PUSH1 0x20 DUP4 ADD CALLDATALOAD PUSH2 0x267C DUP2 PUSH2 0x2E02 JUMP JUMPDEST PUSH1 0x20 DUP3 ADD MSTORE PUSH1 0x40 SWAP3 DUP4 ADD CALLDATALOAD SWAP3 DUP2 ADD SWAP3 SWAP1 SWAP3 MSTORE POP SWAP2 SWAP1 POP JUMP JUMPDEST PUSH1 0x0 PUSH1 0x20 DUP3 DUP5 SUB SLT ISZERO PUSH2 0x26A6 JUMPI PUSH1 0x0 DUP1 REVERT JUMPDEST POP CALLDATALOAD SWAP2 SWAP1 POP JUMP JUMPDEST PUSH1 0x0 DUP1 PUSH1 0x40 DUP4 DUP6 SUB SLT ISZERO PUSH2 0x26C0 JUMPI PUSH1 0x0 DUP1 REVERT JUMPDEST DUP3 CALLDATALOAD SWAP2 POP PUSH1 0x20 DUP4 ADD CALLDATALOAD PUSH2 0x26D2 DUP2 PUSH2 0x2E02 JUMP JUMPDEST DUP1 SWAP2 POP POP SWAP3 POP SWAP3 SWAP1 POP JUMP JUMPDEST PUSH1 0x0 DUP1 PUSH1 0x0 PUSH1 0x40 DUP5 DUP7 SUB SLT ISZERO PUSH2 0x26F2 JUMPI PUSH1 0x0 DUP1 REVERT JUMPDEST DUP4 CALLDATALOAD SWAP3 POP PUSH1 0x20 DUP5 ADD CALLDATALOAD PUSH1 0x1 PUSH1 0x1 PUSH1 0x40 SHL SUB DUP2 GT ISZERO PUSH2 0x23E9 JUMPI PUSH1 0x0 DUP1 REVERT JUMPDEST PUSH1 0x0 DUP1 PUSH1 0x0 DUP1 PUSH1 0x0 PUSH1 0x60 DUP7 DUP9 SUB SLT ISZERO PUSH2 0x2727 JUMPI PUSH1 0x0 DUP1 REVERT JUMPDEST DUP6 CALLDATALOAD SWAP5 POP PUSH1 0x20 DUP7 ADD CALLDATALOAD PUSH1 0x1 PUSH1 0x1 PUSH1 0x40 SHL SUB DUP1 DUP3 GT ISZERO PUSH2 0x2745 JUMPI PUSH1 0x0 DUP1 REVERT JUMPDEST PUSH2 0x2751 DUP10 DUP4 DUP11 ADD PUSH2 0x233E JUMP JUMPDEST SWAP1 SWAP7 POP SWAP5 POP PUSH1 0x40 DUP9 ADD CALLDATALOAD SWAP2 POP DUP1 DUP3 GT ISZERO PUSH2 0x276A JUMPI PUSH1 0x0 DUP1 REVERT JUMPDEST POP PUSH2 0x2777 DUP9 DUP3 DUP10 ADD PUSH2 0x233E JUMP JUMPDEST SWAP7 SWAP10 SWAP6 SWAP9 POP SWAP4 SWAP7 POP SWAP3 SWAP5 SWAP4 SWAP3 POP POP POP JUMP JUMPDEST PUSH1 0x0 DUP1 PUSH1 0x40 DUP4 DUP6 SUB SLT ISZERO PUSH2 0x279B JUMPI PUSH1 0x0 DUP1 REVERT JUMPDEST DUP3 CALLDATALOAD SWAP2 POP PUSH1 0x20 DUP4 ADD CALLDATALOAD PUSH1 0x1 PUSH1 0x1 PUSH1 0x40 SHL SUB DUP2 GT ISZERO PUSH2 0x27B8 JUMPI PUSH1 0x0 DUP1 REVERT JUMPDEST DUP4 ADD PUSH1 0x80 DUP2 DUP7 SUB SLT ISZERO PUSH2 0x26D2 JUMPI PUSH1 0x0 DUP1 REVERT JUMPDEST PUSH1 0x0 DUP2 MLOAD DUP1 DUP5 MSTORE PUSH1 0x0 JUMPDEST DUP2 DUP2 LT ISZERO PUSH2 0x27F0 JUMPI PUSH1 0x20 DUP2 DUP6 ADD DUP2 ADD MLOAD DUP7 DUP4 ADD DUP3 ADD MSTORE ADD PUSH2 0x27D4 JUMP JUMPDEST DUP2 DUP2 GT ISZERO PUSH2 0x2802 JUMPI PUSH1 0x0 PUSH1 0x20 DUP4 DUP8 ADD ADD MSTORE JUMPDEST POP PUSH1 0x1F ADD PUSH1 0x1F NOT AND SWAP3 SWAP1 SWAP3 ADD PUSH1 0x20 ADD SWAP3 SWAP2 POP POP JUMP JUMPDEST DUP2 DUP4 DUP3 CALLDATACOPY PUSH1 0x0 SWAP2 ADD SWAP1 DUP2 MSTORE SWAP2 SWAP1 POP JUMP JUMPDEST PUSH1 0x0 PUSH1 0x20 DUP1 DUP4 ADD DUP2 DUP5 MSTORE DUP1 DUP6 MLOAD DUP1 DUP4 MSTORE PUSH1 0x40 DUP7 ADD SWAP2 POP PUSH1 0x40 DUP2 PUSH1 0x5 SHL DUP8 ADD ADD SWAP3 POP DUP4 DUP8 ADD PUSH1 0x0 JUMPDEST DUP3 DUP2 LT ISZERO PUSH2 0x287C JUMPI PUSH1 0x3F NOT DUP9 DUP7 SUB ADD DUP5 MSTORE PUSH2 0x286A DUP6 DUP4 MLOAD PUSH2 0x27CA JUMP JUMPDEST SWAP5 POP SWAP3 DUP6 ADD SWAP3 SWAP1 DUP6 ADD SWAP1 PUSH1 0x1 ADD PUSH2 0x284E JUMP JUMPDEST POP SWAP3 SWAP8 SWAP7 POP POP POP POP POP POP POP JUMP JUMPDEST PUSH1 0x20 DUP1 DUP3 MSTORE DUP3 MLOAD DUP3 DUP3 ADD DUP2 SWAP1 MSTORE PUSH1 0x0 SWAP2 SWAP1 PUSH1 0x40 SWAP1 DUP2 DUP6 ADD SWAP1 DUP7 DUP5 ADD DUP6 JUMPDEST DUP3 DUP2 LT ISZERO PUSH2 0x28D4 JUMPI DUP2 MLOAD DUP1 MLOAD DUP6 MSTORE DUP7 ADD MLOAD PUSH1 0x1 PUSH1 0x1 PUSH1 0xA0 SHL SUB AND DUP7 DUP6 ADD MSTORE SWAP3 DUP5 ADD SWAP3 SWAP1 DUP6 ADD SWAP1 PUSH1 0x1 ADD PUSH2 0x28A6 JUMP JUMPDEST POP SWAP2 SWAP8 SWAP7 POP POP POP POP POP POP POP JUMP JUMPDEST PUSH1 0x20 DUP1 DUP3 MSTORE DUP3 MLOAD DUP3 DUP3 ADD DUP2 SWAP1 MSTORE PUSH1 0x0 SWAP2 SWAP1 DUP5 DUP3 ADD SWAP1 PUSH1 0x40 DUP6 ADD SWAP1 DUP5 JUMPDEST DUP2 DUP2 LT ISZERO PUSH2 0x2919 JUMPI DUP4 MLOAD DUP4 MSTORE SWAP3 DUP5 ADD SWAP3 SWAP2 DUP5 ADD SWAP2 PUSH1 0x1 ADD PUSH2 0x28FD JUMP JUMPDEST POP SWAP1 SWAP7 SWAP6 POP POP POP POP POP POP JUMP JUMPDEST PUSH1 0x20 DUP2 MSTORE PUSH1 0x0 PUSH2 0x757 PUSH1 0x20 DUP4 ADD DUP5 PUSH2 0x27CA JUMP JUMPDEST PUSH1 0x20 DUP1 DUP3 MSTORE PUSH1 0xD SWAP1 DUP3 ADD MSTORE PUSH13 0x195B5C1D1E481D1BDAD95B9251 PUSH1 0x9A SHL PUSH1 0x40 DUP3 ADD MSTORE PUSH1 0x60 ADD SWAP1 JUMP JUMPDEST PUSH1 0x20 DUP1 DUP3 MSTORE PUSH1 0xC SWAP1 DUP3 ADD MSTORE PUSH12 0x1E995C9BC818DA185A5B9251 PUSH1 0xA2 SHL PUSH1 0x40 DUP3 ADD MSTORE PUSH1 0x60 ADD SWAP1 JUMP JUMPDEST PUSH1 0x20 DUP1 DUP3 MSTORE PUSH1 0xA SWAP1 DUP3 ADD MSTORE PUSH10 0x37B7363C9037BBB732B9 PUSH1 0xB1 SHL PUSH1 0x40 DUP3 ADD MSTORE PUSH1 0x60 ADD SWAP1 JUMP JUMPDEST PUSH1 0x20 DUP2 MSTORE PUSH1 0x0 DUP3 MLOAD PUSH1 0x80 PUSH1 0x20 DUP5 ADD MSTORE PUSH2 0x29C5 PUSH1 0xA0 DUP5 ADD DUP3 PUSH2 0x27CA JUMP JUMPDEST SWAP1 POP PUSH1 0x1 DUP1 PUSH1 0xA0 SHL SUB PUSH1 0x20 DUP6 ADD MLOAD AND PUSH1 0x40 DUP5 ADD MSTORE PUSH1 0x40 DUP5 ADD MLOAD PUSH1 0x1 PUSH1 0x1 PUSH1 0x40 SHL SUB DUP1 DUP3 AND PUSH1 0x60 DUP7 ADD MSTORE DUP1 PUSH1 0x60 DUP8 ADD MLOAD AND PUSH1 0x80 DUP7 ADD MSTORE POP POP DUP1 SWAP2 POP POP SWAP3 SWAP2 POP POP JUMP JUMPDEST PUSH1 0x40 MLOAD PUSH1 0x80 DUP2 ADD PUSH1 0x1 PUSH1 0x1 PUSH1 0x40 SHL SUB DUP2 GT DUP3 DUP3 LT OR ISZERO PUSH2 0x2A28 JUMPI PUSH2 0x2A28 PUSH2 0x2C47 JUMP JUMPDEST PUSH1 0x40 MSTORE SWAP1 JUMP JUMPDEST PUSH1 0x40 MLOAD PUSH1 0x1F DUP3 ADD PUSH1 0x1F NOT AND DUP2 ADD PUSH1 0x1 PUSH1 0x1 PUSH1 0x40 SHL SUB DUP2 GT DUP3 DUP3 LT OR ISZERO PUSH2 0x2A56 JUMPI PUSH2 0x2A56 PUSH2 0x2C47 JUMP JUMPDEST PUSH1 0x40 MSTORE SWAP2 SWAP1 POP JUMP JUMPDEST PUSH1 0x0 DUP3 NOT DUP3 GT ISZERO PUSH2 0x2A71 JUMPI PUSH2 0x2A71 PUSH2 0x2C05 JUMP JUMPDEST POP ADD SWAP1 JUMP JUMPDEST PUSH1 0x1F DUP3 GT ISZERO PUSH2 0x2ABC JUMPI PUSH1 0x0 DUP2 DUP2 MSTORE PUSH1 0x20 DUP2 KECCAK256 PUSH1 0x1F DUP6 ADD PUSH1 0x5 SHR DUP2 ADD PUSH1 0x20 DUP7 LT ISZERO PUSH2 0x2A9D JUMPI POP DUP1 JUMPDEST PUSH1 0x1F DUP6 ADD PUSH1 0x5 SHR DUP3 ADD SWAP2 POP JUMPDEST DUP2 DUP2 LT ISZERO PUSH2 0x1E9F JUMPI DUP3 DUP2 SSTORE PUSH1 0x1 ADD PUSH2 0x2AA9 JUMP JUMPDEST POP POP POP JUMP JUMPDEST PUSH1 0x0 PUSH1 0x80 DUP3 CALLDATASIZE SUB SLT ISZERO PUSH2 0x2AD3 JUMPI PUSH1 0x0 DUP1 REVERT JUMPDEST PUSH2 0x2ADB PUSH2 0x2A06 JUMP JUMPDEST DUP3 CALLDATALOAD PUSH1 0x1 PUSH1 0x1 PUSH1 0x40 SHL SUB DUP1 DUP3 GT ISZERO PUSH2 0x2AF2 JUMPI PUSH1 0x0 DUP1 REVERT JUMPDEST SWAP1 DUP5 ADD SWAP1 CALLDATASIZE PUSH1 0x1F DUP4 ADD SLT PUSH2 0x2B05 JUMPI PUSH1 0x0 DUP1 REVERT JUMPDEST DUP2 CALLDATALOAD PUSH1 0x20 DUP3 DUP3 GT ISZERO PUSH2 0x2B19 JUMPI PUSH2 0x2B19 PUSH2 0x2C47 JUMP JUMPDEST PUSH2 0x2B2B PUSH1 0x1F DUP4 ADD PUSH1 0x1F NOT AND DUP3 ADD PUSH2 0x2A2E JUMP JUMPDEST SWAP3 POP DUP2 DUP4 MSTORE CALLDATASIZE DUP2 DUP4 DUP7 ADD ADD GT ISZERO PUSH2 0x2B41 JUMPI PUSH1 0x0 DUP1 REVERT JUMPDEST DUP2 DUP2 DUP6 ADD DUP3 DUP6 ADD CALLDATACOPY PUSH1 0x0 DUP2 DUP4 DUP6 ADD ADD MSTORE DUP3 DUP6 MSTORE PUSH2 0x2B5F DUP2 DUP9 ADD PUSH2 0x2333 JUMP JUMPDEST DUP2 DUP7 ADD MSTORE POP POP POP POP PUSH2 0x2B73 PUSH1 0x40 DUP5 ADD PUSH2 0x2386 JUMP JUMPDEST PUSH1 0x40 DUP3 ADD MSTORE PUSH2 0x2B84 PUSH1 0x60 DUP5 ADD PUSH2 0x2386 JUMP JUMPDEST PUSH1 0x60 DUP3 ADD MSTORE SWAP3 SWAP2 POP POP JUMP JUMPDEST PUSH1 0x1 DUP2 DUP2 SHR SWAP1 DUP3 AND DUP1 PUSH2 0x2BA3 JUMPI PUSH1 0x7F DUP3 AND SWAP2 POP JUMPDEST PUSH1 0x20 DUP3 LT DUP2 EQ ISZERO PUSH2 0x2BC4 JUMPI PUSH4 0x4E487B71 PUSH1 0xE0 SHL PUSH1 0x0 MSTORE PUSH1 0x22 PUSH1 0x4 MSTORE PUSH1 0x24 PUSH1 0x0 REVERT JUMPDEST POP SWAP2 SWAP1 POP JUMP JUMPDEST PUSH1 0x0 PUSH1 0x0 NOT DUP3 EQ ISZERO PUSH2 0x2BDE JUMPI PUSH2 0x2BDE PUSH2 0x2C05 JUMP JUMPDEST POP PUSH1 0x1 ADD SWAP1 JUMP JUMPDEST PUSH1 0x0 PUSH1 0xFF DUP3 AND PUSH1 0xFF DUP2 EQ ISZERO PUSH2 0x2BFC JUMPI PUSH2 0x2BFC PUSH2 0x2C05 JUMP JUMPDEST PUSH1 0x1 ADD SWAP3 SWAP2 POP POP JUMP JUMPDEST PUSH4 0x4E487B71 PUSH1 0xE0 SHL PUSH1 0x0 MSTORE PUSH1 0x11 PUSH1 0x4 MSTORE PUSH1 0x24 PUSH1 0x0 REVERT JUMPDEST PUSH4 0x4E487B71 PUSH1 0xE0 SHL PUSH1 0x0 MSTORE PUSH1 0x31 PUSH1 0x4 MSTORE PUSH1 0x24 PUSH1 0x0 REVERT JUMPDEST PUSH4 0x4E487B71 PUSH1 0xE0 SHL PUSH1 0x0 MSTORE PUSH1 0x32 PUSH1 0x4 MSTORE PUSH1 0x24 PUSH1 0x0 REVERT JUMPDEST PUSH4 0x4E487B71 PUSH1 0xE0 SHL PUSH1 0x0 MSTORE PUSH1 0x41 PUSH1 0x4 MSTORE PUSH1 0x24 PUSH1 0x0 REVERT JUMPDEST PUSH1 0x0 DUP2 CALLDATALOAD PUSH2 0xCB8 DUP2 PUSH2 0x2E02 JUMP JUMPDEST PUSH1 0x0 DUP2 CALLDATALOAD PUSH2 0xCB8 DUP2 PUSH2 0x2E17 JUMP JUMPDEST DUP2 CALLDATALOAD PUSH1 0x1E NOT DUP4 CALLDATASIZE SUB ADD DUP2 SLT PUSH2 0x2C8B JUMPI PUSH1 0x0 DUP1 REVERT JUMPDEST DUP3 ADD DUP1 CALLDATALOAD PUSH1 0x1 PUSH1 0x1 PUSH1 0x40 SHL SUB DUP2 GT ISZERO PUSH2 0x2CA3 JUMPI PUSH1 0x0 DUP1 REVERT JUMPDEST PUSH1 0x20 DUP2 CALLDATASIZE SUB DUP2 DUP5 ADD SGT ISZERO PUSH2 0x2CB6 JUMPI PUSH1 0x0 DUP1 REVERT JUMPDEST PUSH2 0x2CCA DUP3 PUSH2 0x2CC4 DUP7 SLOAD PUSH2 0x2B8F JUMP JUMPDEST DUP7 PUSH2 0x2A76 JUMP JUMPDEST PUSH1 0x0 PUSH1 0x1F DUP4 GT PUSH1 0x1 DUP2 EQ PUSH2 0x2D00 JUMPI PUSH1 0x0 DUP5 ISZERO PUSH2 0x2CE8 JUMPI POP DUP5 DUP3 ADD DUP4 ADD CALLDATALOAD JUMPDEST PUSH1 0x0 NOT PUSH1 0x3 DUP7 SWAP1 SHL SHR NOT AND PUSH1 0x1 DUP6 SWAP1 SHL OR DUP7 SSTORE PUSH2 0x2D5D JUMP JUMPDEST PUSH1 0x0 DUP7 DUP2 MSTORE PUSH1 0x20 SWAP1 KECCAK256 PUSH1 0x1F NOT DUP6 AND SWAP1 DUP4 JUMPDEST DUP3 DUP2 LT ISZERO PUSH2 0x2D32 JUMPI DUP8 DUP6 ADD DUP7 ADD CALLDATALOAD DUP3 SSTORE SWAP4 DUP6 ADD SWAP4 PUSH1 0x1 SWAP1 SWAP2 ADD SWAP1 DUP6 ADD PUSH2 0x2D11 JUMP JUMPDEST POP DUP6 DUP3 LT ISZERO PUSH2 0x2D51 JUMPI PUSH1 0x0 NOT PUSH1 0xF8 DUP8 PUSH1 0x3 SHL AND SHR NOT DUP6 DUP6 DUP10 ADD ADD CALLDATALOAD AND DUP2 SSTORE JUMPDEST POP POP PUSH1 0x1 DUP5 PUSH1 0x1 SHL ADD DUP7 SSTORE JUMPDEST POP POP PUSH1 0x1 DUP5 ADD SWAP3 POP PUSH2 0x2D90 PUSH2 0x2D73 DUP3 DUP8 ADD PUSH2 0x2C5D JUMP JUMPDEST DUP5 SLOAD PUSH1 0x1 PUSH1 0x1 PUSH1 0xA0 SHL SUB NOT AND PUSH1 0x1 PUSH1 0x1 PUSH1 0xA0 SHL SUB SWAP2 SWAP1 SWAP2 AND OR DUP5 SSTORE JUMP JUMPDEST POP POP PUSH2 0x2DCD PUSH2 0x2DA1 PUSH1 0x40 DUP6 ADD PUSH2 0x2C6A JUMP JUMPDEST DUP3 DUP1 SLOAD PUSH8 0xFFFFFFFFFFFFFFFF PUSH1 0xA0 SHL NOT AND PUSH1 0xA0 SWAP3 SWAP1 SWAP3 SHL PUSH8 0xFFFFFFFFFFFFFFFF PUSH1 0xA0 SHL AND SWAP2 SWAP1 SWAP2 OR SWAP1 SSTORE JUMP JUMPDEST POP PUSH2 0x2DFE PUSH2 0x2DDD PUSH1 0x60 DUP5 ADD PUSH2 0x2C6A JUMP JUMPDEST PUSH1 0x2 DUP4 ADD PUSH1 0x1 PUSH1 0x1 PUSH1 0x40 SHL SUB DUP3 AND PUSH1 0x1 PUSH1 0x1 PUSH1 0x40 SHL SUB NOT DUP3 SLOAD AND OR DUP2 SSTORE POP POP JUMP JUMPDEST POP POP JUMP JUMPDEST PUSH1 0x1 PUSH1 0x1 PUSH1 0xA0 SHL SUB DUP2 AND DUP2 EQ PUSH2 0x22F4 JUMPI PUSH1 0x0 DUP1 REVERT JUMPDEST PUSH1 0x1 PUSH1 0x1 PUSH1 0x40 SHL SUB DUP2 AND DUP2 EQ PUSH2 0x22F4 JUMPI PUSH1 0x0 DUP1 REVERT INVALID LOG2 PUSH5 0x6970667358 0x22 SLT KECCAK256 0xCD PUSH28 0xE542CCD90D172E5DED487C5668CD6517CBE39B0364BEBD0324FA1632 0xB4 0x26 PUSH5 0x736F6C6343 STOP ADDMOD MOD STOP CALLER "
				},
				"gasEstimates": {
					"creation": {
						"codeDepositCost": "2374800",
						"executionCost": "26788",
						"totalCost": "2401588"
					},
					"external": {
						"addChainID(uint256)": "infinite",
						"addTokenID(string)": "infinite",
						"getAllChainIDs()": "infinite",
						"getAllMultichainTokens(string)": "infinite",
						"getAllTokenIDs()": "infinite",
						"getChainConfig(uint256)": "infinite",
						"getCustomConfig(uint256,string)": "infinite",
						"getMPCPubkey(address)": "infinite",
						"getMultichainToken(string,uint256)": "infinite",
						"getSwapConfig(string,uint256)": "infinite",
						"getTokenConfig(string,uint256)": "infinite",
						"getTokenID(uint256,address)": "infinite",
						"getUserTokenConfig(string,uint256)": "infinite",
						"isChainIDExist(uint256)": "infinite",
						"isTokenIDExist(string)": "infinite",
						"owner()": "2426",
						"pickUserTokenConfig(string,uint256)": "infinite",
						"removeAllMultichainTokens(string)": "infinite",
						"removeChainID(uint256)": "infinite",
						"removeMultichainToken(string,uint256)": "infinite",
						"removeTokenID(string)": "infinite",
						"setChainConfig(uint256,(string,address,uint64,uint64))": "infinite",
						"setCustomConfig(uint256,string,string)": "infinite",
						"setMPCPubkey(address,string)": "infinite",
						"setMultichainToken(string,uint256,address)": "infinite",
						"setSwapConfig(string,uint256,(uint256,uint256,uint256,uint256,uint256,uint256))": "infinite",
						"setTokenConfig(string,uint256,(uint8,address,uint256))": "infinite",
						"setUserTokenConfig(string,uint256,(uint8,address,uint256))": "infinite",
						"transferOwnership(address)": "28340",
						"updateConfig()": "3097"
					},
					"internal": {
						"_isTokenIDExist(bytes32)": "infinite",
						"_setMultichainToken(bytes32,uint256,address)": "infinite",
						"_setSwapConfig(bytes32,uint256,struct IConfigQuery.SwapConfig memory)": "infinite",
						"_setTokenConfig(bytes32,uint256,struct IConfigQuery.TokenConfig memory,bool)": "infinite",
						"bytes32ToString(bytes32)": "infinite",
						"stringToBytes32(string memory)": "infinite"
					}
				},
				"methodIdentifiers": {
					"addChainID(uint256)": "20c29bca",
					"addTokenID(string)": "e3e01664",
					"getAllChainIDs()": "e27112d5",
					"getAllMultichainTokens(string)": "8fcb62a3",
					"getAllTokenIDs()": "684a10b3",
					"getChainConfig(uint256)": "19ed16dc",
					"getCustomConfig(uint256,string)": "61387d61",
					"getMPCPubkey(address)": "58bb97fb",
					"getMultichainToken(string,uint256)": "b735ab5a",
					"getSwapConfig(string,uint256)": "9af93e7a",
					"getTokenConfig(string,uint256)": "459511d1",
					"getTokenID(uint256,address)": "c4fb2e4b",
					"getUserTokenConfig(string,uint256)": "2879196f",
					"isChainIDExist(uint256)": "fd15ea70",
					"isTokenIDExist(string)": "af611ca0",
					"owner()": "8da5cb5b",
					"pickUserTokenConfig(string,uint256)": "bc772a28",
					"removeAllMultichainTokens(string)": "83f5d5d4",
					"removeChainID(uint256)": "e90768c6",
					"removeMultichainToken(string,uint256)": "9026b205",
					"removeTokenID(string)": "5d58d0a1",
					"setChainConfig(uint256,(string,address,uint64,uint64))": "46bd32f5",
					"setCustomConfig(uint256,string,string)": "e671242a",
					"setMPCPubkey(address,string)": "5b751858",
					"setMultichainToken(string,uint256,address)": "c5e7601a",
					"setSwapConfig(string,uint256,(uint256,uint256,uint256,uint256,uint256,uint256))": "ca29ee96",
					"setTokenConfig(string,uint256,(uint8,address,uint256))": "ba6e0d0f",
					"setUserTokenConfig(string,uint256,(uint8,address,uint256))": "3252c1d0",
					"transferOwnership(address)": "f2fde38b",
					"updateConfig()": "747fd44c"
				}
			},
			"userdoc": {
				"kind": "user",
				"methods": {},
				"version": 1
			}
		}
	}
}