{
	"data": {
		"bytecode": {
			"linkReferences": {},
			"object": "608060405234801561001057600080fd5b50600980546001600160a01b03191633179055613261806100326000396000f3fe608060405234801561001057600080fd5b50600436106101c45760003560e01c80638fcb62a3116100f9578063defb3a0d11610097578063e671242a11610071578063e671242a146103d8578063e90768c6146103eb578063f2fde38b146103fe578063fd15ea7014610411576101c4565b8063defb3a0d1461039d578063e27112d5146103b0578063e3e01664146103c5576101c4565b8063b735ab5a116100d3578063b735ab5a14610351578063bc772a2814610364578063c4fb2e4b14610377578063c5e7601a1461038a576101c4565b80638fcb62a31461030b5780639026b2051461032b578063af611ca01461033e576101c4565b806361387d611161016657806369bda9eb1161014057806369bda9eb146102c6578063747fd44c146102d957806383f5d5d4146102e35780638da5cb5b146102f6576101c4565b806361387d611461028b578063640d5f0f1461029e578063684a10b3146102b1576101c4565b8063459511d1116101a2578063459511d11461023257806358bb97fb146102455780635b751858146102655780635d58d0a114610278576101c4565b806319ed16dc146101c957806320c29bca146101f25780632879196f14610212575b600080fd5b6101dc6101d73660046125e9565b610424565b6040516101e99190612bc8565b60405180910390f35b6102056102003660046125e9565b61056e565b6040516101e9919061289b565b610225610220366004612453565b610602565b6040516101e99190612c9e565b610225610240366004612453565b6106e5565b6102586102533660046123a6565b610730565b6040516101e991906128a6565b6102056102733660046123c2565b6107dc565b610205610286366004612414565b61085d565b610258610299366004612630565b6109f3565b6102056102ac3660046124f8565b610ab8565b6102b9610c81565b6040516101e9919061279f565b6102056102d43660046124f8565b610d63565b6102e1610df2565b005b6102e16102f1366004612414565b610e47565b6102fe610f6a565b6040516101e9919061278b565b61031e610319366004612414565b610f79565b6040516101e991906127ff565b610205610339366004612453565b611040565b61020561034c366004612414565b61128e565b6102fe61035f366004612453565b6112d7565b610205610372366004612453565b6113c9565b610258610385366004612601565b6114d0565b6102e161039836600461249c565b6114ff565b6102056103ab3660046126d6565b611572565b6103b86116b6565b6040516101e99190612857565b6102056103d3366004612414565b61170e565b6102056103e6366004612660565b6117df565b6102056103f93660046125e9565b611878565b6102e161040c3660046123a6565b6119c5565b61020561041f3660046125e9565b611a47565b61042c61213f565b600082815260036020526040908190208151610140810190925280548290829061045590612f49565b80601f016020809104026020016040519081016040528092919081815260200182805461048190612f49565b80156104ce5780601f106104a3576101008083540402835291602001916104ce565b820191906000526020600020905b8154815290600101906020018083116104b157829003601f168201915b505050918352505060018201546001600160a01b03811660208301526001600160401b03600160a01b90910481166040830152600283015480821660608401526801000000000000000080820483166080850152600160801b808304841660a0860152600160c01b909204831660c085015260039094015480831660e085015293840482166101008401529092049091166101209091015290505b919050565b6009546000906001600160a01b031633146105a45760405162461bcd60e51b815260040161059b90612ab7565b60405180910390fd5b6105ad82611a47565b156105ca5760405162461bcd60e51b815260040161059b9061290b565b5060008054600180820183559180527f290decd9548b62a8d60345a988386fc84ba6bc95484008f6362f93160ef3e563019190915590565b61060a612193565b6005600061064d86868080601f016020809104026020016040519081016040528093929190818152602001838380828437600092019190915250611aa292505050565b8152602080820192909252604090810160009081208582528352819020815161012081018352815460ff811682526001600160a01b036101009182900416948201949094526001820154928101929092526002810154606083015260038101546080830152600481015460a0830152600581015460c0830152600681015460e0830152600701549181019190915290505b9392505050565b6106ed612193565b6004600061064d86868080601f016020809104026020016040519081016040528093929190818152602001838380828437600092019190915250611aa292505050565b6001600160a01b038116600090815260086020526040902080546060919061075790612f49565b80601f016020809104026020016040519081016040528092919081815260200182805461078390612f49565b80156107d05780601f106107a5576101008083540402835291602001916107d0565b820191906000526020600020905b8154815290600101906020018083116107b357829003601f168201915b50505050509050919050565b6009546000906001600160a01b031633146108095760405162461bcd60e51b815260040161059b90612ab7565b6001600160a01b03841661082f5760405162461bcd60e51b815260040161059b90612a91565b6001600160a01b03841660009081526008602052604090206108529084846121eb565b506001949350505050565b6009546000906001600160a01b0316331461088a5760405162461bcd60e51b815260040161059b90612ab7565b60006108cb84848080601f016020809104026020016040519081016040528093929190818152602001838380828437600092019190915250611aa292505050565b905060005b6001548110156109e65781600182815481106108fc57634e487b7160e01b600052603260045260246000fd5b906000526020600020015414156109d6575b600180549061091e908390612d3e565b10156109965760016109308282612d3e565b8154811061094e57634e487b7160e01b600052603260045260246000fd5b90600052602060002001546001828154811061097a57634e487b7160e01b600052603260045260246000fd5b60009182526020909120015561098f81612f97565b905061090e565b60018054806109b557634e487b7160e01b600052603160045260246000fd5b600190038181906000526020600020016000905590556001925050506109ed565b6109df81612f97565b90506108d0565b5060009150505b92915050565b6060600660008581526020019081526020016000208383604051610a1892919061277b565b90815260200160405180910390208054610a3190612f49565b80601f0160208091040260200160405190810160405280929190818152602001828054610a5d90612f49565b8015610aaa5780601f10610a7f57610100808354040283529160200191610aaa565b820191906000526020600020905b815481529060010190602001808311610a8d57829003601f168201915b505050505090509392505050565b6000610ac93683900383018361255d565b60208101516001600160a01b0316610ae057600080fd5b6000816060015111610b045760405162461bcd60e51b815260040161059b906128e1565b6000816080015111610b285760405162461bcd60e51b815260040161059b90612b09565b60008160a0015111610b4c5760405162461bcd60e51b815260040161059b90612b61565b806080015181606001511015610b745760405162461bcd60e51b815260040161059b90612a23565b8061010001518160e001511015610b9d5760405162461bcd60e51b815260040161059b906129c6565b80610100015181608001511015610bc65760405162461bcd60e51b815260040161059b9061298f565b620f42408160c0015110610bec5760405162461bcd60e51b815260040161059b9061295a565b60008160c001511180610c025750610100810151155b610c1e5760405162461bcd60e51b815260040161059b90612adb565b610c77610c6087878080601f016020809104026020016040519081016040528093929190818152602001838380828437600092019190915250611aa292505050565b85610c703687900387018761255d565b6001611aa9565b9695505050505050565b600154606090806001600160401b03811115610cad57634e487b7160e01b600052604160045260246000fd5b604051908082528060200260200182016040528015610ce057816020015b6060815260200190600190039081610ccb5790505b50915060005b81811015610d5e57610d2260018281548110610d1257634e487b7160e01b600052603260045260246000fd5b9060005260206000200154611dcc565b838281518110610d4257634e487b7160e01b600052603260045260246000fd5b602002602001018190525080610d5790612f97565b9050610ce6565b505090565b6009546000906001600160a01b03163314610d905760405162461bcd60e51b815260040161059b90612ab7565b610de9610dd286868080601f016020809104026020016040519081016040528093929190818152602001838380828437600092019190915250611aa292505050565b84610de23686900386018661255d565b6000611aa9565b95945050505050565b6009546001600160a01b03163314610e1c5760405162461bcd60e51b815260040161059b90612ab7565b6040517f22590461e7ba17e1fe7580cb0ea47f283d3b2248f04873dfbe926d08fe4c5ab990600090a1565b6009546001600160a01b03163314610e715760405162461bcd60e51b815260040161059b90612ab7565b6000610eb283838080601f016020809104026020016040519081016040528093929190818152602001838380828437600092019190915250611aa292505050565b60008181526002602052604081209192505b8154811015610f4c576000828281548110610eef57634e487b7160e01b600052603260045260246000fd5b60009182526020808320604080518082018252600290940290910180548085526001909101546001600160a01b0390811694840194855290855260078352818520935116845291905281205550610f4581612f97565b9050610ec4565b506000828152600260205260408120610f649161226f565b50505050565b6009546001600160a01b031681565b606060026000610fbe85858080601f016020809104026020016040519081016040528093929190818152602001838380828437600092019190915250611aa292505050565b8152602001908152602001600020805480602002602001604051908101604052809291908181526020016000905b828210156110345760008481526020908190206040805180820190915260028502909101805482526001908101546001600160a01b0316828401529083529092019101610fec565b50505050905092915050565b6009546000906001600160a01b0316331461106d5760405162461bcd60e51b815260040161059b90612ab7565b6000600260006110b287878080601f016020809104026020016040519081016040528093929190818152602001838380828437600092019190915250611aa292505050565b8152602001908152602001600020905060005b815481101561128257838282815481106110ef57634e487b7160e01b600052603260045260246000fd5b90600052602060002090600202016000015414156112725760008481526007602052604081208354829085908590811061113957634e487b7160e01b600052603260045260246000fd5b60009182526020808320600160029093020191909101546001600160a01b031683528201929092526040019020555b8154611175826001612d3e565b101561121d5781611187826001612d3e565b815481106111a557634e487b7160e01b600052603260045260246000fd5b90600052602060002090600202018282815481106111d357634e487b7160e01b600052603260045260246000fd5b600091825260209091208254600290920201908155600191820154910180546001600160a01b0319166001600160a01b0390921691909117905561121681612f97565b9050611168565b8180548061123b57634e487b7160e01b600052603160045260246000fd5b600082815260208120600260001990930192830201908155600190810180546001600160a01b0319169055915592506106de915050565b61127b81612f97565b90506110c5565b50600095945050505050565b60006106de6112d284848080601f016020809104026020016040519081016040528093929190818152602001838380828437600092019190915250611aa292505050565b611f0a565b6000806002600061131d87878080601f016020809104026020016040519081016040528093929190818152602001838380828437600092019190915250611aa292505050565b8152602001908152602001600020905060005b8154811015611282578382828154811061135a57634e487b7160e01b600052603260045260246000fd5b90600052602060002090600202016000015414156113b95781818154811061139257634e487b7160e01b600052603260045260246000fd5b60009182526020909120600160029092020101546001600160a01b031692506106de915050565b6113c281612f97565b9050611330565b6009546000906001600160a01b031633146113f65760405162461bcd60e51b815260040161059b90612ab7565b600061143785858080601f016020809104026020016040519081016040528093929190818152602001838380828437600092019190915250611aa292505050565b60008181526005602081815260408084208885528252808420815161012081018352815460ff811682526001600160a01b036101009182900416948201949094526001820154928101929092526002810154606083015260038101546080830152600481015460a08301529283015460c0820152600683015460e082015260079092015490820152919250610de9918391869190611aa9565b60008281526007602090815260408083206001600160a01b03851684529091529020546060906106de90611dcc565b6009546001600160a01b031633146115295760405162461bcd60e51b815260040161059b90612ab7565b610f6461156b85858080601f016020809104026020016040519081016040528093929190818152602001838380828437600092019190915250611aa292505050565b8383611f65565b6009546000906001600160a01b0316331461159f5760405162461bcd60e51b815260040161059b90612ab7565b6115a882612d6f565b60208101516001600160a01b03166115d25760405162461bcd60e51b815260040161059b90612b33565b600081604001516001600160401b0316116115ff5760405162461bcd60e51b815260040161059b90612a5a565b805151158015906116135750805151608010155b61162f5760405162461bcd60e51b815260040161059b90612b91565b6000841161164f5760405162461bcd60e51b815260040161059b906129fd565b600084815260036020526040902083906116698282613038565b90505061167584611a47565b6116ac57600080546001810182559080527f290decd9548b62a8d60345a988386fc84ba6bc95484008f6362f93160ef3e563018490555b5060019392505050565b6060600080548060200260200160405190810160405280929190818152602001828054801561170457602002820191906000526020600020905b8154815260200190600101908083116116f0575b5050505050905090565b6009546000906001600160a01b0316331461173b5760405162461bcd60e51b815260040161059b90612ab7565b600061177c84848080601f016020809104026020016040519081016040528093929190818152602001838380828437600092019190915250611aa292505050565b905061178781611f0a565b156117a45760405162461bcd60e51b815260040161059b906128b9565b60018054808201825560008290527fb10e2d527612073b26eecdfd717e6a320cf44b4afac2b0732d9fcbe2b7fa0cf601919091559392505050565b6009546000906001600160a01b0316331461180c5760405162461bcd60e51b815260040161059b90612ab7565b6000861161182c5760405162461bcd60e51b815260040161059b906129fd565b828260066000898152602001908152602001600020878760405161185192919061277b565b90815260405190819003602001902061186b9290916121eb565b5060019695505050505050565b6009546000906001600160a01b031633146118a55760405162461bcd60e51b815260040161059b90612ab7565b60005b6000548110156119bc5782600082815481106118d457634e487b7160e01b600052603260045260246000fd5b906000526020600020015414156119ac575b6000546118f4826001612d3e565b101561196d576000611907826001612d3e565b8154811061192557634e487b7160e01b600052603260045260246000fd5b90600052602060002001546000828154811061195157634e487b7160e01b600052603260045260246000fd5b60009182526020909120015561196681612f97565b90506118e6565b600080548061198c57634e487b7160e01b600052603160045260246000fd5b600190038181906000526020600020016000905590556001915050610569565b6119b581612f97565b90506118a8565b50600092915050565b6009546001600160a01b031633146119ef5760405162461bcd60e51b815260040161059b90612ab7565b6040516001600160a01b0382169033907f8be0079c531659141344cd1fd0a4f28419497f9722a3daafe3b4186f6b6457e090600090a3600980546001600160a01b0319166001600160a01b0392909216919091179055565b6000805b6000548110156119bc578260008281548110611a7757634e487b7160e01b600052603260045260246000fd5b90600052602060002001541415611a92576001915050610569565b611a9b81612f97565b9050611a4b565b6020015190565b602082015160009083906001600160a01b0316611ac557600080fd5b6000816060015111611ae95760405162461bcd60e51b815260040161059b906128e1565b6000816080015111611b0d5760405162461bcd60e51b815260040161059b90612b09565b60008160a0015111611b315760405162461bcd60e51b815260040161059b90612b61565b806080015181606001511015611b595760405162461bcd60e51b815260040161059b90612a23565b8061010001518160e001511015611b825760405162461bcd60e51b815260040161059b906129c6565b80610100015181608001511015611bab5760405162461bcd60e51b815260040161059b9061298f565b620f42408160c0015110611bd15760405162461bcd60e51b815260040161059b9061295a565b60008160c001511180611be75750610100810151155b611c035760405162461bcd60e51b815260040161059b90612adb565b85611c205760405162461bcd60e51b815260040161059b90612933565b60008511611c405760405162461bcd60e51b815260040161059b906129fd565b8215611cdd576000868152600560208181526040808420898552825292839020875181549289015160ff1990931660ff90911617610100600160a81b0319166101006001600160a01b039093168302178155928701516001840155606087015160028401556080870151600384015560a0870151600484015560c08701519183019190915560e08601516006830155850151600790910155611dc0565b6000868152600460208181526040808420898552825292839020875181549289015160ff1990931660ff90911617610100600160a81b0319166101006001600160a01b039093168302178155928701516001840155606087015160028401556080870151600384015560a08701519183019190915560c0860151600583015560e08601516006830155850151600790910155611d7886611f0a565b611db1576001805480820182556000919091527fb10e2d527612073b26eecdfd717e6a320cf44b4afac2b0732d9fcbe2b7fa0cf6018690555b611dc086868660200151611f65565b50600195945050505050565b606060005b60208160ff16108015611e135750828160ff1660208110611e0257634e487b7160e01b600052603260045260246000fd5b1a60f81b6001600160f81b03191615155b15611e2857611e2181612fb2565b9050611dd1565b60008160ff166001600160401b03811115611e5357634e487b7160e01b600052604160045260246000fd5b6040519080825280601f01601f191660200182016040528015611e7d576020820181803683370190505b50905060005b8260ff168160ff161015611f0257848160ff1660208110611eb457634e487b7160e01b600052603260045260246000fd5b1a60f81b828260ff1681518110611edb57634e487b7160e01b600052603260045260246000fd5b60200101906001600160f81b031916908160001a905350611efb81612fb2565b9050611e83565b509392505050565b6000805b6001548110156119bc578260018281548110611f3a57634e487b7160e01b600052603260045260246000fd5b90600052602060002001541415611f55576001915050610569565b611f5e81612f97565b9050611f0e565b82611f825760405162461bcd60e51b815260040161059b90612933565b60008211611fa25760405162461bcd60e51b815260040161059b906129fd565b6000838152600260205260408120905b81548110156120cc5783828281548110611fdc57634e487b7160e01b600052603260045260246000fd5b90600052602060002090600202016000015414156120bc57600082828154811061201657634e487b7160e01b600052603260045260246000fd5b60009182526020909120600160029092020101546001600160a01b039081169150841681146120b4578383838154811061206057634e487b7160e01b600052603260045260246000fd5b6000918252602080832060029290920290910160010180546001600160a01b0319166001600160a01b0394851617905587825260078152604080832085851684529091528082208290559186168152208690555b50505061213a565b6120c581612f97565b9050611fb2565b506040805180820182528481526001600160a01b0384811660208084018281528654600180820189556000988952838920965160029092029096019081559051940180546001600160a01b031916949093169390931790915585845260078252828420908452905290208390555b505050565b6040805161014081018252606080825260006020830181905292820183905281018290526080810182905260a0810182905260c0810182905260e08101829052610100810182905261012081019190915290565b604051806101200160405280600060ff16815260200160006001600160a01b03168152602001600081526020016000815260200160008152602001600081526020016000815260200160008152602001600081525090565b8280546121f790612f49565b90600052602060002090601f016020900481019282612219576000855561225f565b82601f106122325782800160ff1982351617855561225f565b8280016001018555821561225f579182015b8281111561225f578235825591602001919060010190612244565b5061226b929150612293565b5090565b508054600082556002029060005260206000209081019061229091906122a8565b50565b5b8082111561226b5760008155600101612294565b5b8082111561226b57600081556001810180546001600160a01b03191690556002016122a9565b803561056981613201565b60008083601f8401126122eb578081fd5b5081356001600160401b03811115612301578182fd5b60208301915083602082850101111561231957600080fd5b9250929050565b600082601f830112612330578081fd5b81356001600160401b0381111561234957612349612fe8565b61235c601f8201601f1916602001612d09565b818152846020838601011115612370578283fd5b816020850160208301379081016020019190915292915050565b803561056981613216565b803560ff8116811461056957600080fd5b6000602082840312156123b7578081fd5b81356106de81613201565b6000806000604084860312156123d6578182fd5b83356123e181613201565b925060208401356001600160401b038111156123fb578283fd5b612407868287016122da565b9497909650939450505050565b60008060208385031215612426578182fd5b82356001600160401b0381111561243b578283fd5b612447858286016122da565b90969095509350505050565b600080600060408486031215612467578283fd5b83356001600160401b0381111561247c578384fd5b612488868287016122da565b909790965060209590950135949350505050565b600080600080606085870312156124b1578081fd5b84356001600160401b038111156124c6578182fd5b6124d2878288016122da565b9095509350506020850135915060408501356124ed81613201565b939692955090935050565b60008060008084860361016081121561250f578485fd5b85356001600160401b03811115612524578586fd5b612530888289016122da565b90965094505060208601359250610120603f198201121561254f578182fd5b509295919450926040019150565b6000610120808385031215612570578182fd5b61257981612d09565b905061258483612395565b8152612592602084016122cf565b602082015260408301356040820152606083013560608201526080830135608082015260a083013560a082015260c083013560c082015260e083013560e08201526101008084013581830152508091505092915050565b6000602082840312156125fa578081fd5b5035919050565b60008060408385031215612613578182fd5b82359150602083013561262581613201565b809150509250929050565b600080600060408486031215612644578081fd5b8335925060208401356001600160401b038111156123fb578182fd5b600080600080600060608688031215612677578283fd5b8535945060208601356001600160401b0380821115612694578485fd5b6126a089838a016122da565b909650945060408801359150808211156126b8578283fd5b506126c5888289016122da565b969995985093965092949392505050565b600080604083850312156126e8578182fd5b8235915060208301356001600160401b03811115612704578182fd5b83016101408186031215612625578182fd5b6001600160a01b03169052565b60008151808452815b818110156127485760208185018101518683018201520161272c565b818111156127595782602083870101525b50601f01601f19169290920160200192915050565b6001600160401b03169052565b6000828483379101908152919050565b6001600160a01b0391909116815260200190565b6000602080830181845280855180835260408601915060408482028701019250838701855b828110156127f257603f198886030184526127e0858351612723565b945092850192908501906001016127c4565b5092979650505050505050565b602080825282518282018190526000919060409081850190868401855b8281101561284a578151805185528601516001600160a01b031686850152928401929085019060010161281c565b5091979650505050505050565b6020808252825182820181905260009190848201906040850190845b8181101561288f57835183529284019291840191600101612873565b50909695505050505050565b901515815260200190565b6000602082526106de6020830184612723565b6020808252600e908201526d1d1bdad95b88125108195e1a5cdd60921b604082015260600190565b60208082526010908201526f07a65726f204d6178696d756d537761760841b604082015260600190565b6020808252600e908201526d18da185a5b88125108195e1a5cdd60921b604082015260600190565b6020808252600d908201526c195b5c1d1e481d1bdad95b9251609a1b604082015260600190565b6020808252818101527f53776170466565526174655065724d696c6c696f6e203e3d2031303030303030604082015260600190565b6020808252601c908201527f4d696e696d756d53776170203c204d696e696d756d5377617046656500000000604082015260600190565b6020808252601f908201527f4d6178696d756d53776170466565203c204d696e696d756d5377617046656500604082015260600190565b6020808252600c908201526b1e995c9bc818da185a5b925160a21b604082015260600190565b60208082526019908201527f4d6178696d756d53776170203c204d696e696d756d5377617000000000000000604082015260600190565b6020808252601c908201527f7a65726f20636f6e6669726d6174696f6e7320697320756e7361666500000000604082015260600190565b6020808252600c908201526b7a65726f206164647265737360a01b604082015260600190565b6020808252600a908201526937b7363c9037bbb732b960b11b604082015260600190565b60208082526014908201527377726f6e67204d696e696d756d5377617046656560601b604082015260600190565b60208082526010908201526f07a65726f204d696e696d756d537761760841b604082015260600190565b6020808252601490820152731e995c9bc81c9bdd5d195c8818dbdb9d1c9858dd60621b604082015260600190565b6020808252601690820152751e995c9bc8109a59d5985b1d59551a1c995cda1bdb1960521b604082015260600190565b60208082526017908201527f77726f6e6720426c6f636b436861696e206c656e677468000000000000000000604082015260600190565b6000602082528251610140806020850152612be7610160850183612723565b91506020850151612bfb6040860182612716565b506040850151612c0e606086018261276e565b506060850151612c21608086018261276e565b506080850151612c3460a086018261276e565b5060a0850151612c4760c086018261276e565b5060c0850151612c5a60e086018261276e565b5060e0850151610100612c6f8187018361276e565b8601519050610120612c838682018361276e565b8601519050612c948583018261276e565b5090949350505050565b815160ff1681526020808301516001600160a01b03169082015260408083015190820152606080830151908201526080808301519082015260a0808301519082015260c0808301519082015260e0808301519082015261010091820151918101919091526101200190565b6040518181016001600160401b0381118282101715612d2a57612d2a612fe8565b604052919050565b60009081526020902090565b60008219821115612d5157612d51612fd2565b500190565b5b81811015612d6b5760008155600101612d57565b5050565b6000610140808336031215612d82578182fd5b612d8b81612d09565b905082356001600160401b03811115612da2578283fd5b612dae36828601612320565b825250612dbd602084016122cf565b6020820152612dce6040840161238a565b6040820152612ddf6060840161238a565b6060820152612df06080840161238a565b6080820152612e0160a0840161238a565b60a0820152612e1260c0840161238a565b60c0820152612e2360e0840161238a565b60e0820152610100612e3681850161238a565b90820152610120612e4884820161238a565b9082015292915050565b6001600160401b03831115612e6957612e69612fe8565b612e738154612f49565b600080601f8611601f841181811715612e9257612e8f86612d32565b92505b8015612ec1576020601f89010483016020891015612ead5750825b612ebf6020601f880104850182612d56565b505b508060018114612eed57600094508715612edc578387013594505b612ee68886612f84565b8655612f3f565b601f198816945082845b86811015612f175788860135825560209586019560019092019101612ef7565b5088861015612f3457878501356000196008601f8c16021c191681555b506001600289020186555b5050505050505050565b600281046001821680612f5d57607f821691505b60208210811415612f7e57634e487b7160e01b600052602260045260246000fd5b50919050565b600019600883021c191660029091021790565b6000600019821415612fab57612fab612fd2565b5060010190565b600060ff821660ff811415612fc957612fc9612fd2565b60010192915050565b634e487b7160e01b600052601160045260246000fd5b634e487b7160e01b600052604160045260246000fd5b600081356109ed81613201565b600081356109ed81613216565b80546001600160a01b0319166001600160a01b0392909216919091179055565b8135601e1983360301811261304c57600080fd5b820180356001600160401b0381111561306457600080fd5b60208201915080360382131561307957600080fd5b613084818385612e52565b50506001810161309f61309960208501612ffe565b82613018565b6130b46130ae6040850161300b565b82613189565b50600281016130ce6130c86060850161300b565b82613141565b6130e36130dd6080850161300b565b826131d7565b6130f86130f260a0850161300b565b8261315e565b61310d61310760c0850161300b565b826131b4565b50600381016131216130c860e0850161300b565b6131316130dd610100850161300b565b61213a6130f2610120850161300b565b6001600160401b0382166001600160401b03198254161781555050565b805467ffffffffffffffff60801b191660809290921b67ffffffffffffffff60801b16919091179055565b805467ffffffffffffffff60a01b191660a09290921b67ffffffffffffffff60a01b16919091179055565b80546001600160c01b031660c09290921b6001600160c01b031916919091179055565b805467ffffffffffffffff60401b8360401b1667ffffffffffffffff60401b198216178255505050565b6001600160a01b038116811461229057600080fd5b6001600160401b038116811461229057600080fdfea2646970667358221220a67a1a443e20843696f7c2dc477cc730bf57beddf910aefb02b0b6ae800bb15364736f6c63430008000033",
			"opcodes": "PUSH1 0x80 PUSH1 0x40 MSTORE CALLVALUE DUP1 ISZERO PUSH2 0x10 JUMPI PUSH1 0x0 DUP1 REVERT JUMPDEST POP PUSH1 0x9 DUP1 SLOAD PUSH1 0x1 PUSH1 0x1 PUSH1 0xA0 SHL SUB NOT AND CALLER OR SWAP1 SSTORE PUSH2 0x3261 DUP1 PUSH2 0x32 PUSH1 0x0 CODECOPY PUSH1 0x0 RETURN INVALID PUSH1 0x80 PUSH1 0x40 MSTORE CALLVALUE DUP1 ISZERO PUSH2 0x10 JUMPI PUSH1 0x0 DUP1 REVERT JUMPDEST POP PUSH1 0x4 CALLDATASIZE LT PUSH2 0x1C4 JUMPI PUSH1 0x0 CALLDATALOAD PUSH1 0xE0 SHR DUP1 PUSH4 0x8FCB62A3 GT PUSH2 0xF9 JUMPI DUP1 PUSH4 0xDEFB3A0D GT PUSH2 0x97 JUMPI DUP1 PUSH4 0xE671242A GT PUSH2 0x71 JUMPI DUP1 PUSH4 0xE671242A EQ PUSH2 0x3D8 JUMPI DUP1 PUSH4 0xE90768C6 EQ PUSH2 0x3EB JUMPI DUP1 PUSH4 0xF2FDE38B EQ PUSH2 0x3FE JUMPI DUP1 PUSH4 0xFD15EA70 EQ PUSH2 0x411 JUMPI PUSH2 0x1C4 JUMP JUMPDEST DUP1 PUSH4 0xDEFB3A0D EQ PUSH2 0x39D JUMPI DUP1 PUSH4 0xE27112D5 EQ PUSH2 0x3B0 JUMPI DUP1 PUSH4 0xE3E01664 EQ PUSH2 0x3C5 JUMPI PUSH2 0x1C4 JUMP JUMPDEST DUP1 PUSH4 0xB735AB5A GT PUSH2 0xD3 JUMPI DUP1 PUSH4 0xB735AB5A EQ PUSH2 0x351 JUMPI DUP1 PUSH4 0xBC772A28 EQ PUSH2 0x364 JUMPI DUP1 PUSH4 0xC4FB2E4B EQ PUSH2 0x377 JUMPI DUP1 PUSH4 0xC5E7601A EQ PUSH2 0x38A JUMPI PUSH2 0x1C4 JUMP JUMPDEST DUP1 PUSH4 0x8FCB62A3 EQ PUSH2 0x30B JUMPI DUP1 PUSH4 0x9026B205 EQ PUSH2 0x32B JUMPI DUP1 PUSH4 0xAF611CA0 EQ PUSH2 0x33E JUMPI PUSH2 0x1C4 JUMP JUMPDEST DUP1 PUSH4 0x61387D61 GT PUSH2 0x166 JUMPI DUP1 PUSH4 0x69BDA9EB GT PUSH2 0x140 JUMPI DUP1 PUSH4 0x69BDA9EB EQ PUSH2 0x2C6 JUMPI DUP1 PUSH4 0x747FD44C EQ PUSH2 0x2D9 JUMPI DUP1 PUSH4 0x83F5D5D4 EQ PUSH2 0x2E3 JUMPI DUP1 PUSH4 0x8DA5CB5B EQ PUSH2 0x2F6 JUMPI PUSH2 0x1C4 JUMP JUMPDEST DUP1 PUSH4 0x61387D61 EQ PUSH2 0x28B JUMPI DUP1 PUSH4 0x640D5F0F EQ PUSH2 0x29E JUMPI DUP1 PUSH4 0x684A10B3 EQ PUSH2 0x2B1 JUMPI PUSH2 0x1C4 JUMP JUMPDEST DUP1 PUSH4 0x459511D1 GT PUSH2 0x1A2 JUMPI DUP1 PUSH4 0x459511D1 EQ PUSH2 0x232 JUMPI DUP1 PUSH4 0x58BB97FB EQ PUSH2 0x245 JUMPI DUP1 PUSH4 0x5B751858 EQ PUSH2 0x265 JUMPI DUP1 PUSH4 0x5D58D0A1 EQ PUSH2 0x278 JUMPI PUSH2 0x1C4 JUMP JUMPDEST DUP1 PUSH4 0x19ED16DC EQ PUSH2 0x1C9 JUMPI DUP1 PUSH4 0x20C29BCA EQ PUSH2 0x1F2 JUMPI DUP1 PUSH4 0x2879196F EQ PUSH2 0x212 JUMPI JUMPDEST PUSH1 0x0 DUP1 REVERT JUMPDEST PUSH2 0x1DC PUSH2 0x1D7 CALLDATASIZE PUSH1 0x4 PUSH2 0x25E9 JUMP JUMPDEST PUSH2 0x424 JUMP JUMPDEST PUSH1 0x40 MLOAD PUSH2 0x1E9 SWAP2 SWAP1 PUSH2 0x2BC8 JUMP JUMPDEST PUSH1 0x40 MLOAD DUP1 SWAP2 SUB SWAP1 RETURN JUMPDEST PUSH2 0x205 PUSH2 0x200 CALLDATASIZE PUSH1 0x4 PUSH2 0x25E9 JUMP JUMPDEST PUSH2 0x56E JUMP JUMPDEST PUSH1 0x40 MLOAD PUSH2 0x1E9 SWAP2 SWAP1 PUSH2 0x289B JUMP JUMPDEST PUSH2 0x225 PUSH2 0x220 CALLDATASIZE PUSH1 0x4 PUSH2 0x2453 JUMP JUMPDEST PUSH2 0x602 JUMP JUMPDEST PUSH1 0x40 MLOAD PUSH2 0x1E9 SWAP2 SWAP1 PUSH2 0x2C9E JUMP JUMPDEST PUSH2 0x225 PUSH2 0x240 CALLDATASIZE PUSH1 0x4 PUSH2 0x2453 JUMP JUMPDEST PUSH2 0x6E5 JUMP JUMPDEST PUSH2 0x258 PUSH2 0x253 CALLDATASIZE PUSH1 0x4 PUSH2 0x23A6 JUMP JUMPDEST PUSH2 0x730 JUMP JUMPDEST PUSH1 0x40 MLOAD PUSH2 0x1E9 SWAP2 SWAP1 PUSH2 0x28A6 JUMP JUMPDEST PUSH2 0x205 PUSH2 0x273 CALLDATASIZE PUSH1 0x4 PUSH2 0x23C2 JUMP JUMPDEST PUSH2 0x7DC JUMP JUMPDEST PUSH2 0x205 PUSH2 0x286 CALLDATASIZE PUSH1 0x4 PUSH2 0x2414 JUMP JUMPDEST PUSH2 0x85D JUMP JUMPDEST PUSH2 0x258 PUSH2 0x299 CALLDATASIZE PUSH1 0x4 PUSH2 0x2630 JUMP JUMPDEST PUSH2 0x9F3 JUMP JUMPDEST PUSH2 0x205 PUSH2 0x2AC CALLDATASIZE PUSH1 0x4 PUSH2 0x24F8 JUMP JUMPDEST PUSH2 0xAB8 JUMP JUMPDEST PUSH2 0x2B9 PUSH2 0xC81 JUMP JUMPDEST PUSH1 0x40 MLOAD PUSH2 0x1E9 SWAP2 SWAP1 PUSH2 0x279F JUMP JUMPDEST PUSH2 0x205 PUSH2 0x2D4 CALLDATASIZE PUSH1 0x4 PUSH2 0x24F8 JUMP JUMPDEST PUSH2 0xD63 JUMP JUMPDEST PUSH2 0x2E1 PUSH2 0xDF2 JUMP JUMPDEST STOP JUMPDEST PUSH2 0x2E1 PUSH2 0x2F1 CALLDATASIZE PUSH1 0x4 PUSH2 0x2414 JUMP JUMPDEST PUSH2 0xE47 JUMP JUMPDEST PUSH2 0x2FE PUSH2 0xF6A JUMP JUMPDEST PUSH1 0x40 MLOAD PUSH2 0x1E9 SWAP2 SWAP1 PUSH2 0x278B JUMP JUMPDEST PUSH2 0x31E PUSH2 0x319 CALLDATASIZE PUSH1 0x4 PUSH2 0x2414 JUMP JUMPDEST PUSH2 0xF79 JUMP JUMPDEST PUSH1 0x40 MLOAD PUSH2 0x1E9 SWAP2 SWAP1 PUSH2 0x27FF JUMP JUMPDEST PUSH2 0x205 PUSH2 0x339 CALLDATASIZE PUSH1 0x4 PUSH2 0x2453 JUMP JUMPDEST PUSH2 0x1040 JUMP JUMPDEST PUSH2 0x205 PUSH2 0x34C CALLDATASIZE PUSH1 0x4 PUSH2 0x2414 JUMP JUMPDEST PUSH2 0x128E JUMP JUMPDEST PUSH2 0x2FE PUSH2 0x35F CALLDATASIZE PUSH1 0x4 PUSH2 0x2453 JUMP JUMPDEST PUSH2 0x12D7 JUMP JUMPDEST PUSH2 0x205 PUSH2 0x372 CALLDATASIZE PUSH1 0x4 PUSH2 0x2453 JUMP JUMPDEST PUSH2 0x13C9 JUMP JUMPDEST PUSH2 0x258 PUSH2 0x385 CALLDATASIZE PUSH1 0x4 PUSH2 0x2601 JUMP JUMPDEST PUSH2 0x14D0 JUMP JUMPDEST PUSH2 0x2E1 PUSH2 0x398 CALLDATASIZE PUSH1 0x4 PUSH2 0x249C JUMP JUMPDEST PUSH2 0x14FF JUMP JUMPDEST PUSH2 0x205 PUSH2 0x3AB CALLDATASIZE PUSH1 0x4 PUSH2 0x26D6 JUMP JUMPDEST PUSH2 0x1572 JUMP JUMPDEST PUSH2 0x3B8 PUSH2 0x16B6 JUMP JUMPDEST PUSH1 0x40 MLOAD PUSH2 0x1E9 SWAP2 SWAP1 PUSH2 0x2857 JUMP JUMPDEST PUSH2 0x205 PUSH2 0x3D3 CALLDATASIZE PUSH1 0x4 PUSH2 0x2414 JUMP JUMPDEST PUSH2 0x170E JUMP JUMPDEST PUSH2 0x205 PUSH2 0x3E6 CALLDATASIZE PUSH1 0x4 PUSH2 0x2660 JUMP JUMPDEST PUSH2 0x17DF JUMP JUMPDEST PUSH2 0x205 PUSH2 0x3F9 CALLDATASIZE PUSH1 0x4 PUSH2 0x25E9 JUMP JUMPDEST PUSH2 0x1878 JUMP JUMPDEST PUSH2 0x2E1 PUSH2 0x40C CALLDATASIZE PUSH1 0x4 PUSH2 0x23A6 JUMP JUMPDEST PUSH2 0x19C5 JUMP JUMPDEST PUSH2 0x205 PUSH2 0x41F CALLDATASIZE PUSH1 0x4 PUSH2 0x25E9 JUMP JUMPDEST PUSH2 0x1A47 JUMP JUMPDEST PUSH2 0x42C PUSH2 0x213F JUMP JUMPDEST PUSH1 0x0 DUP3 DUP2 MSTORE PUSH1 0x3 PUSH1 0x20 MSTORE PUSH1 0x40 SWAP1 DUP2 SWAP1 KECCAK256 DUP2 MLOAD PUSH2 0x140 DUP2 ADD SWAP1 SWAP3 MSTORE DUP1 SLOAD DUP3 SWAP1 DUP3 SWAP1 PUSH2 0x455 SWAP1 PUSH2 0x2F49 JUMP JUMPDEST DUP1 PUSH1 0x1F ADD PUSH1 0x20 DUP1 SWAP2 DIV MUL PUSH1 0x20 ADD PUSH1 0x40 MLOAD SWAP1 DUP2 ADD PUSH1 0x40 MSTORE DUP1 SWAP3 SWAP2 SWAP1 DUP2 DUP2 MSTORE PUSH1 0x20 ADD DUP3 DUP1 SLOAD PUSH2 0x481 SWAP1 PUSH2 0x2F49 JUMP JUMPDEST DUP1 ISZERO PUSH2 0x4CE JUMPI DUP1 PUSH1 0x1F LT PUSH2 0x4A3 JUMPI PUSH2 0x100 DUP1 DUP4 SLOAD DIV MUL DUP4 MSTORE SWAP2 PUSH1 0x20 ADD SWAP2 PUSH2 0x4CE JUMP JUMPDEST DUP3 ADD SWAP2 SWAP1 PUSH1 0x0 MSTORE PUSH1 0x20 PUSH1 0x0 KECCAK256 SWAP1 JUMPDEST DUP2 SLOAD DUP2 MSTORE SWAP1 PUSH1 0x1 ADD SWAP1 PUSH1 0x20 ADD DUP1 DUP4 GT PUSH2 0x4B1 JUMPI DUP3 SWAP1 SUB PUSH1 0x1F AND DUP3 ADD SWAP2 JUMPDEST POP POP POP SWAP2 DUP4 MSTORE POP POP PUSH1 0x1 DUP3 ADD SLOAD PUSH1 0x1 PUSH1 0x1 PUSH1 0xA0 SHL SUB DUP2 AND PUSH1 0x20 DUP4 ADD MSTORE PUSH1 0x1 PUSH1 0x1 PUSH1 0x40 SHL SUB PUSH1 0x1 PUSH1 0xA0 SHL SWAP1 SWAP2 DIV DUP2 AND PUSH1 0x40 DUP4 ADD MSTORE PUSH1 0x2 DUP4 ADD SLOAD DUP1 DUP3 AND PUSH1 0x60 DUP5 ADD MSTORE PUSH9 0x10000000000000000 DUP1 DUP3 DIV DUP4 AND PUSH1 0x80 DUP6 ADD MSTORE PUSH1 0x1 PUSH1 0x80 SHL DUP1 DUP4 DIV DUP5 AND PUSH1 0xA0 DUP7 ADD MSTORE PUSH1 0x1 PUSH1 0xC0 SHL SWAP1 SWAP3 DIV DUP4 AND PUSH1 0xC0 DUP6 ADD MSTORE PUSH1 0x3 SWAP1 SWAP5 ADD SLOAD DUP1 DUP4 AND PUSH1 0xE0 DUP6 ADD MSTORE SWAP4 DUP5 DIV DUP3 AND PUSH2 0x100 DUP5 ADD MSTORE SWAP1 SWAP3 DIV SWAP1 SWAP2 AND PUSH2 0x120 SWAP1 SWAP2 ADD MSTORE SWAP1 POP JUMPDEST SWAP2 SWAP1 POP JUMP JUMPDEST PUSH1 0x9 SLOAD PUSH1 0x0 SWAP1 PUSH1 0x1 PUSH1 0x1 PUSH1 0xA0 SHL SUB AND CALLER EQ PUSH2 0x5A4 JUMPI PUSH1 0x40 MLOAD PUSH3 0x461BCD PUSH1 0xE5 SHL DUP2 MSTORE PUSH1 0x4 ADD PUSH2 0x59B SWAP1 PUSH2 0x2AB7 JUMP JUMPDEST PUSH1 0x40 MLOAD DUP1 SWAP2 SUB SWAP1 REVERT JUMPDEST PUSH2 0x5AD DUP3 PUSH2 0x1A47 JUMP JUMPDEST ISZERO PUSH2 0x5CA JUMPI PUSH1 0x40 MLOAD PUSH3 0x461BCD PUSH1 0xE5 SHL DUP2 MSTORE PUSH1 0x4 ADD PUSH2 0x59B SWAP1 PUSH2 0x290B JUMP JUMPDEST POP PUSH1 0x0 DUP1 SLOAD PUSH1 0x1 DUP1 DUP3 ADD DUP4 SSTORE SWAP2 DUP1 MSTORE PUSH32 0x290DECD9548B62A8D60345A988386FC84BA6BC95484008F6362F93160EF3E563 ADD SWAP2 SWAP1 SWAP2 SSTORE SWAP1 JUMP JUMPDEST PUSH2 0x60A PUSH2 0x2193 JUMP JUMPDEST PUSH1 0x5 PUSH1 0x0 PUSH2 0x64D DUP7 DUP7 DUP1 DUP1 PUSH1 0x1F ADD PUSH1 0x20 DUP1 SWAP2 DIV MUL PUSH1 0x20 ADD PUSH1 0x40 MLOAD SWAP1 DUP2 ADD PUSH1 0x40 MSTORE DUP1 SWAP4 SWAP3 SWAP2 SWAP1 DUP2 DUP2 MSTORE PUSH1 0x20 ADD DUP4 DUP4 DUP1 DUP3 DUP5 CALLDATACOPY PUSH1 0x0 SWAP3 ADD SWAP2 SWAP1 SWAP2 MSTORE POP PUSH2 0x1AA2 SWAP3 POP POP POP JUMP JUMPDEST DUP2 MSTORE PUSH1 0x20 DUP1 DUP3 ADD SWAP3 SWAP1 SWAP3 MSTORE PUSH1 0x40 SWAP1 DUP2 ADD PUSH1 0x0 SWAP1 DUP2 KECCAK256 DUP6 DUP3 MSTORE DUP4 MSTORE DUP2 SWAP1 KECCAK256 DUP2 MLOAD PUSH2 0x120 DUP2 ADD DUP4 MSTORE DUP2 SLOAD PUSH1 0xFF DUP2 AND DUP3 MSTORE PUSH1 0x1 PUSH1 0x1 PUSH1 0xA0 SHL SUB PUSH2 0x100 SWAP2 DUP3 SWAP1 DIV AND SWAP5 DUP3 ADD SWAP5 SWAP1 SWAP5 MSTORE PUSH1 0x1 DUP3 ADD SLOAD SWAP3 DUP2 ADD SWAP3 SWAP1 SWAP3 MSTORE PUSH1 0x2 DUP2 ADD SLOAD PUSH1 0x60 DUP4 ADD MSTORE PUSH1 0x3 DUP2 ADD SLOAD PUSH1 0x80 DUP4 ADD MSTORE PUSH1 0x4 DUP2 ADD SLOAD PUSH1 0xA0 DUP4 ADD MSTORE PUSH1 0x5 DUP2 ADD SLOAD PUSH1 0xC0 DUP4 ADD MSTORE PUSH1 0x6 DUP2 ADD SLOAD PUSH1 0xE0 DUP4 ADD MSTORE PUSH1 0x7 ADD SLOAD SWAP2 DUP2 ADD SWAP2 SWAP1 SWAP2 MSTORE SWAP1 POP JUMPDEST SWAP4 SWAP3 POP POP POP JUMP JUMPDEST PUSH2 0x6ED PUSH2 0x2193 JUMP JUMPDEST PUSH1 0x4 PUSH1 0x0 PUSH2 0x64D DUP7 DUP7 DUP1 DUP1 PUSH1 0x1F ADD PUSH1 0x20 DUP1 SWAP2 DIV MUL PUSH1 0x20 ADD PUSH1 0x40 MLOAD SWAP1 DUP2 ADD PUSH1 0x40 MSTORE DUP1 SWAP4 SWAP3 SWAP2 SWAP1 DUP2 DUP2 MSTORE PUSH1 0x20 ADD DUP4 DUP4 DUP1 DUP3 DUP5 CALLDATACOPY PUSH1 0x0 SWAP3 ADD SWAP2 SWAP1 SWAP2 MSTORE POP PUSH2 0x1AA2 SWAP3 POP POP POP JUMP JUMPDEST PUSH1 0x1 PUSH1 0x1 PUSH1 0xA0 SHL SUB DUP2 AND PUSH1 0x0 SWAP1 DUP2 MSTORE PUSH1 0x8 PUSH1 0x20 MSTORE PUSH1 0x40 SWAP1 KECCAK256 DUP1 SLOAD PUSH1 0x60 SWAP2 SWAP1 PUSH2 0x757 SWAP1 PUSH2 0x2F49 JUMP JUMPDEST DUP1 PUSH1 0x1F ADD PUSH1 0x20 DUP1 SWAP2 DIV MUL PUSH1 0x20 ADD PUSH1 0x40 MLOAD SWAP1 DUP2 ADD PUSH1 0x40 MSTORE DUP1 SWAP3 SWAP2 SWAP1 DUP2 DUP2 MSTORE PUSH1 0x20 ADD DUP3 DUP1 SLOAD PUSH2 0x783 SWAP1 PUSH2 0x2F49 JUMP JUMPDEST DUP1 ISZERO PUSH2 0x7D0 JUMPI DUP1 PUSH1 0x1F LT PUSH2 0x7A5 JUMPI PUSH2 0x100 DUP1 DUP4 SLOAD DIV MUL DUP4 MSTORE SWAP2 PUSH1 0x20 ADD SWAP2 PUSH2 0x7D0 JUMP JUMPDEST DUP3 ADD SWAP2 SWAP1 PUSH1 0x0 MSTORE PUSH1 0x20 PUSH1 0x0 KECCAK256 SWAP1 JUMPDEST DUP2 SLOAD DUP2 MSTORE SWAP1 PUSH1 0x1 ADD SWAP1 PUSH1 0x20 ADD DUP1 DUP4 GT PUSH2 0x7B3 JUMPI DUP3 SWAP1 SUB PUSH1 0x1F AND DUP3 ADD SWAP2 JUMPDEST POP POP POP POP POP SWAP1 POP SWAP2 SWAP1 POP JUMP JUMPDEST PUSH1 0x9 SLOAD PUSH1 0x0 SWAP1 PUSH1 0x1 PUSH1 0x1 PUSH1 0xA0 SHL SUB AND CALLER EQ PUSH2 0x809 JUMPI PUSH1 0x40 MLOAD PUSH3 0x461BCD PUSH1 0xE5 SHL DUP2 MSTORE PUSH1 0x4 ADD PUSH2 0x59B SWAP1 PUSH2 0x2AB7 JUMP JUMPDEST PUSH1 0x1 PUSH1 0x1 PUSH1 0xA0 SHL SUB DUP5 AND PUSH2 0x82F JUMPI PUSH1 0x40 MLOAD PUSH3 0x461BCD PUSH1 0xE5 SHL DUP2 MSTORE PUSH1 0x4 ADD PUSH2 0x59B SWAP1 PUSH2 0x2A91 JUMP JUMPDEST PUSH1 0x1 PUSH1 0x1 PUSH1 0xA0 SHL SUB DUP5 AND PUSH1 0x0 SWAP1 DUP2 MSTORE PUSH1 0x8 PUSH1 0x20 MSTORE PUSH1 0x40 SWAP1 KECCAK256 PUSH2 0x852 SWAP1 DUP5 DUP5 PUSH2 0x21EB JUMP JUMPDEST POP PUSH1 0x1 SWAP5 SWAP4 POP POP POP POP JUMP JUMPDEST PUSH1 0x9 SLOAD PUSH1 0x0 SWAP1 PUSH1 0x1 PUSH1 0x1 PUSH1 0xA0 SHL SUB AND CALLER EQ PUSH2 0x88A JUMPI PUSH1 0x40 MLOAD PUSH3 0x461BCD PUSH1 0xE5 SHL DUP2 MSTORE PUSH1 0x4 ADD PUSH2 0x59B SWAP1 PUSH2 0x2AB7 JUMP JUMPDEST PUSH1 0x0 PUSH2 0x8CB DUP5 DUP5 DUP1 DUP1 PUSH1 0x1F ADD PUSH1 0x20 DUP1 SWAP2 DIV MUL PUSH1 0x20 ADD PUSH1 0x40 MLOAD SWAP1 DUP2 ADD PUSH1 0x40 MSTORE DUP1 SWAP4 SWAP3 SWAP2 SWAP1 DUP2 DUP2 MSTORE PUSH1 0x20 ADD DUP4 DUP4 DUP1 DUP3 DUP5 CALLDATACOPY PUSH1 0x0 SWAP3 ADD SWAP2 SWAP1 SWAP2 MSTORE POP PUSH2 0x1AA2 SWAP3 POP POP POP JUMP JUMPDEST SWAP1 POP PUSH1 0x0 JUMPDEST PUSH1 0x1 SLOAD DUP2 LT ISZERO PUSH2 0x9E6 JUMPI DUP2 PUSH1 0x1 DUP3 DUP2 SLOAD DUP2 LT PUSH2 0x8FC JUMPI PUSH4 0x4E487B71 PUSH1 0xE0 SHL PUSH1 0x0 MSTORE PUSH1 0x32 PUSH1 0x4 MSTORE PUSH1 0x24 PUSH1 0x0 REVERT JUMPDEST SWAP1 PUSH1 0x0 MSTORE PUSH1 0x20 PUSH1 0x0 KECCAK256 ADD SLOAD EQ ISZERO PUSH2 0x9D6 JUMPI JUMPDEST PUSH1 0x1 DUP1 SLOAD SWAP1 PUSH2 0x91E SWAP1 DUP4 SWAP1 PUSH2 0x2D3E JUMP JUMPDEST LT ISZERO PUSH2 0x996 JUMPI PUSH1 0x1 PUSH2 0x930 DUP3 DUP3 PUSH2 0x2D3E JUMP JUMPDEST DUP2 SLOAD DUP2 LT PUSH2 0x94E JUMPI PUSH4 0x4E487B71 PUSH1 0xE0 SHL PUSH1 0x0 MSTORE PUSH1 0x32 PUSH1 0x4 MSTORE PUSH1 0x24 PUSH1 0x0 REVERT JUMPDEST SWAP1 PUSH1 0x0 MSTORE PUSH1 0x20 PUSH1 0x0 KECCAK256 ADD SLOAD PUSH1 0x1 DUP3 DUP2 SLOAD DUP2 LT PUSH2 0x97A JUMPI PUSH4 0x4E487B71 PUSH1 0xE0 SHL PUSH1 0x0 MSTORE PUSH1 0x32 PUSH1 0x4 MSTORE PUSH1 0x24 PUSH1 0x0 REVERT JUMPDEST PUSH1 0x0 SWAP2 DUP3 MSTORE PUSH1 0x20 SWAP1 SWAP2 KECCAK256 ADD SSTORE PUSH2 0x98F DUP2 PUSH2 0x2F97 JUMP JUMPDEST SWAP1 POP PUSH2 0x90E JUMP JUMPDEST PUSH1 0x1 DUP1 SLOAD DUP1 PUSH2 0x9B5 JUMPI PUSH4 0x4E487B71 PUSH1 0xE0 SHL PUSH1 0x0 MSTORE PUSH1 0x31 PUSH1 0x4 MSTORE PUSH1 0x24 PUSH1 0x0 REVERT JUMPDEST PUSH1 0x1 SWAP1 SUB DUP2 DUP2 SWAP1 PUSH1 0x0 MSTORE PUSH1 0x20 PUSH1 0x0 KECCAK256 ADD PUSH1 0x0 SWAP1 SSTORE SWAP1 SSTORE PUSH1 0x1 SWAP3 POP POP POP PUSH2 0x9ED JUMP JUMPDEST PUSH2 0x9DF DUP2 PUSH2 0x2F97 JUMP JUMPDEST SWAP1 POP PUSH2 0x8D0 JUMP JUMPDEST POP PUSH1 0x0 SWAP2 POP POP JUMPDEST SWAP3 SWAP2 POP POP JUMP JUMPDEST PUSH1 0x60 PUSH1 0x6 PUSH1 0x0 DUP6 DUP2 MSTORE PUSH1 0x20 ADD SWAP1 DUP2 MSTORE PUSH1 0x20 ADD PUSH1 0x0 KECCAK256 DUP4 DUP4 PUSH1 0x40 MLOAD PUSH2 0xA18 SWAP3 SWAP2 SWAP1 PUSH2 0x277B JUMP JUMPDEST SWAP1 DUP2 MSTORE PUSH1 0x20 ADD PUSH1 0x40 MLOAD DUP1 SWAP2 SUB SWAP1 KECCAK256 DUP1 SLOAD PUSH2 0xA31 SWAP1 PUSH2 0x2F49 JUMP JUMPDEST DUP1 PUSH1 0x1F ADD PUSH1 0x20 DUP1 SWAP2 DIV MUL PUSH1 0x20 ADD PUSH1 0x40 MLOAD SWAP1 DUP2 ADD PUSH1 0x40 MSTORE DUP1 SWAP3 SWAP2 SWAP1 DUP2 DUP2 MSTORE PUSH1 0x20 ADD DUP3 DUP1 SLOAD PUSH2 0xA5D SWAP1 PUSH2 0x2F49 JUMP JUMPDEST DUP1 ISZERO PUSH2 0xAAA JUMPI DUP1 PUSH1 0x1F LT PUSH2 0xA7F JUMPI PUSH2 0x100 DUP1 DUP4 SLOAD DIV MUL DUP4 MSTORE SWAP2 PUSH1 0x20 ADD SWAP2 PUSH2 0xAAA JUMP JUMPDEST DUP3 ADD SWAP2 SWAP1 PUSH1 0x0 MSTORE PUSH1 0x20 PUSH1 0x0 KECCAK256 SWAP1 JUMPDEST DUP2 SLOAD DUP2 MSTORE SWAP1 PUSH1 0x1 ADD SWAP1 PUSH1 0x20 ADD DUP1 DUP4 GT PUSH2 0xA8D JUMPI DUP3 SWAP1 SUB PUSH1 0x1F AND DUP3 ADD SWAP2 JUMPDEST POP POP POP POP POP SWAP1 POP SWAP4 SWAP3 POP POP POP JUMP JUMPDEST PUSH1 0x0 PUSH2 0xAC9 CALLDATASIZE DUP4 SWAP1 SUB DUP4 ADD DUP4 PUSH2 0x255D JUMP JUMPDEST PUSH1 0x20 DUP2 ADD MLOAD PUSH1 0x1 PUSH1 0x1 PUSH1 0xA0 SHL SUB AND PUSH2 0xAE0 JUMPI PUSH1 0x0 DUP1 REVERT JUMPDEST PUSH1 0x0 DUP2 PUSH1 0x60 ADD MLOAD GT PUSH2 0xB04 JUMPI PUSH1 0x40 MLOAD PUSH3 0x461BCD PUSH1 0xE5 SHL DUP2 MSTORE PUSH1 0x4 ADD PUSH2 0x59B SWAP1 PUSH2 0x28E1 JUMP JUMPDEST PUSH1 0x0 DUP2 PUSH1 0x80 ADD MLOAD GT PUSH2 0xB28 JUMPI PUSH1 0x40 MLOAD PUSH3 0x461BCD PUSH1 0xE5 SHL DUP2 MSTORE PUSH1 0x4 ADD PUSH2 0x59B SWAP1 PUSH2 0x2B09 JUMP JUMPDEST PUSH1 0x0 DUP2 PUSH1 0xA0 ADD MLOAD GT PUSH2 0xB4C JUMPI PUSH1 0x40 MLOAD PUSH3 0x461BCD PUSH1 0xE5 SHL DUP2 MSTORE PUSH1 0x4 ADD PUSH2 0x59B SWAP1 PUSH2 0x2B61 JUMP JUMPDEST DUP1 PUSH1 0x80 ADD MLOAD DUP2 PUSH1 0x60 ADD MLOAD LT ISZERO PUSH2 0xB74 JUMPI PUSH1 0x40 MLOAD PUSH3 0x461BCD PUSH1 0xE5 SHL DUP2 MSTORE PUSH1 0x4 ADD PUSH2 0x59B SWAP1 PUSH2 0x2A23 JUMP JUMPDEST DUP1 PUSH2 0x100 ADD MLOAD DUP2 PUSH1 0xE0 ADD MLOAD LT ISZERO PUSH2 0xB9D JUMPI PUSH1 0x40 MLOAD PUSH3 0x461BCD PUSH1 0xE5 SHL DUP2 MSTORE PUSH1 0x4 ADD PUSH2 0x59B SWAP1 PUSH2 0x29C6 JUMP JUMPDEST DUP1 PUSH2 0x100 ADD MLOAD DUP2 PUSH1 0x80 ADD MLOAD LT ISZERO PUSH2 0xBC6 JUMPI PUSH1 0x40 MLOAD PUSH3 0x461BCD PUSH1 0xE5 SHL DUP2 MSTORE PUSH1 0x4 ADD PUSH2 0x59B SWAP1 PUSH2 0x298F JUMP JUMPDEST PUSH3 0xF4240 DUP2 PUSH1 0xC0 ADD MLOAD LT PUSH2 0xBEC JUMPI PUSH1 0x40 MLOAD PUSH3 0x461BCD PUSH1 0xE5 SHL DUP2 MSTORE PUSH1 0x4 ADD PUSH2 0x59B SWAP1 PUSH2 0x295A JUMP JUMPDEST PUSH1 0x0 DUP2 PUSH1 0xC0 ADD MLOAD GT DUP1 PUSH2 0xC02 JUMPI POP PUSH2 0x100 DUP2 ADD MLOAD ISZERO JUMPDEST PUSH2 0xC1E JUMPI PUSH1 0x40 MLOAD PUSH3 0x461BCD PUSH1 0xE5 SHL DUP2 MSTORE PUSH1 0x4 ADD PUSH2 0x59B SWAP1 PUSH2 0x2ADB JUMP JUMPDEST PUSH2 0xC77 PUSH2 0xC60 DUP8 DUP8 DUP1 DUP1 PUSH1 0x1F ADD PUSH1 0x20 DUP1 SWAP2 DIV MUL PUSH1 0x20 ADD PUSH1 0x40 MLOAD SWAP1 DUP2 ADD PUSH1 0x40 MSTORE DUP1 SWAP4 SWAP3 SWAP2 SWAP1 DUP2 DUP2 MSTORE PUSH1 0x20 ADD DUP4 DUP4 DUP1 DUP3 DUP5 CALLDATACOPY PUSH1 0x0 SWAP3 ADD SWAP2 SWAP1 SWAP2 MSTORE POP PUSH2 0x1AA2 SWAP3 POP POP POP JUMP JUMPDEST DUP6 PUSH2 0xC70 CALLDATASIZE DUP8 SWAP1 SUB DUP8 ADD DUP8 PUSH2 0x255D JUMP JUMPDEST PUSH1 0x1 PUSH2 0x1AA9 JUMP JUMPDEST SWAP7 SWAP6 POP POP POP POP POP POP JUMP JUMPDEST PUSH1 0x1 SLOAD PUSH1 0x60 SWAP1 DUP1 PUSH1 0x1 PUSH1 0x1 PUSH1 0x40 SHL SUB DUP2 GT ISZERO PUSH2 0xCAD JUMPI PUSH4 0x4E487B71 PUSH1 0xE0 SHL PUSH1 0x0 MSTORE PUSH1 0x41 PUSH1 0x4 MSTORE PUSH1 0x24 PUSH1 0x0 REVERT JUMPDEST PUSH1 0x40 MLOAD SWAP1 DUP1 DUP3 MSTORE DUP1 PUSH1 0x20 MUL PUSH1 0x20 ADD DUP3 ADD PUSH1 0x40 MSTORE DUP1 ISZERO PUSH2 0xCE0 JUMPI DUP2 PUSH1 0x20 ADD JUMPDEST PUSH1 0x60 DUP2 MSTORE PUSH1 0x20 ADD SWAP1 PUSH1 0x1 SWAP1 SUB SWAP1 DUP2 PUSH2 0xCCB JUMPI SWAP1 POP JUMPDEST POP SWAP2 POP PUSH1 0x0 JUMPDEST DUP2 DUP2 LT ISZERO PUSH2 0xD5E JUMPI PUSH2 0xD22 PUSH1 0x1 DUP3 DUP2 SLOAD DUP2 LT PUSH2 0xD12 JUMPI PUSH4 0x4E487B71 PUSH1 0xE0 SHL PUSH1 0x0 MSTORE PUSH1 0x32 PUSH1 0x4 MSTORE PUSH1 0x24 PUSH1 0x0 REVERT JUMPDEST SWAP1 PUSH1 0x0 MSTORE PUSH1 0x20 PUSH1 0x0 KECCAK256 ADD SLOAD PUSH2 0x1DCC JUMP JUMPDEST DUP4 DUP3 DUP2 MLOAD DUP2 LT PUSH2 0xD42 JUMPI PUSH4 0x4E487B71 PUSH1 0xE0 SHL PUSH1 0x0 MSTORE PUSH1 0x32 PUSH1 0x4 MSTORE PUSH1 0x24 PUSH1 0x0 REVERT JUMPDEST PUSH1 0x20 MUL PUSH1 0x20 ADD ADD DUP2 SWAP1 MSTORE POP DUP1 PUSH2 0xD57 SWAP1 PUSH2 0x2F97 JUMP JUMPDEST SWAP1 POP PUSH2 0xCE6 JUMP JUMPDEST POP POP SWAP1 JUMP JUMPDEST PUSH1 0x9 SLOAD PUSH1 0x0 SWAP1 PUSH1 0x1 PUSH1 0x1 PUSH1 0xA0 SHL SUB AND CALLER EQ PUSH2 0xD90 JUMPI PUSH1 0x40 MLOAD PUSH3 0x461BCD PUSH1 0xE5 SHL DUP2 MSTORE PUSH1 0x4 ADD PUSH2 0x59B SWAP1 PUSH2 0x2AB7 JUMP JUMPDEST PUSH2 0xDE9 PUSH2 0xDD2 DUP7 DUP7 DUP1 DUP1 PUSH1 0x1F ADD PUSH1 0x20 DUP1 SWAP2 DIV MUL PUSH1 0x20 ADD PUSH1 0x40 MLOAD SWAP1 DUP2 ADD PUSH1 0x40 MSTORE DUP1 SWAP4 SWAP3 SWAP2 SWAP1 DUP2 DUP2 MSTORE PUSH1 0x20 ADD DUP4 DUP4 DUP1 DUP3 DUP5 CALLDATACOPY PUSH1 0x0 SWAP3 ADD SWAP2 SWAP1 SWAP2 MSTORE POP PUSH2 0x1AA2 SWAP3 POP POP POP JUMP JUMPDEST DUP5 PUSH2 0xDE2 CALLDATASIZE DUP7 SWAP1 SUB DUP7 ADD DUP7 PUSH2 0x255D JUMP JUMPDEST PUSH1 0x0 PUSH2 0x1AA9 JUMP JUMPDEST SWAP6 SWAP5 POP POP POP POP POP JUMP JUMPDEST PUSH1 0x9 SLOAD PUSH1 0x1 PUSH1 0x1 PUSH1 0xA0 SHL SUB AND CALLER EQ PUSH2 0xE1C JUMPI PUSH1 0x40 MLOAD PUSH3 0x461BCD PUSH1 0xE5 SHL DUP2 MSTORE PUSH1 0x4 ADD PUSH2 0x59B SWAP1 PUSH2 0x2AB7 JUMP JUMPDEST PUSH1 0x40 MLOAD PUSH32 0x22590461E7BA17E1FE7580CB0EA47F283D3B2248F04873DFBE926D08FE4C5AB9 SWAP1 PUSH1 0x0 SWAP1 LOG1 JUMP JUMPDEST PUSH1 0x9 SLOAD PUSH1 0x1 PUSH1 0x1 PUSH1 0xA0 SHL SUB AND CALLER EQ PUSH2 0xE71 JUMPI PUSH1 0x40 MLOAD PUSH3 0x461BCD PUSH1 0xE5 SHL DUP2 MSTORE PUSH1 0x4 ADD PUSH2 0x59B SWAP1 PUSH2 0x2AB7 JUMP JUMPDEST PUSH1 0x0 PUSH2 0xEB2 DUP4 DUP4 DUP1 DUP1 PUSH1 0x1F ADD PUSH1 0x20 DUP1 SWAP2 DIV MUL PUSH1 0x20 ADD PUSH1 0x40 MLOAD SWAP1 DUP2 ADD PUSH1 0x40 MSTORE DUP1 SWAP4 SWAP3 SWAP2 SWAP1 DUP2 DUP2 MSTORE PUSH1 0x20 ADD DUP4 DUP4 DUP1 DUP3 DUP5 CALLDATACOPY PUSH1 0x0 SWAP3 ADD SWAP2 SWAP1 SWAP2 MSTORE POP PUSH2 0x1AA2 SWAP3 POP POP POP JUMP JUMPDEST PUSH1 0x0 DUP2 DUP2 MSTORE PUSH1 0x2 PUSH1 0x20 MSTORE PUSH1 0x40 DUP2 KECCAK256 SWAP2 SWAP3 POP JUMPDEST DUP2 SLOAD DUP2 LT ISZERO PUSH2 0xF4C JUMPI PUSH1 0x0 DUP3 DUP3 DUP2 SLOAD DUP2 LT PUSH2 0xEEF JUMPI PUSH4 0x4E487B71 PUSH1 0xE0 SHL PUSH1 0x0 MSTORE PUSH1 0x32 PUSH1 0x4 MSTORE PUSH1 0x24 PUSH1 0x0 REVERT JUMPDEST PUSH1 0x0 SWAP2 DUP3 MSTORE PUSH1 0x20 DUP1 DUP4 KECCAK256 PUSH1 0x40 DUP1 MLOAD DUP1 DUP3 ADD DUP3 MSTORE PUSH1 0x2 SWAP1 SWAP5 MUL SWAP1 SWAP2 ADD DUP1 SLOAD DUP1 DUP6 MSTORE PUSH1 0x1 SWAP1 SWAP2 ADD SLOAD PUSH1 0x1 PUSH1 0x1 PUSH1 0xA0 SHL SUB SWAP1 DUP2 AND SWAP5 DUP5 ADD SWAP5 DUP6 MSTORE SWAP1 DUP6 MSTORE PUSH1 0x7 DUP4 MSTORE DUP2 DUP6 KECCAK256 SWAP4 MLOAD AND DUP5 MSTORE SWAP2 SWAP1 MSTORE DUP2 KECCAK256 SSTORE POP PUSH2 0xF45 DUP2 PUSH2 0x2F97 JUMP JUMPDEST SWAP1 POP PUSH2 0xEC4 JUMP JUMPDEST POP PUSH1 0x0 DUP3 DUP2 MSTORE PUSH1 0x2 PUSH1 0x20 MSTORE PUSH1 0x40 DUP2 KECCAK256 PUSH2 0xF64 SWAP2 PUSH2 0x226F JUMP JUMPDEST POP POP POP POP JUMP JUMPDEST PUSH1 0x9 SLOAD PUSH1 0x1 PUSH1 0x1 PUSH1 0xA0 SHL SUB AND DUP2 JUMP JUMPDEST PUSH1 0x60 PUSH1 0x2 PUSH1 0x0 PUSH2 0xFBE DUP6 DUP6 DUP1 DUP1 PUSH1 0x1F ADD PUSH1 0x20 DUP1 SWAP2 DIV MUL PUSH1 0x20 ADD PUSH1 0x40 MLOAD SWAP1 DUP2 ADD PUSH1 0x40 MSTORE DUP1 SWAP4 SWAP3 SWAP2 SWAP1 DUP2 DUP2 MSTORE PUSH1 0x20 ADD DUP4 DUP4 DUP1 DUP3 DUP5 CALLDATACOPY PUSH1 0x0 SWAP3 ADD SWAP2 SWAP1 SWAP2 MSTORE POP PUSH2 0x1AA2 SWAP3 POP POP POP JUMP JUMPDEST DUP2 MSTORE PUSH1 0x20 ADD SWAP1 DUP2 MSTORE PUSH1 0x20 ADD PUSH1 0x0 KECCAK256 DUP1 SLOAD DUP1 PUSH1 0x20 MUL PUSH1 0x20 ADD PUSH1 0x40 MLOAD SWAP1 DUP2 ADD PUSH1 0x40 MSTORE DUP1 SWAP3 SWAP2 SWAP1 DUP2 DUP2 MSTORE PUSH1 0x20 ADD PUSH1 0x0 SWAP1 JUMPDEST DUP3 DUP3 LT ISZERO PUSH2 0x1034 JUMPI PUSH1 0x0 DUP5 DUP2 MSTORE PUSH1 0x20 SWAP1 DUP2 SWAP1 KECCAK256 PUSH1 0x40 DUP1 MLOAD DUP1 DUP3 ADD SWAP1 SWAP2 MSTORE PUSH1 0x2 DUP6 MUL SWAP1 SWAP2 ADD DUP1 SLOAD DUP3 MSTORE PUSH1 0x1 SWAP1 DUP2 ADD SLOAD PUSH1 0x1 PUSH1 0x1 PUSH1 0xA0 SHL SUB AND DUP3 DUP5 ADD MSTORE SWAP1 DUP4 MSTORE SWAP1 SWAP3 ADD SWAP2 ADD PUSH2 0xFEC JUMP JUMPDEST POP POP POP POP SWAP1 POP SWAP3 SWAP2 POP POP JUMP JUMPDEST PUSH1 0x9 SLOAD PUSH1 0x0 SWAP1 PUSH1 0x1 PUSH1 0x1 PUSH1 0xA0 SHL SUB AND CALLER EQ PUSH2 0x106D JUMPI PUSH1 0x40 MLOAD PUSH3 0x461BCD PUSH1 0xE5 SHL DUP2 MSTORE PUSH1 0x4 ADD PUSH2 0x59B SWAP1 PUSH2 0x2AB7 JUMP JUMPDEST PUSH1 0x0 PUSH1 0x2 PUSH1 0x0 PUSH2 0x10B2 DUP8 DUP8 DUP1 DUP1 PUSH1 0x1F ADD PUSH1 0x20 DUP1 SWAP2 DIV MUL PUSH1 0x20 ADD PUSH1 0x40 MLOAD SWAP1 DUP2 ADD PUSH1 0x40 MSTORE DUP1 SWAP4 SWAP3 SWAP2 SWAP1 DUP2 DUP2 MSTORE PUSH1 0x20 ADD DUP4 DUP4 DUP1 DUP3 DUP5 CALLDATACOPY PUSH1 0x0 SWAP3 ADD SWAP2 SWAP1 SWAP2 MSTORE POP PUSH2 0x1AA2 SWAP3 POP POP POP JUMP JUMPDEST DUP2 MSTORE PUSH1 0x20 ADD SWAP1 DUP2 MSTORE PUSH1 0x20 ADD PUSH1 0x0 KECCAK256 SWAP1 POP PUSH1 0x0 JUMPDEST DUP2 SLOAD DUP2 LT ISZERO PUSH2 0x1282 JUMPI DUP4 DUP3 DUP3 DUP2 SLOAD DUP2 LT PUSH2 0x10EF JUMPI PUSH4 0x4E487B71 PUSH1 0xE0 SHL PUSH1 0x0 MSTORE PUSH1 0x32 PUSH1 0x4 MSTORE PUSH1 0x24 PUSH1 0x0 REVERT JUMPDEST SWAP1 PUSH1 0x0 MSTORE PUSH1 0x20 PUSH1 0x0 KECCAK256 SWAP1 PUSH1 0x2 MUL ADD PUSH1 0x0 ADD SLOAD EQ ISZERO PUSH2 0x1272 JUMPI PUSH1 0x0 DUP5 DUP2 MSTORE PUSH1 0x7 PUSH1 0x20 MSTORE PUSH1 0x40 DUP2 KECCAK256 DUP4 SLOAD DUP3 SWAP1 DUP6 SWAP1 DUP6 SWAP1 DUP2 LT PUSH2 0x1139 JUMPI PUSH4 0x4E487B71 PUSH1 0xE0 SHL PUSH1 0x0 MSTORE PUSH1 0x32 PUSH1 0x4 MSTORE PUSH1 0x24 PUSH1 0x0 REVERT JUMPDEST PUSH1 0x0 SWAP2 DUP3 MSTORE PUSH1 0x20 DUP1 DUP4 KECCAK256 PUSH1 0x1 PUSH1 0x2 SWAP1 SWAP4 MUL ADD SWAP2 SWAP1 SWAP2 ADD SLOAD PUSH1 0x1 PUSH1 0x1 PUSH1 0xA0 SHL SUB AND DUP4 MSTORE DUP3 ADD SWAP3 SWAP1 SWAP3 MSTORE PUSH1 0x40 ADD SWAP1 KECCAK256 SSTORE JUMPDEST DUP2 SLOAD PUSH2 0x1175 DUP3 PUSH1 0x1 PUSH2 0x2D3E JUMP JUMPDEST LT ISZERO PUSH2 0x121D JUMPI DUP2 PUSH2 0x1187 DUP3 PUSH1 0x1 PUSH2 0x2D3E JUMP JUMPDEST DUP2 SLOAD DUP2 LT PUSH2 0x11A5 JUMPI PUSH4 0x4E487B71 PUSH1 0xE0 SHL PUSH1 0x0 MSTORE PUSH1 0x32 PUSH1 0x4 MSTORE PUSH1 0x24 PUSH1 0x0 REVERT JUMPDEST SWAP1 PUSH1 0x0 MSTORE PUSH1 0x20 PUSH1 0x0 KECCAK256 SWAP1 PUSH1 0x2 MUL ADD DUP3 DUP3 DUP2 SLOAD DUP2 LT PUSH2 0x11D3 JUMPI PUSH4 0x4E487B71 PUSH1 0xE0 SHL PUSH1 0x0 MSTORE PUSH1 0x32 PUSH1 0x4 MSTORE PUSH1 0x24 PUSH1 0x0 REVERT JUMPDEST PUSH1 0x0 SWAP2 DUP3 MSTORE PUSH1 0x20 SWAP1 SWAP2 KECCAK256 DUP3 SLOAD PUSH1 0x2 SWAP1 SWAP3 MUL ADD SWAP1 DUP2 SSTORE PUSH1 0x1 SWAP2 DUP3 ADD SLOAD SWAP2 ADD DUP1 SLOAD PUSH1 0x1 PUSH1 0x1 PUSH1 0xA0 SHL SUB NOT AND PUSH1 0x1 PUSH1 0x1 PUSH1 0xA0 SHL SUB SWAP1 SWAP3 AND SWAP2 SWAP1 SWAP2 OR SWAP1 SSTORE PUSH2 0x1216 DUP2 PUSH2 0x2F97 JUMP JUMPDEST SWAP1 POP PUSH2 0x1168 JUMP JUMPDEST DUP2 DUP1 SLOAD DUP1 PUSH2 0x123B JUMPI PUSH4 0x4E487B71 PUSH1 0xE0 SHL PUSH1 0x0 MSTORE PUSH1 0x31 PUSH1 0x4 MSTORE PUSH1 0x24 PUSH1 0x0 REVERT JUMPDEST PUSH1 0x0 DUP3 DUP2 MSTORE PUSH1 0x20 DUP2 KECCAK256 PUSH1 0x2 PUSH1 0x0 NOT SWAP1 SWAP4 ADD SWAP3 DUP4 MUL ADD SWAP1 DUP2 SSTORE PUSH1 0x1 SWAP1 DUP2 ADD DUP1 SLOAD PUSH1 0x1 PUSH1 0x1 PUSH1 0xA0 SHL SUB NOT AND SWAP1 SSTORE SWAP2 SSTORE SWAP3 POP PUSH2 0x6DE SWAP2 POP POP JUMP JUMPDEST PUSH2 0x127B DUP2 PUSH2 0x2F97 JUMP JUMPDEST SWAP1 POP PUSH2 0x10C5 JUMP JUMPDEST POP PUSH1 0x0 SWAP6 SWAP5 POP POP POP POP POP JUMP JUMPDEST PUSH1 0x0 PUSH2 0x6DE PUSH2 0x12D2 DUP5 DUP5 DUP1 DUP1 PUSH1 0x1F ADD PUSH1 0x20 DUP1 SWAP2 DIV MUL PUSH1 0x20 ADD PUSH1 0x40 MLOAD SWAP1 DUP2 ADD PUSH1 0x40 MSTORE DUP1 SWAP4 SWAP3 SWAP2 SWAP1 DUP2 DUP2 MSTORE PUSH1 0x20 ADD DUP4 DUP4 DUP1 DUP3 DUP5 CALLDATACOPY PUSH1 0x0 SWAP3 ADD SWAP2 SWAP1 SWAP2 MSTORE POP PUSH2 0x1AA2 SWAP3 POP POP POP JUMP JUMPDEST PUSH2 0x1F0A JUMP JUMPDEST PUSH1 0x0 DUP1 PUSH1 0x2 PUSH1 0x0 PUSH2 0x131D DUP8 DUP8 DUP1 DUP1 PUSH1 0x1F ADD PUSH1 0x20 DUP1 SWAP2 DIV MUL PUSH1 0x20 ADD PUSH1 0x40 MLOAD SWAP1 DUP2 ADD PUSH1 0x40 MSTORE DUP1 SWAP4 SWAP3 SWAP2 SWAP1 DUP2 DUP2 MSTORE PUSH1 0x20 ADD DUP4 DUP4 DUP1 DUP3 DUP5 CALLDATACOPY PUSH1 0x0 SWAP3 ADD SWAP2 SWAP1 SWAP2 MSTORE POP PUSH2 0x1AA2 SWAP3 POP POP POP JUMP JUMPDEST DUP2 MSTORE PUSH1 0x20 ADD SWAP1 DUP2 MSTORE PUSH1 0x20 ADD PUSH1 0x0 KECCAK256 SWAP1 POP PUSH1 0x0 JUMPDEST DUP2 SLOAD DUP2 LT ISZERO PUSH2 0x1282 JUMPI DUP4 DUP3 DUP3 DUP2 SLOAD DUP2 LT PUSH2 0x135A JUMPI PUSH4 0x4E487B71 PUSH1 0xE0 SHL PUSH1 0x0 MSTORE PUSH1 0x32 PUSH1 0x4 MSTORE PUSH1 0x24 PUSH1 0x0 REVERT JUMPDEST SWAP1 PUSH1 0x0 MSTORE PUSH1 0x20 PUSH1 0x0 KECCAK256 SWAP1 PUSH1 0x2 MUL ADD PUSH1 0x0 ADD SLOAD EQ ISZERO PUSH2 0x13B9 JUMPI DUP2 DUP2 DUP2 SLOAD DUP2 LT PUSH2 0x1392 JUMPI PUSH4 0x4E487B71 PUSH1 0xE0 SHL PUSH1 0x0 MSTORE PUSH1 0x32 PUSH1 0x4 MSTORE PUSH1 0x24 PUSH1 0x0 REVERT JUMPDEST PUSH1 0x0 SWAP2 DUP3 MSTORE PUSH1 0x20 SWAP1 SWAP2 KECCAK256 PUSH1 0x1 PUSH1 0x2 SWAP1 SWAP3 MUL ADD ADD SLOAD PUSH1 0x1 PUSH1 0x1 PUSH1 0xA0 SHL SUB AND SWAP3 POP PUSH2 0x6DE SWAP2 POP POP JUMP JUMPDEST PUSH2 0x13C2 DUP2 PUSH2 0x2F97 JUMP JUMPDEST SWAP1 POP PUSH2 0x1330 JUMP JUMPDEST PUSH1 0x9 SLOAD PUSH1 0x0 SWAP1 PUSH1 0x1 PUSH1 0x1 PUSH1 0xA0 SHL SUB AND CALLER EQ PUSH2 0x13F6 JUMPI PUSH1 0x40 MLOAD PUSH3 0x461BCD PUSH1 0xE5 SHL DUP2 MSTORE PUSH1 0x4 ADD PUSH2 0x59B SWAP1 PUSH2 0x2AB7 JUMP JUMPDEST PUSH1 0x0 PUSH2 0x1437 DUP6 DUP6 DUP1 DUP1 PUSH1 0x1F ADD PUSH1 0x20 DUP1 SWAP2 DIV MUL PUSH1 0x20 ADD PUSH1 0x40 MLOAD SWAP1 DUP2 ADD PUSH1 0x40 MSTORE DUP1 SWAP4 SWAP3 SWAP2 SWAP1 DUP2 DUP2 MSTORE PUSH1 0x20 ADD DUP4 DUP4 DUP1 DUP3 DUP5 CALLDATACOPY PUSH1 0x0 SWAP3 ADD SWAP2 SWAP1 SWAP2 MSTORE POP PUSH2 0x1AA2 SWAP3 POP POP POP JUMP JUMPDEST PUSH1 0x0 DUP2 DUP2 MSTORE PUSH1 0x5 PUSH1 0x20 DUP2 DUP2 MSTORE PUSH1 0x40 DUP1 DUP5 KECCAK256 DUP9 DUP6 MSTORE DUP3 MSTORE DUP1 DUP5 KECCAK256 DUP2 MLOAD PUSH2 0x120 DUP2 ADD DUP4 MSTORE DUP2 SLOAD PUSH1 0xFF DUP2 AND DUP3 MSTORE PUSH1 0x1 PUSH1 0x1 PUSH1 0xA0 SHL SUB PUSH2 0x100 SWAP2 DUP3 SWAP1 DIV AND SWAP5 DUP3 ADD SWAP5 SWAP1 SWAP5 MSTORE PUSH1 0x1 DUP3 ADD SLOAD SWAP3 DUP2 ADD SWAP3 SWAP1 SWAP3 MSTORE PUSH1 0x2 DUP2 ADD SLOAD PUSH1 0x60 DUP4 ADD MSTORE PUSH1 0x3 DUP2 ADD SLOAD PUSH1 0x80 DUP4 ADD MSTORE PUSH1 0x4 DUP2 ADD SLOAD PUSH1 0xA0 DUP4 ADD MSTORE SWAP3 DUP4 ADD SLOAD PUSH1 0xC0 DUP3 ADD MSTORE PUSH1 0x6 DUP4 ADD SLOAD PUSH1 0xE0 DUP3 ADD MSTORE PUSH1 0x7 SWAP1 SWAP3 ADD SLOAD SWAP1 DUP3 ADD MSTORE SWAP2 SWAP3 POP PUSH2 0xDE9 SWAP2 DUP4 SWAP2 DUP7 SWAP2 SWAP1 PUSH2 0x1AA9 JUMP JUMPDEST PUSH1 0x0 DUP3 DUP2 MSTORE PUSH1 0x7 PUSH1 0x20 SWAP1 DUP2 MSTORE PUSH1 0x40 DUP1 DUP4 KECCAK256 PUSH1 0x1 PUSH1 0x1 PUSH1 0xA0 SHL SUB DUP6 AND DUP5 MSTORE SWAP1 SWAP2 MSTORE SWAP1 KECCAK256 SLOAD PUSH1 0x60 SWAP1 PUSH2 0x6DE SWAP1 PUSH2 0x1DCC JUMP JUMPDEST PUSH1 0x9 SLOAD PUSH1 0x1 PUSH1 0x1 PUSH1 0xA0 SHL SUB AND CALLER EQ PUSH2 0x1529 JUMPI PUSH1 0x40 MLOAD PUSH3 0x461BCD PUSH1 0xE5 SHL DUP2 MSTORE PUSH1 0x4 ADD PUSH2 0x59B SWAP1 PUSH2 0x2AB7 JUMP JUMPDEST PUSH2 0xF64 PUSH2 0x156B DUP6 DUP6 DUP1 DUP1 PUSH1 0x1F ADD PUSH1 0x20 DUP1 SWAP2 DIV MUL PUSH1 0x20 ADD PUSH1 0x40 MLOAD SWAP1 DUP2 ADD PUSH1 0x40 MSTORE DUP1 SWAP4 SWAP3 SWAP2 SWAP1 DUP2 DUP2 MSTORE PUSH1 0x20 ADD DUP4 DUP4 DUP1 DUP3 DUP5 CALLDATACOPY PUSH1 0x0 SWAP3 ADD SWAP2 SWAP1 SWAP2 MSTORE POP PUSH2 0x1AA2 SWAP3 POP POP POP JUMP JUMPDEST DUP4 DUP4 PUSH2 0x1F65 JUMP JUMPDEST PUSH1 0x9 SLOAD PUSH1 0x0 SWAP1 PUSH1 0x1 PUSH1 0x1 PUSH1 0xA0 SHL SUB AND CALLER EQ PUSH2 0x159F JUMPI PUSH1 0x40 MLOAD PUSH3 0x461BCD PUSH1 0xE5 SHL DUP2 MSTORE PUSH1 0x4 ADD PUSH2 0x59B SWAP1 PUSH2 0x2AB7 JUMP JUMPDEST PUSH2 0x15A8 DUP3 PUSH2 0x2D6F JUMP JUMPDEST PUSH1 0x20 DUP2 ADD MLOAD PUSH1 0x1 PUSH1 0x1 PUSH1 0xA0 SHL SUB AND PUSH2 0x15D2 JUMPI PUSH1 0x40 MLOAD PUSH3 0x461BCD PUSH1 0xE5 SHL DUP2 MSTORE PUSH1 0x4 ADD PUSH2 0x59B SWAP1 PUSH2 0x2B33 JUMP JUMPDEST PUSH1 0x0 DUP2 PUSH1 0x40 ADD MLOAD PUSH1 0x1 PUSH1 0x1 PUSH1 0x40 SHL SUB AND GT PUSH2 0x15FF JUMPI PUSH1 0x40 MLOAD PUSH3 0x461BCD PUSH1 0xE5 SHL DUP2 MSTORE PUSH1 0x4 ADD PUSH2 0x59B SWAP1 PUSH2 0x2A5A JUMP JUMPDEST DUP1 MLOAD MLOAD ISZERO DUP1 ISZERO SWAP1 PUSH2 0x1613 JUMPI POP DUP1 MLOAD MLOAD PUSH1 0x80 LT ISZERO JUMPDEST PUSH2 0x162F JUMPI PUSH1 0x40 MLOAD PUSH3 0x461BCD PUSH1 0xE5 SHL DUP2 MSTORE PUSH1 0x4 ADD PUSH2 0x59B SWAP1 PUSH2 0x2B91 JUMP JUMPDEST PUSH1 0x0 DUP5 GT PUSH2 0x164F JUMPI PUSH1 0x40 MLOAD PUSH3 0x461BCD PUSH1 0xE5 SHL DUP2 MSTORE PUSH1 0x4 ADD PUSH2 0x59B SWAP1 PUSH2 0x29FD JUMP JUMPDEST PUSH1 0x0 DUP5 DUP2 MSTORE PUSH1 0x3 PUSH1 0x20 MSTORE PUSH1 0x40 SWAP1 KECCAK256 DUP4 SWAP1 PUSH2 0x1669 DUP3 DUP3 PUSH2 0x3038 JUMP JUMPDEST SWAP1 POP POP PUSH2 0x1675 DUP5 PUSH2 0x1A47 JUMP JUMPDEST PUSH2 0x16AC JUMPI PUSH1 0x0 DUP1 SLOAD PUSH1 0x1 DUP2 ADD DUP3 SSTORE SWAP1 DUP1 MSTORE PUSH32 0x290DECD9548B62A8D60345A988386FC84BA6BC95484008F6362F93160EF3E563 ADD DUP5 SWAP1 SSTORE JUMPDEST POP PUSH1 0x1 SWAP4 SWAP3 POP POP POP JUMP JUMPDEST PUSH1 0x60 PUSH1 0x0 DUP1 SLOAD DUP1 PUSH1 0x20 MUL PUSH1 0x20 ADD PUSH1 0x40 MLOAD SWAP1 DUP2 ADD PUSH1 0x40 MSTORE DUP1 SWAP3 SWAP2 SWAP1 DUP2 DUP2 MSTORE PUSH1 0x20 ADD DUP3 DUP1 SLOAD DUP1 ISZERO PUSH2 0x1704 JUMPI PUSH1 0x20 MUL DUP3 ADD SWAP2 SWAP1 PUSH1 0x0 MSTORE PUSH1 0x20 PUSH1 0x0 KECCAK256 SWAP1 JUMPDEST DUP2 SLOAD DUP2 MSTORE PUSH1 0x20 ADD SWAP1 PUSH1 0x1 ADD SWAP1 DUP1 DUP4 GT PUSH2 0x16F0 JUMPI JUMPDEST POP POP POP POP POP SWAP1 POP SWAP1 JUMP JUMPDEST PUSH1 0x9 SLOAD PUSH1 0x0 SWAP1 PUSH1 0x1 PUSH1 0x1 PUSH1 0xA0 SHL SUB AND CALLER EQ PUSH2 0x173B JUMPI PUSH1 0x40 MLOAD PUSH3 0x461BCD PUSH1 0xE5 SHL DUP2 MSTORE PUSH1 0x4 ADD PUSH2 0x59B SWAP1 PUSH2 0x2AB7 JUMP JUMPDEST PUSH1 0x0 PUSH2 0x177C DUP5 DUP5 DUP1 DUP1 PUSH1 0x1F ADD PUSH1 0x20 DUP1 SWAP2 DIV MUL PUSH1 0x20 ADD PUSH1 0x40 MLOAD SWAP1 DUP2 ADD PUSH1 0x40 MSTORE DUP1 SWAP4 SWAP3 SWAP2 SWAP1 DUP2 DUP2 MSTORE PUSH1 0x20 ADD DUP4 DUP4 DUP1 DUP3 DUP5 CALLDATACOPY PUSH1 0x0 SWAP3 ADD SWAP2 SWAP1 SWAP2 MSTORE POP PUSH2 0x1AA2 SWAP3 POP POP POP JUMP JUMPDEST SWAP1 POP PUSH2 0x1787 DUP2 PUSH2 0x1F0A JUMP JUMPDEST ISZERO PUSH2 0x17A4 JUMPI PUSH1 0x40 MLOAD PUSH3 0x461BCD PUSH1 0xE5 SHL DUP2 MSTORE PUSH1 0x4 ADD PUSH2 0x59B SWAP1 PUSH2 0x28B9 JUMP JUMPDEST PUSH1 0x1 DUP1 SLOAD DUP1 DUP3 ADD DUP3 SSTORE PUSH1 0x0 DUP3 SWAP1 MSTORE PUSH32 0xB10E2D527612073B26EECDFD717E6A320CF44B4AFAC2B0732D9FCBE2B7FA0CF6 ADD SWAP2 SWAP1 SWAP2 SSTORE SWAP4 SWAP3 POP POP POP JUMP JUMPDEST PUSH1 0x9 SLOAD PUSH1 0x0 SWAP1 PUSH1 0x1 PUSH1 0x1 PUSH1 0xA0 SHL SUB AND CALLER EQ PUSH2 0x180C JUMPI PUSH1 0x40 MLOAD PUSH3 0x461BCD PUSH1 0xE5 SHL DUP2 MSTORE PUSH1 0x4 ADD PUSH2 0x59B SWAP1 PUSH2 0x2AB7 JUMP JUMPDEST PUSH1 0x0 DUP7 GT PUSH2 0x182C JUMPI PUSH1 0x40 MLOAD PUSH3 0x461BCD PUSH1 0xE5 SHL DUP2 MSTORE PUSH1 0x4 ADD PUSH2 0x59B SWAP1 PUSH2 0x29FD JUMP JUMPDEST DUP3 DUP3 PUSH1 0x6 PUSH1 0x0 DUP10 DUP2 MSTORE PUSH1 0x20 ADD SWAP1 DUP2 MSTORE PUSH1 0x20 ADD PUSH1 0x0 KECCAK256 DUP8 DUP8 PUSH1 0x40 MLOAD PUSH2 0x1851 SWAP3 SWAP2 SWAP1 PUSH2 0x277B JUMP JUMPDEST SWAP1 DUP2 MSTORE PUSH1 0x40 MLOAD SWAP1 DUP2 SWAP1 SUB PUSH1 0x20 ADD SWAP1 KECCAK256 PUSH2 0x186B SWAP3 SWAP1 SWAP2 PUSH2 0x21EB JUMP JUMPDEST POP PUSH1 0x1 SWAP7 SWAP6 POP POP POP POP POP POP JUMP JUMPDEST PUSH1 0x9 SLOAD PUSH1 0x0 SWAP1 PUSH1 0x1 PUSH1 0x1 PUSH1 0xA0 SHL SUB AND CALLER EQ PUSH2 0x18A5 JUMPI PUSH1 0x40 MLOAD PUSH3 0x461BCD PUSH1 0xE5 SHL DUP2 MSTORE PUSH1 0x4 ADD PUSH2 0x59B SWAP1 PUSH2 0x2AB7 JUMP JUMPDEST PUSH1 0x0 JUMPDEST PUSH1 0x0 SLOAD DUP2 LT ISZERO PUSH2 0x19BC JUMPI DUP3 PUSH1 0x0 DUP3 DUP2 SLOAD DUP2 LT PUSH2 0x18D4 JUMPI PUSH4 0x4E487B71 PUSH1 0xE0 SHL PUSH1 0x0 MSTORE PUSH1 0x32 PUSH1 0x4 MSTORE PUSH1 0x24 PUSH1 0x0 REVERT JUMPDEST SWAP1 PUSH1 0x0 MSTORE PUSH1 0x20 PUSH1 0x0 KECCAK256 ADD SLOAD EQ ISZERO PUSH2 0x19AC JUMPI JUMPDEST PUSH1 0x0 SLOAD PUSH2 0x18F4 DUP3 PUSH1 0x1 PUSH2 0x2D3E JUMP JUMPDEST LT ISZERO PUSH2 0x196D JUMPI PUSH1 0x0 PUSH2 0x1907 DUP3 PUSH1 0x1 PUSH2 0x2D3E JUMP JUMPDEST DUP2 SLOAD DUP2 LT PUSH2 0x1925 JUMPI PUSH4 0x4E487B71 PUSH1 0xE0 SHL PUSH1 0x0 MSTORE PUSH1 0x32 PUSH1 0x4 MSTORE PUSH1 0x24 PUSH1 0x0 REVERT JUMPDEST SWAP1 PUSH1 0x0 MSTORE PUSH1 0x20 PUSH1 0x0 KECCAK256 ADD SLOAD PUSH1 0x0 DUP3 DUP2 SLOAD DUP2 LT PUSH2 0x1951 JUMPI PUSH4 0x4E487B71 PUSH1 0xE0 SHL PUSH1 0x0 MSTORE PUSH1 0x32 PUSH1 0x4 MSTORE PUSH1 0x24 PUSH1 0x0 REVERT JUMPDEST PUSH1 0x0 SWAP2 DUP3 MSTORE PUSH1 0x20 SWAP1 SWAP2 KECCAK256 ADD SSTORE PUSH2 0x1966 DUP2 PUSH2 0x2F97 JUMP JUMPDEST SWAP1 POP PUSH2 0x18E6 JUMP JUMPDEST PUSH1 0x0 DUP1 SLOAD DUP1 PUSH2 0x198C JUMPI PUSH4 0x4E487B71 PUSH1 0xE0 SHL PUSH1 0x0 MSTORE PUSH1 0x31 PUSH1 0x4 MSTORE PUSH1 0x24 PUSH1 0x0 REVERT JUMPDEST PUSH1 0x1 SWAP1 SUB DUP2 DUP2 SWAP1 PUSH1 0x0 MSTORE PUSH1 0x20 PUSH1 0x0 KECCAK256 ADD PUSH1 0x0 SWAP1 SSTORE SWAP1 SSTORE PUSH1 0x1 SWAP2 POP POP PUSH2 0x569 JUMP JUMPDEST PUSH2 0x19B5 DUP2 PUSH2 0x2F97 JUMP JUMPDEST SWAP1 POP PUSH2 0x18A8 JUMP JUMPDEST POP PUSH1 0x0 SWAP3 SWAP2 POP POP JUMP JUMPDEST PUSH1 0x9 SLOAD PUSH1 0x1 PUSH1 0x1 PUSH1 0xA0 SHL SUB AND CALLER EQ PUSH2 0x19EF JUMPI PUSH1 0x40 MLOAD PUSH3 0x461BCD PUSH1 0xE5 SHL DUP2 MSTORE PUSH1 0x4 ADD PUSH2 0x59B SWAP1 PUSH2 0x2AB7 JUMP JUMPDEST PUSH1 0x40 MLOAD PUSH1 0x1 PUSH1 0x1 PUSH1 0xA0 SHL SUB DUP3 AND SWAP1 CALLER SWAP1 PUSH32 0x8BE0079C531659141344CD1FD0A4F28419497F9722A3DAAFE3B4186F6B6457E0 SWAP1 PUSH1 0x0 SWAP1 LOG3 PUSH1 0x9 DUP1 SLOAD PUSH1 0x1 PUSH1 0x1 PUSH1 0xA0 SHL SUB NOT AND PUSH1 0x1 PUSH1 0x1 PUSH1 0xA0 SHL SUB SWAP3 SWAP1 SWAP3 AND SWAP2 SWAP1 SWAP2 OR SWAP1 SSTORE JUMP JUMPDEST PUSH1 0x0 DUP1 JUMPDEST PUSH1 0x0 SLOAD DUP2 LT ISZERO PUSH2 0x19BC JUMPI DUP3 PUSH1 0x0 DUP3 DUP2 SLOAD DUP2 LT PUSH2 0x1A77 JUMPI PUSH4 0x4E487B71 PUSH1 0xE0 SHL PUSH1 0x0 MSTORE PUSH1 0x32 PUSH1 0x4 MSTORE PUSH1 0x24 PUSH1 0x0 REVERT JUMPDEST SWAP1 PUSH1 0x0 MSTORE PUSH1 0x20 PUSH1 0x0 KECCAK256 ADD SLOAD EQ ISZERO PUSH2 0x1A92 JUMPI PUSH1 0x1 SWAP2 POP POP PUSH2 0x569 JUMP JUMPDEST PUSH2 0x1A9B DUP2 PUSH2 0x2F97 JUMP JUMPDEST SWAP1 POP PUSH2 0x1A4B JUMP JUMPDEST PUSH1 0x20 ADD MLOAD SWAP1 JUMP JUMPDEST PUSH1 0x20 DUP3 ADD MLOAD PUSH1 0x0 SWAP1 DUP4 SWAP1 PUSH1 0x1 PUSH1 0x1 PUSH1 0xA0 SHL SUB AND PUSH2 0x1AC5 JUMPI PUSH1 0x0 DUP1 REVERT JUMPDEST PUSH1 0x0 DUP2 PUSH1 0x60 ADD MLOAD GT PUSH2 0x1AE9 JUMPI PUSH1 0x40 MLOAD PUSH3 0x461BCD PUSH1 0xE5 SHL DUP2 MSTORE PUSH1 0x4 ADD PUSH2 0x59B SWAP1 PUSH2 0x28E1 JUMP JUMPDEST PUSH1 0x0 DUP2 PUSH1 0x80 ADD MLOAD GT PUSH2 0x1B0D JUMPI PUSH1 0x40 MLOAD PUSH3 0x461BCD PUSH1 0xE5 SHL DUP2 MSTORE PUSH1 0x4 ADD PUSH2 0x59B SWAP1 PUSH2 0x2B09 JUMP JUMPDEST PUSH1 0x0 DUP2 PUSH1 0xA0 ADD MLOAD GT PUSH2 0x1B31 JUMPI PUSH1 0x40 MLOAD PUSH3 0x461BCD PUSH1 0xE5 SHL DUP2 MSTORE PUSH1 0x4 ADD PUSH2 0x59B SWAP1 PUSH2 0x2B61 JUMP JUMPDEST DUP1 PUSH1 0x80 ADD MLOAD DUP2 PUSH1 0x60 ADD MLOAD LT ISZERO PUSH2 0x1B59 JUMPI PUSH1 0x40 MLOAD PUSH3 0x461BCD PUSH1 0xE5 SHL DUP2 MSTORE PUSH1 0x4 ADD PUSH2 0x59B SWAP1 PUSH2 0x2A23 JUMP JUMPDEST DUP1 PUSH2 0x100 ADD MLOAD DUP2 PUSH1 0xE0 ADD MLOAD LT ISZERO PUSH2 0x1B82 JUMPI PUSH1 0x40 MLOAD PUSH3 0x461BCD PUSH1 0xE5 SHL DUP2 MSTORE PUSH1 0x4 ADD PUSH2 0x59B SWAP1 PUSH2 0x29C6 JUMP JUMPDEST DUP1 PUSH2 0x100 ADD MLOAD DUP2 PUSH1 0x80 ADD MLOAD LT ISZERO PUSH2 0x1BAB JUMPI PUSH1 0x40 MLOAD PUSH3 0x461BCD PUSH1 0xE5 SHL DUP2 MSTORE PUSH1 0x4 ADD PUSH2 0x59B SWAP1 PUSH2 0x298F JUMP JUMPDEST PUSH3 0xF4240 DUP2 PUSH1 0xC0 ADD MLOAD LT PUSH2 0x1BD1 JUMPI PUSH1 0x40 MLOAD PUSH3 0x461BCD PUSH1 0xE5 SHL DUP2 MSTORE PUSH1 0x4 ADD PUSH2 0x59B SWAP1 PUSH2 0x295A JUMP JUMPDEST PUSH1 0x0 DUP2 PUSH1 0xC0 ADD MLOAD GT DUP1 PUSH2 0x1BE7 JUMPI POP PUSH2 0x100 DUP2 ADD MLOAD ISZERO JUMPDEST PUSH2 0x1C03 JUMPI PUSH1 0x40 MLOAD PUSH3 0x461BCD PUSH1 0xE5 SHL DUP2 MSTORE PUSH1 0x4 ADD PUSH2 0x59B SWAP1 PUSH2 0x2ADB JUMP JUMPDEST DUP6 PUSH2 0x1C20 JUMPI PUSH1 0x40 MLOAD PUSH3 0x461BCD PUSH1 0xE5 SHL DUP2 MSTORE PUSH1 0x4 ADD PUSH2 0x59B SWAP1 PUSH2 0x2933 JUMP JUMPDEST PUSH1 0x0 DUP6 GT PUSH2 0x1C40 JUMPI PUSH1 0x40 MLOAD PUSH3 0x461BCD PUSH1 0xE5 SHL DUP2 MSTORE PUSH1 0x4 ADD PUSH2 0x59B SWAP1 PUSH2 0x29FD JUMP JUMPDEST DUP3 ISZERO PUSH2 0x1CDD JUMPI PUSH1 0x0 DUP7 DUP2 MSTORE PUSH1 0x5 PUSH1 0x20 DUP2 DUP2 MSTORE PUSH1 0x40 DUP1 DUP5 KECCAK256 DUP10 DUP6 MSTORE DUP3 MSTORE SWAP3 DUP4 SWAP1 KECCAK256 DUP8 MLOAD DUP2 SLOAD SWAP3 DUP10 ADD MLOAD PUSH1 0xFF NOT SWAP1 SWAP4 AND PUSH1 0xFF SWAP1 SWAP2 AND OR PUSH2 0x100 PUSH1 0x1 PUSH1 0xA8 SHL SUB NOT AND PUSH2 0x100 PUSH1 0x1 PUSH1 0x1 PUSH1 0xA0 SHL SUB SWAP1 SWAP4 AND DUP4 MUL OR DUP2 SSTORE SWAP3 DUP8 ADD MLOAD PUSH1 0x1 DUP5 ADD SSTORE PUSH1 0x60 DUP8 ADD MLOAD PUSH1 0x2 DUP5 ADD SSTORE PUSH1 0x80 DUP8 ADD MLOAD PUSH1 0x3 DUP5 ADD SSTORE PUSH1 0xA0 DUP8 ADD MLOAD PUSH1 0x4 DUP5 ADD SSTORE PUSH1 0xC0 DUP8 ADD MLOAD SWAP2 DUP4 ADD SWAP2 SWAP1 SWAP2 SSTORE PUSH1 0xE0 DUP7 ADD MLOAD PUSH1 0x6 DUP4 ADD SSTORE DUP6 ADD MLOAD PUSH1 0x7 SWAP1 SWAP2 ADD SSTORE PUSH2 0x1DC0 JUMP JUMPDEST PUSH1 0x0 DUP7 DUP2 MSTORE PUSH1 0x4 PUSH1 0x20 DUP2 DUP2 MSTORE PUSH1 0x40 DUP1 DUP5 KECCAK256 DUP10 DUP6 MSTORE DUP3 MSTORE SWAP3 DUP4 SWAP1 KECCAK256 DUP8 MLOAD DUP2 SLOAD SWAP3 DUP10 ADD MLOAD PUSH1 0xFF NOT SWAP1 SWAP4 AND PUSH1 0xFF SWAP1 SWAP2 AND OR PUSH2 0x100 PUSH1 0x1 PUSH1 0xA8 SHL SUB NOT AND PUSH2 0x100 PUSH1 0x1 PUSH1 0x1 PUSH1 0xA0 SHL SUB SWAP1 SWAP4 AND DUP4 MUL OR DUP2 SSTORE SWAP3 DUP8 ADD MLOAD PUSH1 0x1 DUP5 ADD SSTORE PUSH1 0x60 DUP8 ADD MLOAD PUSH1 0x2 DUP5 ADD SSTORE PUSH1 0x80 DUP8 ADD MLOAD PUSH1 0x3 DUP5 ADD SSTORE PUSH1 0xA0 DUP8 ADD MLOAD SWAP2 DUP4 ADD SWAP2 SWAP1 SWAP2 SSTORE PUSH1 0xC0 DUP7 ADD MLOAD PUSH1 0x5 DUP4 ADD SSTORE PUSH1 0xE0 DUP7 ADD MLOAD PUSH1 0x6 DUP4 ADD SSTORE DUP6 ADD MLOAD PUSH1 0x7 SWAP1 SWAP2 ADD SSTORE PUSH2 0x1D78 DUP7 PUSH2 0x1F0A JUMP JUMPDEST PUSH2 0x1DB1 JUMPI PUSH1 0x1 DUP1 SLOAD DUP1 DUP3 ADD DUP3 SSTORE PUSH1 0x0 SWAP2 SWAP1 SWAP2 MSTORE PUSH32 0xB10E2D527612073B26EECDFD717E6A320CF44B4AFAC2B0732D9FCBE2B7FA0CF6 ADD DUP7 SWAP1 SSTORE JUMPDEST PUSH2 0x1DC0 DUP7 DUP7 DUP7 PUSH1 0x20 ADD MLOAD PUSH2 0x1F65 JUMP JUMPDEST POP PUSH1 0x1 SWAP6 SWAP5 POP POP POP POP POP JUMP JUMPDEST PUSH1 0x60 PUSH1 0x0 JUMPDEST PUSH1 0x20 DUP2 PUSH1 0xFF AND LT DUP1 ISZERO PUSH2 0x1E13 JUMPI POP DUP3 DUP2 PUSH1 0xFF AND PUSH1 0x20 DUP2 LT PUSH2 0x1E02 JUMPI PUSH4 0x4E487B71 PUSH1 0xE0 SHL PUSH1 0x0 MSTORE PUSH1 0x32 PUSH1 0x4 MSTORE PUSH1 0x24 PUSH1 0x0 REVERT JUMPDEST BYTE PUSH1 0xF8 SHL PUSH1 0x1 PUSH1 0x1 PUSH1 0xF8 SHL SUB NOT AND ISZERO ISZERO JUMPDEST ISZERO PUSH2 0x1E28 JUMPI PUSH2 0x1E21 DUP2 PUSH2 0x2FB2 JUMP JUMPDEST SWAP1 POP PUSH2 0x1DD1 JUMP JUMPDEST PUSH1 0x0 DUP2 PUSH1 0xFF AND PUSH1 0x1 PUSH1 0x1 PUSH1 0x40 SHL SUB DUP2 GT ISZERO PUSH2 0x1E53 JUMPI PUSH4 0x4E487B71 PUSH1 0xE0 SHL PUSH1 0x0 MSTORE PUSH1 0x41 PUSH1 0x4 MSTORE PUSH1 0x24 PUSH1 0x0 REVERT JUMPDEST PUSH1 0x40 MLOAD SWAP1 DUP1 DUP3 MSTORE DUP1 PUSH1 0x1F ADD PUSH1 0x1F NOT AND PUSH1 0x20 ADD DUP3 ADD PUSH1 0x40 MSTORE DUP1 ISZERO PUSH2 0x1E7D JUMPI PUSH1 0x20 DUP3 ADD DUP2 DUP1 CALLDATASIZE DUP4 CALLDATACOPY ADD SWAP1 POP JUMPDEST POP SWAP1 POP PUSH1 0x0 JUMPDEST DUP3 PUSH1 0xFF AND DUP2 PUSH1 0xFF AND LT ISZERO PUSH2 0x1F02 JUMPI DUP5 DUP2 PUSH1 0xFF AND PUSH1 0x20 DUP2 LT PUSH2 0x1EB4 JUMPI PUSH4 0x4E487B71 PUSH1 0xE0 SHL PUSH1 0x0 MSTORE PUSH1 0x32 PUSH1 0x4 MSTORE PUSH1 0x24 PUSH1 0x0 REVERT JUMPDEST BYTE PUSH1 0xF8 SHL DUP3 DUP3 PUSH1 0xFF AND DUP2 MLOAD DUP2 LT PUSH2 0x1EDB JUMPI PUSH4 0x4E487B71 PUSH1 0xE0 SHL PUSH1 0x0 MSTORE PUSH1 0x32 PUSH1 0x4 MSTORE PUSH1 0x24 PUSH1 0x0 REVERT JUMPDEST PUSH1 0x20 ADD ADD SWAP1 PUSH1 0x1 PUSH1 0x1 PUSH1 0xF8 SHL SUB NOT AND SWAP1 DUP2 PUSH1 0x0 BYTE SWAP1 MSTORE8 POP PUSH2 0x1EFB DUP2 PUSH2 0x2FB2 JUMP JUMPDEST SWAP1 POP PUSH2 0x1E83 JUMP JUMPDEST POP SWAP4 SWAP3 POP POP POP JUMP JUMPDEST PUSH1 0x0 DUP1 JUMPDEST PUSH1 0x1 SLOAD DUP2 LT ISZERO PUSH2 0x19BC JUMPI DUP3 PUSH1 0x1 DUP3 DUP2 SLOAD DUP2 LT PUSH2 0x1F3A JUMPI PUSH4 0x4E487B71 PUSH1 0xE0 SHL PUSH1 0x0 MSTORE PUSH1 0x32 PUSH1 0x4 MSTORE PUSH1 0x24 PUSH1 0x0 REVERT JUMPDEST SWAP1 PUSH1 0x0 MSTORE PUSH1 0x20 PUSH1 0x0 KECCAK256 ADD SLOAD EQ ISZERO PUSH2 0x1F55 JUMPI PUSH1 0x1 SWAP2 POP POP PUSH2 0x569 JUMP JUMPDEST PUSH2 0x1F5E DUP2 PUSH2 0x2F97 JUMP JUMPDEST SWAP1 POP PUSH2 0x1F0E JUMP JUMPDEST DUP3 PUSH2 0x1F82 JUMPI PUSH1 0x40 MLOAD PUSH3 0x461BCD PUSH1 0xE5 SHL DUP2 MSTORE PUSH1 0x4 ADD PUSH2 0x59B SWAP1 PUSH2 0x2933 JUMP JUMPDEST PUSH1 0x0 DUP3 GT PUSH2 0x1FA2 JUMPI PUSH1 0x40 MLOAD PUSH3 0x461BCD PUSH1 0xE5 SHL DUP2 MSTORE PUSH1 0x4 ADD PUSH2 0x59B SWAP1 PUSH2 0x29FD JUMP JUMPDEST PUSH1 0x0 DUP4 DUP2 MSTORE PUSH1 0x2 PUSH1 0x20 MSTORE PUSH1 0x40 DUP2 KECCAK256 SWAP1 JUMPDEST DUP2 SLOAD DUP2 LT ISZERO PUSH2 0x20CC JUMPI DUP4 DUP3 DUP3 DUP2 SLOAD DUP2 LT PUSH2 0x1FDC JUMPI PUSH4 0x4E487B71 PUSH1 0xE0 SHL PUSH1 0x0 MSTORE PUSH1 0x32 PUSH1 0x4 MSTORE PUSH1 0x24 PUSH1 0x0 REVERT JUMPDEST SWAP1 PUSH1 0x0 MSTORE PUSH1 0x20 PUSH1 0x0 KECCAK256 SWAP1 PUSH1 0x2 MUL ADD PUSH1 0x0 ADD SLOAD EQ ISZERO PUSH2 0x20BC JUMPI PUSH1 0x0 DUP3 DUP3 DUP2 SLOAD DUP2 LT PUSH2 0x2016 JUMPI PUSH4 0x4E487B71 PUSH1 0xE0 SHL PUSH1 0x0 MSTORE PUSH1 0x32 PUSH1 0x4 MSTORE PUSH1 0x24 PUSH1 0x0 REVERT JUMPDEST PUSH1 0x0 SWAP2 DUP3 MSTORE PUSH1 0x20 SWAP1 SWAP2 KECCAK256 PUSH1 0x1 PUSH1 0x2 SWAP1 SWAP3 MUL ADD ADD SLOAD PUSH1 0x1 PUSH1 0x1 PUSH1 0xA0 SHL SUB SWAP1 DUP2 AND SWAP2 POP DUP5 AND DUP2 EQ PUSH2 0x20B4 JUMPI DUP4 DUP4 DUP4 DUP2 SLOAD DUP2 LT PUSH2 0x2060 JUMPI PUSH4 0x4E487B71 PUSH1 0xE0 SHL PUSH1 0x0 MSTORE PUSH1 0x32 PUSH1 0x4 MSTORE PUSH1 0x24 PUSH1 0x0 REVERT JUMPDEST PUSH1 0x0 SWAP2 DUP3 MSTORE PUSH1 0x20 DUP1 DUP4 KECCAK256 PUSH1 0x2 SWAP3 SWAP1 SWAP3 MUL SWAP1 SWAP2 ADD PUSH1 0x1 ADD DUP1 SLOAD PUSH1 0x1 PUSH1 0x1 PUSH1 0xA0 SHL SUB NOT AND PUSH1 0x1 PUSH1 0x1 PUSH1 0xA0 SHL SUB SWAP5 DUP6 AND OR SWAP1 SSTORE DUP8 DUP3 MSTORE PUSH1 0x7 DUP2 MSTORE PUSH1 0x40 DUP1 DUP4 KECCAK256 DUP6 DUP6 AND DUP5 MSTORE SWAP1 SWAP2 MSTORE DUP1 DUP3 KECCAK256 DUP3 SWAP1 SSTORE SWAP2 DUP7 AND DUP2 MSTORE KECCAK256 DUP7 SWAP1 SSTORE JUMPDEST POP POP POP PUSH2 0x213A JUMP JUMPDEST PUSH2 0x20C5 DUP2 PUSH2 0x2F97 JUMP JUMPDEST SWAP1 POP PUSH2 0x1FB2 JUMP JUMPDEST POP PUSH1 0x40 DUP1 MLOAD DUP1 DUP3 ADD DUP3 MSTORE DUP5 DUP2 MSTORE PUSH1 0x1 PUSH1 0x1 PUSH1 0xA0 SHL SUB DUP5 DUP2 AND PUSH1 0x20 DUP1 DUP5 ADD DUP3 DUP2 MSTORE DUP7 SLOAD PUSH1 0x1 DUP1 DUP3 ADD DUP10 SSTORE PUSH1 0x0 SWAP9 DUP10 MSTORE DUP4 DUP10 KECCAK256 SWAP7 MLOAD PUSH1 0x2 SWAP1 SWAP3 MUL SWAP1 SWAP7 ADD SWAP1 DUP2 SSTORE SWAP1 MLOAD SWAP5 ADD DUP1 SLOAD PUSH1 0x1 PUSH1 0x1 PUSH1 0xA0 SHL SUB NOT AND SWAP5 SWAP1 SWAP4 AND SWAP4 SWAP1 SWAP4 OR SWAP1 SWAP2 SSTORE DUP6 DUP5 MSTORE PUSH1 0x7 DUP3 MSTORE DUP3 DUP5 KECCAK256 SWAP1 DUP5 MSTORE SWAP1 MSTORE SWAP1 KECCAK256 DUP4 SWAP1 SSTORE JUMPDEST POP POP POP JUMP JUMPDEST PUSH1 0x40 DUP1 MLOAD PUSH2 0x140 DUP2 ADD DUP3 MSTORE PUSH1 0x60 DUP1 DUP3 MSTORE PUSH1 0x0 PUSH1 0x20 DUP4 ADD DUP2 SWAP1 MSTORE SWAP3 DUP3 ADD DUP4 SWAP1 MSTORE DUP2 ADD DUP3 SWAP1 MSTORE PUSH1 0x80 DUP2 ADD DUP3 SWAP1 MSTORE PUSH1 0xA0 DUP2 ADD DUP3 SWAP1 MSTORE PUSH1 0xC0 DUP2 ADD DUP3 SWAP1 MSTORE PUSH1 0xE0 DUP2 ADD DUP3 SWAP1 MSTORE PUSH2 0x100 DUP2 ADD DUP3 SWAP1 MSTORE PUSH2 0x120 DUP2 ADD SWAP2 SWAP1 SWAP2 MSTORE SWAP1 JUMP JUMPDEST PUSH1 0x40 MLOAD DUP1 PUSH2 0x120 ADD PUSH1 0x40 MSTORE DUP1 PUSH1 0x0 PUSH1 0xFF AND DUP2 MSTORE PUSH1 0x20 ADD PUSH1 0x0 PUSH1 0x1 PUSH1 0x1 PUSH1 0xA0 SHL SUB AND DUP2 MSTORE PUSH1 0x20 ADD PUSH1 0x0 DUP2 MSTORE PUSH1 0x20 ADD PUSH1 0x0 DUP2 MSTORE PUSH1 0x20 ADD PUSH1 0x0 DUP2 MSTORE PUSH1 0x20 ADD PUSH1 0x0 DUP2 MSTORE PUSH1 0x20 ADD PUSH1 0x0 DUP2 MSTORE PUSH1 0x20 ADD PUSH1 0x0 DUP2 MSTORE PUSH1 0x20 ADD PUSH1 0x0 DUP2 MSTORE POP SWAP1 JUMP JUMPDEST DUP3 DUP1 SLOAD PUSH2 0x21F7 SWAP1 PUSH2 0x2F49 JUMP JUMPDEST SWAP1 PUSH1 0x0 MSTORE PUSH1 0x20 PUSH1 0x0 KECCAK256 SWAP1 PUSH1 0x1F ADD PUSH1 0x20 SWAP1 DIV DUP2 ADD SWAP3 DUP3 PUSH2 0x2219 JUMPI PUSH1 0x0 DUP6 SSTORE PUSH2 0x225F JUMP JUMPDEST DUP3 PUSH1 0x1F LT PUSH2 0x2232 JUMPI DUP3 DUP1 ADD PUSH1 0xFF NOT DUP3 CALLDATALOAD AND OR DUP6 SSTORE PUSH2 0x225F JUMP JUMPDEST DUP3 DUP1 ADD PUSH1 0x1 ADD DUP6 SSTORE DUP3 ISZERO PUSH2 0x225F JUMPI SWAP2 DUP3 ADD JUMPDEST DUP3 DUP2 GT ISZERO PUSH2 0x225F JUMPI DUP3 CALLDATALOAD DUP3 SSTORE SWAP2 PUSH1 0x20 ADD SWAP2 SWAP1 PUSH1 0x1 ADD SWAP1 PUSH2 0x2244 JUMP JUMPDEST POP PUSH2 0x226B SWAP3 SWAP2 POP PUSH2 0x2293 JUMP JUMPDEST POP SWAP1 JUMP JUMPDEST POP DUP1 SLOAD PUSH1 0x0 DUP3 SSTORE PUSH1 0x2 MUL SWAP1 PUSH1 0x0 MSTORE PUSH1 0x20 PUSH1 0x0 KECCAK256 SWAP1 DUP2 ADD SWAP1 PUSH2 0x2290 SWAP2 SWAP1 PUSH2 0x22A8 JUMP JUMPDEST POP JUMP JUMPDEST JUMPDEST DUP1 DUP3 GT ISZERO PUSH2 0x226B JUMPI PUSH1 0x0 DUP2 SSTORE PUSH1 0x1 ADD PUSH2 0x2294 JUMP JUMPDEST JUMPDEST DUP1 DUP3 GT ISZERO PUSH2 0x226B JUMPI PUSH1 0x0 DUP2 SSTORE PUSH1 0x1 DUP2 ADD DUP1 SLOAD PUSH1 0x1 PUSH1 0x1 PUSH1 0xA0 SHL SUB NOT AND SWAP1 SSTORE PUSH1 0x2 ADD PUSH2 0x22A9 JUMP JUMPDEST DUP1 CALLDATALOAD PUSH2 0x569 DUP2 PUSH2 0x3201 JUMP JUMPDEST PUSH1 0x0 DUP1 DUP4 PUSH1 0x1F DUP5 ADD SLT PUSH2 0x22EB JUMPI DUP1 DUP2 REVERT JUMPDEST POP DUP2 CALLDATALOAD PUSH1 0x1 PUSH1 0x1 PUSH1 0x40 SHL SUB DUP2 GT ISZERO PUSH2 0x2301 JUMPI DUP2 DUP3 REVERT JUMPDEST PUSH1 0x20 DUP4 ADD SWAP2 POP DUP4 PUSH1 0x20 DUP3 DUP6 ADD ADD GT ISZERO PUSH2 0x2319 JUMPI PUSH1 0x0 DUP1 REVERT JUMPDEST SWAP3 POP SWAP3 SWAP1 POP JUMP JUMPDEST PUSH1 0x0 DUP3 PUSH1 0x1F DUP4 ADD SLT PUSH2 0x2330 JUMPI DUP1 DUP2 REVERT JUMPDEST DUP2 CALLDATALOAD PUSH1 0x1 PUSH1 0x1 PUSH1 0x40 SHL SUB DUP2 GT ISZERO PUSH2 0x2349 JUMPI PUSH2 0x2349 PUSH2 0x2FE8 JUMP JUMPDEST PUSH2 0x235C PUSH1 0x1F DUP3 ADD PUSH1 0x1F NOT AND PUSH1 0x20 ADD PUSH2 0x2D09 JUMP JUMPDEST DUP2 DUP2 MSTORE DUP5 PUSH1 0x20 DUP4 DUP7 ADD ADD GT ISZERO PUSH2 0x2370 JUMPI DUP3 DUP4 REVERT JUMPDEST DUP2 PUSH1 0x20 DUP6 ADD PUSH1 0x20 DUP4 ADD CALLDATACOPY SWAP1 DUP2 ADD PUSH1 0x20 ADD SWAP2 SWAP1 SWAP2 MSTORE SWAP3 SWAP2 POP POP JUMP JUMPDEST DUP1 CALLDATALOAD PUSH2 0x569 DUP2 PUSH2 0x3216 JUMP JUMPDEST DUP1 CALLDATALOAD PUSH1 0xFF DUP2 AND DUP2 EQ PUSH2 0x569 JUMPI PUSH1 0x0 DUP1 REVERT JUMPDEST PUSH1 0x0 PUSH1 0x20 DUP3 DUP5 SUB SLT ISZERO PUSH2 0x23B7 JUMPI DUP1 DUP2 REVERT JUMPDEST DUP2 CALLDATALOAD PUSH2 0x6DE DUP2 PUSH2 0x3201 JUMP JUMPDEST PUSH1 0x0 DUP1 PUSH1 0x0 PUSH1 0x40 DUP5 DUP7 SUB SLT ISZERO PUSH2 0x23D6 JUMPI DUP2 DUP3 REVERT JUMPDEST DUP4 CALLDATALOAD PUSH2 0x23E1 DUP2 PUSH2 0x3201 JUMP JUMPDEST SWAP3 POP PUSH1 0x20 DUP5 ADD CALLDATALOAD PUSH1 0x1 PUSH1 0x1 PUSH1 0x40 SHL SUB DUP2 GT ISZERO PUSH2 0x23FB JUMPI DUP3 DUP4 REVERT JUMPDEST PUSH2 0x2407 DUP7 DUP3 DUP8 ADD PUSH2 0x22DA JUMP JUMPDEST SWAP5 SWAP8 SWAP1 SWAP7 POP SWAP4 SWAP5 POP POP POP POP JUMP JUMPDEST PUSH1 0x0 DUP1 PUSH1 0x20 DUP4 DUP6 SUB SLT ISZERO PUSH2 0x2426 JUMPI DUP2 DUP3 REVERT JUMPDEST DUP3 CALLDATALOAD PUSH1 0x1 PUSH1 0x1 PUSH1 0x40 SHL SUB DUP2 GT ISZERO PUSH2 0x243B JUMPI DUP3 DUP4 REVERT JUMPDEST PUSH2 0x2447 DUP6 DUP3 DUP7 ADD PUSH2 0x22DA JUMP JUMPDEST SWAP1 SWAP7 SWAP1 SWAP6 POP SWAP4 POP POP POP POP JUMP JUMPDEST PUSH1 0x0 DUP1 PUSH1 0x0 PUSH1 0x40 DUP5 DUP7 SUB SLT ISZERO PUSH2 0x2467 JUMPI DUP3 DUP4 REVERT JUMPDEST DUP4 CALLDATALOAD PUSH1 0x1 PUSH1 0x1 PUSH1 0x40 SHL SUB DUP2 GT ISZERO PUSH2 0x247C JUMPI DUP4 DUP5 REVERT JUMPDEST PUSH2 0x2488 DUP7 DUP3 DUP8 ADD PUSH2 0x22DA JUMP JUMPDEST SWAP1 SWAP8 SWAP1 SWAP7 POP PUSH1 0x20 SWAP6 SWAP1 SWAP6 ADD CALLDATALOAD SWAP5 SWAP4 POP POP POP POP JUMP JUMPDEST PUSH1 0x0 DUP1 PUSH1 0x0 DUP1 PUSH1 0x60 DUP6 DUP8 SUB SLT ISZERO PUSH2 0x24B1 JUMPI DUP1 DUP2 REVERT JUMPDEST DUP5 CALLDATALOAD PUSH1 0x1 PUSH1 0x1 PUSH1 0x40 SHL SUB DUP2 GT ISZERO PUSH2 0x24C6 JUMPI DUP2 DUP3 REVERT JUMPDEST PUSH2 0x24D2 DUP8 DUP3 DUP9 ADD PUSH2 0x22DA JUMP JUMPDEST SWAP1 SWAP6 POP SWAP4 POP POP PUSH1 0x20 DUP6 ADD CALLDATALOAD SWAP2 POP PUSH1 0x40 DUP6 ADD CALLDATALOAD PUSH2 0x24ED DUP2 PUSH2 0x3201 JUMP JUMPDEST SWAP4 SWAP7 SWAP3 SWAP6 POP SWAP1 SWAP4 POP POP JUMP JUMPDEST PUSH1 0x0 DUP1 PUSH1 0x0 DUP1 DUP5 DUP7 SUB PUSH2 0x160 DUP2 SLT ISZERO PUSH2 0x250F JUMPI DUP5 DUP6 REVERT JUMPDEST DUP6 CALLDATALOAD PUSH1 0x1 PUSH1 0x1 PUSH1 0x40 SHL SUB DUP2 GT ISZERO PUSH2 0x2524 JUMPI DUP6 DUP7 REVERT JUMPDEST PUSH2 0x2530 DUP9 DUP3 DUP10 ADD PUSH2 0x22DA JUMP JUMPDEST SWAP1 SWAP7 POP SWAP5 POP POP PUSH1 0x20 DUP7 ADD CALLDATALOAD SWAP3 POP PUSH2 0x120 PUSH1 0x3F NOT DUP3 ADD SLT ISZERO PUSH2 0x254F JUMPI DUP2 DUP3 REVERT JUMPDEST POP SWAP3 SWAP6 SWAP2 SWAP5 POP SWAP3 PUSH1 0x40 ADD SWAP2 POP JUMP JUMPDEST PUSH1 0x0 PUSH2 0x120 DUP1 DUP4 DUP6 SUB SLT ISZERO PUSH2 0x2570 JUMPI DUP2 DUP3 REVERT JUMPDEST PUSH2 0x2579 DUP2 PUSH2 0x2D09 JUMP JUMPDEST SWAP1 POP PUSH2 0x2584 DUP4 PUSH2 0x2395 JUMP JUMPDEST DUP2 MSTORE PUSH2 0x2592 PUSH1 0x20 DUP5 ADD PUSH2 0x22CF JUMP JUMPDEST PUSH1 0x20 DUP3 ADD MSTORE PUSH1 0x40 DUP4 ADD CALLDATALOAD PUSH1 0x40 DUP3 ADD MSTORE PUSH1 0x60 DUP4 ADD CALLDATALOAD PUSH1 0x60 DUP3 ADD MSTORE PUSH1 0x80 DUP4 ADD CALLDATALOAD PUSH1 0x80 DUP3 ADD MSTORE PUSH1 0xA0 DUP4 ADD CALLDATALOAD PUSH1 0xA0 DUP3 ADD MSTORE PUSH1 0xC0 DUP4 ADD CALLDATALOAD PUSH1 0xC0 DUP3 ADD MSTORE PUSH1 0xE0 DUP4 ADD CALLDATALOAD PUSH1 0xE0 DUP3 ADD MSTORE PUSH2 0x100 DUP1 DUP5 ADD CALLDATALOAD DUP2 DUP4 ADD MSTORE POP DUP1 SWAP2 POP POP SWAP3 SWAP2 POP POP JUMP JUMPDEST PUSH1 0x0 PUSH1 0x20 DUP3 DUP5 SUB SLT ISZERO PUSH2 0x25FA JUMPI DUP1 DUP2 REVERT JUMPDEST POP CALLDATALOAD SWAP2 SWAP1 POP JUMP JUMPDEST PUSH1 0x0 DUP1 PUSH1 0x40 DUP4 DUP6 SUB SLT ISZERO PUSH2 0x2613 JUMPI DUP2 DUP3 REVERT JUMPDEST DUP3 CALLDATALOAD SWAP2 POP PUSH1 0x20 DUP4 ADD CALLDATALOAD PUSH2 0x2625 DUP2 PUSH2 0x3201 JUMP JUMPDEST DUP1 SWAP2 POP POP SWAP3 POP SWAP3 SWAP1 POP JUMP JUMPDEST PUSH1 0x0 DUP1 PUSH1 0x0 PUSH1 0x40 DUP5 DUP7 SUB SLT ISZERO PUSH2 0x2644 JUMPI DUP1 DUP2 REVERT JUMPDEST DUP4 CALLDATALOAD SWAP3 POP PUSH1 0x20 DUP5 ADD CALLDATALOAD PUSH1 0x1 PUSH1 0x1 PUSH1 0x40 SHL SUB DUP2 GT ISZERO PUSH2 0x23FB JUMPI DUP2 DUP3 REVERT JUMPDEST PUSH1 0x0 DUP1 PUSH1 0x0 DUP1 PUSH1 0x0 PUSH1 0x60 DUP7 DUP9 SUB SLT ISZERO PUSH2 0x2677 JUMPI DUP3 DUP4 REVERT JUMPDEST DUP6 CALLDATALOAD SWAP5 POP PUSH1 0x20 DUP7 ADD CALLDATALOAD PUSH1 0x1 PUSH1 0x1 PUSH1 0x40 SHL SUB DUP1 DUP3 GT ISZERO PUSH2 0x2694 JUMPI DUP5 DUP6 REVERT JUMPDEST PUSH2 0x26A0 DUP10 DUP4 DUP11 ADD PUSH2 0x22DA JUMP JUMPDEST SWAP1 SWAP7 POP SWAP5 POP PUSH1 0x40 DUP9 ADD CALLDATALOAD SWAP2 POP DUP1 DUP3 GT ISZERO PUSH2 0x26B8 JUMPI DUP3 DUP4 REVERT JUMPDEST POP PUSH2 0x26C5 DUP9 DUP3 DUP10 ADD PUSH2 0x22DA JUMP JUMPDEST SWAP7 SWAP10 SWAP6 SWAP9 POP SWAP4 SWAP7 POP SWAP3 SWAP5 SWAP4 SWAP3 POP POP POP JUMP JUMPDEST PUSH1 0x0 DUP1 PUSH1 0x40 DUP4 DUP6 SUB SLT ISZERO PUSH2 0x26E8 JUMPI DUP2 DUP3 REVERT JUMPDEST DUP3 CALLDATALOAD SWAP2 POP PUSH1 0x20 DUP4 ADD CALLDATALOAD PUSH1 0x1 PUSH1 0x1 PUSH1 0x40 SHL SUB DUP2 GT ISZERO PUSH2 0x2704 JUMPI DUP2 DUP3 REVERT JUMPDEST DUP4 ADD PUSH2 0x140 DUP2 DUP7 SUB SLT ISZERO PUSH2 0x2625 JUMPI DUP2 DUP3 REVERT JUMPDEST PUSH1 0x1 PUSH1 0x1 PUSH1 0xA0 SHL SUB AND SWAP1 MSTORE JUMP JUMPDEST PUSH1 0x0 DUP2 MLOAD DUP1 DUP5 MSTORE DUP2 JUMPDEST DUP2 DUP2 LT ISZERO PUSH2 0x2748 JUMPI PUSH1 0x20 DUP2 DUP6 ADD DUP2 ADD MLOAD DUP7 DUP4 ADD DUP3 ADD MSTORE ADD PUSH2 0x272C JUMP JUMPDEST DUP2 DUP2 GT ISZERO PUSH2 0x2759 JUMPI DUP3 PUSH1 0x20 DUP4 DUP8 ADD ADD MSTORE JUMPDEST POP PUSH1 0x1F ADD PUSH1 0x1F NOT AND SWAP3 SWAP1 SWAP3 ADD PUSH1 0x20 ADD SWAP3 SWAP2 POP POP JUMP JUMPDEST PUSH1 0x1 PUSH1 0x1 PUSH1 0x40 SHL SUB AND SWAP1 MSTORE JUMP JUMPDEST PUSH1 0x0 DUP3 DUP5 DUP4 CALLDATACOPY SWAP2 ADD SWAP1 DUP2 MSTORE SWAP2 SWAP1 POP JUMP JUMPDEST PUSH1 0x1 PUSH1 0x1 PUSH1 0xA0 SHL SUB SWAP2 SWAP1 SWAP2 AND DUP2 MSTORE PUSH1 0x20 ADD SWAP1 JUMP JUMPDEST PUSH1 0x0 PUSH1 0x20 DUP1 DUP4 ADD DUP2 DUP5 MSTORE DUP1 DUP6 MLOAD DUP1 DUP4 MSTORE PUSH1 0x40 DUP7 ADD SWAP2 POP PUSH1 0x40 DUP5 DUP3 MUL DUP8 ADD ADD SWAP3 POP DUP4 DUP8 ADD DUP6 JUMPDEST DUP3 DUP2 LT ISZERO PUSH2 0x27F2 JUMPI PUSH1 0x3F NOT DUP9 DUP7 SUB ADD DUP5 MSTORE PUSH2 0x27E0 DUP6 DUP4 MLOAD PUSH2 0x2723 JUMP JUMPDEST SWAP5 POP SWAP3 DUP6 ADD SWAP3 SWAP1 DUP6 ADD SWAP1 PUSH1 0x1 ADD PUSH2 0x27C4 JUMP JUMPDEST POP SWAP3 SWAP8 SWAP7 POP POP POP POP POP POP POP JUMP JUMPDEST PUSH1 0x20 DUP1 DUP3 MSTORE DUP3 MLOAD DUP3 DUP3 ADD DUP2 SWAP1 MSTORE PUSH1 0x0 SWAP2 SWAP1 PUSH1 0x40 SWAP1 DUP2 DUP6 ADD SWAP1 DUP7 DUP5 ADD DUP6 JUMPDEST DUP3 DUP2 LT ISZERO PUSH2 0x284A JUMPI DUP2 MLOAD DUP1 MLOAD DUP6 MSTORE DUP7 ADD MLOAD PUSH1 0x1 PUSH1 0x1 PUSH1 0xA0 SHL SUB AND DUP7 DUP6 ADD MSTORE SWAP3 DUP5 ADD SWAP3 SWAP1 DUP6 ADD SWAP1 PUSH1 0x1 ADD PUSH2 0x281C JUMP JUMPDEST POP SWAP2 SWAP8 SWAP7 POP POP POP POP POP POP POP JUMP JUMPDEST PUSH1 0x20 DUP1 DUP3 MSTORE DUP3 MLOAD DUP3 DUP3 ADD DUP2 SWAP1 MSTORE PUSH1 0x0 SWAP2 SWAP1 DUP5 DUP3 ADD SWAP1 PUSH1 0x40 DUP6 ADD SWAP1 DUP5 JUMPDEST DUP2 DUP2 LT ISZERO PUSH2 0x288F JUMPI DUP4 MLOAD DUP4 MSTORE SWAP3 DUP5 ADD SWAP3 SWAP2 DUP5 ADD SWAP2 PUSH1 0x1 ADD PUSH2 0x2873 JUMP JUMPDEST POP SWAP1 SWAP7 SWAP6 POP POP POP POP POP POP JUMP JUMPDEST SWAP1 ISZERO ISZERO DUP2 MSTORE PUSH1 0x20 ADD SWAP1 JUMP JUMPDEST PUSH1 0x0 PUSH1 0x20 DUP3 MSTORE PUSH2 0x6DE PUSH1 0x20 DUP4 ADD DUP5 PUSH2 0x2723 JUMP JUMPDEST PUSH1 0x20 DUP1 DUP3 MSTORE PUSH1 0xE SWAP1 DUP3 ADD MSTORE PUSH14 0x1D1BDAD95B88125108195E1A5CDD PUSH1 0x92 SHL PUSH1 0x40 DUP3 ADD MSTORE PUSH1 0x60 ADD SWAP1 JUMP JUMPDEST PUSH1 0x20 DUP1 DUP3 MSTORE PUSH1 0x10 SWAP1 DUP3 ADD MSTORE PUSH16 0x7A65726F204D6178696D756D5377617 PUSH1 0x84 SHL PUSH1 0x40 DUP3 ADD MSTORE PUSH1 0x60 ADD SWAP1 JUMP JUMPDEST PUSH1 0x20 DUP1 DUP3 MSTORE PUSH1 0xE SWAP1 DUP3 ADD MSTORE PUSH14 0x18DA185A5B88125108195E1A5CDD PUSH1 0x92 SHL PUSH1 0x40 DUP3 ADD MSTORE PUSH1 0x60 ADD SWAP1 JUMP JUMPDEST PUSH1 0x20 DUP1 DUP3 MSTORE PUSH1 0xD SWAP1 DUP3 ADD MSTORE PUSH13 0x195B5C1D1E481D1BDAD95B9251 PUSH1 0x9A SHL PUSH1 0x40 DUP3 ADD MSTORE PUSH1 0x60 ADD SWAP1 JUMP JUMPDEST PUSH1 0x20 DUP1 DUP3 MSTORE DUP2 DUP2 ADD MSTORE PUSH32 0x53776170466565526174655065724D696C6C696F6E203E3D2031303030303030 PUSH1 0x40 DUP3 ADD MSTORE PUSH1 0x60 ADD SWAP1 JUMP JUMPDEST PUSH1 0x20 DUP1 DUP3 MSTORE PUSH1 0x1C SWAP1 DUP3 ADD MSTORE PUSH32 0x4D696E696D756D53776170203C204D696E696D756D5377617046656500000000 PUSH1 0x40 DUP3 ADD MSTORE PUSH1 0x60 ADD SWAP1 JUMP JUMPDEST PUSH1 0x20 DUP1 DUP3 MSTORE PUSH1 0x1F SWAP1 DUP3 ADD MSTORE PUSH32 0x4D6178696D756D53776170466565203C204D696E696D756D5377617046656500 PUSH1 0x40 DUP3 ADD MSTORE PUSH1 0x60 ADD SWAP1 JUMP JUMPDEST PUSH1 0x20 DUP1 DUP3 MSTORE PUSH1 0xC SWAP1 DUP3 ADD MSTORE PUSH12 0x1E995C9BC818DA185A5B9251 PUSH1 0xA2 SHL PUSH1 0x40 DUP3 ADD MSTORE PUSH1 0x60 ADD SWAP1 JUMP JUMPDEST PUSH1 0x20 DUP1 DUP3 MSTORE PUSH1 0x19 SWAP1 DUP3 ADD MSTORE PUSH32 0x4D6178696D756D53776170203C204D696E696D756D5377617000000000000000 PUSH1 0x40 DUP3 ADD MSTORE PUSH1 0x60 ADD SWAP1 JUMP JUMPDEST PUSH1 0x20 DUP1 DUP3 MSTORE PUSH1 0x1C SWAP1 DUP3 ADD MSTORE PUSH32 0x7A65726F20636F6E6669726D6174696F6E7320697320756E7361666500000000 PUSH1 0x40 DUP3 ADD MSTORE PUSH1 0x60 ADD SWAP1 JUMP JUMPDEST PUSH1 0x20 DUP1 DUP3 MSTORE PUSH1 0xC SWAP1 DUP3 ADD MSTORE PUSH12 0x7A65726F2061646472657373 PUSH1 0xA0 SHL PUSH1 0x40 DUP3 ADD MSTORE PUSH1 0x60 ADD SWAP1 JUMP JUMPDEST PUSH1 0x20 DUP1 DUP3 MSTORE PUSH1 0xA SWAP1 DUP3 ADD MSTORE PUSH10 0x37B7363C9037BBB732B9 PUSH1 0xB1 SHL PUSH1 0x40 DUP3 ADD MSTORE PUSH1 0x60 ADD SWAP1 JUMP JUMPDEST PUSH1 0x20 DUP1 DUP3 MSTORE PUSH1 0x14 SWAP1 DUP3 ADD MSTORE PUSH20 0x77726F6E67204D696E696D756D53776170466565 PUSH1 0x60 SHL PUSH1 0x40 DUP3 ADD MSTORE PUSH1 0x60 ADD SWAP1 JUMP JUMPDEST PUSH1 0x20 DUP1 DUP3 MSTORE PUSH1 0x10 SWAP1 DUP3 ADD MSTORE PUSH16 0x7A65726F204D696E696D756D5377617 PUSH1 0x84 SHL PUSH1 0x40 DUP3 ADD MSTORE PUSH1 0x60 ADD SWAP1 JUMP JUMPDEST PUSH1 0x20 DUP1 DUP3 MSTORE PUSH1 0x14 SWAP1 DUP3 ADD MSTORE PUSH20 0x1E995C9BC81C9BDD5D195C8818DBDB9D1C9858DD PUSH1 0x62 SHL PUSH1 0x40 DUP3 ADD MSTORE PUSH1 0x60 ADD SWAP1 JUMP JUMPDEST PUSH1 0x20 DUP1 DUP3 MSTORE PUSH1 0x16 SWAP1 DUP3 ADD MSTORE PUSH22 0x1E995C9BC8109A59D5985B1D59551A1C995CDA1BDB19 PUSH1 0x52 SHL PUSH1 0x40 DUP3 ADD MSTORE PUSH1 0x60 ADD SWAP1 JUMP JUMPDEST PUSH1 0x20 DUP1 DUP3 MSTORE PUSH1 0x17 SWAP1 DUP3 ADD MSTORE PUSH32 0x77726F6E6720426C6F636B436861696E206C656E677468000000000000000000 PUSH1 0x40 DUP3 ADD MSTORE PUSH1 0x60 ADD SWAP1 JUMP JUMPDEST PUSH1 0x0 PUSH1 0x20 DUP3 MSTORE DUP3 MLOAD PUSH2 0x140 DUP1 PUSH1 0x20 DUP6 ADD MSTORE PUSH2 0x2BE7 PUSH2 0x160 DUP6 ADD DUP4 PUSH2 0x2723 JUMP JUMPDEST SWAP2 POP PUSH1 0x20 DUP6 ADD MLOAD PUSH2 0x2BFB PUSH1 0x40 DUP7 ADD DUP3 PUSH2 0x2716 JUMP JUMPDEST POP PUSH1 0x40 DUP6 ADD MLOAD PUSH2 0x2C0E PUSH1 0x60 DUP7 ADD DUP3 PUSH2 0x276E JUMP JUMPDEST POP PUSH1 0x60 DUP6 ADD MLOAD PUSH2 0x2C21 PUSH1 0x80 DUP7 ADD DUP3 PUSH2 0x276E JUMP JUMPDEST POP PUSH1 0x80 DUP6 ADD MLOAD PUSH2 0x2C34 PUSH1 0xA0 DUP7 ADD DUP3 PUSH2 0x276E JUMP JUMPDEST POP PUSH1 0xA0 DUP6 ADD MLOAD PUSH2 0x2C47 PUSH1 0xC0 DUP7 ADD DUP3 PUSH2 0x276E JUMP JUMPDEST POP PUSH1 0xC0 DUP6 ADD MLOAD PUSH2 0x2C5A PUSH1 0xE0 DUP7 ADD DUP3 PUSH2 0x276E JUMP JUMPDEST POP PUSH1 0xE0 DUP6 ADD MLOAD PUSH2 0x100 PUSH2 0x2C6F DUP2 DUP8 ADD DUP4 PUSH2 0x276E JUMP JUMPDEST DUP7 ADD MLOAD SWAP1 POP PUSH2 0x120 PUSH2 0x2C83 DUP7 DUP3 ADD DUP4 PUSH2 0x276E JUMP JUMPDEST DUP7 ADD MLOAD SWAP1 POP PUSH2 0x2C94 DUP6 DUP4 ADD DUP3 PUSH2 0x276E JUMP JUMPDEST POP SWAP1 SWAP5 SWAP4 POP POP POP POP JUMP JUMPDEST DUP2 MLOAD PUSH1 0xFF AND DUP2 MSTORE PUSH1 0x20 DUP1 DUP4 ADD MLOAD PUSH1 0x1 PUSH1 0x1 PUSH1 0xA0 SHL SUB AND SWAP1 DUP3 ADD MSTORE PUSH1 0x40 DUP1 DUP4 ADD MLOAD SWAP1 DUP3 ADD MSTORE PUSH1 0x60 DUP1 DUP4 ADD MLOAD SWAP1 DUP3 ADD MSTORE PUSH1 0x80 DUP1 DUP4 ADD MLOAD SWAP1 DUP3 ADD MSTORE PUSH1 0xA0 DUP1 DUP4 ADD MLOAD SWAP1 DUP3 ADD MSTORE PUSH1 0xC0 DUP1 DUP4 ADD MLOAD SWAP1 DUP3 ADD MSTORE PUSH1 0xE0 DUP1 DUP4 ADD MLOAD SWAP1 DUP3 ADD MSTORE PUSH2 0x100 SWAP2 DUP3 ADD MLOAD SWAP2 DUP2 ADD SWAP2 SWAP1 SWAP2 MSTORE PUSH2 0x120 ADD SWAP1 JUMP JUMPDEST PUSH1 0x40 MLOAD DUP2 DUP2 ADD PUSH1 0x1 PUSH1 0x1 PUSH1 0x40 SHL SUB DUP2 GT DUP3 DUP3 LT OR ISZERO PUSH2 0x2D2A JUMPI PUSH2 0x2D2A PUSH2 0x2FE8 JUMP JUMPDEST PUSH1 0x40 MSTORE SWAP2 SWAP1 POP JUMP JUMPDEST PUSH1 0x0 SWAP1 DUP2 MSTORE PUSH1 0x20 SWAP1 KECCAK256 SWAP1 JUMP JUMPDEST PUSH1 0x0 DUP3 NOT DUP3 GT ISZERO PUSH2 0x2D51 JUMPI PUSH2 0x2D51 PUSH2 0x2FD2 JUMP JUMPDEST POP ADD SWAP1 JUMP JUMPDEST JUMPDEST DUP2 DUP2 LT ISZERO PUSH2 0x2D6B JUMPI PUSH1 0x0 DUP2 SSTORE PUSH1 0x1 ADD PUSH2 0x2D57 JUMP JUMPDEST POP POP JUMP JUMPDEST PUSH1 0x0 PUSH2 0x140 DUP1 DUP4 CALLDATASIZE SUB SLT ISZERO PUSH2 0x2D82 JUMPI DUP2 DUP3 REVERT JUMPDEST PUSH2 0x2D8B DUP2 PUSH2 0x2D09 JUMP JUMPDEST SWAP1 POP DUP3 CALLDATALOAD PUSH1 0x1 PUSH1 0x1 PUSH1 0x40 SHL SUB DUP2 GT ISZERO PUSH2 0x2DA2 JUMPI DUP3 DUP4 REVERT JUMPDEST PUSH2 0x2DAE CALLDATASIZE DUP3 DUP7 ADD PUSH2 0x2320 JUMP JUMPDEST DUP3 MSTORE POP PUSH2 0x2DBD PUSH1 0x20 DUP5 ADD PUSH2 0x22CF JUMP JUMPDEST PUSH1 0x20 DUP3 ADD MSTORE PUSH2 0x2DCE PUSH1 0x40 DUP5 ADD PUSH2 0x238A JUMP JUMPDEST PUSH1 0x40 DUP3 ADD MSTORE PUSH2 0x2DDF PUSH1 0x60 DUP5 ADD PUSH2 0x238A JUMP JUMPDEST PUSH1 0x60 DUP3 ADD MSTORE PUSH2 0x2DF0 PUSH1 0x80 DUP5 ADD PUSH2 0x238A JUMP JUMPDEST PUSH1 0x80 DUP3 ADD MSTORE PUSH2 0x2E01 PUSH1 0xA0 DUP5 ADD PUSH2 0x238A JUMP JUMPDEST PUSH1 0xA0 DUP3 ADD MSTORE PUSH2 0x2E12 PUSH1 0xC0 DUP5 ADD PUSH2 0x238A JUMP JUMPDEST PUSH1 0xC0 DUP3 ADD MSTORE PUSH2 0x2E23 PUSH1 0xE0 DUP5 ADD PUSH2 0x238A JUMP JUMPDEST PUSH1 0xE0 DUP3 ADD MSTORE PUSH2 0x100 PUSH2 0x2E36 DUP2 DUP6 ADD PUSH2 0x238A JUMP JUMPDEST SWAP1 DUP3 ADD MSTORE PUSH2 0x120 PUSH2 0x2E48 DUP5 DUP3 ADD PUSH2 0x238A JUMP JUMPDEST SWAP1 DUP3 ADD MSTORE SWAP3 SWAP2 POP POP JUMP JUMPDEST PUSH1 0x1 PUSH1 0x1 PUSH1 0x40 SHL SUB DUP4 GT ISZERO PUSH2 0x2E69 JUMPI PUSH2 0x2E69 PUSH2 0x2FE8 JUMP JUMPDEST PUSH2 0x2E73 DUP2 SLOAD PUSH2 0x2F49 JUMP JUMPDEST PUSH1 0x0 DUP1 PUSH1 0x1F DUP7 GT PUSH1 0x1F DUP5 GT DUP2 DUP2 OR ISZERO PUSH2 0x2E92 JUMPI PUSH2 0x2E8F DUP7 PUSH2 0x2D32 JUMP JUMPDEST SWAP3 POP JUMPDEST DUP1 ISZERO PUSH2 0x2EC1 JUMPI PUSH1 0x20 PUSH1 0x1F DUP10 ADD DIV DUP4 ADD PUSH1 0x20 DUP10 LT ISZERO PUSH2 0x2EAD JUMPI POP DUP3 JUMPDEST PUSH2 0x2EBF PUSH1 0x20 PUSH1 0x1F DUP9 ADD DIV DUP6 ADD DUP3 PUSH2 0x2D56 JUMP JUMPDEST POP JUMPDEST POP DUP1 PUSH1 0x1 DUP2 EQ PUSH2 0x2EED JUMPI PUSH1 0x0 SWAP5 POP DUP8 ISZERO PUSH2 0x2EDC JUMPI DUP4 DUP8 ADD CALLDATALOAD SWAP5 POP JUMPDEST PUSH2 0x2EE6 DUP9 DUP7 PUSH2 0x2F84 JUMP JUMPDEST DUP7 SSTORE PUSH2 0x2F3F JUMP JUMPDEST PUSH1 0x1F NOT DUP9 AND SWAP5 POP DUP3 DUP5 JUMPDEST DUP7 DUP2 LT ISZERO PUSH2 0x2F17 JUMPI DUP9 DUP7 ADD CALLDATALOAD DUP3 SSTORE PUSH1 0x20 SWAP6 DUP7 ADD SWAP6 PUSH1 0x1 SWAP1 SWAP3 ADD SWAP2 ADD PUSH2 0x2EF7 JUMP JUMPDEST POP DUP9 DUP7 LT ISZERO PUSH2 0x2F34 JUMPI DUP8 DUP6 ADD CALLDATALOAD PUSH1 0x0 NOT PUSH1 0x8 PUSH1 0x1F DUP13 AND MUL SHR NOT AND DUP2 SSTORE JUMPDEST POP PUSH1 0x1 PUSH1 0x2 DUP10 MUL ADD DUP7 SSTORE JUMPDEST POP POP POP POP POP POP POP POP JUMP JUMPDEST PUSH1 0x2 DUP2 DIV PUSH1 0x1 DUP3 AND DUP1 PUSH2 0x2F5D JUMPI PUSH1 0x7F DUP3 AND SWAP2 POP JUMPDEST PUSH1 0x20 DUP3 LT DUP2 EQ ISZERO PUSH2 0x2F7E JUMPI PUSH4 0x4E487B71 PUSH1 0xE0 SHL PUSH1 0x0 MSTORE PUSH1 0x22 PUSH1 0x4 MSTORE PUSH1 0x24 PUSH1 0x0 REVERT JUMPDEST POP SWAP2 SWAP1 POP JUMP JUMPDEST PUSH1 0x0 NOT PUSH1 0x8 DUP4 MUL SHR NOT AND PUSH1 0x2 SWAP1 SWAP2 MUL OR SWAP1 JUMP JUMPDEST PUSH1 0x0 PUSH1 0x0 NOT DUP3 EQ ISZERO PUSH2 0x2FAB JUMPI PUSH2 0x2FAB PUSH2 0x2FD2 JUMP JUMPDEST POP PUSH1 0x1 ADD SWAP1 JUMP JUMPDEST PUSH1 0x0 PUSH1 0xFF DUP3 AND PUSH1 0xFF DUP2 EQ ISZERO PUSH2 0x2FC9 JUMPI PUSH2 0x2FC9 PUSH2 0x2FD2 JUMP JUMPDEST PUSH1 0x1 ADD SWAP3 SWAP2 POP POP JUMP JUMPDEST PUSH4 0x4E487B71 PUSH1 0xE0 SHL PUSH1 0x0 MSTORE PUSH1 0x11 PUSH1 0x4 MSTORE PUSH1 0x24 PUSH1 0x0 REVERT JUMPDEST PUSH4 0x4E487B71 PUSH1 0xE0 SHL PUSH1 0x0 MSTORE PUSH1 0x41 PUSH1 0x4 MSTORE PUSH1 0x24 PUSH1 0x0 REVERT JUMPDEST PUSH1 0x0 DUP2 CALLDATALOAD PUSH2 0x9ED DUP2 PUSH2 0x3201 JUMP JUMPDEST PUSH1 0x0 DUP2 CALLDATALOAD PUSH2 0x9ED DUP2 PUSH2 0x3216 JUMP JUMPDEST DUP1 SLOAD PUSH1 0x1 PUSH1 0x1 PUSH1 0xA0 SHL SUB NOT AND PUSH1 0x1 PUSH1 0x1 PUSH1 0xA0 SHL SUB SWAP3 SWAP1 SWAP3 AND SWAP2 SWAP1 SWAP2 OR SWAP1 SSTORE JUMP JUMPDEST DUP2 CALLDATALOAD PUSH1 0x1E NOT DUP4 CALLDATASIZE SUB ADD DUP2 SLT PUSH2 0x304C JUMPI PUSH1 0x0 DUP1 REVERT JUMPDEST DUP3 ADD DUP1 CALLDATALOAD PUSH1 0x1 PUSH1 0x1 PUSH1 0x40 SHL SUB DUP2 GT ISZERO PUSH2 0x3064 JUMPI PUSH1 0x0 DUP1 REVERT JUMPDEST PUSH1 0x20 DUP3 ADD SWAP2 POP DUP1 CALLDATASIZE SUB DUP3 SGT ISZERO PUSH2 0x3079 JUMPI PUSH1 0x0 DUP1 REVERT JUMPDEST PUSH2 0x3084 DUP2 DUP4 DUP6 PUSH2 0x2E52 JUMP JUMPDEST POP POP PUSH1 0x1 DUP2 ADD PUSH2 0x309F PUSH2 0x3099 PUSH1 0x20 DUP6 ADD PUSH2 0x2FFE JUMP JUMPDEST DUP3 PUSH2 0x3018 JUMP JUMPDEST PUSH2 0x30B4 PUSH2 0x30AE PUSH1 0x40 DUP6 ADD PUSH2 0x300B JUMP JUMPDEST DUP3 PUSH2 0x3189 JUMP JUMPDEST POP PUSH1 0x2 DUP2 ADD PUSH2 0x30CE PUSH2 0x30C8 PUSH1 0x60 DUP6 ADD PUSH2 0x300B JUMP JUMPDEST DUP3 PUSH2 0x3141 JUMP JUMPDEST PUSH2 0x30E3 PUSH2 0x30DD PUSH1 0x80 DUP6 ADD PUSH2 0x300B JUMP JUMPDEST DUP3 PUSH2 0x31D7 JUMP JUMPDEST PUSH2 0x30F8 PUSH2 0x30F2 PUSH1 0xA0 DUP6 ADD PUSH2 0x300B JUMP JUMPDEST DUP3 PUSH2 0x315E JUMP JUMPDEST PUSH2 0x310D PUSH2 0x3107 PUSH1 0xC0 DUP6 ADD PUSH2 0x300B JUMP JUMPDEST DUP3 PUSH2 0x31B4 JUMP JUMPDEST POP PUSH1 0x3 DUP2 ADD PUSH2 0x3121 PUSH2 0x30C8 PUSH1 0xE0 DUP6 ADD PUSH2 0x300B JUMP JUMPDEST PUSH2 0x3131 PUSH2 0x30DD PUSH2 0x100 DUP6 ADD PUSH2 0x300B JUMP JUMPDEST PUSH2 0x213A PUSH2 0x30F2 PUSH2 0x120 DUP6 ADD PUSH2 0x300B JUMP JUMPDEST PUSH1 0x1 PUSH1 0x1 PUSH1 0x40 SHL SUB DUP3 AND PUSH1 0x1 PUSH1 0x1 PUSH1 0x40 SHL SUB NOT DUP3 SLOAD AND OR DUP2 SSTORE POP POP JUMP JUMPDEST DUP1 SLOAD PUSH8 0xFFFFFFFFFFFFFFFF PUSH1 0x80 SHL NOT AND PUSH1 0x80 SWAP3 SWAP1 SWAP3 SHL PUSH8 0xFFFFFFFFFFFFFFFF PUSH1 0x80 SHL AND SWAP2 SWAP1 SWAP2 OR SWAP1 SSTORE JUMP JUMPDEST DUP1 SLOAD PUSH8 0xFFFFFFFFFFFFFFFF PUSH1 0xA0 SHL NOT AND PUSH1 0xA0 SWAP3 SWAP1 SWAP3 SHL PUSH8 0xFFFFFFFFFFFFFFFF PUSH1 0xA0 SHL AND SWAP2 SWAP1 SWAP2 OR SWAP1 SSTORE JUMP JUMPDEST DUP1 SLOAD PUSH1 0x1 PUSH1 0x1 PUSH1 0xC0 SHL SUB AND PUSH1 0xC0 SWAP3 SWAP1 SWAP3 SHL PUSH1 0x1 PUSH1 0x1 PUSH1 0xC0 SHL SUB NOT AND SWAP2 SWAP1 SWAP2 OR SWAP1 SSTORE JUMP JUMPDEST DUP1 SLOAD PUSH8 0xFFFFFFFFFFFFFFFF PUSH1 0x40 SHL DUP4 PUSH1 0x40 SHL AND PUSH8 0xFFFFFFFFFFFFFFFF PUSH1 0x40 SHL NOT DUP3 AND OR DUP3 SSTORE POP POP POP JUMP JUMPDEST PUSH1 0x1 PUSH1 0x1 PUSH1 0xA0 SHL SUB DUP2 AND DUP2 EQ PUSH2 0x2290 JUMPI PUSH1 0x0 DUP1 REVERT JUMPDEST PUSH1 0x1 PUSH1 0x1 PUSH1 0x40 SHL SUB DUP2 AND DUP2 EQ PUSH2 0x2290 JUMPI PUSH1 0x0 DUP1 REVERT INVALID LOG2 PUSH5 0x6970667358 0x22 SLT KECCAK256 0xA6 PUSH27 0x1A443E20843696F7C2DC477CC730BF57BEDDF910AEFB02B0B6AE80 SIGNEXTEND 0xB1 MSTORE8 PUSH5 0x736F6C6343 STOP ADDMOD STOP STOP CALLER "
		},
		"gasEstimates": {
			"creation": {
				"codeDepositCost": "2579400",
				"executionCost": "23628",
				"totalCost": "2603028"
			},
			"external": {
				"addChainID(uint256)": "infinite",
				"addTokenID(string)": "infinite",
				"getAllChainIDs()": "infinite",
				"getAllMultichainTokens(string)": "infinite",
				"getAllTokenIDs()": "infinite",
				"getChainConfig(uint256)": "infinite",
				"getCustomConfig(uint256,string)": "infinite",
				"getMPCPubkey(address)": "infinite",
				"getMultichainToken(string,uint256)": "infinite",
				"getTokenConfig(string,uint256)": "infinite",
				"getTokenID(uint256,address)": "infinite",
				"getUserTokenConfig(string,uint256)": "infinite",
				"isChainIDExist(uint256)": "infinite",
				"isTokenIDExist(string)": "infinite",
				"owner()": "1181",
				"pickUserTokenConfig(string,uint256)": "infinite",
				"removeAllMultichainTokens(string)": "infinite",
				"removeChainID(uint256)": "infinite",
				"removeMultichainToken(string,uint256)": "infinite",
				"removeTokenID(string)": "infinite",
				"setChainConfig(uint256,(string,address,uint64,uint64,uint64,uint64,uint64,uint64,uint64,uint64))": "infinite",
				"setCustomConfig(uint256,string,string)": "infinite",
				"setMPCPubkey(address,string)": "infinite",
				"setMultichainToken(string,uint256,address)": "infinite",
				"setTokenConfig(string,uint256,(uint8,address,uint256,uint256,uint256,uint256,uint256,uint256,uint256))": "infinite",
				"setUserTokenConfig(string,uint256,(uint8,address,uint256,uint256,uint256,uint256,uint256,uint256,uint256))": "infinite",
				"transferOwnership(address)": "23640",
				"updateConfig()": "1819"
			},
			"internal": {
				"_isTokenIDExist(bytes32)": "infinite",
				"_setMultichainToken(bytes32,uint256,address)": "infinite",
				"_setTokenConfig(bytes32,uint256,struct IConfigQuery.TokenConfig memory,bool)": "infinite",
				"bytes32ToString(bytes32)": "infinite",
				"stringToBytes32(string memory)": "infinite"
			}
		},
		"methodIdentifiers": {
			"addChainID(uint256)": "20c29bca",
			"addTokenID(string)": "e3e01664",
			"getAllChainIDs()": "e27112d5",
			"getAllMultichainTokens(string)": "8fcb62a3",
			"getAllTokenIDs()": "684a10b3",
			"getChainConfig(uint256)": "19ed16dc",
			"getCustomConfig(uint256,string)": "61387d61",
			"getMPCPubkey(address)": "58bb97fb",
			"getMultichainToken(string,uint256)": "b735ab5a",
			"getTokenConfig(string,uint256)": "459511d1",
			"getTokenID(uint256,address)": "c4fb2e4b",
			"getUserTokenConfig(string,uint256)": "2879196f",
			"isChainIDExist(uint256)": "fd15ea70",
			"isTokenIDExist(string)": "af611ca0",
			"owner()": "8da5cb5b",
			"pickUserTokenConfig(string,uint256)": "bc772a28",
			"removeAllMultichainTokens(string)": "83f5d5d4",
			"removeChainID(uint256)": "e90768c6",
			"removeMultichainToken(string,uint256)": "9026b205",
			"removeTokenID(string)": "5d58d0a1",
			"setChainConfig(uint256,(string,address,uint64,uint64,uint64,uint64,uint64,uint64,uint64,uint64))": "defb3a0d",
			"setCustomConfig(uint256,string,string)": "e671242a",
			"setMPCPubkey(address,string)": "5b751858",
			"setMultichainToken(string,uint256,address)": "c5e7601a",
			"setTokenConfig(string,uint256,(uint8,address,uint256,uint256,uint256,uint256,uint256,uint256,uint256))": "69bda9eb",
			"setUserTokenConfig(string,uint256,(uint8,address,uint256,uint256,uint256,uint256,uint256,uint256,uint256))": "640d5f0f",
			"transferOwnership(address)": "f2fde38b",
			"updateConfig()": "747fd44c"
		}
	},
	"abi": [
		{
			"inputs": [],
			"stateMutability": "nonpayable",
			"type": "constructor"
		},
		{
			"anonymous": false,
			"inputs": [
				{
					"indexed": true,
					"internalType": "address",
					"name": "previousOwner",
					"type": "address"
				},
				{
					"indexed": true,
					"internalType": "address",
					"name": "newOwner",
					"type": "address"
				}
			],
			"name": "OwnershipTransferred",
			"type": "event"
		},
		{
			"anonymous": false,
			"inputs": [],
			"name": "UpdateConfig",
			"type": "event"
		},
		{
			"inputs": [
				{
					"internalType": "uint256",
					"name": "chainID",
					"type": "uint256"
				}
			],
			"name": "addChainID",
			"outputs": [
				{
					"internalType": "bool",
					"name": "",
					"type": "bool"
				}
			],
			"stateMutability": "nonpayable",
			"type": "function"
		},
		{
			"inputs": [
				{
					"internalType": "string",
					"name": "tokenID",
					"type": "string"
				}
			],
			"name": "addTokenID",
			"outputs": [
				{
					"internalType": "bool",
					"name": "",
					"type": "bool"
				}
			],
			"stateMutability": "nonpayable",
			"type": "function"
		},
		{
			"inputs": [],
			"name": "getAllChainIDs",
			"outputs": [
				{
					"internalType": "uint256[]",
					"name": "",
					"type": "uint256[]"
				}
			],
			"stateMutability": "view",
			"type": "function"
		},
		{
			"inputs": [
				{
					"internalType": "string",
					"name": "tokenID",
					"type": "string"
				}
			],
			"name": "getAllMultichainTokens",
			"outputs": [
				{
					"components": [
						{
							"internalType": "uint256",
							"name": "ChainID",
							"type": "uint256"
						},
						{
							"internalType": "address",
							"name": "TokenAddress",
							"type": "address"
						}
					],
					"internalType": "struct IConfigQuery.MultichainToken[]",
					"name": "",
					"type": "tuple[]"
				}
			],
			"stateMutability": "view",
			"type": "function"
		},
		{
			"inputs": [],
			"name": "getAllTokenIDs",
			"outputs": [
				{
					"internalType": "string[]",
					"name": "result",
					"type": "string[]"
				}
			],
			"stateMutability": "view",
			"type": "function"
		},
		{
			"inputs": [
				{
					"internalType": "uint256",
					"name": "chainID",
					"type": "uint256"
				}
			],
			"name": "getChainConfig",
			"outputs": [
				{
					"components": [
						{
							"internalType": "string",
							"name": "BlockChain",
							"type": "string"
						},
						{
							"internalType": "address",
							"name": "RouterContract",
							"type": "address"
						},
						{
							"internalType": "uint64",
							"name": "Confirmations",
							"type": "uint64"
						},
						{
							"internalType": "uint64",
							"name": "InitialHeight",
							"type": "uint64"
						},
						{
							"internalType": "uint64",
							"name": "WaitTimeToReplace",
							"type": "uint64"
						},
						{
							"internalType": "uint64",
							"name": "MaxReplaceCount",
							"type": "uint64"
						},
						{
							"internalType": "uint64",
							"name": "SwapDeadlineOffset",
							"type": "uint64"
						},
						{
							"internalType": "uint64",
							"name": "PlusGasPricePercentage",
							"type": "uint64"
						},
						{
							"internalType": "uint64",
							"name": "MaxGasPriceFluctPercent",
							"type": "uint64"
						},
						{
							"internalType": "uint64",
							"name": "DefaultGasLimit",
							"type": "uint64"
						}
					],
					"internalType": "struct IConfigQuery.ChainConfig",
					"name": "",
					"type": "tuple"
				}
			],
			"stateMutability": "view",
			"type": "function"
		},
		{
			"inputs": [
				{
					"internalType": "uint256",
					"name": "chainID",
					"type": "uint256"
				},
				{
					"internalType": "string",
					"name": "key",
					"type": "string"
				}
			],
			"name": "getCustomConfig",
			"outputs": [
				{
					"internalType": "string",
					"name": "",
					"type": "string"
				}
			],
			"stateMutability": "view",
			"type": "function"
		},
		{
			"inputs": [
				{
					"internalType": "address",
					"name": "mpcAddress",
					"type": "address"
				}
			],
			"name": "getMPCPubkey",
			"outputs": [
				{
					"internalType": "string",
					"name": "",
					"type": "string"
				}
			],
			"stateMutability": "view",
			"type": "function"
		},
		{
			"inputs": [
				{
					"internalType": "string",
					"name": "tokenID",
					"type": "string"
				},
				{
					"internalType": "uint256",
					"name": "chainID",
					"type": "uint256"
				}
			],
			"name": "getMultichainToken",
			"outputs": [
				{
					"internalType": "address",
					"name": "",
					"type": "address"
				}
			],
			"stateMutability": "view",
			"type": "function"
		},
		{
			"inputs": [
				{
					"internalType": "string",
					"name": "tokenID",
					"type": "string"
				},
				{
					"internalType": "uint256",
					"name": "chainID",
					"type": "uint256"
				}
			],
			"name": "getTokenConfig",
			"outputs": [
				{
					"components": [
						{
							"internalType": "uint8",
							"name": "Decimals",
							"type": "uint8"
						},
						{
							"internalType": "address",
							"name": "ContractAddress",
							"type": "address"
						},
						{
							"internalType": "uint256",
							"name": "ContractVersion",
							"type": "uint256"
						},
						{
							"internalType": "uint256",
							"name": "MaximumSwap",
							"type": "uint256"
						},
						{
							"internalType": "uint256",
							"name": "MinimumSwap",
							"type": "uint256"
						},
						{
							"internalType": "uint256",
							"name": "BigValueThreshold",
							"type": "uint256"
						},
						{
							"internalType": "uint256",
							"name": "SwapFeeRatePerMillion",
							"type": "uint256"
						},
						{
							"internalType": "uint256",
							"name": "MaximumSwapFee",
							"type": "uint256"
						},
						{
							"internalType": "uint256",
							"name": "MinimumSwapFee",
							"type": "uint256"
						}
					],
					"internalType": "struct IConfigQuery.TokenConfig",
					"name": "",
					"type": "tuple"
				}
			],
			"stateMutability": "view",
			"type": "function"
		},
		{
			"inputs": [
				{
					"internalType": "uint256",
					"name": "chainID",
					"type": "uint256"
				},
				{
					"internalType": "address",
					"name": "tokenAddress",
					"type": "address"
				}
			],
			"name": "getTokenID",
			"outputs": [
				{
					"internalType": "string",
					"name": "",
					"type": "string"
				}
			],
			"stateMutability": "view",
			"type": "function"
		},
		{
			"inputs": [
				{
					"internalType": "string",
					"name": "tokenID",
					"type": "string"
				},
				{
					"internalType": "uint256",
					"name": "chainID",
					"type": "uint256"
				}
			],
			"name": "getUserTokenConfig",
			"outputs": [
				{
					"components": [
						{
							"internalType": "uint8",
							"name": "Decimals",
							"type": "uint8"
						},
						{
							"internalType": "address",
							"name": "ContractAddress",
							"type": "address"
						},
						{
							"internalType": "uint256",
							"name": "ContractVersion",
							"type": "uint256"
						},
						{
							"internalType": "uint256",
							"name": "MaximumSwap",
							"type": "uint256"
						},
						{
							"internalType": "uint256",
							"name": "MinimumSwap",
							"type": "uint256"
						},
						{
							"internalType": "uint256",
							"name": "BigValueThreshold",
							"type": "uint256"
						},
						{
							"internalType": "uint256",
							"name": "SwapFeeRatePerMillion",
							"type": "uint256"
						},
						{
							"internalType": "uint256",
							"name": "MaximumSwapFee",
							"type": "uint256"
						},
						{
							"internalType": "uint256",
							"name": "MinimumSwapFee",
							"type": "uint256"
						}
					],
					"internalType": "struct IConfigQuery.TokenConfig",
					"name": "",
					"type": "tuple"
				}
			],
			"stateMutability": "view",
			"type": "function"
		},
		{
			"inputs": [
				{
					"internalType": "uint256",
					"name": "chainID",
					"type": "uint256"
				}
			],
			"name": "isChainIDExist",
			"outputs": [
				{
					"internalType": "bool",
					"name": "",
					"type": "bool"
				}
			],
			"stateMutability": "view",
			"type": "function"
		},
		{
			"inputs": [
				{
					"internalType": "string",
					"name": "tokenID",
					"type": "string"
				}
			],
			"name": "isTokenIDExist",
			"outputs": [
				{
					"internalType": "bool",
					"name": "",
					"type": "bool"
				}
			],
			"stateMutability": "view",
			"type": "function"
		},
		{
			"inputs": [],
			"name": "owner",
			"outputs": [
				{
					"internalType": "address",
					"name": "",
					"type": "address"
				}
			],
			"stateMutability": "view",
			"type": "function"
		},
		{
			"inputs": [
				{
					"internalType": "string",
					"name": "tokenID",
					"type": "string"
				},
				{
					"internalType": "uint256",
					"name": "chainID",
					"type": "uint256"
				}
			],
			"name": "pickUserTokenConfig",
			"outputs": [
				{
					"internalType": "bool",
					"name": "",
					"type": "bool"
				}
			],
			"stateMutability": "nonpayable",
			"type": "function"
		},
		{
			"inputs": [
				{
					"internalType": "string",
					"name": "tokenID",
					"type": "string"
				}
			],
			"name": "removeAllMultichainTokens",
			"outputs": [],
			"stateMutability": "nonpayable",
			"type": "function"
		},
		{
			"inputs": [
				{
					"internalType": "uint256",
					"name": "chainID",
					"type": "uint256"
				}
			],
			"name": "removeChainID",
			"outputs": [
				{
					"internalType": "bool",
					"name": "",
					"type": "bool"
				}
			],
			"stateMutability": "nonpayable",
			"type": "function"
		},
		{
			"inputs": [
				{
					"internalType": "string",
					"name": "tokenID",
					"type": "string"
				},
				{
					"internalType": "uint256",
					"name": "chainID",
					"type": "uint256"
				}
			],
			"name": "removeMultichainToken",
			"outputs": [
				{
					"internalType": "bool",
					"name": "",
					"type": "bool"
				}
			],
			"stateMutability": "nonpayable",
			"type": "function"
		},
		{
			"inputs": [
				{
					"internalType": "string",
					"name": "tokenID",
					"type": "string"
				}
			],
			"name": "removeTokenID",
			"outputs": [
				{
					"internalType": "bool",
					"name": "",
					"type": "bool"
				}
			],
			"stateMutability": "nonpayable",
			"type": "function"
		},
		{
			"inputs": [
				{
					"internalType": "uint256",
					"name": "chainID",
					"type": "uint256"
				},
				{
					"components": [
						{
							"internalType": "string",
							"name": "BlockChain",
							"type": "string"
						},
						{
							"internalType": "address",
							"name": "RouterContract",
							"type": "address"
						},
						{
							"internalType": "uint64",
							"name": "Confirmations",
							"type": "uint64"
						},
						{
							"internalType": "uint64",
							"name": "InitialHeight",
							"type": "uint64"
						},
						{
							"internalType": "uint64",
							"name": "WaitTimeToReplace",
							"type": "uint64"
						},
						{
							"internalType": "uint64",
							"name": "MaxReplaceCount",
							"type": "uint64"
						},
						{
							"internalType": "uint64",
							"name": "SwapDeadlineOffset",
							"type": "uint64"
						},
						{
							"internalType": "uint64",
							"name": "PlusGasPricePercentage",
							"type": "uint64"
						},
						{
							"internalType": "uint64",
							"name": "MaxGasPriceFluctPercent",
							"type": "uint64"
						},
						{
							"internalType": "uint64",
							"name": "DefaultGasLimit",
							"type": "uint64"
						}
					],
					"internalType": "struct IConfigQuery.ChainConfig",
					"name": "config",
					"type": "tuple"
				}
			],
			"name": "setChainConfig",
			"outputs": [
				{
					"internalType": "bool",
					"name": "",
					"type": "bool"
				}
			],
			"stateMutability": "nonpayable",
			"type": "function"
		},
		{
			"inputs": [
				{
					"internalType": "uint256",
					"name": "chainID",
					"type": "uint256"
				},
				{
					"internalType": "string",
					"name": "key",
					"type": "string"
				},
				{
					"internalType": "string",
					"name": "data",
					"type": "string"
				}
			],
			"name": "setCustomConfig",
			"outputs": [
				{
					"internalType": "bool",
					"name": "",
					"type": "bool"
				}
			],
			"stateMutability": "nonpayable",
			"type": "function"
		},
		{
			"inputs": [
				{
					"internalType": "address",
					"name": "addr",
					"type": "address"
				},
				{
					"internalType": "string",
					"name": "pubkey",
					"type": "string"
				}
			],
			"name": "setMPCPubkey",
			"outputs": [
				{
					"internalType": "bool",
					"name": "",
					"type": "bool"
				}
			],
			"stateMutability": "nonpayable",
			"type": "function"
		},
		{
			"inputs": [
				{
					"internalType": "string",
					"name": "tokenID",
					"type": "string"
				},
				{
					"internalType": "uint256",
					"name": "chainID",
					"type": "uint256"
				},
				{
					"internalType": "address",
					"name": "token",
					"type": "address"
				}
			],
			"name": "setMultichainToken",
			"outputs": [],
			"stateMutability": "nonpayable",
			"type": "function"
		},
		{
			"inputs": [
				{
					"internalType": "string",
					"name": "tokenID",
					"type": "string"
				},
				{
					"internalType": "uint256",
					"name": "chainID",
					"type": "uint256"
				},
				{
					"components": [
						{
							"internalType": "uint8",
							"name": "Decimals",
							"type": "uint8"
						},
						{
							"internalType": "address",
							"name": "ContractAddress",
							"type": "address"
						},
						{
							"internalType": "uint256",
							"name": "ContractVersion",
							"type": "uint256"
						},
						{
							"internalType": "uint256",
							"name": "MaximumSwap",
							"type": "uint256"
						},
						{
							"internalType": "uint256",
							"name": "MinimumSwap",
							"type": "uint256"
						},
						{
							"internalType": "uint256",
							"name": "BigValueThreshold",
							"type": "uint256"
						},
						{
							"internalType": "uint256",
							"name": "SwapFeeRatePerMillion",
							"type": "uint256"
						},
						{
							"internalType": "uint256",
							"name": "MaximumSwapFee",
							"type": "uint256"
						},
						{
							"internalType": "uint256",
							"name": "MinimumSwapFee",
							"type": "uint256"
						}
					],
					"internalType": "struct IConfigQuery.TokenConfig",
					"name": "config",
					"type": "tuple"
				}
			],
			"name": "setTokenConfig",
			"outputs": [
				{
					"internalType": "bool",
					"name": "",
					"type": "bool"
				}
			],
			"stateMutability": "nonpayable",
			"type": "function"
		},
		{
			"inputs": [
				{
					"internalType": "string",
					"name": "tokenID",
					"type": "string"
				},
				{
					"internalType": "uint256",
					"name": "chainID",
					"type": "uint256"
				},
				{
					"components": [
						{
							"internalType": "uint8",
							"name": "Decimals",
							"type": "uint8"
						},
						{
							"internalType": "address",
							"name": "ContractAddress",
							"type": "address"
						},
						{
							"internalType": "uint256",
							"name": "ContractVersion",
							"type": "uint256"
						},
						{
							"internalType": "uint256",
							"name": "MaximumSwap",
							"type": "uint256"
						},
						{
							"internalType": "uint256",
							"name": "MinimumSwap",
							"type": "uint256"
						},
						{
							"internalType": "uint256",
							"name": "BigValueThreshold",
							"type": "uint256"
						},
						{
							"internalType": "uint256",
							"name": "SwapFeeRatePerMillion",
							"type": "uint256"
						},
						{
							"internalType": "uint256",
							"name": "MaximumSwapFee",
							"type": "uint256"
						},
						{
							"internalType": "uint256",
							"name": "MinimumSwapFee",
							"type": "uint256"
						}
					],
					"internalType": "struct IConfigQuery.TokenConfig",
					"name": "config",
					"type": "tuple"
				}
			],
			"name": "setUserTokenConfig",
			"outputs": [
				{
					"internalType": "bool",
					"name": "",
					"type": "bool"
				}
			],
			"stateMutability": "nonpayable",
			"type": "function"
		},
		{
			"inputs": [
				{
					"internalType": "address",
					"name": "newOwner",
					"type": "address"
				}
			],
			"name": "transferOwnership",
			"outputs": [],
			"stateMutability": "nonpayable",
			"type": "function"
		},
		{
			"inputs": [],
			"name": "updateConfig",
			"outputs": [],
			"stateMutability": "nonpayable",
			"type": "function"
		}
	]
}