{
	"data": {
		"bytecode": {
			"linkReferences": {},
			"object": "608060405234801561001057600080fd5b50600980546001600160a01b0319163317905561331c806100326000396000f3fe608060405234801561001057600080fd5b50600436106101c45760003560e01c80638fcb62a3116100f9578063defb3a0d11610097578063e671242a11610071578063e671242a14610457578063e90768c61461046a578063f2fde38b1461047d578063fd15ea7014610490576101c4565b8063defb3a0d1461041c578063e27112d51461042f578063e3e0166414610444576101c4565b8063b735ab5a116100d3578063b735ab5a146103d0578063bc772a28146103e3578063c4fb2e4b146103f6578063c5e7601a14610409576101c4565b80638fcb62a31461038a5780639026b205146103aa578063af611ca0146103bd576101c4565b806361387d611161016657806369bda9eb1161014057806369bda9eb1461032f578063747fd44c1461034257806383f5d5d41461034c5780638da5cb5b1461035f576101c4565b806361387d61146102f4578063640d5f0f14610307578063684a10b31461031a576101c4565b8063459511d1116101a2578063459511d11461029b57806358bb97fb146102ae5780635b751858146102ce5780635d58d0a1146102e1576101c4565b806319ed16dc146101c957806320c29bca146101f25780632879196f14610215575b600080fd5b6101dc6101d7366004612a1a565b6104a3565b6040516101e99190612cfb565b60405180910390f35b610205610200366004612a1a565b610636565b60405190151581526020016101e9565b610228610223366004612884565b6106eb565b6040516101e99190815160ff1681526020808301516001600160a01b03169082015260408083015190820152606080830151908201526080808301519082015260a0808301519082015260c0808301519082015260e0808301519082015261010091820151918101919091526101200190565b6102286102a9366004612884565b6107ce565b6102c16102bc3660046127d7565b610819565b6040516101e99190612c9e565b6102056102dc3660046127f3565b6108c5565b6102056102ef366004612845565b610965565b6102c1610302366004612a61565b610afb565b610205610315366004612929565b610bc0565b610322610edb565b6040516101e99190612ba2565b61020561033d366004612929565b610fbd565b61034a61104c565b005b61034a61035a366004612845565b6110a1565b600954610372906001600160a01b031681565b6040516001600160a01b0390911681526020016101e9565b61039d610398366004612845565b6111c4565b6040516101e99190612c02565b6102056103b8366004612884565b61128b565b6102056103cb366004612845565b6114d9565b6103726103de366004612884565b611522565b6102056103f1366004612884565b611614565b6102c1610404366004612a32565b61171b565b61034a6104173660046128cd565b61174a565b61020561042a366004612b07565b6117bd565b610437611988565b6040516101e99190612c5a565b610205610452366004612845565b6119e0565b610205610465366004612a91565b611ad2565b610205610478366004612a1a565b611b6b565b61034a61048b3660046127d7565b611cb8565b61020561049e366004612a1a565b611d3a565b6040805161014081018252606080825260006020830181905292820183905281018290526080810182905260a0810182905260c0810182905260e081018290526101008101829052610120810191909152600082815260036020526040908190208151610140810190925280548290829061051d90613032565b80601f016020809104026020016040519081016040528092919081815260200182805461054990613032565b80156105965780601f1061056b57610100808354040283529160200191610596565b820191906000526020600020905b81548152906001019060200180831161057957829003601f168201915b505050918352505060018201546001600160a01b03811660208301526001600160401b03600160a01b90910481166040830152600283015480821660608401526801000000000000000080820483166080850152600160801b808304841660a0860152600160c01b909204831660c085015260039094015480831660e085015293840482166101008401529092049091166101209091015290505b919050565b6009546000906001600160a01b0316331461066c5760405162461bcd60e51b815260040161066390612cd7565b60405180910390fd5b61067582611d3a565b156106b35760405162461bcd60e51b815260206004820152600e60248201526d18da185a5b88125108195e1a5cdd60921b6044820152606401610663565b5060008054600180820183559180527f290decd9548b62a8d60345a988386fc84ba6bc95484008f6362f93160ef3e563019190915590565b6106f36125c4565b6005600061073686868080601f016020809104026020016040519081016040528093929190818152602001838380828437600092019190915250611d9592505050565b8152602080820192909252604090810160009081208582528352819020815161012081018352815460ff811682526001600160a01b036101009182900416948201949094526001820154928101929092526002810154606083015260038101546080830152600481015460a0830152600581015460c0830152600681015460e0830152600701549181019190915290505b9392505050565b6107d66125c4565b6004600061073686868080601f016020809104026020016040519081016040528093929190818152602001838380828437600092019190915250611d9592505050565b6001600160a01b038116600090815260086020526040902080546060919061084090613032565b80601f016020809104026020016040519081016040528092919081815260200182805461086c90613032565b80156108b95780601f1061088e576101008083540402835291602001916108b9565b820191906000526020600020905b81548152906001019060200180831161089c57829003601f168201915b50505050509050919050565b6009546000906001600160a01b031633146108f25760405162461bcd60e51b815260040161066390612cd7565b6001600160a01b0384166109375760405162461bcd60e51b815260206004820152600c60248201526b7a65726f206164647265737360a01b6044820152606401610663565b6001600160a01b038416600090815260086020526040902061095a90848461261c565b506001949350505050565b6009546000906001600160a01b031633146109925760405162461bcd60e51b815260040161066390612cd7565b60006109d384848080601f016020809104026020016040519081016040528093929190818152602001838380828437600092019190915250611d9592505050565b905060005b600154811015610aee578160018281548110610a0457634e487b7160e01b600052603260045260246000fd5b90600052602060002001541415610ade575b6001805490610a26908390612e21565b1015610a9e576001610a388282612e21565b81548110610a5657634e487b7160e01b600052603260045260246000fd5b906000526020600020015460018281548110610a8257634e487b7160e01b600052603260045260246000fd5b600091825260209091200155610a978161306d565b9050610a16565b6001805480610abd57634e487b7160e01b600052603160045260246000fd5b60019003818190600052602060002001600090559055600192505050610af5565b610ae78161306d565b90506109d8565b5060009150505b92915050565b6060600660008581526020019081526020016000208383604051610b20929190612b92565b90815260200160405180910390208054610b3990613032565b80601f0160208091040260200160405190810160405280929190818152602001828054610b6590613032565b8015610bb25780601f10610b8757610100808354040283529160200191610bb2565b820191906000526020600020905b815481529060010190602001808311610b9557829003601f168201915b505050505090509392505050565b6000610bd13683900383018361298e565b60208101516001600160a01b0316610be857600080fd5b6000816060015111610c2f5760405162461bcd60e51b815260206004820152601060248201526f07a65726f204d6178696d756d537761760841b6044820152606401610663565b6000816080015111610c765760405162461bcd60e51b815260206004820152601060248201526f07a65726f204d696e696d756d537761760841b6044820152606401610663565b60008160a0015111610cc35760405162461bcd60e51b81526020600482015260166024820152751e995c9bc8109a59d5985b1d59551a1c995cda1bdb1960521b6044820152606401610663565b806080015181606001511015610d175760405162461bcd60e51b815260206004820152601960248201527804d6178696d756d53776170203c204d696e696d756d5377617603c1b6044820152606401610663565b8061010001518160e001511015610d705760405162461bcd60e51b815260206004820152601f60248201527f4d6178696d756d53776170466565203c204d696e696d756d53776170466565006044820152606401610663565b80610100015181608001511015610dc95760405162461bcd60e51b815260206004820152601c60248201527f4d696e696d756d53776170203c204d696e696d756d53776170466565000000006044820152606401610663565b620f42408160c0015110610e1f5760405162461bcd60e51b815260206004820181905260248201527f53776170466565526174655065724d696c6c696f6e203e3d20313030303030306044820152606401610663565b60008160c001511180610e355750610100810151155b610e785760405162461bcd60e51b815260206004820152601460248201527377726f6e67204d696e696d756d5377617046656560601b6044820152606401610663565b610ed1610eba87878080601f016020809104026020016040519081016040528093929190818152602001838380828437600092019190915250611d9592505050565b85610eca3687900387018761298e565b6001611d9c565b9695505050505050565b600154606090806001600160401b03811115610f0757634e487b7160e01b600052604160045260246000fd5b604051908082528060200260200182016040528015610f3a57816020015b6060815260200190600190039081610f255790505b50915060005b81811015610fb857610f7c60018281548110610f6c57634e487b7160e01b600052603260045260246000fd5b9060005260206000200154612231565b838281518110610f9c57634e487b7160e01b600052603260045260246000fd5b602002602001018190525080610fb19061306d565b9050610f40565b505090565b6009546000906001600160a01b03163314610fea5760405162461bcd60e51b815260040161066390612cd7565b61104361102c86868080601f016020809104026020016040519081016040528093929190818152602001838380828437600092019190915250611d9592505050565b8461103c3686900386018661298e565b6000611d9c565b95945050505050565b6009546001600160a01b031633146110765760405162461bcd60e51b815260040161066390612cd7565b6040517f22590461e7ba17e1fe7580cb0ea47f283d3b2248f04873dfbe926d08fe4c5ab990600090a1565b6009546001600160a01b031633146110cb5760405162461bcd60e51b815260040161066390612cd7565b600061110c83838080601f016020809104026020016040519081016040528093929190818152602001838380828437600092019190915250611d9592505050565b60008181526002602052604081209192505b81548110156111a657600082828154811061114957634e487b7160e01b600052603260045260246000fd5b60009182526020808320604080518082018252600290940290910180548085526001909101546001600160a01b039081169484019485529085526007835281852093511684529190528120555061119f8161306d565b905061111e565b5060008281526002602052604081206111be916126a0565b50505050565b60606002600061120985858080601f016020809104026020016040519081016040528093929190818152602001838380828437600092019190915250611d9592505050565b8152602001908152602001600020805480602002602001604051908101604052809291908181526020016000905b8282101561127f5760008481526020908190206040805180820190915260028502909101805482526001908101546001600160a01b0316828401529083529092019101611237565b50505050905092915050565b6009546000906001600160a01b031633146112b85760405162461bcd60e51b815260040161066390612cd7565b6000600260006112fd87878080601f016020809104026020016040519081016040528093929190818152602001838380828437600092019190915250611d9592505050565b8152602001908152602001600020905060005b81548110156114cd578382828154811061133a57634e487b7160e01b600052603260045260246000fd5b90600052602060002090600202016000015414156114bd5760008481526007602052604081208354829085908590811061138457634e487b7160e01b600052603260045260246000fd5b60009182526020808320600160029093020191909101546001600160a01b031683528201929092526040019020555b81546113c0826001612e21565b101561146857816113d2826001612e21565b815481106113f057634e487b7160e01b600052603260045260246000fd5b906000526020600020906002020182828154811061141e57634e487b7160e01b600052603260045260246000fd5b600091825260209091208254600290920201908155600191820154910180546001600160a01b0319166001600160a01b039092169190911790556114618161306d565b90506113b3565b8180548061148657634e487b7160e01b600052603160045260246000fd5b600082815260208120600260001990930192830201908155600190810180546001600160a01b0319169055915592506107c7915050565b6114c68161306d565b9050611310565b50600095945050505050565b60006107c761151d84848080601f016020809104026020016040519081016040528093929190818152602001838380828437600092019190915250611d9592505050565b61236f565b6000806002600061156887878080601f016020809104026020016040519081016040528093929190818152602001838380828437600092019190915250611d9592505050565b8152602001908152602001600020905060005b81548110156114cd57838282815481106115a557634e487b7160e01b600052603260045260246000fd5b9060005260206000209060020201600001541415611604578181815481106115dd57634e487b7160e01b600052603260045260246000fd5b60009182526020909120600160029092020101546001600160a01b031692506107c7915050565b61160d8161306d565b905061157b565b6009546000906001600160a01b031633146116415760405162461bcd60e51b815260040161066390612cd7565b600061168285858080601f016020809104026020016040519081016040528093929190818152602001838380828437600092019190915250611d9592505050565b60008181526005602081815260408084208885528252808420815161012081018352815460ff811682526001600160a01b036101009182900416948201949094526001820154928101929092526002810154606083015260038101546080830152600481015460a08301529283015460c0820152600683015460e082015260079092015490820152919250611043918391869190611d9c565b60008281526007602090815260408083206001600160a01b03851684529091529020546060906107c790612231565b6009546001600160a01b031633146117745760405162461bcd60e51b815260040161066390612cd7565b6111be6117b685858080601f016020809104026020016040519081016040528093929190818152602001838380828437600092019190915250611d9592505050565b83836123ca565b6009546000906001600160a01b031633146117ea5760405162461bcd60e51b815260040161066390612cd7565b6117f382612e52565b60208101516001600160a01b03166118445760405162461bcd60e51b81526020600482015260146024820152731e995c9bc81c9bdd5d195c8818dbdb9d1c9858dd60621b6044820152606401610663565b600081604001516001600160401b0316116118a15760405162461bcd60e51b815260206004820152601c60248201527f7a65726f20636f6e6669726d6174696f6e7320697320756e73616665000000006044820152606401610663565b805151158015906118b55750805151608010155b6119015760405162461bcd60e51b815260206004820152601760248201527f77726f6e6720426c6f636b436861696e206c656e6774680000000000000000006044820152606401610663565b600084116119215760405162461bcd60e51b815260040161066390612cb1565b6000848152600360205260409020839061193b82826130ee565b90505061194784611d3a565b61197e57600080546001810182559080527f290decd9548b62a8d60345a988386fc84ba6bc95484008f6362f93160ef3e563018490555b5060019392505050565b606060008054806020026020016040519081016040528092919081815260200182805480156119d657602002820191906000526020600020905b8154815260200190600101908083116119c2575b5050505050905090565b6009546000906001600160a01b03163314611a0d5760405162461bcd60e51b815260040161066390612cd7565b6000611a4e84848080601f016020809104026020016040519081016040528093929190818152602001838380828437600092019190915250611d9592505050565b9050611a598161236f565b15611a975760405162461bcd60e51b815260206004820152600e60248201526d1d1bdad95b88125108195e1a5cdd60921b6044820152606401610663565b60018054808201825560008290527fb10e2d527612073b26eecdfd717e6a320cf44b4afac2b0732d9fcbe2b7fa0cf601919091559392505050565b6009546000906001600160a01b03163314611aff5760405162461bcd60e51b815260040161066390612cd7565b60008611611b1f5760405162461bcd60e51b815260040161066390612cb1565b8282600660008981526020019081526020016000208787604051611b44929190612b92565b908152604051908190036020019020611b5e92909161261c565b5060019695505050505050565b6009546000906001600160a01b03163314611b985760405162461bcd60e51b815260040161066390612cd7565b60005b600054811015611caf578260008281548110611bc757634e487b7160e01b600052603260045260246000fd5b90600052602060002001541415611c9f575b600054611be7826001612e21565b1015611c60576000611bfa826001612e21565b81548110611c1857634e487b7160e01b600052603260045260246000fd5b906000526020600020015460008281548110611c4457634e487b7160e01b600052603260045260246000fd5b600091825260209091200155611c598161306d565b9050611bd9565b6000805480611c7f57634e487b7160e01b600052603160045260246000fd5b600190038181906000526020600020016000905590556001915050610631565b611ca88161306d565b9050611b9b565b50600092915050565b6009546001600160a01b03163314611ce25760405162461bcd60e51b815260040161066390612cd7565b6040516001600160a01b0382169033907f8be0079c531659141344cd1fd0a4f28419497f9722a3daafe3b4186f6b6457e090600090a3600980546001600160a01b0319166001600160a01b0392909216919091179055565b6000805b600054811015611caf578260008281548110611d6a57634e487b7160e01b600052603260045260246000fd5b90600052602060002001541415611d85576001915050610631565b611d8e8161306d565b9050611d3e565b6020015190565b602082015160009083906001600160a01b0316611db857600080fd5b6000816060015111611dff5760405162461bcd60e51b815260206004820152601060248201526f07a65726f204d6178696d756d537761760841b6044820152606401610663565b6000816080015111611e465760405162461bcd60e51b815260206004820152601060248201526f07a65726f204d696e696d756d537761760841b6044820152606401610663565b60008160a0015111611e935760405162461bcd60e51b81526020600482015260166024820152751e995c9bc8109a59d5985b1d59551a1c995cda1bdb1960521b6044820152606401610663565b806080015181606001511015611ee75760405162461bcd60e51b815260206004820152601960248201527804d6178696d756d53776170203c204d696e696d756d5377617603c1b6044820152606401610663565b8061010001518160e001511015611f405760405162461bcd60e51b815260206004820152601f60248201527f4d6178696d756d53776170466565203c204d696e696d756d53776170466565006044820152606401610663565b80610100015181608001511015611f995760405162461bcd60e51b815260206004820152601c60248201527f4d696e696d756d53776170203c204d696e696d756d53776170466565000000006044820152606401610663565b620f42408160c0015110611fef5760405162461bcd60e51b815260206004820181905260248201527f53776170466565526174655065724d696c6c696f6e203e3d20313030303030306044820152606401610663565b60008160c0015111806120055750610100810151155b6120485760405162461bcd60e51b815260206004820152601460248201527377726f6e67204d696e696d756d5377617046656560601b6044820152606401610663565b856120855760405162461bcd60e51b815260206004820152600d60248201526c195b5c1d1e481d1bdad95b9251609a1b6044820152606401610663565b600085116120a55760405162461bcd60e51b815260040161066390612cb1565b8215612142576000868152600560208181526040808420898552825292839020875181549289015160ff1990931660ff90911617610100600160a81b0319166101006001600160a01b039093168302178155928701516001840155606087015160028401556080870151600384015560a0870151600484015560c08701519183019190915560e08601516006830155850151600790910155612225565b6000868152600460208181526040808420898552825292839020875181549289015160ff1990931660ff90911617610100600160a81b0319166101006001600160a01b039093168302178155928701516001840155606087015160028401556080870151600384015560a08701519183019190915560c0860151600583015560e086015160068301558501516007909101556121dd8661236f565b612216576001805480820182556000919091527fb10e2d527612073b26eecdfd717e6a320cf44b4afac2b0732d9fcbe2b7fa0cf6018690555b612225868686602001516123ca565b50600195945050505050565b606060005b60208160ff161080156122785750828160ff166020811061226757634e487b7160e01b600052603260045260246000fd5b1a60f81b6001600160f81b03191615155b1561228d5761228681613088565b9050612236565b60008160ff166001600160401b038111156122b857634e487b7160e01b600052604160045260246000fd5b6040519080825280601f01601f1916602001820160405280156122e2576020820181803683370190505b50905060005b8260ff168160ff16101561236757848160ff166020811061231957634e487b7160e01b600052603260045260246000fd5b1a60f81b828260ff168151811061234057634e487b7160e01b600052603260045260246000fd5b60200101906001600160f81b031916908160001a90535061236081613088565b90506122e8565b509392505050565b6000805b600154811015611caf57826001828154811061239f57634e487b7160e01b600052603260045260246000fd5b906000526020600020015414156123ba576001915050610631565b6123c38161306d565b9050612373565b826124075760405162461bcd60e51b815260206004820152600d60248201526c195b5c1d1e481d1bdad95b9251609a1b6044820152606401610663565b600082116124275760405162461bcd60e51b815260040161066390612cb1565b6000838152600260205260408120905b8154811015612551578382828154811061246157634e487b7160e01b600052603260045260246000fd5b906000526020600020906002020160000154141561254157600082828154811061249b57634e487b7160e01b600052603260045260246000fd5b60009182526020909120600160029092020101546001600160a01b0390811691508416811461253957838383815481106124e557634e487b7160e01b600052603260045260246000fd5b6000918252602080832060029290920290910160010180546001600160a01b0319166001600160a01b0394851617905587825260078152604080832085851684529091528082208290559186168152208690555b5050506125bf565b61254a8161306d565b9050612437565b506040805180820182528481526001600160a01b0384811660208084018281528654600180820189556000988952838920965160029092029096019081559051940180546001600160a01b031916949093169390931790915585845260078252828420908452905290208390555b505050565b604051806101200160405280600060ff16815260200160006001600160a01b03168152602001600081526020016000815260200160008152602001600081526020016000815260200160008152602001600081525090565b82805461262890613032565b90600052602060002090601f01602090048101928261264a5760008555612690565b82601f106126635782800160ff19823516178555612690565b82800160010185558215612690579182015b82811115612690578235825591602001919060010190612675565b5061269c9291506126c4565b5090565b50805460008255600202906000526020600020908101906126c191906126d9565b50565b5b8082111561269c57600081556001016126c5565b5b8082111561269c57600081556001810180546001600160a01b03191690556002016126da565b8035610631816132bc565b60008083601f84011261271c578081fd5b5081356001600160401b03811115612732578182fd5b60208301915083602082850101111561274a57600080fd5b9250929050565b600082601f830112612761578081fd5b81356001600160401b0381111561277a5761277a6130be565b61278d601f8201601f1916602001612df1565b8181528460208386010111156127a1578283fd5b816020850160208301379081016020019190915292915050565b8035610631816132d1565b803560ff8116811461063157600080fd5b6000602082840312156127e8578081fd5b81356107c7816132bc565b600080600060408486031215612807578182fd5b8335612812816132bc565b925060208401356001600160401b0381111561282c578283fd5b6128388682870161270b565b9497909650939450505050565b60008060208385031215612857578182fd5b82356001600160401b0381111561286c578283fd5b6128788582860161270b565b90969095509350505050565b600080600060408486031215612898578283fd5b83356001600160401b038111156128ad578384fd5b6128b98682870161270b565b909790965060209590950135949350505050565b600080600080606085870312156128e2578081fd5b84356001600160401b038111156128f7578182fd5b6129038782880161270b565b90955093505060208501359150604085013561291e816132bc565b939692955090935050565b600080600080848603610160811215612940578485fd5b85356001600160401b03811115612955578586fd5b6129618882890161270b565b90965094505060208601359250610120603f1982011215612980578182fd5b509295919450926040019150565b60006101208083850312156129a1578182fd5b6129aa81612df1565b90506129b5836127c6565b81526129c360208401612700565b602082015260408301356040820152606083013560608201526080830135608082015260a083013560a082015260c083013560c082015260e083013560e08201526101008084013581830152508091505092915050565b600060208284031215612a2b578081fd5b5035919050565b60008060408385031215612a44578182fd5b823591506020830135612a56816132bc565b809150509250929050565b600080600060408486031215612a75578081fd5b8335925060208401356001600160401b0381111561282c578182fd5b600080600080600060608688031215612aa8578283fd5b8535945060208601356001600160401b0380821115612ac5578485fd5b612ad189838a0161270b565b90965094506040880135915080821115612ae9578283fd5b50612af68882890161270b565b969995985093965092949392505050565b60008060408385031215612b19578182fd5b8235915060208301356001600160401b03811115612b35578182fd5b83016101408186031215612a56578182fd5b60008151808452815b81811015612b6c57602081850181015186830182015201612b50565b81811115612b7d5782602083870101525b50601f01601f19169290920160200192915050565b6000828483379101908152919050565b6000602080830181845280855180835260408601915060408482028701019250838701855b82811015612bf557603f19888603018452612be3858351612b47565b94509285019290850190600101612bc7565b5092979650505050505050565b602080825282518282018190526000919060409081850190868401855b82811015612c4d578151805185528601516001600160a01b0316868501529284019290850190600101612c1f565b5091979650505050505050565b6020808252825182820181905260009190848201906040850190845b81811015612c9257835183529284019291840191600101612c76565b50909695505050505050565b6000602082526107c76020830184612b47565b6020808252600c908201526b1e995c9bc818da185a5b925160a21b604082015260600190565b6020808252600a908201526937b7363c9037bbb732b960b11b604082015260600190565b6000602082528251610140806020850152612d1a610160850183612b47565b91506020850151612d3660408601826001600160a01b03169052565b5060408501516001600160401b03811660608601525060608501516001600160401b03811660808601525060808501516001600160401b03811660a08601525060a08501516001600160401b03811660c08601525060c08501516001600160401b03811660e08601525060e0850151610100612dbc818701836001600160401b03169052565b8601519050610120612dd8868201836001600160401b03169052565b909501516001600160401b031693019290925250919050565b604051601f8201601f191681016001600160401b0381118282101715612e1957612e196130be565b604052919050565b60008219821115612e3457612e346130a8565b500190565b5b81811015612e4e5760008155600101612e3a565b5050565b6000610140808336031215612e65578182fd5b612e6e81612df1565b905082356001600160401b03811115612e85578283fd5b612e9136828601612751565b825250612ea060208401612700565b6020820152612eb1604084016127bb565b6040820152612ec2606084016127bb565b6060820152612ed3608084016127bb565b6080820152612ee460a084016127bb565b60a0820152612ef560c084016127bb565b60c0820152612f0660e084016127bb565b60e0820152610100612f198185016127bb565b90820152610120612f2b8482016127bb565b9082015292915050565b6001600160401b03831115612f4c57612f4c6130be565b612f568154613032565b600080601f8611601f841181811715612f755760008681526020902092505b8015612fa4576020601f89010483016020891015612f905750825b612fa26020601f880104850182612e39565b505b508060018114612fd657600094508715612fbf578387013594505b6002880260001960088a021c198616178655613028565b601f198816945082845b868110156130005788860135825560209586019560019092019101612fe0565b508886101561301d57878501356000196008601f8c16021c191681555b506001600289020186555b5050505050505050565b60028104600182168061304657607f821691505b6020821081141561306757634e487b7160e01b600052602260045260246000fd5b50919050565b6000600019821415613081576130816130a8565b5060010190565b600060ff821660ff81141561309f5761309f6130a8565b60010192915050565b634e487b7160e01b600052601160045260246000fd5b634e487b7160e01b600052604160045260246000fd5b60008135610af5816132bc565b60008135610af5816132d1565b8135601e1983360301811261310257600080fd5b820180356001600160401b0381111561311a57600080fd5b60208201915080360382131561312f57600080fd5b61313a818385612f35565b50506001810161316c61314f602085016130d4565b82546001600160a01b0319166001600160a01b0391909116178255565b6131a761317b604085016130e1565b82805467ffffffffffffffff60a01b191660a09290921b67ffffffffffffffff60a01b16919091179055565b50600281016131d96131bb606085016130e1565b825467ffffffffffffffff19166001600160401b0391909116178255565b61321a6131e8608085016130e1565b82546fffffffffffffffff0000000000000000191660409190911b6fffffffffffffffff000000000000000016178255565b61325561322960a085016130e1565b82805467ffffffffffffffff60801b191660809290921b67ffffffffffffffff60801b16919091179055565b61328861326460c085016130e1565b8280546001600160c01b031660c09290921b6001600160c01b031916919091179055565b506003810161329c6131bb60e085016130e1565b6132ac6131e861010085016130e1565b6125bf61322961012085016130e1565b6001600160a01b03811681146126c157600080fd5b6001600160401b03811681146126c157600080fdfea264697066735822122063335413d2fb6ff08d2d087707949affcd697537d43de368d6f7ec67723cf1eb64736f6c63430008020033",
			"opcodes": "PUSH1 0x80 PUSH1 0x40 MSTORE CALLVALUE DUP1 ISZERO PUSH2 0x10 JUMPI PUSH1 0x0 DUP1 REVERT JUMPDEST POP PUSH1 0x9 DUP1 SLOAD PUSH1 0x1 PUSH1 0x1 PUSH1 0xA0 SHL SUB NOT AND CALLER OR SWAP1 SSTORE PUSH2 0x331C DUP1 PUSH2 0x32 PUSH1 0x0 CODECOPY PUSH1 0x0 RETURN INVALID PUSH1 0x80 PUSH1 0x40 MSTORE CALLVALUE DUP1 ISZERO PUSH2 0x10 JUMPI PUSH1 0x0 DUP1 REVERT JUMPDEST POP PUSH1 0x4 CALLDATASIZE LT PUSH2 0x1C4 JUMPI PUSH1 0x0 CALLDATALOAD PUSH1 0xE0 SHR DUP1 PUSH4 0x8FCB62A3 GT PUSH2 0xF9 JUMPI DUP1 PUSH4 0xDEFB3A0D GT PUSH2 0x97 JUMPI DUP1 PUSH4 0xE671242A GT PUSH2 0x71 JUMPI DUP1 PUSH4 0xE671242A EQ PUSH2 0x457 JUMPI DUP1 PUSH4 0xE90768C6 EQ PUSH2 0x46A JUMPI DUP1 PUSH4 0xF2FDE38B EQ PUSH2 0x47D JUMPI DUP1 PUSH4 0xFD15EA70 EQ PUSH2 0x490 JUMPI PUSH2 0x1C4 JUMP JUMPDEST DUP1 PUSH4 0xDEFB3A0D EQ PUSH2 0x41C JUMPI DUP1 PUSH4 0xE27112D5 EQ PUSH2 0x42F JUMPI DUP1 PUSH4 0xE3E01664 EQ PUSH2 0x444 JUMPI PUSH2 0x1C4 JUMP JUMPDEST DUP1 PUSH4 0xB735AB5A GT PUSH2 0xD3 JUMPI DUP1 PUSH4 0xB735AB5A EQ PUSH2 0x3D0 JUMPI DUP1 PUSH4 0xBC772A28 EQ PUSH2 0x3E3 JUMPI DUP1 PUSH4 0xC4FB2E4B EQ PUSH2 0x3F6 JUMPI DUP1 PUSH4 0xC5E7601A EQ PUSH2 0x409 JUMPI PUSH2 0x1C4 JUMP JUMPDEST DUP1 PUSH4 0x8FCB62A3 EQ PUSH2 0x38A JUMPI DUP1 PUSH4 0x9026B205 EQ PUSH2 0x3AA JUMPI DUP1 PUSH4 0xAF611CA0 EQ PUSH2 0x3BD JUMPI PUSH2 0x1C4 JUMP JUMPDEST DUP1 PUSH4 0x61387D61 GT PUSH2 0x166 JUMPI DUP1 PUSH4 0x69BDA9EB GT PUSH2 0x140 JUMPI DUP1 PUSH4 0x69BDA9EB EQ PUSH2 0x32F JUMPI DUP1 PUSH4 0x747FD44C EQ PUSH2 0x342 JUMPI DUP1 PUSH4 0x83F5D5D4 EQ PUSH2 0x34C JUMPI DUP1 PUSH4 0x8DA5CB5B EQ PUSH2 0x35F JUMPI PUSH2 0x1C4 JUMP JUMPDEST DUP1 PUSH4 0x61387D61 EQ PUSH2 0x2F4 JUMPI DUP1 PUSH4 0x640D5F0F EQ PUSH2 0x307 JUMPI DUP1 PUSH4 0x684A10B3 EQ PUSH2 0x31A JUMPI PUSH2 0x1C4 JUMP JUMPDEST DUP1 PUSH4 0x459511D1 GT PUSH2 0x1A2 JUMPI DUP1 PUSH4 0x459511D1 EQ PUSH2 0x29B JUMPI DUP1 PUSH4 0x58BB97FB EQ PUSH2 0x2AE JUMPI DUP1 PUSH4 0x5B751858 EQ PUSH2 0x2CE JUMPI DUP1 PUSH4 0x5D58D0A1 EQ PUSH2 0x2E1 JUMPI PUSH2 0x1C4 JUMP JUMPDEST DUP1 PUSH4 0x19ED16DC EQ PUSH2 0x1C9 JUMPI DUP1 PUSH4 0x20C29BCA EQ PUSH2 0x1F2 JUMPI DUP1 PUSH4 0x2879196F EQ PUSH2 0x215 JUMPI JUMPDEST PUSH1 0x0 DUP1 REVERT JUMPDEST PUSH2 0x1DC PUSH2 0x1D7 CALLDATASIZE PUSH1 0x4 PUSH2 0x2A1A JUMP JUMPDEST PUSH2 0x4A3 JUMP JUMPDEST PUSH1 0x40 MLOAD PUSH2 0x1E9 SWAP2 SWAP1 PUSH2 0x2CFB JUMP JUMPDEST PUSH1 0x40 MLOAD DUP1 SWAP2 SUB SWAP1 RETURN JUMPDEST PUSH2 0x205 PUSH2 0x200 CALLDATASIZE PUSH1 0x4 PUSH2 0x2A1A JUMP JUMPDEST PUSH2 0x636 JUMP JUMPDEST PUSH1 0x40 MLOAD SWAP1 ISZERO ISZERO DUP2 MSTORE PUSH1 0x20 ADD PUSH2 0x1E9 JUMP JUMPDEST PUSH2 0x228 PUSH2 0x223 CALLDATASIZE PUSH1 0x4 PUSH2 0x2884 JUMP JUMPDEST PUSH2 0x6EB JUMP JUMPDEST PUSH1 0x40 MLOAD PUSH2 0x1E9 SWAP2 SWAP1 DUP2 MLOAD PUSH1 0xFF AND DUP2 MSTORE PUSH1 0x20 DUP1 DUP4 ADD MLOAD PUSH1 0x1 PUSH1 0x1 PUSH1 0xA0 SHL SUB AND SWAP1 DUP3 ADD MSTORE PUSH1 0x40 DUP1 DUP4 ADD MLOAD SWAP1 DUP3 ADD MSTORE PUSH1 0x60 DUP1 DUP4 ADD MLOAD SWAP1 DUP3 ADD MSTORE PUSH1 0x80 DUP1 DUP4 ADD MLOAD SWAP1 DUP3 ADD MSTORE PUSH1 0xA0 DUP1 DUP4 ADD MLOAD SWAP1 DUP3 ADD MSTORE PUSH1 0xC0 DUP1 DUP4 ADD MLOAD SWAP1 DUP3 ADD MSTORE PUSH1 0xE0 DUP1 DUP4 ADD MLOAD SWAP1 DUP3 ADD MSTORE PUSH2 0x100 SWAP2 DUP3 ADD MLOAD SWAP2 DUP2 ADD SWAP2 SWAP1 SWAP2 MSTORE PUSH2 0x120 ADD SWAP1 JUMP JUMPDEST PUSH2 0x228 PUSH2 0x2A9 CALLDATASIZE PUSH1 0x4 PUSH2 0x2884 JUMP JUMPDEST PUSH2 0x7CE JUMP JUMPDEST PUSH2 0x2C1 PUSH2 0x2BC CALLDATASIZE PUSH1 0x4 PUSH2 0x27D7 JUMP JUMPDEST PUSH2 0x819 JUMP JUMPDEST PUSH1 0x40 MLOAD PUSH2 0x1E9 SWAP2 SWAP1 PUSH2 0x2C9E JUMP JUMPDEST PUSH2 0x205 PUSH2 0x2DC CALLDATASIZE PUSH1 0x4 PUSH2 0x27F3 JUMP JUMPDEST PUSH2 0x8C5 JUMP JUMPDEST PUSH2 0x205 PUSH2 0x2EF CALLDATASIZE PUSH1 0x4 PUSH2 0x2845 JUMP JUMPDEST PUSH2 0x965 JUMP JUMPDEST PUSH2 0x2C1 PUSH2 0x302 CALLDATASIZE PUSH1 0x4 PUSH2 0x2A61 JUMP JUMPDEST PUSH2 0xAFB JUMP JUMPDEST PUSH2 0x205 PUSH2 0x315 CALLDATASIZE PUSH1 0x4 PUSH2 0x2929 JUMP JUMPDEST PUSH2 0xBC0 JUMP JUMPDEST PUSH2 0x322 PUSH2 0xEDB JUMP JUMPDEST PUSH1 0x40 MLOAD PUSH2 0x1E9 SWAP2 SWAP1 PUSH2 0x2BA2 JUMP JUMPDEST PUSH2 0x205 PUSH2 0x33D CALLDATASIZE PUSH1 0x4 PUSH2 0x2929 JUMP JUMPDEST PUSH2 0xFBD JUMP JUMPDEST PUSH2 0x34A PUSH2 0x104C JUMP JUMPDEST STOP JUMPDEST PUSH2 0x34A PUSH2 0x35A CALLDATASIZE PUSH1 0x4 PUSH2 0x2845 JUMP JUMPDEST PUSH2 0x10A1 JUMP JUMPDEST PUSH1 0x9 SLOAD PUSH2 0x372 SWAP1 PUSH1 0x1 PUSH1 0x1 PUSH1 0xA0 SHL SUB AND DUP2 JUMP JUMPDEST PUSH1 0x40 MLOAD PUSH1 0x1 PUSH1 0x1 PUSH1 0xA0 SHL SUB SWAP1 SWAP2 AND DUP2 MSTORE PUSH1 0x20 ADD PUSH2 0x1E9 JUMP JUMPDEST PUSH2 0x39D PUSH2 0x398 CALLDATASIZE PUSH1 0x4 PUSH2 0x2845 JUMP JUMPDEST PUSH2 0x11C4 JUMP JUMPDEST PUSH1 0x40 MLOAD PUSH2 0x1E9 SWAP2 SWAP1 PUSH2 0x2C02 JUMP JUMPDEST PUSH2 0x205 PUSH2 0x3B8 CALLDATASIZE PUSH1 0x4 PUSH2 0x2884 JUMP JUMPDEST PUSH2 0x128B JUMP JUMPDEST PUSH2 0x205 PUSH2 0x3CB CALLDATASIZE PUSH1 0x4 PUSH2 0x2845 JUMP JUMPDEST PUSH2 0x14D9 JUMP JUMPDEST PUSH2 0x372 PUSH2 0x3DE CALLDATASIZE PUSH1 0x4 PUSH2 0x2884 JUMP JUMPDEST PUSH2 0x1522 JUMP JUMPDEST PUSH2 0x205 PUSH2 0x3F1 CALLDATASIZE PUSH1 0x4 PUSH2 0x2884 JUMP JUMPDEST PUSH2 0x1614 JUMP JUMPDEST PUSH2 0x2C1 PUSH2 0x404 CALLDATASIZE PUSH1 0x4 PUSH2 0x2A32 JUMP JUMPDEST PUSH2 0x171B JUMP JUMPDEST PUSH2 0x34A PUSH2 0x417 CALLDATASIZE PUSH1 0x4 PUSH2 0x28CD JUMP JUMPDEST PUSH2 0x174A JUMP JUMPDEST PUSH2 0x205 PUSH2 0x42A CALLDATASIZE PUSH1 0x4 PUSH2 0x2B07 JUMP JUMPDEST PUSH2 0x17BD JUMP JUMPDEST PUSH2 0x437 PUSH2 0x1988 JUMP JUMPDEST PUSH1 0x40 MLOAD PUSH2 0x1E9 SWAP2 SWAP1 PUSH2 0x2C5A JUMP JUMPDEST PUSH2 0x205 PUSH2 0x452 CALLDATASIZE PUSH1 0x4 PUSH2 0x2845 JUMP JUMPDEST PUSH2 0x19E0 JUMP JUMPDEST PUSH2 0x205 PUSH2 0x465 CALLDATASIZE PUSH1 0x4 PUSH2 0x2A91 JUMP JUMPDEST PUSH2 0x1AD2 JUMP JUMPDEST PUSH2 0x205 PUSH2 0x478 CALLDATASIZE PUSH1 0x4 PUSH2 0x2A1A JUMP JUMPDEST PUSH2 0x1B6B JUMP JUMPDEST PUSH2 0x34A PUSH2 0x48B CALLDATASIZE PUSH1 0x4 PUSH2 0x27D7 JUMP JUMPDEST PUSH2 0x1CB8 JUMP JUMPDEST PUSH2 0x205 PUSH2 0x49E CALLDATASIZE PUSH1 0x4 PUSH2 0x2A1A JUMP JUMPDEST PUSH2 0x1D3A JUMP JUMPDEST PUSH1 0x40 DUP1 MLOAD PUSH2 0x140 DUP2 ADD DUP3 MSTORE PUSH1 0x60 DUP1 DUP3 MSTORE PUSH1 0x0 PUSH1 0x20 DUP4 ADD DUP2 SWAP1 MSTORE SWAP3 DUP3 ADD DUP4 SWAP1 MSTORE DUP2 ADD DUP3 SWAP1 MSTORE PUSH1 0x80 DUP2 ADD DUP3 SWAP1 MSTORE PUSH1 0xA0 DUP2 ADD DUP3 SWAP1 MSTORE PUSH1 0xC0 DUP2 ADD DUP3 SWAP1 MSTORE PUSH1 0xE0 DUP2 ADD DUP3 SWAP1 MSTORE PUSH2 0x100 DUP2 ADD DUP3 SWAP1 MSTORE PUSH2 0x120 DUP2 ADD SWAP2 SWAP1 SWAP2 MSTORE PUSH1 0x0 DUP3 DUP2 MSTORE PUSH1 0x3 PUSH1 0x20 MSTORE PUSH1 0x40 SWAP1 DUP2 SWAP1 KECCAK256 DUP2 MLOAD PUSH2 0x140 DUP2 ADD SWAP1 SWAP3 MSTORE DUP1 SLOAD DUP3 SWAP1 DUP3 SWAP1 PUSH2 0x51D SWAP1 PUSH2 0x3032 JUMP JUMPDEST DUP1 PUSH1 0x1F ADD PUSH1 0x20 DUP1 SWAP2 DIV MUL PUSH1 0x20 ADD PUSH1 0x40 MLOAD SWAP1 DUP2 ADD PUSH1 0x40 MSTORE DUP1 SWAP3 SWAP2 SWAP1 DUP2 DUP2 MSTORE PUSH1 0x20 ADD DUP3 DUP1 SLOAD PUSH2 0x549 SWAP1 PUSH2 0x3032 JUMP JUMPDEST DUP1 ISZERO PUSH2 0x596 JUMPI DUP1 PUSH1 0x1F LT PUSH2 0x56B JUMPI PUSH2 0x100 DUP1 DUP4 SLOAD DIV MUL DUP4 MSTORE SWAP2 PUSH1 0x20 ADD SWAP2 PUSH2 0x596 JUMP JUMPDEST DUP3 ADD SWAP2 SWAP1 PUSH1 0x0 MSTORE PUSH1 0x20 PUSH1 0x0 KECCAK256 SWAP1 JUMPDEST DUP2 SLOAD DUP2 MSTORE SWAP1 PUSH1 0x1 ADD SWAP1 PUSH1 0x20 ADD DUP1 DUP4 GT PUSH2 0x579 JUMPI DUP3 SWAP1 SUB PUSH1 0x1F AND DUP3 ADD SWAP2 JUMPDEST POP POP POP SWAP2 DUP4 MSTORE POP POP PUSH1 0x1 DUP3 ADD SLOAD PUSH1 0x1 PUSH1 0x1 PUSH1 0xA0 SHL SUB DUP2 AND PUSH1 0x20 DUP4 ADD MSTORE PUSH1 0x1 PUSH1 0x1 PUSH1 0x40 SHL SUB PUSH1 0x1 PUSH1 0xA0 SHL SWAP1 SWAP2 DIV DUP2 AND PUSH1 0x40 DUP4 ADD MSTORE PUSH1 0x2 DUP4 ADD SLOAD DUP1 DUP3 AND PUSH1 0x60 DUP5 ADD MSTORE PUSH9 0x10000000000000000 DUP1 DUP3 DIV DUP4 AND PUSH1 0x80 DUP6 ADD MSTORE PUSH1 0x1 PUSH1 0x80 SHL DUP1 DUP4 DIV DUP5 AND PUSH1 0xA0 DUP7 ADD MSTORE PUSH1 0x1 PUSH1 0xC0 SHL SWAP1 SWAP3 DIV DUP4 AND PUSH1 0xC0 DUP6 ADD MSTORE PUSH1 0x3 SWAP1 SWAP5 ADD SLOAD DUP1 DUP4 AND PUSH1 0xE0 DUP6 ADD MSTORE SWAP4 DUP5 DIV DUP3 AND PUSH2 0x100 DUP5 ADD MSTORE SWAP1 SWAP3 DIV SWAP1 SWAP2 AND PUSH2 0x120 SWAP1 SWAP2 ADD MSTORE SWAP1 POP JUMPDEST SWAP2 SWAP1 POP JUMP JUMPDEST PUSH1 0x9 SLOAD PUSH1 0x0 SWAP1 PUSH1 0x1 PUSH1 0x1 PUSH1 0xA0 SHL SUB AND CALLER EQ PUSH2 0x66C JUMPI PUSH1 0x40 MLOAD PUSH3 0x461BCD PUSH1 0xE5 SHL DUP2 MSTORE PUSH1 0x4 ADD PUSH2 0x663 SWAP1 PUSH2 0x2CD7 JUMP JUMPDEST PUSH1 0x40 MLOAD DUP1 SWAP2 SUB SWAP1 REVERT JUMPDEST PUSH2 0x675 DUP3 PUSH2 0x1D3A JUMP JUMPDEST ISZERO PUSH2 0x6B3 JUMPI PUSH1 0x40 MLOAD PUSH3 0x461BCD PUSH1 0xE5 SHL DUP2 MSTORE PUSH1 0x20 PUSH1 0x4 DUP3 ADD MSTORE PUSH1 0xE PUSH1 0x24 DUP3 ADD MSTORE PUSH14 0x18DA185A5B88125108195E1A5CDD PUSH1 0x92 SHL PUSH1 0x44 DUP3 ADD MSTORE PUSH1 0x64 ADD PUSH2 0x663 JUMP JUMPDEST POP PUSH1 0x0 DUP1 SLOAD PUSH1 0x1 DUP1 DUP3 ADD DUP4 SSTORE SWAP2 DUP1 MSTORE PUSH32 0x290DECD9548B62A8D60345A988386FC84BA6BC95484008F6362F93160EF3E563 ADD SWAP2 SWAP1 SWAP2 SSTORE SWAP1 JUMP JUMPDEST PUSH2 0x6F3 PUSH2 0x25C4 JUMP JUMPDEST PUSH1 0x5 PUSH1 0x0 PUSH2 0x736 DUP7 DUP7 DUP1 DUP1 PUSH1 0x1F ADD PUSH1 0x20 DUP1 SWAP2 DIV MUL PUSH1 0x20 ADD PUSH1 0x40 MLOAD SWAP1 DUP2 ADD PUSH1 0x40 MSTORE DUP1 SWAP4 SWAP3 SWAP2 SWAP1 DUP2 DUP2 MSTORE PUSH1 0x20 ADD DUP4 DUP4 DUP1 DUP3 DUP5 CALLDATACOPY PUSH1 0x0 SWAP3 ADD SWAP2 SWAP1 SWAP2 MSTORE POP PUSH2 0x1D95 SWAP3 POP POP POP JUMP JUMPDEST DUP2 MSTORE PUSH1 0x20 DUP1 DUP3 ADD SWAP3 SWAP1 SWAP3 MSTORE PUSH1 0x40 SWAP1 DUP2 ADD PUSH1 0x0 SWAP1 DUP2 KECCAK256 DUP6 DUP3 MSTORE DUP4 MSTORE DUP2 SWAP1 KECCAK256 DUP2 MLOAD PUSH2 0x120 DUP2 ADD DUP4 MSTORE DUP2 SLOAD PUSH1 0xFF DUP2 AND DUP3 MSTORE PUSH1 0x1 PUSH1 0x1 PUSH1 0xA0 SHL SUB PUSH2 0x100 SWAP2 DUP3 SWAP1 DIV AND SWAP5 DUP3 ADD SWAP5 SWAP1 SWAP5 MSTORE PUSH1 0x1 DUP3 ADD SLOAD SWAP3 DUP2 ADD SWAP3 SWAP1 SWAP3 MSTORE PUSH1 0x2 DUP2 ADD SLOAD PUSH1 0x60 DUP4 ADD MSTORE PUSH1 0x3 DUP2 ADD SLOAD PUSH1 0x80 DUP4 ADD MSTORE PUSH1 0x4 DUP2 ADD SLOAD PUSH1 0xA0 DUP4 ADD MSTORE PUSH1 0x5 DUP2 ADD SLOAD PUSH1 0xC0 DUP4 ADD MSTORE PUSH1 0x6 DUP2 ADD SLOAD PUSH1 0xE0 DUP4 ADD MSTORE PUSH1 0x7 ADD SLOAD SWAP2 DUP2 ADD SWAP2 SWAP1 SWAP2 MSTORE SWAP1 POP JUMPDEST SWAP4 SWAP3 POP POP POP JUMP JUMPDEST PUSH2 0x7D6 PUSH2 0x25C4 JUMP JUMPDEST PUSH1 0x4 PUSH1 0x0 PUSH2 0x736 DUP7 DUP7 DUP1 DUP1 PUSH1 0x1F ADD PUSH1 0x20 DUP1 SWAP2 DIV MUL PUSH1 0x20 ADD PUSH1 0x40 MLOAD SWAP1 DUP2 ADD PUSH1 0x40 MSTORE DUP1 SWAP4 SWAP3 SWAP2 SWAP1 DUP2 DUP2 MSTORE PUSH1 0x20 ADD DUP4 DUP4 DUP1 DUP3 DUP5 CALLDATACOPY PUSH1 0x0 SWAP3 ADD SWAP2 SWAP1 SWAP2 MSTORE POP PUSH2 0x1D95 SWAP3 POP POP POP JUMP JUMPDEST PUSH1 0x1 PUSH1 0x1 PUSH1 0xA0 SHL SUB DUP2 AND PUSH1 0x0 SWAP1 DUP2 MSTORE PUSH1 0x8 PUSH1 0x20 MSTORE PUSH1 0x40 SWAP1 KECCAK256 DUP1 SLOAD PUSH1 0x60 SWAP2 SWAP1 PUSH2 0x840 SWAP1 PUSH2 0x3032 JUMP JUMPDEST DUP1 PUSH1 0x1F ADD PUSH1 0x20 DUP1 SWAP2 DIV MUL PUSH1 0x20 ADD PUSH1 0x40 MLOAD SWAP1 DUP2 ADD PUSH1 0x40 MSTORE DUP1 SWAP3 SWAP2 SWAP1 DUP2 DUP2 MSTORE PUSH1 0x20 ADD DUP3 DUP1 SLOAD PUSH2 0x86C SWAP1 PUSH2 0x3032 JUMP JUMPDEST DUP1 ISZERO PUSH2 0x8B9 JUMPI DUP1 PUSH1 0x1F LT PUSH2 0x88E JUMPI PUSH2 0x100 DUP1 DUP4 SLOAD DIV MUL DUP4 MSTORE SWAP2 PUSH1 0x20 ADD SWAP2 PUSH2 0x8B9 JUMP JUMPDEST DUP3 ADD SWAP2 SWAP1 PUSH1 0x0 MSTORE PUSH1 0x20 PUSH1 0x0 KECCAK256 SWAP1 JUMPDEST DUP2 SLOAD DUP2 MSTORE SWAP1 PUSH1 0x1 ADD SWAP1 PUSH1 0x20 ADD DUP1 DUP4 GT PUSH2 0x89C JUMPI DUP3 SWAP1 SUB PUSH1 0x1F AND DUP3 ADD SWAP2 JUMPDEST POP POP POP POP POP SWAP1 POP SWAP2 SWAP1 POP JUMP JUMPDEST PUSH1 0x9 SLOAD PUSH1 0x0 SWAP1 PUSH1 0x1 PUSH1 0x1 PUSH1 0xA0 SHL SUB AND CALLER EQ PUSH2 0x8F2 JUMPI PUSH1 0x40 MLOAD PUSH3 0x461BCD PUSH1 0xE5 SHL DUP2 MSTORE PUSH1 0x4 ADD PUSH2 0x663 SWAP1 PUSH2 0x2CD7 JUMP JUMPDEST PUSH1 0x1 PUSH1 0x1 PUSH1 0xA0 SHL SUB DUP5 AND PUSH2 0x937 JUMPI PUSH1 0x40 MLOAD PUSH3 0x461BCD PUSH1 0xE5 SHL DUP2 MSTORE PUSH1 0x20 PUSH1 0x4 DUP3 ADD MSTORE PUSH1 0xC PUSH1 0x24 DUP3 ADD MSTORE PUSH12 0x7A65726F2061646472657373 PUSH1 0xA0 SHL PUSH1 0x44 DUP3 ADD MSTORE PUSH1 0x64 ADD PUSH2 0x663 JUMP JUMPDEST PUSH1 0x1 PUSH1 0x1 PUSH1 0xA0 SHL SUB DUP5 AND PUSH1 0x0 SWAP1 DUP2 MSTORE PUSH1 0x8 PUSH1 0x20 MSTORE PUSH1 0x40 SWAP1 KECCAK256 PUSH2 0x95A SWAP1 DUP5 DUP5 PUSH2 0x261C JUMP JUMPDEST POP PUSH1 0x1 SWAP5 SWAP4 POP POP POP POP JUMP JUMPDEST PUSH1 0x9 SLOAD PUSH1 0x0 SWAP1 PUSH1 0x1 PUSH1 0x1 PUSH1 0xA0 SHL SUB AND CALLER EQ PUSH2 0x992 JUMPI PUSH1 0x40 MLOAD PUSH3 0x461BCD PUSH1 0xE5 SHL DUP2 MSTORE PUSH1 0x4 ADD PUSH2 0x663 SWAP1 PUSH2 0x2CD7 JUMP JUMPDEST PUSH1 0x0 PUSH2 0x9D3 DUP5 DUP5 DUP1 DUP1 PUSH1 0x1F ADD PUSH1 0x20 DUP1 SWAP2 DIV MUL PUSH1 0x20 ADD PUSH1 0x40 MLOAD SWAP1 DUP2 ADD PUSH1 0x40 MSTORE DUP1 SWAP4 SWAP3 SWAP2 SWAP1 DUP2 DUP2 MSTORE PUSH1 0x20 ADD DUP4 DUP4 DUP1 DUP3 DUP5 CALLDATACOPY PUSH1 0x0 SWAP3 ADD SWAP2 SWAP1 SWAP2 MSTORE POP PUSH2 0x1D95 SWAP3 POP POP POP JUMP JUMPDEST SWAP1 POP PUSH1 0x0 JUMPDEST PUSH1 0x1 SLOAD DUP2 LT ISZERO PUSH2 0xAEE JUMPI DUP2 PUSH1 0x1 DUP3 DUP2 SLOAD DUP2 LT PUSH2 0xA04 JUMPI PUSH4 0x4E487B71 PUSH1 0xE0 SHL PUSH1 0x0 MSTORE PUSH1 0x32 PUSH1 0x4 MSTORE PUSH1 0x24 PUSH1 0x0 REVERT JUMPDEST SWAP1 PUSH1 0x0 MSTORE PUSH1 0x20 PUSH1 0x0 KECCAK256 ADD SLOAD EQ ISZERO PUSH2 0xADE JUMPI JUMPDEST PUSH1 0x1 DUP1 SLOAD SWAP1 PUSH2 0xA26 SWAP1 DUP4 SWAP1 PUSH2 0x2E21 JUMP JUMPDEST LT ISZERO PUSH2 0xA9E JUMPI PUSH1 0x1 PUSH2 0xA38 DUP3 DUP3 PUSH2 0x2E21 JUMP JUMPDEST DUP2 SLOAD DUP2 LT PUSH2 0xA56 JUMPI PUSH4 0x4E487B71 PUSH1 0xE0 SHL PUSH1 0x0 MSTORE PUSH1 0x32 PUSH1 0x4 MSTORE PUSH1 0x24 PUSH1 0x0 REVERT JUMPDEST SWAP1 PUSH1 0x0 MSTORE PUSH1 0x20 PUSH1 0x0 KECCAK256 ADD SLOAD PUSH1 0x1 DUP3 DUP2 SLOAD DUP2 LT PUSH2 0xA82 JUMPI PUSH4 0x4E487B71 PUSH1 0xE0 SHL PUSH1 0x0 MSTORE PUSH1 0x32 PUSH1 0x4 MSTORE PUSH1 0x24 PUSH1 0x0 REVERT JUMPDEST PUSH1 0x0 SWAP2 DUP3 MSTORE PUSH1 0x20 SWAP1 SWAP2 KECCAK256 ADD SSTORE PUSH2 0xA97 DUP2 PUSH2 0x306D JUMP JUMPDEST SWAP1 POP PUSH2 0xA16 JUMP JUMPDEST PUSH1 0x1 DUP1 SLOAD DUP1 PUSH2 0xABD JUMPI PUSH4 0x4E487B71 PUSH1 0xE0 SHL PUSH1 0x0 MSTORE PUSH1 0x31 PUSH1 0x4 MSTORE PUSH1 0x24 PUSH1 0x0 REVERT JUMPDEST PUSH1 0x1 SWAP1 SUB DUP2 DUP2 SWAP1 PUSH1 0x0 MSTORE PUSH1 0x20 PUSH1 0x0 KECCAK256 ADD PUSH1 0x0 SWAP1 SSTORE SWAP1 SSTORE PUSH1 0x1 SWAP3 POP POP POP PUSH2 0xAF5 JUMP JUMPDEST PUSH2 0xAE7 DUP2 PUSH2 0x306D JUMP JUMPDEST SWAP1 POP PUSH2 0x9D8 JUMP JUMPDEST POP PUSH1 0x0 SWAP2 POP POP JUMPDEST SWAP3 SWAP2 POP POP JUMP JUMPDEST PUSH1 0x60 PUSH1 0x6 PUSH1 0x0 DUP6 DUP2 MSTORE PUSH1 0x20 ADD SWAP1 DUP2 MSTORE PUSH1 0x20 ADD PUSH1 0x0 KECCAK256 DUP4 DUP4 PUSH1 0x40 MLOAD PUSH2 0xB20 SWAP3 SWAP2 SWAP1 PUSH2 0x2B92 JUMP JUMPDEST SWAP1 DUP2 MSTORE PUSH1 0x20 ADD PUSH1 0x40 MLOAD DUP1 SWAP2 SUB SWAP1 KECCAK256 DUP1 SLOAD PUSH2 0xB39 SWAP1 PUSH2 0x3032 JUMP JUMPDEST DUP1 PUSH1 0x1F ADD PUSH1 0x20 DUP1 SWAP2 DIV MUL PUSH1 0x20 ADD PUSH1 0x40 MLOAD SWAP1 DUP2 ADD PUSH1 0x40 MSTORE DUP1 SWAP3 SWAP2 SWAP1 DUP2 DUP2 MSTORE PUSH1 0x20 ADD DUP3 DUP1 SLOAD PUSH2 0xB65 SWAP1 PUSH2 0x3032 JUMP JUMPDEST DUP1 ISZERO PUSH2 0xBB2 JUMPI DUP1 PUSH1 0x1F LT PUSH2 0xB87 JUMPI PUSH2 0x100 DUP1 DUP4 SLOAD DIV MUL DUP4 MSTORE SWAP2 PUSH1 0x20 ADD SWAP2 PUSH2 0xBB2 JUMP JUMPDEST DUP3 ADD SWAP2 SWAP1 PUSH1 0x0 MSTORE PUSH1 0x20 PUSH1 0x0 KECCAK256 SWAP1 JUMPDEST DUP2 SLOAD DUP2 MSTORE SWAP1 PUSH1 0x1 ADD SWAP1 PUSH1 0x20 ADD DUP1 DUP4 GT PUSH2 0xB95 JUMPI DUP3 SWAP1 SUB PUSH1 0x1F AND DUP3 ADD SWAP2 JUMPDEST POP POP POP POP POP SWAP1 POP SWAP4 SWAP3 POP POP POP JUMP JUMPDEST PUSH1 0x0 PUSH2 0xBD1 CALLDATASIZE DUP4 SWAP1 SUB DUP4 ADD DUP4 PUSH2 0x298E JUMP JUMPDEST PUSH1 0x20 DUP2 ADD MLOAD PUSH1 0x1 PUSH1 0x1 PUSH1 0xA0 SHL SUB AND PUSH2 0xBE8 JUMPI PUSH1 0x0 DUP1 REVERT JUMPDEST PUSH1 0x0 DUP2 PUSH1 0x60 ADD MLOAD GT PUSH2 0xC2F JUMPI PUSH1 0x40 MLOAD PUSH3 0x461BCD PUSH1 0xE5 SHL DUP2 MSTORE PUSH1 0x20 PUSH1 0x4 DUP3 ADD MSTORE PUSH1 0x10 PUSH1 0x24 DUP3 ADD MSTORE PUSH16 0x7A65726F204D6178696D756D5377617 PUSH1 0x84 SHL PUSH1 0x44 DUP3 ADD MSTORE PUSH1 0x64 ADD PUSH2 0x663 JUMP JUMPDEST PUSH1 0x0 DUP2 PUSH1 0x80 ADD MLOAD GT PUSH2 0xC76 JUMPI PUSH1 0x40 MLOAD PUSH3 0x461BCD PUSH1 0xE5 SHL DUP2 MSTORE PUSH1 0x20 PUSH1 0x4 DUP3 ADD MSTORE PUSH1 0x10 PUSH1 0x24 DUP3 ADD MSTORE PUSH16 0x7A65726F204D696E696D756D5377617 PUSH1 0x84 SHL PUSH1 0x44 DUP3 ADD MSTORE PUSH1 0x64 ADD PUSH2 0x663 JUMP JUMPDEST PUSH1 0x0 DUP2 PUSH1 0xA0 ADD MLOAD GT PUSH2 0xCC3 JUMPI PUSH1 0x40 MLOAD PUSH3 0x461BCD PUSH1 0xE5 SHL DUP2 MSTORE PUSH1 0x20 PUSH1 0x4 DUP3 ADD MSTORE PUSH1 0x16 PUSH1 0x24 DUP3 ADD MSTORE PUSH22 0x1E995C9BC8109A59D5985B1D59551A1C995CDA1BDB19 PUSH1 0x52 SHL PUSH1 0x44 DUP3 ADD MSTORE PUSH1 0x64 ADD PUSH2 0x663 JUMP JUMPDEST DUP1 PUSH1 0x80 ADD MLOAD DUP2 PUSH1 0x60 ADD MLOAD LT ISZERO PUSH2 0xD17 JUMPI PUSH1 0x40 MLOAD PUSH3 0x461BCD PUSH1 0xE5 SHL DUP2 MSTORE PUSH1 0x20 PUSH1 0x4 DUP3 ADD MSTORE PUSH1 0x19 PUSH1 0x24 DUP3 ADD MSTORE PUSH25 0x4D6178696D756D53776170203C204D696E696D756D5377617 PUSH1 0x3C SHL PUSH1 0x44 DUP3 ADD MSTORE PUSH1 0x64 ADD PUSH2 0x663 JUMP JUMPDEST DUP1 PUSH2 0x100 ADD MLOAD DUP2 PUSH1 0xE0 ADD MLOAD LT ISZERO PUSH2 0xD70 JUMPI PUSH1 0x40 MLOAD PUSH3 0x461BCD PUSH1 0xE5 SHL DUP2 MSTORE PUSH1 0x20 PUSH1 0x4 DUP3 ADD MSTORE PUSH1 0x1F PUSH1 0x24 DUP3 ADD MSTORE PUSH32 0x4D6178696D756D53776170466565203C204D696E696D756D5377617046656500 PUSH1 0x44 DUP3 ADD MSTORE PUSH1 0x64 ADD PUSH2 0x663 JUMP JUMPDEST DUP1 PUSH2 0x100 ADD MLOAD DUP2 PUSH1 0x80 ADD MLOAD LT ISZERO PUSH2 0xDC9 JUMPI PUSH1 0x40 MLOAD PUSH3 0x461BCD PUSH1 0xE5 SHL DUP2 MSTORE PUSH1 0x20 PUSH1 0x4 DUP3 ADD MSTORE PUSH1 0x1C PUSH1 0x24 DUP3 ADD MSTORE PUSH32 0x4D696E696D756D53776170203C204D696E696D756D5377617046656500000000 PUSH1 0x44 DUP3 ADD MSTORE PUSH1 0x64 ADD PUSH2 0x663 JUMP JUMPDEST PUSH3 0xF4240 DUP2 PUSH1 0xC0 ADD MLOAD LT PUSH2 0xE1F JUMPI PUSH1 0x40 MLOAD PUSH3 0x461BCD PUSH1 0xE5 SHL DUP2 MSTORE PUSH1 0x20 PUSH1 0x4 DUP3 ADD DUP2 SWAP1 MSTORE PUSH1 0x24 DUP3 ADD MSTORE PUSH32 0x53776170466565526174655065724D696C6C696F6E203E3D2031303030303030 PUSH1 0x44 DUP3 ADD MSTORE PUSH1 0x64 ADD PUSH2 0x663 JUMP JUMPDEST PUSH1 0x0 DUP2 PUSH1 0xC0 ADD MLOAD GT DUP1 PUSH2 0xE35 JUMPI POP PUSH2 0x100 DUP2 ADD MLOAD ISZERO JUMPDEST PUSH2 0xE78 JUMPI PUSH1 0x40 MLOAD PUSH3 0x461BCD PUSH1 0xE5 SHL DUP2 MSTORE PUSH1 0x20 PUSH1 0x4 DUP3 ADD MSTORE PUSH1 0x14 PUSH1 0x24 DUP3 ADD MSTORE PUSH20 0x77726F6E67204D696E696D756D53776170466565 PUSH1 0x60 SHL PUSH1 0x44 DUP3 ADD MSTORE PUSH1 0x64 ADD PUSH2 0x663 JUMP JUMPDEST PUSH2 0xED1 PUSH2 0xEBA DUP8 DUP8 DUP1 DUP1 PUSH1 0x1F ADD PUSH1 0x20 DUP1 SWAP2 DIV MUL PUSH1 0x20 ADD PUSH1 0x40 MLOAD SWAP1 DUP2 ADD PUSH1 0x40 MSTORE DUP1 SWAP4 SWAP3 SWAP2 SWAP1 DUP2 DUP2 MSTORE PUSH1 0x20 ADD DUP4 DUP4 DUP1 DUP3 DUP5 CALLDATACOPY PUSH1 0x0 SWAP3 ADD SWAP2 SWAP1 SWAP2 MSTORE POP PUSH2 0x1D95 SWAP3 POP POP POP JUMP JUMPDEST DUP6 PUSH2 0xECA CALLDATASIZE DUP8 SWAP1 SUB DUP8 ADD DUP8 PUSH2 0x298E JUMP JUMPDEST PUSH1 0x1 PUSH2 0x1D9C JUMP JUMPDEST SWAP7 SWAP6 POP POP POP POP POP POP JUMP JUMPDEST PUSH1 0x1 SLOAD PUSH1 0x60 SWAP1 DUP1 PUSH1 0x1 PUSH1 0x1 PUSH1 0x40 SHL SUB DUP2 GT ISZERO PUSH2 0xF07 JUMPI PUSH4 0x4E487B71 PUSH1 0xE0 SHL PUSH1 0x0 MSTORE PUSH1 0x41 PUSH1 0x4 MSTORE PUSH1 0x24 PUSH1 0x0 REVERT JUMPDEST PUSH1 0x40 MLOAD SWAP1 DUP1 DUP3 MSTORE DUP1 PUSH1 0x20 MUL PUSH1 0x20 ADD DUP3 ADD PUSH1 0x40 MSTORE DUP1 ISZERO PUSH2 0xF3A JUMPI DUP2 PUSH1 0x20 ADD JUMPDEST PUSH1 0x60 DUP2 MSTORE PUSH1 0x20 ADD SWAP1 PUSH1 0x1 SWAP1 SUB SWAP1 DUP2 PUSH2 0xF25 JUMPI SWAP1 POP JUMPDEST POP SWAP2 POP PUSH1 0x0 JUMPDEST DUP2 DUP2 LT ISZERO PUSH2 0xFB8 JUMPI PUSH2 0xF7C PUSH1 0x1 DUP3 DUP2 SLOAD DUP2 LT PUSH2 0xF6C JUMPI PUSH4 0x4E487B71 PUSH1 0xE0 SHL PUSH1 0x0 MSTORE PUSH1 0x32 PUSH1 0x4 MSTORE PUSH1 0x24 PUSH1 0x0 REVERT JUMPDEST SWAP1 PUSH1 0x0 MSTORE PUSH1 0x20 PUSH1 0x0 KECCAK256 ADD SLOAD PUSH2 0x2231 JUMP JUMPDEST DUP4 DUP3 DUP2 MLOAD DUP2 LT PUSH2 0xF9C JUMPI PUSH4 0x4E487B71 PUSH1 0xE0 SHL PUSH1 0x0 MSTORE PUSH1 0x32 PUSH1 0x4 MSTORE PUSH1 0x24 PUSH1 0x0 REVERT JUMPDEST PUSH1 0x20 MUL PUSH1 0x20 ADD ADD DUP2 SWAP1 MSTORE POP DUP1 PUSH2 0xFB1 SWAP1 PUSH2 0x306D JUMP JUMPDEST SWAP1 POP PUSH2 0xF40 JUMP JUMPDEST POP POP SWAP1 JUMP JUMPDEST PUSH1 0x9 SLOAD PUSH1 0x0 SWAP1 PUSH1 0x1 PUSH1 0x1 PUSH1 0xA0 SHL SUB AND CALLER EQ PUSH2 0xFEA JUMPI PUSH1 0x40 MLOAD PUSH3 0x461BCD PUSH1 0xE5 SHL DUP2 MSTORE PUSH1 0x4 ADD PUSH2 0x663 SWAP1 PUSH2 0x2CD7 JUMP JUMPDEST PUSH2 0x1043 PUSH2 0x102C DUP7 DUP7 DUP1 DUP1 PUSH1 0x1F ADD PUSH1 0x20 DUP1 SWAP2 DIV MUL PUSH1 0x20 ADD PUSH1 0x40 MLOAD SWAP1 DUP2 ADD PUSH1 0x40 MSTORE DUP1 SWAP4 SWAP3 SWAP2 SWAP1 DUP2 DUP2 MSTORE PUSH1 0x20 ADD DUP4 DUP4 DUP1 DUP3 DUP5 CALLDATACOPY PUSH1 0x0 SWAP3 ADD SWAP2 SWAP1 SWAP2 MSTORE POP PUSH2 0x1D95 SWAP3 POP POP POP JUMP JUMPDEST DUP5 PUSH2 0x103C CALLDATASIZE DUP7 SWAP1 SUB DUP7 ADD DUP7 PUSH2 0x298E JUMP JUMPDEST PUSH1 0x0 PUSH2 0x1D9C JUMP JUMPDEST SWAP6 SWAP5 POP POP POP POP POP JUMP JUMPDEST PUSH1 0x9 SLOAD PUSH1 0x1 PUSH1 0x1 PUSH1 0xA0 SHL SUB AND CALLER EQ PUSH2 0x1076 JUMPI PUSH1 0x40 MLOAD PUSH3 0x461BCD PUSH1 0xE5 SHL DUP2 MSTORE PUSH1 0x4 ADD PUSH2 0x663 SWAP1 PUSH2 0x2CD7 JUMP JUMPDEST PUSH1 0x40 MLOAD PUSH32 0x22590461E7BA17E1FE7580CB0EA47F283D3B2248F04873DFBE926D08FE4C5AB9 SWAP1 PUSH1 0x0 SWAP1 LOG1 JUMP JUMPDEST PUSH1 0x9 SLOAD PUSH1 0x1 PUSH1 0x1 PUSH1 0xA0 SHL SUB AND CALLER EQ PUSH2 0x10CB JUMPI PUSH1 0x40 MLOAD PUSH3 0x461BCD PUSH1 0xE5 SHL DUP2 MSTORE PUSH1 0x4 ADD PUSH2 0x663 SWAP1 PUSH2 0x2CD7 JUMP JUMPDEST PUSH1 0x0 PUSH2 0x110C DUP4 DUP4 DUP1 DUP1 PUSH1 0x1F ADD PUSH1 0x20 DUP1 SWAP2 DIV MUL PUSH1 0x20 ADD PUSH1 0x40 MLOAD SWAP1 DUP2 ADD PUSH1 0x40 MSTORE DUP1 SWAP4 SWAP3 SWAP2 SWAP1 DUP2 DUP2 MSTORE PUSH1 0x20 ADD DUP4 DUP4 DUP1 DUP3 DUP5 CALLDATACOPY PUSH1 0x0 SWAP3 ADD SWAP2 SWAP1 SWAP2 MSTORE POP PUSH2 0x1D95 SWAP3 POP POP POP JUMP JUMPDEST PUSH1 0x0 DUP2 DUP2 MSTORE PUSH1 0x2 PUSH1 0x20 MSTORE PUSH1 0x40 DUP2 KECCAK256 SWAP2 SWAP3 POP JUMPDEST DUP2 SLOAD DUP2 LT ISZERO PUSH2 0x11A6 JUMPI PUSH1 0x0 DUP3 DUP3 DUP2 SLOAD DUP2 LT PUSH2 0x1149 JUMPI PUSH4 0x4E487B71 PUSH1 0xE0 SHL PUSH1 0x0 MSTORE PUSH1 0x32 PUSH1 0x4 MSTORE PUSH1 0x24 PUSH1 0x0 REVERT JUMPDEST PUSH1 0x0 SWAP2 DUP3 MSTORE PUSH1 0x20 DUP1 DUP4 KECCAK256 PUSH1 0x40 DUP1 MLOAD DUP1 DUP3 ADD DUP3 MSTORE PUSH1 0x2 SWAP1 SWAP5 MUL SWAP1 SWAP2 ADD DUP1 SLOAD DUP1 DUP6 MSTORE PUSH1 0x1 SWAP1 SWAP2 ADD SLOAD PUSH1 0x1 PUSH1 0x1 PUSH1 0xA0 SHL SUB SWAP1 DUP2 AND SWAP5 DUP5 ADD SWAP5 DUP6 MSTORE SWAP1 DUP6 MSTORE PUSH1 0x7 DUP4 MSTORE DUP2 DUP6 KECCAK256 SWAP4 MLOAD AND DUP5 MSTORE SWAP2 SWAP1 MSTORE DUP2 KECCAK256 SSTORE POP PUSH2 0x119F DUP2 PUSH2 0x306D JUMP JUMPDEST SWAP1 POP PUSH2 0x111E JUMP JUMPDEST POP PUSH1 0x0 DUP3 DUP2 MSTORE PUSH1 0x2 PUSH1 0x20 MSTORE PUSH1 0x40 DUP2 KECCAK256 PUSH2 0x11BE SWAP2 PUSH2 0x26A0 JUMP JUMPDEST POP POP POP POP JUMP JUMPDEST PUSH1 0x60 PUSH1 0x2 PUSH1 0x0 PUSH2 0x1209 DUP6 DUP6 DUP1 DUP1 PUSH1 0x1F ADD PUSH1 0x20 DUP1 SWAP2 DIV MUL PUSH1 0x20 ADD PUSH1 0x40 MLOAD SWAP1 DUP2 ADD PUSH1 0x40 MSTORE DUP1 SWAP4 SWAP3 SWAP2 SWAP1 DUP2 DUP2 MSTORE PUSH1 0x20 ADD DUP4 DUP4 DUP1 DUP3 DUP5 CALLDATACOPY PUSH1 0x0 SWAP3 ADD SWAP2 SWAP1 SWAP2 MSTORE POP PUSH2 0x1D95 SWAP3 POP POP POP JUMP JUMPDEST DUP2 MSTORE PUSH1 0x20 ADD SWAP1 DUP2 MSTORE PUSH1 0x20 ADD PUSH1 0x0 KECCAK256 DUP1 SLOAD DUP1 PUSH1 0x20 MUL PUSH1 0x20 ADD PUSH1 0x40 MLOAD SWAP1 DUP2 ADD PUSH1 0x40 MSTORE DUP1 SWAP3 SWAP2 SWAP1 DUP2 DUP2 MSTORE PUSH1 0x20 ADD PUSH1 0x0 SWAP1 JUMPDEST DUP3 DUP3 LT ISZERO PUSH2 0x127F JUMPI PUSH1 0x0 DUP5 DUP2 MSTORE PUSH1 0x20 SWAP1 DUP2 SWAP1 KECCAK256 PUSH1 0x40 DUP1 MLOAD DUP1 DUP3 ADD SWAP1 SWAP2 MSTORE PUSH1 0x2 DUP6 MUL SWAP1 SWAP2 ADD DUP1 SLOAD DUP3 MSTORE PUSH1 0x1 SWAP1 DUP2 ADD SLOAD PUSH1 0x1 PUSH1 0x1 PUSH1 0xA0 SHL SUB AND DUP3 DUP5 ADD MSTORE SWAP1 DUP4 MSTORE SWAP1 SWAP3 ADD SWAP2 ADD PUSH2 0x1237 JUMP JUMPDEST POP POP POP POP SWAP1 POP SWAP3 SWAP2 POP POP JUMP JUMPDEST PUSH1 0x9 SLOAD PUSH1 0x0 SWAP1 PUSH1 0x1 PUSH1 0x1 PUSH1 0xA0 SHL SUB AND CALLER EQ PUSH2 0x12B8 JUMPI PUSH1 0x40 MLOAD PUSH3 0x461BCD PUSH1 0xE5 SHL DUP2 MSTORE PUSH1 0x4 ADD PUSH2 0x663 SWAP1 PUSH2 0x2CD7 JUMP JUMPDEST PUSH1 0x0 PUSH1 0x2 PUSH1 0x0 PUSH2 0x12FD DUP8 DUP8 DUP1 DUP1 PUSH1 0x1F ADD PUSH1 0x20 DUP1 SWAP2 DIV MUL PUSH1 0x20 ADD PUSH1 0x40 MLOAD SWAP1 DUP2 ADD PUSH1 0x40 MSTORE DUP1 SWAP4 SWAP3 SWAP2 SWAP1 DUP2 DUP2 MSTORE PUSH1 0x20 ADD DUP4 DUP4 DUP1 DUP3 DUP5 CALLDATACOPY PUSH1 0x0 SWAP3 ADD SWAP2 SWAP1 SWAP2 MSTORE POP PUSH2 0x1D95 SWAP3 POP POP POP JUMP JUMPDEST DUP2 MSTORE PUSH1 0x20 ADD SWAP1 DUP2 MSTORE PUSH1 0x20 ADD PUSH1 0x0 KECCAK256 SWAP1 POP PUSH1 0x0 JUMPDEST DUP2 SLOAD DUP2 LT ISZERO PUSH2 0x14CD JUMPI DUP4 DUP3 DUP3 DUP2 SLOAD DUP2 LT PUSH2 0x133A JUMPI PUSH4 0x4E487B71 PUSH1 0xE0 SHL PUSH1 0x0 MSTORE PUSH1 0x32 PUSH1 0x4 MSTORE PUSH1 0x24 PUSH1 0x0 REVERT JUMPDEST SWAP1 PUSH1 0x0 MSTORE PUSH1 0x20 PUSH1 0x0 KECCAK256 SWAP1 PUSH1 0x2 MUL ADD PUSH1 0x0 ADD SLOAD EQ ISZERO PUSH2 0x14BD JUMPI PUSH1 0x0 DUP5 DUP2 MSTORE PUSH1 0x7 PUSH1 0x20 MSTORE PUSH1 0x40 DUP2 KECCAK256 DUP4 SLOAD DUP3 SWAP1 DUP6 SWAP1 DUP6 SWAP1 DUP2 LT PUSH2 0x1384 JUMPI PUSH4 0x4E487B71 PUSH1 0xE0 SHL PUSH1 0x0 MSTORE PUSH1 0x32 PUSH1 0x4 MSTORE PUSH1 0x24 PUSH1 0x0 REVERT JUMPDEST PUSH1 0x0 SWAP2 DUP3 MSTORE PUSH1 0x20 DUP1 DUP4 KECCAK256 PUSH1 0x1 PUSH1 0x2 SWAP1 SWAP4 MUL ADD SWAP2 SWAP1 SWAP2 ADD SLOAD PUSH1 0x1 PUSH1 0x1 PUSH1 0xA0 SHL SUB AND DUP4 MSTORE DUP3 ADD SWAP3 SWAP1 SWAP3 MSTORE PUSH1 0x40 ADD SWAP1 KECCAK256 SSTORE JUMPDEST DUP2 SLOAD PUSH2 0x13C0 DUP3 PUSH1 0x1 PUSH2 0x2E21 JUMP JUMPDEST LT ISZERO PUSH2 0x1468 JUMPI DUP2 PUSH2 0x13D2 DUP3 PUSH1 0x1 PUSH2 0x2E21 JUMP JUMPDEST DUP2 SLOAD DUP2 LT PUSH2 0x13F0 JUMPI PUSH4 0x4E487B71 PUSH1 0xE0 SHL PUSH1 0x0 MSTORE PUSH1 0x32 PUSH1 0x4 MSTORE PUSH1 0x24 PUSH1 0x0 REVERT JUMPDEST SWAP1 PUSH1 0x0 MSTORE PUSH1 0x20 PUSH1 0x0 KECCAK256 SWAP1 PUSH1 0x2 MUL ADD DUP3 DUP3 DUP2 SLOAD DUP2 LT PUSH2 0x141E JUMPI PUSH4 0x4E487B71 PUSH1 0xE0 SHL PUSH1 0x0 MSTORE PUSH1 0x32 PUSH1 0x4 MSTORE PUSH1 0x24 PUSH1 0x0 REVERT JUMPDEST PUSH1 0x0 SWAP2 DUP3 MSTORE PUSH1 0x20 SWAP1 SWAP2 KECCAK256 DUP3 SLOAD PUSH1 0x2 SWAP1 SWAP3 MUL ADD SWAP1 DUP2 SSTORE PUSH1 0x1 SWAP2 DUP3 ADD SLOAD SWAP2 ADD DUP1 SLOAD PUSH1 0x1 PUSH1 0x1 PUSH1 0xA0 SHL SUB NOT AND PUSH1 0x1 PUSH1 0x1 PUSH1 0xA0 SHL SUB SWAP1 SWAP3 AND SWAP2 SWAP1 SWAP2 OR SWAP1 SSTORE PUSH2 0x1461 DUP2 PUSH2 0x306D JUMP JUMPDEST SWAP1 POP PUSH2 0x13B3 JUMP JUMPDEST DUP2 DUP1 SLOAD DUP1 PUSH2 0x1486 JUMPI PUSH4 0x4E487B71 PUSH1 0xE0 SHL PUSH1 0x0 MSTORE PUSH1 0x31 PUSH1 0x4 MSTORE PUSH1 0x24 PUSH1 0x0 REVERT JUMPDEST PUSH1 0x0 DUP3 DUP2 MSTORE PUSH1 0x20 DUP2 KECCAK256 PUSH1 0x2 PUSH1 0x0 NOT SWAP1 SWAP4 ADD SWAP3 DUP4 MUL ADD SWAP1 DUP2 SSTORE PUSH1 0x1 SWAP1 DUP2 ADD DUP1 SLOAD PUSH1 0x1 PUSH1 0x1 PUSH1 0xA0 SHL SUB NOT AND SWAP1 SSTORE SWAP2 SSTORE SWAP3 POP PUSH2 0x7C7 SWAP2 POP POP JUMP JUMPDEST PUSH2 0x14C6 DUP2 PUSH2 0x306D JUMP JUMPDEST SWAP1 POP PUSH2 0x1310 JUMP JUMPDEST POP PUSH1 0x0 SWAP6 SWAP5 POP POP POP POP POP JUMP JUMPDEST PUSH1 0x0 PUSH2 0x7C7 PUSH2 0x151D DUP5 DUP5 DUP1 DUP1 PUSH1 0x1F ADD PUSH1 0x20 DUP1 SWAP2 DIV MUL PUSH1 0x20 ADD PUSH1 0x40 MLOAD SWAP1 DUP2 ADD PUSH1 0x40 MSTORE DUP1 SWAP4 SWAP3 SWAP2 SWAP1 DUP2 DUP2 MSTORE PUSH1 0x20 ADD DUP4 DUP4 DUP1 DUP3 DUP5 CALLDATACOPY PUSH1 0x0 SWAP3 ADD SWAP2 SWAP1 SWAP2 MSTORE POP PUSH2 0x1D95 SWAP3 POP POP POP JUMP JUMPDEST PUSH2 0x236F JUMP JUMPDEST PUSH1 0x0 DUP1 PUSH1 0x2 PUSH1 0x0 PUSH2 0x1568 DUP8 DUP8 DUP1 DUP1 PUSH1 0x1F ADD PUSH1 0x20 DUP1 SWAP2 DIV MUL PUSH1 0x20 ADD PUSH1 0x40 MLOAD SWAP1 DUP2 ADD PUSH1 0x40 MSTORE DUP1 SWAP4 SWAP3 SWAP2 SWAP1 DUP2 DUP2 MSTORE PUSH1 0x20 ADD DUP4 DUP4 DUP1 DUP3 DUP5 CALLDATACOPY PUSH1 0x0 SWAP3 ADD SWAP2 SWAP1 SWAP2 MSTORE POP PUSH2 0x1D95 SWAP3 POP POP POP JUMP JUMPDEST DUP2 MSTORE PUSH1 0x20 ADD SWAP1 DUP2 MSTORE PUSH1 0x20 ADD PUSH1 0x0 KECCAK256 SWAP1 POP PUSH1 0x0 JUMPDEST DUP2 SLOAD DUP2 LT ISZERO PUSH2 0x14CD JUMPI DUP4 DUP3 DUP3 DUP2 SLOAD DUP2 LT PUSH2 0x15A5 JUMPI PUSH4 0x4E487B71 PUSH1 0xE0 SHL PUSH1 0x0 MSTORE PUSH1 0x32 PUSH1 0x4 MSTORE PUSH1 0x24 PUSH1 0x0 REVERT JUMPDEST SWAP1 PUSH1 0x0 MSTORE PUSH1 0x20 PUSH1 0x0 KECCAK256 SWAP1 PUSH1 0x2 MUL ADD PUSH1 0x0 ADD SLOAD EQ ISZERO PUSH2 0x1604 JUMPI DUP2 DUP2 DUP2 SLOAD DUP2 LT PUSH2 0x15DD JUMPI PUSH4 0x4E487B71 PUSH1 0xE0 SHL PUSH1 0x0 MSTORE PUSH1 0x32 PUSH1 0x4 MSTORE PUSH1 0x24 PUSH1 0x0 REVERT JUMPDEST PUSH1 0x0 SWAP2 DUP3 MSTORE PUSH1 0x20 SWAP1 SWAP2 KECCAK256 PUSH1 0x1 PUSH1 0x2 SWAP1 SWAP3 MUL ADD ADD SLOAD PUSH1 0x1 PUSH1 0x1 PUSH1 0xA0 SHL SUB AND SWAP3 POP PUSH2 0x7C7 SWAP2 POP POP JUMP JUMPDEST PUSH2 0x160D DUP2 PUSH2 0x306D JUMP JUMPDEST SWAP1 POP PUSH2 0x157B JUMP JUMPDEST PUSH1 0x9 SLOAD PUSH1 0x0 SWAP1 PUSH1 0x1 PUSH1 0x1 PUSH1 0xA0 SHL SUB AND CALLER EQ PUSH2 0x1641 JUMPI PUSH1 0x40 MLOAD PUSH3 0x461BCD PUSH1 0xE5 SHL DUP2 MSTORE PUSH1 0x4 ADD PUSH2 0x663 SWAP1 PUSH2 0x2CD7 JUMP JUMPDEST PUSH1 0x0 PUSH2 0x1682 DUP6 DUP6 DUP1 DUP1 PUSH1 0x1F ADD PUSH1 0x20 DUP1 SWAP2 DIV MUL PUSH1 0x20 ADD PUSH1 0x40 MLOAD SWAP1 DUP2 ADD PUSH1 0x40 MSTORE DUP1 SWAP4 SWAP3 SWAP2 SWAP1 DUP2 DUP2 MSTORE PUSH1 0x20 ADD DUP4 DUP4 DUP1 DUP3 DUP5 CALLDATACOPY PUSH1 0x0 SWAP3 ADD SWAP2 SWAP1 SWAP2 MSTORE POP PUSH2 0x1D95 SWAP3 POP POP POP JUMP JUMPDEST PUSH1 0x0 DUP2 DUP2 MSTORE PUSH1 0x5 PUSH1 0x20 DUP2 DUP2 MSTORE PUSH1 0x40 DUP1 DUP5 KECCAK256 DUP9 DUP6 MSTORE DUP3 MSTORE DUP1 DUP5 KECCAK256 DUP2 MLOAD PUSH2 0x120 DUP2 ADD DUP4 MSTORE DUP2 SLOAD PUSH1 0xFF DUP2 AND DUP3 MSTORE PUSH1 0x1 PUSH1 0x1 PUSH1 0xA0 SHL SUB PUSH2 0x100 SWAP2 DUP3 SWAP1 DIV AND SWAP5 DUP3 ADD SWAP5 SWAP1 SWAP5 MSTORE PUSH1 0x1 DUP3 ADD SLOAD SWAP3 DUP2 ADD SWAP3 SWAP1 SWAP3 MSTORE PUSH1 0x2 DUP2 ADD SLOAD PUSH1 0x60 DUP4 ADD MSTORE PUSH1 0x3 DUP2 ADD SLOAD PUSH1 0x80 DUP4 ADD MSTORE PUSH1 0x4 DUP2 ADD SLOAD PUSH1 0xA0 DUP4 ADD MSTORE SWAP3 DUP4 ADD SLOAD PUSH1 0xC0 DUP3 ADD MSTORE PUSH1 0x6 DUP4 ADD SLOAD PUSH1 0xE0 DUP3 ADD MSTORE PUSH1 0x7 SWAP1 SWAP3 ADD SLOAD SWAP1 DUP3 ADD MSTORE SWAP2 SWAP3 POP PUSH2 0x1043 SWAP2 DUP4 SWAP2 DUP7 SWAP2 SWAP1 PUSH2 0x1D9C JUMP JUMPDEST PUSH1 0x0 DUP3 DUP2 MSTORE PUSH1 0x7 PUSH1 0x20 SWAP1 DUP2 MSTORE PUSH1 0x40 DUP1 DUP4 KECCAK256 PUSH1 0x1 PUSH1 0x1 PUSH1 0xA0 SHL SUB DUP6 AND DUP5 MSTORE SWAP1 SWAP2 MSTORE SWAP1 KECCAK256 SLOAD PUSH1 0x60 SWAP1 PUSH2 0x7C7 SWAP1 PUSH2 0x2231 JUMP JUMPDEST PUSH1 0x9 SLOAD PUSH1 0x1 PUSH1 0x1 PUSH1 0xA0 SHL SUB AND CALLER EQ PUSH2 0x1774 JUMPI PUSH1 0x40 MLOAD PUSH3 0x461BCD PUSH1 0xE5 SHL DUP2 MSTORE PUSH1 0x4 ADD PUSH2 0x663 SWAP1 PUSH2 0x2CD7 JUMP JUMPDEST PUSH2 0x11BE PUSH2 0x17B6 DUP6 DUP6 DUP1 DUP1 PUSH1 0x1F ADD PUSH1 0x20 DUP1 SWAP2 DIV MUL PUSH1 0x20 ADD PUSH1 0x40 MLOAD SWAP1 DUP2 ADD PUSH1 0x40 MSTORE DUP1 SWAP4 SWAP3 SWAP2 SWAP1 DUP2 DUP2 MSTORE PUSH1 0x20 ADD DUP4 DUP4 DUP1 DUP3 DUP5 CALLDATACOPY PUSH1 0x0 SWAP3 ADD SWAP2 SWAP1 SWAP2 MSTORE POP PUSH2 0x1D95 SWAP3 POP POP POP JUMP JUMPDEST DUP4 DUP4 PUSH2 0x23CA JUMP JUMPDEST PUSH1 0x9 SLOAD PUSH1 0x0 SWAP1 PUSH1 0x1 PUSH1 0x1 PUSH1 0xA0 SHL SUB AND CALLER EQ PUSH2 0x17EA JUMPI PUSH1 0x40 MLOAD PUSH3 0x461BCD PUSH1 0xE5 SHL DUP2 MSTORE PUSH1 0x4 ADD PUSH2 0x663 SWAP1 PUSH2 0x2CD7 JUMP JUMPDEST PUSH2 0x17F3 DUP3 PUSH2 0x2E52 JUMP JUMPDEST PUSH1 0x20 DUP2 ADD MLOAD PUSH1 0x1 PUSH1 0x1 PUSH1 0xA0 SHL SUB AND PUSH2 0x1844 JUMPI PUSH1 0x40 MLOAD PUSH3 0x461BCD PUSH1 0xE5 SHL DUP2 MSTORE PUSH1 0x20 PUSH1 0x4 DUP3 ADD MSTORE PUSH1 0x14 PUSH1 0x24 DUP3 ADD MSTORE PUSH20 0x1E995C9BC81C9BDD5D195C8818DBDB9D1C9858DD PUSH1 0x62 SHL PUSH1 0x44 DUP3 ADD MSTORE PUSH1 0x64 ADD PUSH2 0x663 JUMP JUMPDEST PUSH1 0x0 DUP2 PUSH1 0x40 ADD MLOAD PUSH1 0x1 PUSH1 0x1 PUSH1 0x40 SHL SUB AND GT PUSH2 0x18A1 JUMPI PUSH1 0x40 MLOAD PUSH3 0x461BCD PUSH1 0xE5 SHL DUP2 MSTORE PUSH1 0x20 PUSH1 0x4 DUP3 ADD MSTORE PUSH1 0x1C PUSH1 0x24 DUP3 ADD MSTORE PUSH32 0x7A65726F20636F6E6669726D6174696F6E7320697320756E7361666500000000 PUSH1 0x44 DUP3 ADD MSTORE PUSH1 0x64 ADD PUSH2 0x663 JUMP JUMPDEST DUP1 MLOAD MLOAD ISZERO DUP1 ISZERO SWAP1 PUSH2 0x18B5 JUMPI POP DUP1 MLOAD MLOAD PUSH1 0x80 LT ISZERO JUMPDEST PUSH2 0x1901 JUMPI PUSH1 0x40 MLOAD PUSH3 0x461BCD PUSH1 0xE5 SHL DUP2 MSTORE PUSH1 0x20 PUSH1 0x4 DUP3 ADD MSTORE PUSH1 0x17 PUSH1 0x24 DUP3 ADD MSTORE PUSH32 0x77726F6E6720426C6F636B436861696E206C656E677468000000000000000000 PUSH1 0x44 DUP3 ADD MSTORE PUSH1 0x64 ADD PUSH2 0x663 JUMP JUMPDEST PUSH1 0x0 DUP5 GT PUSH2 0x1921 JUMPI PUSH1 0x40 MLOAD PUSH3 0x461BCD PUSH1 0xE5 SHL DUP2 MSTORE PUSH1 0x4 ADD PUSH2 0x663 SWAP1 PUSH2 0x2CB1 JUMP JUMPDEST PUSH1 0x0 DUP5 DUP2 MSTORE PUSH1 0x3 PUSH1 0x20 MSTORE PUSH1 0x40 SWAP1 KECCAK256 DUP4 SWAP1 PUSH2 0x193B DUP3 DUP3 PUSH2 0x30EE JUMP JUMPDEST SWAP1 POP POP PUSH2 0x1947 DUP5 PUSH2 0x1D3A JUMP JUMPDEST PUSH2 0x197E JUMPI PUSH1 0x0 DUP1 SLOAD PUSH1 0x1 DUP2 ADD DUP3 SSTORE SWAP1 DUP1 MSTORE PUSH32 0x290DECD9548B62A8D60345A988386FC84BA6BC95484008F6362F93160EF3E563 ADD DUP5 SWAP1 SSTORE JUMPDEST POP PUSH1 0x1 SWAP4 SWAP3 POP POP POP JUMP JUMPDEST PUSH1 0x60 PUSH1 0x0 DUP1 SLOAD DUP1 PUSH1 0x20 MUL PUSH1 0x20 ADD PUSH1 0x40 MLOAD SWAP1 DUP2 ADD PUSH1 0x40 MSTORE DUP1 SWAP3 SWAP2 SWAP1 DUP2 DUP2 MSTORE PUSH1 0x20 ADD DUP3 DUP1 SLOAD DUP1 ISZERO PUSH2 0x19D6 JUMPI PUSH1 0x20 MUL DUP3 ADD SWAP2 SWAP1 PUSH1 0x0 MSTORE PUSH1 0x20 PUSH1 0x0 KECCAK256 SWAP1 JUMPDEST DUP2 SLOAD DUP2 MSTORE PUSH1 0x20 ADD SWAP1 PUSH1 0x1 ADD SWAP1 DUP1 DUP4 GT PUSH2 0x19C2 JUMPI JUMPDEST POP POP POP POP POP SWAP1 POP SWAP1 JUMP JUMPDEST PUSH1 0x9 SLOAD PUSH1 0x0 SWAP1 PUSH1 0x1 PUSH1 0x1 PUSH1 0xA0 SHL SUB AND CALLER EQ PUSH2 0x1A0D JUMPI PUSH1 0x40 MLOAD PUSH3 0x461BCD PUSH1 0xE5 SHL DUP2 MSTORE PUSH1 0x4 ADD PUSH2 0x663 SWAP1 PUSH2 0x2CD7 JUMP JUMPDEST PUSH1 0x0 PUSH2 0x1A4E DUP5 DUP5 DUP1 DUP1 PUSH1 0x1F ADD PUSH1 0x20 DUP1 SWAP2 DIV MUL PUSH1 0x20 ADD PUSH1 0x40 MLOAD SWAP1 DUP2 ADD PUSH1 0x40 MSTORE DUP1 SWAP4 SWAP3 SWAP2 SWAP1 DUP2 DUP2 MSTORE PUSH1 0x20 ADD DUP4 DUP4 DUP1 DUP3 DUP5 CALLDATACOPY PUSH1 0x0 SWAP3 ADD SWAP2 SWAP1 SWAP2 MSTORE POP PUSH2 0x1D95 SWAP3 POP POP POP JUMP JUMPDEST SWAP1 POP PUSH2 0x1A59 DUP2 PUSH2 0x236F JUMP JUMPDEST ISZERO PUSH2 0x1A97 JUMPI PUSH1 0x40 MLOAD PUSH3 0x461BCD PUSH1 0xE5 SHL DUP2 MSTORE PUSH1 0x20 PUSH1 0x4 DUP3 ADD MSTORE PUSH1 0xE PUSH1 0x24 DUP3 ADD MSTORE PUSH14 0x1D1BDAD95B88125108195E1A5CDD PUSH1 0x92 SHL PUSH1 0x44 DUP3 ADD MSTORE PUSH1 0x64 ADD PUSH2 0x663 JUMP JUMPDEST PUSH1 0x1 DUP1 SLOAD DUP1 DUP3 ADD DUP3 SSTORE PUSH1 0x0 DUP3 SWAP1 MSTORE PUSH32 0xB10E2D527612073B26EECDFD717E6A320CF44B4AFAC2B0732D9FCBE2B7FA0CF6 ADD SWAP2 SWAP1 SWAP2 SSTORE SWAP4 SWAP3 POP POP POP JUMP JUMPDEST PUSH1 0x9 SLOAD PUSH1 0x0 SWAP1 PUSH1 0x1 PUSH1 0x1 PUSH1 0xA0 SHL SUB AND CALLER EQ PUSH2 0x1AFF JUMPI PUSH1 0x40 MLOAD PUSH3 0x461BCD PUSH1 0xE5 SHL DUP2 MSTORE PUSH1 0x4 ADD PUSH2 0x663 SWAP1 PUSH2 0x2CD7 JUMP JUMPDEST PUSH1 0x0 DUP7 GT PUSH2 0x1B1F JUMPI PUSH1 0x40 MLOAD PUSH3 0x461BCD PUSH1 0xE5 SHL DUP2 MSTORE PUSH1 0x4 ADD PUSH2 0x663 SWAP1 PUSH2 0x2CB1 JUMP JUMPDEST DUP3 DUP3 PUSH1 0x6 PUSH1 0x0 DUP10 DUP2 MSTORE PUSH1 0x20 ADD SWAP1 DUP2 MSTORE PUSH1 0x20 ADD PUSH1 0x0 KECCAK256 DUP8 DUP8 PUSH1 0x40 MLOAD PUSH2 0x1B44 SWAP3 SWAP2 SWAP1 PUSH2 0x2B92 JUMP JUMPDEST SWAP1 DUP2 MSTORE PUSH1 0x40 MLOAD SWAP1 DUP2 SWAP1 SUB PUSH1 0x20 ADD SWAP1 KECCAK256 PUSH2 0x1B5E SWAP3 SWAP1 SWAP2 PUSH2 0x261C JUMP JUMPDEST POP PUSH1 0x1 SWAP7 SWAP6 POP POP POP POP POP POP JUMP JUMPDEST PUSH1 0x9 SLOAD PUSH1 0x0 SWAP1 PUSH1 0x1 PUSH1 0x1 PUSH1 0xA0 SHL SUB AND CALLER EQ PUSH2 0x1B98 JUMPI PUSH1 0x40 MLOAD PUSH3 0x461BCD PUSH1 0xE5 SHL DUP2 MSTORE PUSH1 0x4 ADD PUSH2 0x663 SWAP1 PUSH2 0x2CD7 JUMP JUMPDEST PUSH1 0x0 JUMPDEST PUSH1 0x0 SLOAD DUP2 LT ISZERO PUSH2 0x1CAF JUMPI DUP3 PUSH1 0x0 DUP3 DUP2 SLOAD DUP2 LT PUSH2 0x1BC7 JUMPI PUSH4 0x4E487B71 PUSH1 0xE0 SHL PUSH1 0x0 MSTORE PUSH1 0x32 PUSH1 0x4 MSTORE PUSH1 0x24 PUSH1 0x0 REVERT JUMPDEST SWAP1 PUSH1 0x0 MSTORE PUSH1 0x20 PUSH1 0x0 KECCAK256 ADD SLOAD EQ ISZERO PUSH2 0x1C9F JUMPI JUMPDEST PUSH1 0x0 SLOAD PUSH2 0x1BE7 DUP3 PUSH1 0x1 PUSH2 0x2E21 JUMP JUMPDEST LT ISZERO PUSH2 0x1C60 JUMPI PUSH1 0x0 PUSH2 0x1BFA DUP3 PUSH1 0x1 PUSH2 0x2E21 JUMP JUMPDEST DUP2 SLOAD DUP2 LT PUSH2 0x1C18 JUMPI PUSH4 0x4E487B71 PUSH1 0xE0 SHL PUSH1 0x0 MSTORE PUSH1 0x32 PUSH1 0x4 MSTORE PUSH1 0x24 PUSH1 0x0 REVERT JUMPDEST SWAP1 PUSH1 0x0 MSTORE PUSH1 0x20 PUSH1 0x0 KECCAK256 ADD SLOAD PUSH1 0x0 DUP3 DUP2 SLOAD DUP2 LT PUSH2 0x1C44 JUMPI PUSH4 0x4E487B71 PUSH1 0xE0 SHL PUSH1 0x0 MSTORE PUSH1 0x32 PUSH1 0x4 MSTORE PUSH1 0x24 PUSH1 0x0 REVERT JUMPDEST PUSH1 0x0 SWAP2 DUP3 MSTORE PUSH1 0x20 SWAP1 SWAP2 KECCAK256 ADD SSTORE PUSH2 0x1C59 DUP2 PUSH2 0x306D JUMP JUMPDEST SWAP1 POP PUSH2 0x1BD9 JUMP JUMPDEST PUSH1 0x0 DUP1 SLOAD DUP1 PUSH2 0x1C7F JUMPI PUSH4 0x4E487B71 PUSH1 0xE0 SHL PUSH1 0x0 MSTORE PUSH1 0x31 PUSH1 0x4 MSTORE PUSH1 0x24 PUSH1 0x0 REVERT JUMPDEST PUSH1 0x1 SWAP1 SUB DUP2 DUP2 SWAP1 PUSH1 0x0 MSTORE PUSH1 0x20 PUSH1 0x0 KECCAK256 ADD PUSH1 0x0 SWAP1 SSTORE SWAP1 SSTORE PUSH1 0x1 SWAP2 POP POP PUSH2 0x631 JUMP JUMPDEST PUSH2 0x1CA8 DUP2 PUSH2 0x306D JUMP JUMPDEST SWAP1 POP PUSH2 0x1B9B JUMP JUMPDEST POP PUSH1 0x0 SWAP3 SWAP2 POP POP JUMP JUMPDEST PUSH1 0x9 SLOAD PUSH1 0x1 PUSH1 0x1 PUSH1 0xA0 SHL SUB AND CALLER EQ PUSH2 0x1CE2 JUMPI PUSH1 0x40 MLOAD PUSH3 0x461BCD PUSH1 0xE5 SHL DUP2 MSTORE PUSH1 0x4 ADD PUSH2 0x663 SWAP1 PUSH2 0x2CD7 JUMP JUMPDEST PUSH1 0x40 MLOAD PUSH1 0x1 PUSH1 0x1 PUSH1 0xA0 SHL SUB DUP3 AND SWAP1 CALLER SWAP1 PUSH32 0x8BE0079C531659141344CD1FD0A4F28419497F9722A3DAAFE3B4186F6B6457E0 SWAP1 PUSH1 0x0 SWAP1 LOG3 PUSH1 0x9 DUP1 SLOAD PUSH1 0x1 PUSH1 0x1 PUSH1 0xA0 SHL SUB NOT AND PUSH1 0x1 PUSH1 0x1 PUSH1 0xA0 SHL SUB SWAP3 SWAP1 SWAP3 AND SWAP2 SWAP1 SWAP2 OR SWAP1 SSTORE JUMP JUMPDEST PUSH1 0x0 DUP1 JUMPDEST PUSH1 0x0 SLOAD DUP2 LT ISZERO PUSH2 0x1CAF JUMPI DUP3 PUSH1 0x0 DUP3 DUP2 SLOAD DUP2 LT PUSH2 0x1D6A JUMPI PUSH4 0x4E487B71 PUSH1 0xE0 SHL PUSH1 0x0 MSTORE PUSH1 0x32 PUSH1 0x4 MSTORE PUSH1 0x24 PUSH1 0x0 REVERT JUMPDEST SWAP1 PUSH1 0x0 MSTORE PUSH1 0x20 PUSH1 0x0 KECCAK256 ADD SLOAD EQ ISZERO PUSH2 0x1D85 JUMPI PUSH1 0x1 SWAP2 POP POP PUSH2 0x631 JUMP JUMPDEST PUSH2 0x1D8E DUP2 PUSH2 0x306D JUMP JUMPDEST SWAP1 POP PUSH2 0x1D3E JUMP JUMPDEST PUSH1 0x20 ADD MLOAD SWAP1 JUMP JUMPDEST PUSH1 0x20 DUP3 ADD MLOAD PUSH1 0x0 SWAP1 DUP4 SWAP1 PUSH1 0x1 PUSH1 0x1 PUSH1 0xA0 SHL SUB AND PUSH2 0x1DB8 JUMPI PUSH1 0x0 DUP1 REVERT JUMPDEST PUSH1 0x0 DUP2 PUSH1 0x60 ADD MLOAD GT PUSH2 0x1DFF JUMPI PUSH1 0x40 MLOAD PUSH3 0x461BCD PUSH1 0xE5 SHL DUP2 MSTORE PUSH1 0x20 PUSH1 0x4 DUP3 ADD MSTORE PUSH1 0x10 PUSH1 0x24 DUP3 ADD MSTORE PUSH16 0x7A65726F204D6178696D756D5377617 PUSH1 0x84 SHL PUSH1 0x44 DUP3 ADD MSTORE PUSH1 0x64 ADD PUSH2 0x663 JUMP JUMPDEST PUSH1 0x0 DUP2 PUSH1 0x80 ADD MLOAD GT PUSH2 0x1E46 JUMPI PUSH1 0x40 MLOAD PUSH3 0x461BCD PUSH1 0xE5 SHL DUP2 MSTORE PUSH1 0x20 PUSH1 0x4 DUP3 ADD MSTORE PUSH1 0x10 PUSH1 0x24 DUP3 ADD MSTORE PUSH16 0x7A65726F204D696E696D756D5377617 PUSH1 0x84 SHL PUSH1 0x44 DUP3 ADD MSTORE PUSH1 0x64 ADD PUSH2 0x663 JUMP JUMPDEST PUSH1 0x0 DUP2 PUSH1 0xA0 ADD MLOAD GT PUSH2 0x1E93 JUMPI PUSH1 0x40 MLOAD PUSH3 0x461BCD PUSH1 0xE5 SHL DUP2 MSTORE PUSH1 0x20 PUSH1 0x4 DUP3 ADD MSTORE PUSH1 0x16 PUSH1 0x24 DUP3 ADD MSTORE PUSH22 0x1E995C9BC8109A59D5985B1D59551A1C995CDA1BDB19 PUSH1 0x52 SHL PUSH1 0x44 DUP3 ADD MSTORE PUSH1 0x64 ADD PUSH2 0x663 JUMP JUMPDEST DUP1 PUSH1 0x80 ADD MLOAD DUP2 PUSH1 0x60 ADD MLOAD LT ISZERO PUSH2 0x1EE7 JUMPI PUSH1 0x40 MLOAD PUSH3 0x461BCD PUSH1 0xE5 SHL DUP2 MSTORE PUSH1 0x20 PUSH1 0x4 DUP3 ADD MSTORE PUSH1 0x19 PUSH1 0x24 DUP3 ADD MSTORE PUSH25 0x4D6178696D756D53776170203C204D696E696D756D5377617 PUSH1 0x3C SHL PUSH1 0x44 DUP3 ADD MSTORE PUSH1 0x64 ADD PUSH2 0x663 JUMP JUMPDEST DUP1 PUSH2 0x100 ADD MLOAD DUP2 PUSH1 0xE0 ADD MLOAD LT ISZERO PUSH2 0x1F40 JUMPI PUSH1 0x40 MLOAD PUSH3 0x461BCD PUSH1 0xE5 SHL DUP2 MSTORE PUSH1 0x20 PUSH1 0x4 DUP3 ADD MSTORE PUSH1 0x1F PUSH1 0x24 DUP3 ADD MSTORE PUSH32 0x4D6178696D756D53776170466565203C204D696E696D756D5377617046656500 PUSH1 0x44 DUP3 ADD MSTORE PUSH1 0x64 ADD PUSH2 0x663 JUMP JUMPDEST DUP1 PUSH2 0x100 ADD MLOAD DUP2 PUSH1 0x80 ADD MLOAD LT ISZERO PUSH2 0x1F99 JUMPI PUSH1 0x40 MLOAD PUSH3 0x461BCD PUSH1 0xE5 SHL DUP2 MSTORE PUSH1 0x20 PUSH1 0x4 DUP3 ADD MSTORE PUSH1 0x1C PUSH1 0x24 DUP3 ADD MSTORE PUSH32 0x4D696E696D756D53776170203C204D696E696D756D5377617046656500000000 PUSH1 0x44 DUP3 ADD MSTORE PUSH1 0x64 ADD PUSH2 0x663 JUMP JUMPDEST PUSH3 0xF4240 DUP2 PUSH1 0xC0 ADD MLOAD LT PUSH2 0x1FEF JUMPI PUSH1 0x40 MLOAD PUSH3 0x461BCD PUSH1 0xE5 SHL DUP2 MSTORE PUSH1 0x20 PUSH1 0x4 DUP3 ADD DUP2 SWAP1 MSTORE PUSH1 0x24 DUP3 ADD MSTORE PUSH32 0x53776170466565526174655065724D696C6C696F6E203E3D2031303030303030 PUSH1 0x44 DUP3 ADD MSTORE PUSH1 0x64 ADD PUSH2 0x663 JUMP JUMPDEST PUSH1 0x0 DUP2 PUSH1 0xC0 ADD MLOAD GT DUP1 PUSH2 0x2005 JUMPI POP PUSH2 0x100 DUP2 ADD MLOAD ISZERO JUMPDEST PUSH2 0x2048 JUMPI PUSH1 0x40 MLOAD PUSH3 0x461BCD PUSH1 0xE5 SHL DUP2 MSTORE PUSH1 0x20 PUSH1 0x4 DUP3 ADD MSTORE PUSH1 0x14 PUSH1 0x24 DUP3 ADD MSTORE PUSH20 0x77726F6E67204D696E696D756D53776170466565 PUSH1 0x60 SHL PUSH1 0x44 DUP3 ADD MSTORE PUSH1 0x64 ADD PUSH2 0x663 JUMP JUMPDEST DUP6 PUSH2 0x2085 JUMPI PUSH1 0x40 MLOAD PUSH3 0x461BCD PUSH1 0xE5 SHL DUP2 MSTORE PUSH1 0x20 PUSH1 0x4 DUP3 ADD MSTORE PUSH1 0xD PUSH1 0x24 DUP3 ADD MSTORE PUSH13 0x195B5C1D1E481D1BDAD95B9251 PUSH1 0x9A SHL PUSH1 0x44 DUP3 ADD MSTORE PUSH1 0x64 ADD PUSH2 0x663 JUMP JUMPDEST PUSH1 0x0 DUP6 GT PUSH2 0x20A5 JUMPI PUSH1 0x40 MLOAD PUSH3 0x461BCD PUSH1 0xE5 SHL DUP2 MSTORE PUSH1 0x4 ADD PUSH2 0x663 SWAP1 PUSH2 0x2CB1 JUMP JUMPDEST DUP3 ISZERO PUSH2 0x2142 JUMPI PUSH1 0x0 DUP7 DUP2 MSTORE PUSH1 0x5 PUSH1 0x20 DUP2 DUP2 MSTORE PUSH1 0x40 DUP1 DUP5 KECCAK256 DUP10 DUP6 MSTORE DUP3 MSTORE SWAP3 DUP4 SWAP1 KECCAK256 DUP8 MLOAD DUP2 SLOAD SWAP3 DUP10 ADD MLOAD PUSH1 0xFF NOT SWAP1 SWAP4 AND PUSH1 0xFF SWAP1 SWAP2 AND OR PUSH2 0x100 PUSH1 0x1 PUSH1 0xA8 SHL SUB NOT AND PUSH2 0x100 PUSH1 0x1 PUSH1 0x1 PUSH1 0xA0 SHL SUB SWAP1 SWAP4 AND DUP4 MUL OR DUP2 SSTORE SWAP3 DUP8 ADD MLOAD PUSH1 0x1 DUP5 ADD SSTORE PUSH1 0x60 DUP8 ADD MLOAD PUSH1 0x2 DUP5 ADD SSTORE PUSH1 0x80 DUP8 ADD MLOAD PUSH1 0x3 DUP5 ADD SSTORE PUSH1 0xA0 DUP8 ADD MLOAD PUSH1 0x4 DUP5 ADD SSTORE PUSH1 0xC0 DUP8 ADD MLOAD SWAP2 DUP4 ADD SWAP2 SWAP1 SWAP2 SSTORE PUSH1 0xE0 DUP7 ADD MLOAD PUSH1 0x6 DUP4 ADD SSTORE DUP6 ADD MLOAD PUSH1 0x7 SWAP1 SWAP2 ADD SSTORE PUSH2 0x2225 JUMP JUMPDEST PUSH1 0x0 DUP7 DUP2 MSTORE PUSH1 0x4 PUSH1 0x20 DUP2 DUP2 MSTORE PUSH1 0x40 DUP1 DUP5 KECCAK256 DUP10 DUP6 MSTORE DUP3 MSTORE SWAP3 DUP4 SWAP1 KECCAK256 DUP8 MLOAD DUP2 SLOAD SWAP3 DUP10 ADD MLOAD PUSH1 0xFF NOT SWAP1 SWAP4 AND PUSH1 0xFF SWAP1 SWAP2 AND OR PUSH2 0x100 PUSH1 0x1 PUSH1 0xA8 SHL SUB NOT AND PUSH2 0x100 PUSH1 0x1 PUSH1 0x1 PUSH1 0xA0 SHL SUB SWAP1 SWAP4 AND DUP4 MUL OR DUP2 SSTORE SWAP3 DUP8 ADD MLOAD PUSH1 0x1 DUP5 ADD SSTORE PUSH1 0x60 DUP8 ADD MLOAD PUSH1 0x2 DUP5 ADD SSTORE PUSH1 0x80 DUP8 ADD MLOAD PUSH1 0x3 DUP5 ADD SSTORE PUSH1 0xA0 DUP8 ADD MLOAD SWAP2 DUP4 ADD SWAP2 SWAP1 SWAP2 SSTORE PUSH1 0xC0 DUP7 ADD MLOAD PUSH1 0x5 DUP4 ADD SSTORE PUSH1 0xE0 DUP7 ADD MLOAD PUSH1 0x6 DUP4 ADD SSTORE DUP6 ADD MLOAD PUSH1 0x7 SWAP1 SWAP2 ADD SSTORE PUSH2 0x21DD DUP7 PUSH2 0x236F JUMP JUMPDEST PUSH2 0x2216 JUMPI PUSH1 0x1 DUP1 SLOAD DUP1 DUP3 ADD DUP3 SSTORE PUSH1 0x0 SWAP2 SWAP1 SWAP2 MSTORE PUSH32 0xB10E2D527612073B26EECDFD717E6A320CF44B4AFAC2B0732D9FCBE2B7FA0CF6 ADD DUP7 SWAP1 SSTORE JUMPDEST PUSH2 0x2225 DUP7 DUP7 DUP7 PUSH1 0x20 ADD MLOAD PUSH2 0x23CA JUMP JUMPDEST POP PUSH1 0x1 SWAP6 SWAP5 POP POP POP POP POP JUMP JUMPDEST PUSH1 0x60 PUSH1 0x0 JUMPDEST PUSH1 0x20 DUP2 PUSH1 0xFF AND LT DUP1 ISZERO PUSH2 0x2278 JUMPI POP DUP3 DUP2 PUSH1 0xFF AND PUSH1 0x20 DUP2 LT PUSH2 0x2267 JUMPI PUSH4 0x4E487B71 PUSH1 0xE0 SHL PUSH1 0x0 MSTORE PUSH1 0x32 PUSH1 0x4 MSTORE PUSH1 0x24 PUSH1 0x0 REVERT JUMPDEST BYTE PUSH1 0xF8 SHL PUSH1 0x1 PUSH1 0x1 PUSH1 0xF8 SHL SUB NOT AND ISZERO ISZERO JUMPDEST ISZERO PUSH2 0x228D JUMPI PUSH2 0x2286 DUP2 PUSH2 0x3088 JUMP JUMPDEST SWAP1 POP PUSH2 0x2236 JUMP JUMPDEST PUSH1 0x0 DUP2 PUSH1 0xFF AND PUSH1 0x1 PUSH1 0x1 PUSH1 0x40 SHL SUB DUP2 GT ISZERO PUSH2 0x22B8 JUMPI PUSH4 0x4E487B71 PUSH1 0xE0 SHL PUSH1 0x0 MSTORE PUSH1 0x41 PUSH1 0x4 MSTORE PUSH1 0x24 PUSH1 0x0 REVERT JUMPDEST PUSH1 0x40 MLOAD SWAP1 DUP1 DUP3 MSTORE DUP1 PUSH1 0x1F ADD PUSH1 0x1F NOT AND PUSH1 0x20 ADD DUP3 ADD PUSH1 0x40 MSTORE DUP1 ISZERO PUSH2 0x22E2 JUMPI PUSH1 0x20 DUP3 ADD DUP2 DUP1 CALLDATASIZE DUP4 CALLDATACOPY ADD SWAP1 POP JUMPDEST POP SWAP1 POP PUSH1 0x0 JUMPDEST DUP3 PUSH1 0xFF AND DUP2 PUSH1 0xFF AND LT ISZERO PUSH2 0x2367 JUMPI DUP5 DUP2 PUSH1 0xFF AND PUSH1 0x20 DUP2 LT PUSH2 0x2319 JUMPI PUSH4 0x4E487B71 PUSH1 0xE0 SHL PUSH1 0x0 MSTORE PUSH1 0x32 PUSH1 0x4 MSTORE PUSH1 0x24 PUSH1 0x0 REVERT JUMPDEST BYTE PUSH1 0xF8 SHL DUP3 DUP3 PUSH1 0xFF AND DUP2 MLOAD DUP2 LT PUSH2 0x2340 JUMPI PUSH4 0x4E487B71 PUSH1 0xE0 SHL PUSH1 0x0 MSTORE PUSH1 0x32 PUSH1 0x4 MSTORE PUSH1 0x24 PUSH1 0x0 REVERT JUMPDEST PUSH1 0x20 ADD ADD SWAP1 PUSH1 0x1 PUSH1 0x1 PUSH1 0xF8 SHL SUB NOT AND SWAP1 DUP2 PUSH1 0x0 BYTE SWAP1 MSTORE8 POP PUSH2 0x2360 DUP2 PUSH2 0x3088 JUMP JUMPDEST SWAP1 POP PUSH2 0x22E8 JUMP JUMPDEST POP SWAP4 SWAP3 POP POP POP JUMP JUMPDEST PUSH1 0x0 DUP1 JUMPDEST PUSH1 0x1 SLOAD DUP2 LT ISZERO PUSH2 0x1CAF JUMPI DUP3 PUSH1 0x1 DUP3 DUP2 SLOAD DUP2 LT PUSH2 0x239F JUMPI PUSH4 0x4E487B71 PUSH1 0xE0 SHL PUSH1 0x0 MSTORE PUSH1 0x32 PUSH1 0x4 MSTORE PUSH1 0x24 PUSH1 0x0 REVERT JUMPDEST SWAP1 PUSH1 0x0 MSTORE PUSH1 0x20 PUSH1 0x0 KECCAK256 ADD SLOAD EQ ISZERO PUSH2 0x23BA JUMPI PUSH1 0x1 SWAP2 POP POP PUSH2 0x631 JUMP JUMPDEST PUSH2 0x23C3 DUP2 PUSH2 0x306D JUMP JUMPDEST SWAP1 POP PUSH2 0x2373 JUMP JUMPDEST DUP3 PUSH2 0x2407 JUMPI PUSH1 0x40 MLOAD PUSH3 0x461BCD PUSH1 0xE5 SHL DUP2 MSTORE PUSH1 0x20 PUSH1 0x4 DUP3 ADD MSTORE PUSH1 0xD PUSH1 0x24 DUP3 ADD MSTORE PUSH13 0x195B5C1D1E481D1BDAD95B9251 PUSH1 0x9A SHL PUSH1 0x44 DUP3 ADD MSTORE PUSH1 0x64 ADD PUSH2 0x663 JUMP JUMPDEST PUSH1 0x0 DUP3 GT PUSH2 0x2427 JUMPI PUSH1 0x40 MLOAD PUSH3 0x461BCD PUSH1 0xE5 SHL DUP2 MSTORE PUSH1 0x4 ADD PUSH2 0x663 SWAP1 PUSH2 0x2CB1 JUMP JUMPDEST PUSH1 0x0 DUP4 DUP2 MSTORE PUSH1 0x2 PUSH1 0x20 MSTORE PUSH1 0x40 DUP2 KECCAK256 SWAP1 JUMPDEST DUP2 SLOAD DUP2 LT ISZERO PUSH2 0x2551 JUMPI DUP4 DUP3 DUP3 DUP2 SLOAD DUP2 LT PUSH2 0x2461 JUMPI PUSH4 0x4E487B71 PUSH1 0xE0 SHL PUSH1 0x0 MSTORE PUSH1 0x32 PUSH1 0x4 MSTORE PUSH1 0x24 PUSH1 0x0 REVERT JUMPDEST SWAP1 PUSH1 0x0 MSTORE PUSH1 0x20 PUSH1 0x0 KECCAK256 SWAP1 PUSH1 0x2 MUL ADD PUSH1 0x0 ADD SLOAD EQ ISZERO PUSH2 0x2541 JUMPI PUSH1 0x0 DUP3 DUP3 DUP2 SLOAD DUP2 LT PUSH2 0x249B JUMPI PUSH4 0x4E487B71 PUSH1 0xE0 SHL PUSH1 0x0 MSTORE PUSH1 0x32 PUSH1 0x4 MSTORE PUSH1 0x24 PUSH1 0x0 REVERT JUMPDEST PUSH1 0x0 SWAP2 DUP3 MSTORE PUSH1 0x20 SWAP1 SWAP2 KECCAK256 PUSH1 0x1 PUSH1 0x2 SWAP1 SWAP3 MUL ADD ADD SLOAD PUSH1 0x1 PUSH1 0x1 PUSH1 0xA0 SHL SUB SWAP1 DUP2 AND SWAP2 POP DUP5 AND DUP2 EQ PUSH2 0x2539 JUMPI DUP4 DUP4 DUP4 DUP2 SLOAD DUP2 LT PUSH2 0x24E5 JUMPI PUSH4 0x4E487B71 PUSH1 0xE0 SHL PUSH1 0x0 MSTORE PUSH1 0x32 PUSH1 0x4 MSTORE PUSH1 0x24 PUSH1 0x0 REVERT JUMPDEST PUSH1 0x0 SWAP2 DUP3 MSTORE PUSH1 0x20 DUP1 DUP4 KECCAK256 PUSH1 0x2 SWAP3 SWAP1 SWAP3 MUL SWAP1 SWAP2 ADD PUSH1 0x1 ADD DUP1 SLOAD PUSH1 0x1 PUSH1 0x1 PUSH1 0xA0 SHL SUB NOT AND PUSH1 0x1 PUSH1 0x1 PUSH1 0xA0 SHL SUB SWAP5 DUP6 AND OR SWAP1 SSTORE DUP8 DUP3 MSTORE PUSH1 0x7 DUP2 MSTORE PUSH1 0x40 DUP1 DUP4 KECCAK256 DUP6 DUP6 AND DUP5 MSTORE SWAP1 SWAP2 MSTORE DUP1 DUP3 KECCAK256 DUP3 SWAP1 SSTORE SWAP2 DUP7 AND DUP2 MSTORE KECCAK256 DUP7 SWAP1 SSTORE JUMPDEST POP POP POP PUSH2 0x25BF JUMP JUMPDEST PUSH2 0x254A DUP2 PUSH2 0x306D JUMP JUMPDEST SWAP1 POP PUSH2 0x2437 JUMP JUMPDEST POP PUSH1 0x40 DUP1 MLOAD DUP1 DUP3 ADD DUP3 MSTORE DUP5 DUP2 MSTORE PUSH1 0x1 PUSH1 0x1 PUSH1 0xA0 SHL SUB DUP5 DUP2 AND PUSH1 0x20 DUP1 DUP5 ADD DUP3 DUP2 MSTORE DUP7 SLOAD PUSH1 0x1 DUP1 DUP3 ADD DUP10 SSTORE PUSH1 0x0 SWAP9 DUP10 MSTORE DUP4 DUP10 KECCAK256 SWAP7 MLOAD PUSH1 0x2 SWAP1 SWAP3 MUL SWAP1 SWAP7 ADD SWAP1 DUP2 SSTORE SWAP1 MLOAD SWAP5 ADD DUP1 SLOAD PUSH1 0x1 PUSH1 0x1 PUSH1 0xA0 SHL SUB NOT AND SWAP5 SWAP1 SWAP4 AND SWAP4 SWAP1 SWAP4 OR SWAP1 SWAP2 SSTORE DUP6 DUP5 MSTORE PUSH1 0x7 DUP3 MSTORE DUP3 DUP5 KECCAK256 SWAP1 DUP5 MSTORE SWAP1 MSTORE SWAP1 KECCAK256 DUP4 SWAP1 SSTORE JUMPDEST POP POP POP JUMP JUMPDEST PUSH1 0x40 MLOAD DUP1 PUSH2 0x120 ADD PUSH1 0x40 MSTORE DUP1 PUSH1 0x0 PUSH1 0xFF AND DUP2 MSTORE PUSH1 0x20 ADD PUSH1 0x0 PUSH1 0x1 PUSH1 0x1 PUSH1 0xA0 SHL SUB AND DUP2 MSTORE PUSH1 0x20 ADD PUSH1 0x0 DUP2 MSTORE PUSH1 0x20 ADD PUSH1 0x0 DUP2 MSTORE PUSH1 0x20 ADD PUSH1 0x0 DUP2 MSTORE PUSH1 0x20 ADD PUSH1 0x0 DUP2 MSTORE PUSH1 0x20 ADD PUSH1 0x0 DUP2 MSTORE PUSH1 0x20 ADD PUSH1 0x0 DUP2 MSTORE PUSH1 0x20 ADD PUSH1 0x0 DUP2 MSTORE POP SWAP1 JUMP JUMPDEST DUP3 DUP1 SLOAD PUSH2 0x2628 SWAP1 PUSH2 0x3032 JUMP JUMPDEST SWAP1 PUSH1 0x0 MSTORE PUSH1 0x20 PUSH1 0x0 KECCAK256 SWAP1 PUSH1 0x1F ADD PUSH1 0x20 SWAP1 DIV DUP2 ADD SWAP3 DUP3 PUSH2 0x264A JUMPI PUSH1 0x0 DUP6 SSTORE PUSH2 0x2690 JUMP JUMPDEST DUP3 PUSH1 0x1F LT PUSH2 0x2663 JUMPI DUP3 DUP1 ADD PUSH1 0xFF NOT DUP3 CALLDATALOAD AND OR DUP6 SSTORE PUSH2 0x2690 JUMP JUMPDEST DUP3 DUP1 ADD PUSH1 0x1 ADD DUP6 SSTORE DUP3 ISZERO PUSH2 0x2690 JUMPI SWAP2 DUP3 ADD JUMPDEST DUP3 DUP2 GT ISZERO PUSH2 0x2690 JUMPI DUP3 CALLDATALOAD DUP3 SSTORE SWAP2 PUSH1 0x20 ADD SWAP2 SWAP1 PUSH1 0x1 ADD SWAP1 PUSH2 0x2675 JUMP JUMPDEST POP PUSH2 0x269C SWAP3 SWAP2 POP PUSH2 0x26C4 JUMP JUMPDEST POP SWAP1 JUMP JUMPDEST POP DUP1 SLOAD PUSH1 0x0 DUP3 SSTORE PUSH1 0x2 MUL SWAP1 PUSH1 0x0 MSTORE PUSH1 0x20 PUSH1 0x0 KECCAK256 SWAP1 DUP2 ADD SWAP1 PUSH2 0x26C1 SWAP2 SWAP1 PUSH2 0x26D9 JUMP JUMPDEST POP JUMP JUMPDEST JUMPDEST DUP1 DUP3 GT ISZERO PUSH2 0x269C JUMPI PUSH1 0x0 DUP2 SSTORE PUSH1 0x1 ADD PUSH2 0x26C5 JUMP JUMPDEST JUMPDEST DUP1 DUP3 GT ISZERO PUSH2 0x269C JUMPI PUSH1 0x0 DUP2 SSTORE PUSH1 0x1 DUP2 ADD DUP1 SLOAD PUSH1 0x1 PUSH1 0x1 PUSH1 0xA0 SHL SUB NOT AND SWAP1 SSTORE PUSH1 0x2 ADD PUSH2 0x26DA JUMP JUMPDEST DUP1 CALLDATALOAD PUSH2 0x631 DUP2 PUSH2 0x32BC JUMP JUMPDEST PUSH1 0x0 DUP1 DUP4 PUSH1 0x1F DUP5 ADD SLT PUSH2 0x271C JUMPI DUP1 DUP2 REVERT JUMPDEST POP DUP2 CALLDATALOAD PUSH1 0x1 PUSH1 0x1 PUSH1 0x40 SHL SUB DUP2 GT ISZERO PUSH2 0x2732 JUMPI DUP2 DUP3 REVERT JUMPDEST PUSH1 0x20 DUP4 ADD SWAP2 POP DUP4 PUSH1 0x20 DUP3 DUP6 ADD ADD GT ISZERO PUSH2 0x274A JUMPI PUSH1 0x0 DUP1 REVERT JUMPDEST SWAP3 POP SWAP3 SWAP1 POP JUMP JUMPDEST PUSH1 0x0 DUP3 PUSH1 0x1F DUP4 ADD SLT PUSH2 0x2761 JUMPI DUP1 DUP2 REVERT JUMPDEST DUP2 CALLDATALOAD PUSH1 0x1 PUSH1 0x1 PUSH1 0x40 SHL SUB DUP2 GT ISZERO PUSH2 0x277A JUMPI PUSH2 0x277A PUSH2 0x30BE JUMP JUMPDEST PUSH2 0x278D PUSH1 0x1F DUP3 ADD PUSH1 0x1F NOT AND PUSH1 0x20 ADD PUSH2 0x2DF1 JUMP JUMPDEST DUP2 DUP2 MSTORE DUP5 PUSH1 0x20 DUP4 DUP7 ADD ADD GT ISZERO PUSH2 0x27A1 JUMPI DUP3 DUP4 REVERT JUMPDEST DUP2 PUSH1 0x20 DUP6 ADD PUSH1 0x20 DUP4 ADD CALLDATACOPY SWAP1 DUP2 ADD PUSH1 0x20 ADD SWAP2 SWAP1 SWAP2 MSTORE SWAP3 SWAP2 POP POP JUMP JUMPDEST DUP1 CALLDATALOAD PUSH2 0x631 DUP2 PUSH2 0x32D1 JUMP JUMPDEST DUP1 CALLDATALOAD PUSH1 0xFF DUP2 AND DUP2 EQ PUSH2 0x631 JUMPI PUSH1 0x0 DUP1 REVERT JUMPDEST PUSH1 0x0 PUSH1 0x20 DUP3 DUP5 SUB SLT ISZERO PUSH2 0x27E8 JUMPI DUP1 DUP2 REVERT JUMPDEST DUP2 CALLDATALOAD PUSH2 0x7C7 DUP2 PUSH2 0x32BC JUMP JUMPDEST PUSH1 0x0 DUP1 PUSH1 0x0 PUSH1 0x40 DUP5 DUP7 SUB SLT ISZERO PUSH2 0x2807 JUMPI DUP2 DUP3 REVERT JUMPDEST DUP4 CALLDATALOAD PUSH2 0x2812 DUP2 PUSH2 0x32BC JUMP JUMPDEST SWAP3 POP PUSH1 0x20 DUP5 ADD CALLDATALOAD PUSH1 0x1 PUSH1 0x1 PUSH1 0x40 SHL SUB DUP2 GT ISZERO PUSH2 0x282C JUMPI DUP3 DUP4 REVERT JUMPDEST PUSH2 0x2838 DUP7 DUP3 DUP8 ADD PUSH2 0x270B JUMP JUMPDEST SWAP5 SWAP8 SWAP1 SWAP7 POP SWAP4 SWAP5 POP POP POP POP JUMP JUMPDEST PUSH1 0x0 DUP1 PUSH1 0x20 DUP4 DUP6 SUB SLT ISZERO PUSH2 0x2857 JUMPI DUP2 DUP3 REVERT JUMPDEST DUP3 CALLDATALOAD PUSH1 0x1 PUSH1 0x1 PUSH1 0x40 SHL SUB DUP2 GT ISZERO PUSH2 0x286C JUMPI DUP3 DUP4 REVERT JUMPDEST PUSH2 0x2878 DUP6 DUP3 DUP7 ADD PUSH2 0x270B JUMP JUMPDEST SWAP1 SWAP7 SWAP1 SWAP6 POP SWAP4 POP POP POP POP JUMP JUMPDEST PUSH1 0x0 DUP1 PUSH1 0x0 PUSH1 0x40 DUP5 DUP7 SUB SLT ISZERO PUSH2 0x2898 JUMPI DUP3 DUP4 REVERT JUMPDEST DUP4 CALLDATALOAD PUSH1 0x1 PUSH1 0x1 PUSH1 0x40 SHL SUB DUP2 GT ISZERO PUSH2 0x28AD JUMPI DUP4 DUP5 REVERT JUMPDEST PUSH2 0x28B9 DUP7 DUP3 DUP8 ADD PUSH2 0x270B JUMP JUMPDEST SWAP1 SWAP8 SWAP1 SWAP7 POP PUSH1 0x20 SWAP6 SWAP1 SWAP6 ADD CALLDATALOAD SWAP5 SWAP4 POP POP POP POP JUMP JUMPDEST PUSH1 0x0 DUP1 PUSH1 0x0 DUP1 PUSH1 0x60 DUP6 DUP8 SUB SLT ISZERO PUSH2 0x28E2 JUMPI DUP1 DUP2 REVERT JUMPDEST DUP5 CALLDATALOAD PUSH1 0x1 PUSH1 0x1 PUSH1 0x40 SHL SUB DUP2 GT ISZERO PUSH2 0x28F7 JUMPI DUP2 DUP3 REVERT JUMPDEST PUSH2 0x2903 DUP8 DUP3 DUP9 ADD PUSH2 0x270B JUMP JUMPDEST SWAP1 SWAP6 POP SWAP4 POP POP PUSH1 0x20 DUP6 ADD CALLDATALOAD SWAP2 POP PUSH1 0x40 DUP6 ADD CALLDATALOAD PUSH2 0x291E DUP2 PUSH2 0x32BC JUMP JUMPDEST SWAP4 SWAP7 SWAP3 SWAP6 POP SWAP1 SWAP4 POP POP JUMP JUMPDEST PUSH1 0x0 DUP1 PUSH1 0x0 DUP1 DUP5 DUP7 SUB PUSH2 0x160 DUP2 SLT ISZERO PUSH2 0x2940 JUMPI DUP5 DUP6 REVERT JUMPDEST DUP6 CALLDATALOAD PUSH1 0x1 PUSH1 0x1 PUSH1 0x40 SHL SUB DUP2 GT ISZERO PUSH2 0x2955 JUMPI DUP6 DUP7 REVERT JUMPDEST PUSH2 0x2961 DUP9 DUP3 DUP10 ADD PUSH2 0x270B JUMP JUMPDEST SWAP1 SWAP7 POP SWAP5 POP POP PUSH1 0x20 DUP7 ADD CALLDATALOAD SWAP3 POP PUSH2 0x120 PUSH1 0x3F NOT DUP3 ADD SLT ISZERO PUSH2 0x2980 JUMPI DUP2 DUP3 REVERT JUMPDEST POP SWAP3 SWAP6 SWAP2 SWAP5 POP SWAP3 PUSH1 0x40 ADD SWAP2 POP JUMP JUMPDEST PUSH1 0x0 PUSH2 0x120 DUP1 DUP4 DUP6 SUB SLT ISZERO PUSH2 0x29A1 JUMPI DUP2 DUP3 REVERT JUMPDEST PUSH2 0x29AA DUP2 PUSH2 0x2DF1 JUMP JUMPDEST SWAP1 POP PUSH2 0x29B5 DUP4 PUSH2 0x27C6 JUMP JUMPDEST DUP2 MSTORE PUSH2 0x29C3 PUSH1 0x20 DUP5 ADD PUSH2 0x2700 JUMP JUMPDEST PUSH1 0x20 DUP3 ADD MSTORE PUSH1 0x40 DUP4 ADD CALLDATALOAD PUSH1 0x40 DUP3 ADD MSTORE PUSH1 0x60 DUP4 ADD CALLDATALOAD PUSH1 0x60 DUP3 ADD MSTORE PUSH1 0x80 DUP4 ADD CALLDATALOAD PUSH1 0x80 DUP3 ADD MSTORE PUSH1 0xA0 DUP4 ADD CALLDATALOAD PUSH1 0xA0 DUP3 ADD MSTORE PUSH1 0xC0 DUP4 ADD CALLDATALOAD PUSH1 0xC0 DUP3 ADD MSTORE PUSH1 0xE0 DUP4 ADD CALLDATALOAD PUSH1 0xE0 DUP3 ADD MSTORE PUSH2 0x100 DUP1 DUP5 ADD CALLDATALOAD DUP2 DUP4 ADD MSTORE POP DUP1 SWAP2 POP POP SWAP3 SWAP2 POP POP JUMP JUMPDEST PUSH1 0x0 PUSH1 0x20 DUP3 DUP5 SUB SLT ISZERO PUSH2 0x2A2B JUMPI DUP1 DUP2 REVERT JUMPDEST POP CALLDATALOAD SWAP2 SWAP1 POP JUMP JUMPDEST PUSH1 0x0 DUP1 PUSH1 0x40 DUP4 DUP6 SUB SLT ISZERO PUSH2 0x2A44 JUMPI DUP2 DUP3 REVERT JUMPDEST DUP3 CALLDATALOAD SWAP2 POP PUSH1 0x20 DUP4 ADD CALLDATALOAD PUSH2 0x2A56 DUP2 PUSH2 0x32BC JUMP JUMPDEST DUP1 SWAP2 POP POP SWAP3 POP SWAP3 SWAP1 POP JUMP JUMPDEST PUSH1 0x0 DUP1 PUSH1 0x0 PUSH1 0x40 DUP5 DUP7 SUB SLT ISZERO PUSH2 0x2A75 JUMPI DUP1 DUP2 REVERT JUMPDEST DUP4 CALLDATALOAD SWAP3 POP PUSH1 0x20 DUP5 ADD CALLDATALOAD PUSH1 0x1 PUSH1 0x1 PUSH1 0x40 SHL SUB DUP2 GT ISZERO PUSH2 0x282C JUMPI DUP2 DUP3 REVERT JUMPDEST PUSH1 0x0 DUP1 PUSH1 0x0 DUP1 PUSH1 0x0 PUSH1 0x60 DUP7 DUP9 SUB SLT ISZERO PUSH2 0x2AA8 JUMPI DUP3 DUP4 REVERT JUMPDEST DUP6 CALLDATALOAD SWAP5 POP PUSH1 0x20 DUP7 ADD CALLDATALOAD PUSH1 0x1 PUSH1 0x1 PUSH1 0x40 SHL SUB DUP1 DUP3 GT ISZERO PUSH2 0x2AC5 JUMPI DUP5 DUP6 REVERT JUMPDEST PUSH2 0x2AD1 DUP10 DUP4 DUP11 ADD PUSH2 0x270B JUMP JUMPDEST SWAP1 SWAP7 POP SWAP5 POP PUSH1 0x40 DUP9 ADD CALLDATALOAD SWAP2 POP DUP1 DUP3 GT ISZERO PUSH2 0x2AE9 JUMPI DUP3 DUP4 REVERT JUMPDEST POP PUSH2 0x2AF6 DUP9 DUP3 DUP10 ADD PUSH2 0x270B JUMP JUMPDEST SWAP7 SWAP10 SWAP6 SWAP9 POP SWAP4 SWAP7 POP SWAP3 SWAP5 SWAP4 SWAP3 POP POP POP JUMP JUMPDEST PUSH1 0x0 DUP1 PUSH1 0x40 DUP4 DUP6 SUB SLT ISZERO PUSH2 0x2B19 JUMPI DUP2 DUP3 REVERT JUMPDEST DUP3 CALLDATALOAD SWAP2 POP PUSH1 0x20 DUP4 ADD CALLDATALOAD PUSH1 0x1 PUSH1 0x1 PUSH1 0x40 SHL SUB DUP2 GT ISZERO PUSH2 0x2B35 JUMPI DUP2 DUP3 REVERT JUMPDEST DUP4 ADD PUSH2 0x140 DUP2 DUP7 SUB SLT ISZERO PUSH2 0x2A56 JUMPI DUP2 DUP3 REVERT JUMPDEST PUSH1 0x0 DUP2 MLOAD DUP1 DUP5 MSTORE DUP2 JUMPDEST DUP2 DUP2 LT ISZERO PUSH2 0x2B6C JUMPI PUSH1 0x20 DUP2 DUP6 ADD DUP2 ADD MLOAD DUP7 DUP4 ADD DUP3 ADD MSTORE ADD PUSH2 0x2B50 JUMP JUMPDEST DUP2 DUP2 GT ISZERO PUSH2 0x2B7D JUMPI DUP3 PUSH1 0x20 DUP4 DUP8 ADD ADD MSTORE JUMPDEST POP PUSH1 0x1F ADD PUSH1 0x1F NOT AND SWAP3 SWAP1 SWAP3 ADD PUSH1 0x20 ADD SWAP3 SWAP2 POP POP JUMP JUMPDEST PUSH1 0x0 DUP3 DUP5 DUP4 CALLDATACOPY SWAP2 ADD SWAP1 DUP2 MSTORE SWAP2 SWAP1 POP JUMP JUMPDEST PUSH1 0x0 PUSH1 0x20 DUP1 DUP4 ADD DUP2 DUP5 MSTORE DUP1 DUP6 MLOAD DUP1 DUP4 MSTORE PUSH1 0x40 DUP7 ADD SWAP2 POP PUSH1 0x40 DUP5 DUP3 MUL DUP8 ADD ADD SWAP3 POP DUP4 DUP8 ADD DUP6 JUMPDEST DUP3 DUP2 LT ISZERO PUSH2 0x2BF5 JUMPI PUSH1 0x3F NOT DUP9 DUP7 SUB ADD DUP5 MSTORE PUSH2 0x2BE3 DUP6 DUP4 MLOAD PUSH2 0x2B47 JUMP JUMPDEST SWAP5 POP SWAP3 DUP6 ADD SWAP3 SWAP1 DUP6 ADD SWAP1 PUSH1 0x1 ADD PUSH2 0x2BC7 JUMP JUMPDEST POP SWAP3 SWAP8 SWAP7 POP POP POP POP POP POP POP JUMP JUMPDEST PUSH1 0x20 DUP1 DUP3 MSTORE DUP3 MLOAD DUP3 DUP3 ADD DUP2 SWAP1 MSTORE PUSH1 0x0 SWAP2 SWAP1 PUSH1 0x40 SWAP1 DUP2 DUP6 ADD SWAP1 DUP7 DUP5 ADD DUP6 JUMPDEST DUP3 DUP2 LT ISZERO PUSH2 0x2C4D JUMPI DUP2 MLOAD DUP1 MLOAD DUP6 MSTORE DUP7 ADD MLOAD PUSH1 0x1 PUSH1 0x1 PUSH1 0xA0 SHL SUB AND DUP7 DUP6 ADD MSTORE SWAP3 DUP5 ADD SWAP3 SWAP1 DUP6 ADD SWAP1 PUSH1 0x1 ADD PUSH2 0x2C1F JUMP JUMPDEST POP SWAP2 SWAP8 SWAP7 POP POP POP POP POP POP POP JUMP JUMPDEST PUSH1 0x20 DUP1 DUP3 MSTORE DUP3 MLOAD DUP3 DUP3 ADD DUP2 SWAP1 MSTORE PUSH1 0x0 SWAP2 SWAP1 DUP5 DUP3 ADD SWAP1 PUSH1 0x40 DUP6 ADD SWAP1 DUP5 JUMPDEST DUP2 DUP2 LT ISZERO PUSH2 0x2C92 JUMPI DUP4 MLOAD DUP4 MSTORE SWAP3 DUP5 ADD SWAP3 SWAP2 DUP5 ADD SWAP2 PUSH1 0x1 ADD PUSH2 0x2C76 JUMP JUMPDEST POP SWAP1 SWAP7 SWAP6 POP POP POP POP POP POP JUMP JUMPDEST PUSH1 0x0 PUSH1 0x20 DUP3 MSTORE PUSH2 0x7C7 PUSH1 0x20 DUP4 ADD DUP5 PUSH2 0x2B47 JUMP JUMPDEST PUSH1 0x20 DUP1 DUP3 MSTORE PUSH1 0xC SWAP1 DUP3 ADD MSTORE PUSH12 0x1E995C9BC818DA185A5B9251 PUSH1 0xA2 SHL PUSH1 0x40 DUP3 ADD MSTORE PUSH1 0x60 ADD SWAP1 JUMP JUMPDEST PUSH1 0x20 DUP1 DUP3 MSTORE PUSH1 0xA SWAP1 DUP3 ADD MSTORE PUSH10 0x37B7363C9037BBB732B9 PUSH1 0xB1 SHL PUSH1 0x40 DUP3 ADD MSTORE PUSH1 0x60 ADD SWAP1 JUMP JUMPDEST PUSH1 0x0 PUSH1 0x20 DUP3 MSTORE DUP3 MLOAD PUSH2 0x140 DUP1 PUSH1 0x20 DUP6 ADD MSTORE PUSH2 0x2D1A PUSH2 0x160 DUP6 ADD DUP4 PUSH2 0x2B47 JUMP JUMPDEST SWAP2 POP PUSH1 0x20 DUP6 ADD MLOAD PUSH2 0x2D36 PUSH1 0x40 DUP7 ADD DUP3 PUSH1 0x1 PUSH1 0x1 PUSH1 0xA0 SHL SUB AND SWAP1 MSTORE JUMP JUMPDEST POP PUSH1 0x40 DUP6 ADD MLOAD PUSH1 0x1 PUSH1 0x1 PUSH1 0x40 SHL SUB DUP2 AND PUSH1 0x60 DUP7 ADD MSTORE POP PUSH1 0x60 DUP6 ADD MLOAD PUSH1 0x1 PUSH1 0x1 PUSH1 0x40 SHL SUB DUP2 AND PUSH1 0x80 DUP7 ADD MSTORE POP PUSH1 0x80 DUP6 ADD MLOAD PUSH1 0x1 PUSH1 0x1 PUSH1 0x40 SHL SUB DUP2 AND PUSH1 0xA0 DUP7 ADD MSTORE POP PUSH1 0xA0 DUP6 ADD MLOAD PUSH1 0x1 PUSH1 0x1 PUSH1 0x40 SHL SUB DUP2 AND PUSH1 0xC0 DUP7 ADD MSTORE POP PUSH1 0xC0 DUP6 ADD MLOAD PUSH1 0x1 PUSH1 0x1 PUSH1 0x40 SHL SUB DUP2 AND PUSH1 0xE0 DUP7 ADD MSTORE POP PUSH1 0xE0 DUP6 ADD MLOAD PUSH2 0x100 PUSH2 0x2DBC DUP2 DUP8 ADD DUP4 PUSH1 0x1 PUSH1 0x1 PUSH1 0x40 SHL SUB AND SWAP1 MSTORE JUMP JUMPDEST DUP7 ADD MLOAD SWAP1 POP PUSH2 0x120 PUSH2 0x2DD8 DUP7 DUP3 ADD DUP4 PUSH1 0x1 PUSH1 0x1 PUSH1 0x40 SHL SUB AND SWAP1 MSTORE JUMP JUMPDEST SWAP1 SWAP6 ADD MLOAD PUSH1 0x1 PUSH1 0x1 PUSH1 0x40 SHL SUB AND SWAP4 ADD SWAP3 SWAP1 SWAP3 MSTORE POP SWAP2 SWAP1 POP JUMP JUMPDEST PUSH1 0x40 MLOAD PUSH1 0x1F DUP3 ADD PUSH1 0x1F NOT AND DUP2 ADD PUSH1 0x1 PUSH1 0x1 PUSH1 0x40 SHL SUB DUP2 GT DUP3 DUP3 LT OR ISZERO PUSH2 0x2E19 JUMPI PUSH2 0x2E19 PUSH2 0x30BE JUMP JUMPDEST PUSH1 0x40 MSTORE SWAP2 SWAP1 POP JUMP JUMPDEST PUSH1 0x0 DUP3 NOT DUP3 GT ISZERO PUSH2 0x2E34 JUMPI PUSH2 0x2E34 PUSH2 0x30A8 JUMP JUMPDEST POP ADD SWAP1 JUMP JUMPDEST JUMPDEST DUP2 DUP2 LT ISZERO PUSH2 0x2E4E JUMPI PUSH1 0x0 DUP2 SSTORE PUSH1 0x1 ADD PUSH2 0x2E3A JUMP JUMPDEST POP POP JUMP JUMPDEST PUSH1 0x0 PUSH2 0x140 DUP1 DUP4 CALLDATASIZE SUB SLT ISZERO PUSH2 0x2E65 JUMPI DUP2 DUP3 REVERT JUMPDEST PUSH2 0x2E6E DUP2 PUSH2 0x2DF1 JUMP JUMPDEST SWAP1 POP DUP3 CALLDATALOAD PUSH1 0x1 PUSH1 0x1 PUSH1 0x40 SHL SUB DUP2 GT ISZERO PUSH2 0x2E85 JUMPI DUP3 DUP4 REVERT JUMPDEST PUSH2 0x2E91 CALLDATASIZE DUP3 DUP7 ADD PUSH2 0x2751 JUMP JUMPDEST DUP3 MSTORE POP PUSH2 0x2EA0 PUSH1 0x20 DUP5 ADD PUSH2 0x2700 JUMP JUMPDEST PUSH1 0x20 DUP3 ADD MSTORE PUSH2 0x2EB1 PUSH1 0x40 DUP5 ADD PUSH2 0x27BB JUMP JUMPDEST PUSH1 0x40 DUP3 ADD MSTORE PUSH2 0x2EC2 PUSH1 0x60 DUP5 ADD PUSH2 0x27BB JUMP JUMPDEST PUSH1 0x60 DUP3 ADD MSTORE PUSH2 0x2ED3 PUSH1 0x80 DUP5 ADD PUSH2 0x27BB JUMP JUMPDEST PUSH1 0x80 DUP3 ADD MSTORE PUSH2 0x2EE4 PUSH1 0xA0 DUP5 ADD PUSH2 0x27BB JUMP JUMPDEST PUSH1 0xA0 DUP3 ADD MSTORE PUSH2 0x2EF5 PUSH1 0xC0 DUP5 ADD PUSH2 0x27BB JUMP JUMPDEST PUSH1 0xC0 DUP3 ADD MSTORE PUSH2 0x2F06 PUSH1 0xE0 DUP5 ADD PUSH2 0x27BB JUMP JUMPDEST PUSH1 0xE0 DUP3 ADD MSTORE PUSH2 0x100 PUSH2 0x2F19 DUP2 DUP6 ADD PUSH2 0x27BB JUMP JUMPDEST SWAP1 DUP3 ADD MSTORE PUSH2 0x120 PUSH2 0x2F2B DUP5 DUP3 ADD PUSH2 0x27BB JUMP JUMPDEST SWAP1 DUP3 ADD MSTORE SWAP3 SWAP2 POP POP JUMP JUMPDEST PUSH1 0x1 PUSH1 0x1 PUSH1 0x40 SHL SUB DUP4 GT ISZERO PUSH2 0x2F4C JUMPI PUSH2 0x2F4C PUSH2 0x30BE JUMP JUMPDEST PUSH2 0x2F56 DUP2 SLOAD PUSH2 0x3032 JUMP JUMPDEST PUSH1 0x0 DUP1 PUSH1 0x1F DUP7 GT PUSH1 0x1F DUP5 GT DUP2 DUP2 OR ISZERO PUSH2 0x2F75 JUMPI PUSH1 0x0 DUP7 DUP2 MSTORE PUSH1 0x20 SWAP1 KECCAK256 SWAP3 POP JUMPDEST DUP1 ISZERO PUSH2 0x2FA4 JUMPI PUSH1 0x20 PUSH1 0x1F DUP10 ADD DIV DUP4 ADD PUSH1 0x20 DUP10 LT ISZERO PUSH2 0x2F90 JUMPI POP DUP3 JUMPDEST PUSH2 0x2FA2 PUSH1 0x20 PUSH1 0x1F DUP9 ADD DIV DUP6 ADD DUP3 PUSH2 0x2E39 JUMP JUMPDEST POP JUMPDEST POP DUP1 PUSH1 0x1 DUP2 EQ PUSH2 0x2FD6 JUMPI PUSH1 0x0 SWAP5 POP DUP8 ISZERO PUSH2 0x2FBF JUMPI DUP4 DUP8 ADD CALLDATALOAD SWAP5 POP JUMPDEST PUSH1 0x2 DUP9 MUL PUSH1 0x0 NOT PUSH1 0x8 DUP11 MUL SHR NOT DUP7 AND OR DUP7 SSTORE PUSH2 0x3028 JUMP JUMPDEST PUSH1 0x1F NOT DUP9 AND SWAP5 POP DUP3 DUP5 JUMPDEST DUP7 DUP2 LT ISZERO PUSH2 0x3000 JUMPI DUP9 DUP7 ADD CALLDATALOAD DUP3 SSTORE PUSH1 0x20 SWAP6 DUP7 ADD SWAP6 PUSH1 0x1 SWAP1 SWAP3 ADD SWAP2 ADD PUSH2 0x2FE0 JUMP JUMPDEST POP DUP9 DUP7 LT ISZERO PUSH2 0x301D JUMPI DUP8 DUP6 ADD CALLDATALOAD PUSH1 0x0 NOT PUSH1 0x8 PUSH1 0x1F DUP13 AND MUL SHR NOT AND DUP2 SSTORE JUMPDEST POP PUSH1 0x1 PUSH1 0x2 DUP10 MUL ADD DUP7 SSTORE JUMPDEST POP POP POP POP POP POP POP POP JUMP JUMPDEST PUSH1 0x2 DUP2 DIV PUSH1 0x1 DUP3 AND DUP1 PUSH2 0x3046 JUMPI PUSH1 0x7F DUP3 AND SWAP2 POP JUMPDEST PUSH1 0x20 DUP3 LT DUP2 EQ ISZERO PUSH2 0x3067 JUMPI PUSH4 0x4E487B71 PUSH1 0xE0 SHL PUSH1 0x0 MSTORE PUSH1 0x22 PUSH1 0x4 MSTORE PUSH1 0x24 PUSH1 0x0 REVERT JUMPDEST POP SWAP2 SWAP1 POP JUMP JUMPDEST PUSH1 0x0 PUSH1 0x0 NOT DUP3 EQ ISZERO PUSH2 0x3081 JUMPI PUSH2 0x3081 PUSH2 0x30A8 JUMP JUMPDEST POP PUSH1 0x1 ADD SWAP1 JUMP JUMPDEST PUSH1 0x0 PUSH1 0xFF DUP3 AND PUSH1 0xFF DUP2 EQ ISZERO PUSH2 0x309F JUMPI PUSH2 0x309F PUSH2 0x30A8 JUMP JUMPDEST PUSH1 0x1 ADD SWAP3 SWAP2 POP POP JUMP JUMPDEST PUSH4 0x4E487B71 PUSH1 0xE0 SHL PUSH1 0x0 MSTORE PUSH1 0x11 PUSH1 0x4 MSTORE PUSH1 0x24 PUSH1 0x0 REVERT JUMPDEST PUSH4 0x4E487B71 PUSH1 0xE0 SHL PUSH1 0x0 MSTORE PUSH1 0x41 PUSH1 0x4 MSTORE PUSH1 0x24 PUSH1 0x0 REVERT JUMPDEST PUSH1 0x0 DUP2 CALLDATALOAD PUSH2 0xAF5 DUP2 PUSH2 0x32BC JUMP JUMPDEST PUSH1 0x0 DUP2 CALLDATALOAD PUSH2 0xAF5 DUP2 PUSH2 0x32D1 JUMP JUMPDEST DUP2 CALLDATALOAD PUSH1 0x1E NOT DUP4 CALLDATASIZE SUB ADD DUP2 SLT PUSH2 0x3102 JUMPI PUSH1 0x0 DUP1 REVERT JUMPDEST DUP3 ADD DUP1 CALLDATALOAD PUSH1 0x1 PUSH1 0x1 PUSH1 0x40 SHL SUB DUP2 GT ISZERO PUSH2 0x311A JUMPI PUSH1 0x0 DUP1 REVERT JUMPDEST PUSH1 0x20 DUP3 ADD SWAP2 POP DUP1 CALLDATASIZE SUB DUP3 SGT ISZERO PUSH2 0x312F JUMPI PUSH1 0x0 DUP1 REVERT JUMPDEST PUSH2 0x313A DUP2 DUP4 DUP6 PUSH2 0x2F35 JUMP JUMPDEST POP POP PUSH1 0x1 DUP2 ADD PUSH2 0x316C PUSH2 0x314F PUSH1 0x20 DUP6 ADD PUSH2 0x30D4 JUMP JUMPDEST DUP3 SLOAD PUSH1 0x1 PUSH1 0x1 PUSH1 0xA0 SHL SUB NOT AND PUSH1 0x1 PUSH1 0x1 PUSH1 0xA0 SHL SUB SWAP2 SWAP1 SWAP2 AND OR DUP3 SSTORE JUMP JUMPDEST PUSH2 0x31A7 PUSH2 0x317B PUSH1 0x40 DUP6 ADD PUSH2 0x30E1 JUMP JUMPDEST DUP3 DUP1 SLOAD PUSH8 0xFFFFFFFFFFFFFFFF PUSH1 0xA0 SHL NOT AND PUSH1 0xA0 SWAP3 SWAP1 SWAP3 SHL PUSH8 0xFFFFFFFFFFFFFFFF PUSH1 0xA0 SHL AND SWAP2 SWAP1 SWAP2 OR SWAP1 SSTORE JUMP JUMPDEST POP PUSH1 0x2 DUP2 ADD PUSH2 0x31D9 PUSH2 0x31BB PUSH1 0x60 DUP6 ADD PUSH2 0x30E1 JUMP JUMPDEST DUP3 SLOAD PUSH8 0xFFFFFFFFFFFFFFFF NOT AND PUSH1 0x1 PUSH1 0x1 PUSH1 0x40 SHL SUB SWAP2 SWAP1 SWAP2 AND OR DUP3 SSTORE JUMP JUMPDEST PUSH2 0x321A PUSH2 0x31E8 PUSH1 0x80 DUP6 ADD PUSH2 0x30E1 JUMP JUMPDEST DUP3 SLOAD PUSH16 0xFFFFFFFFFFFFFFFF0000000000000000 NOT AND PUSH1 0x40 SWAP2 SWAP1 SWAP2 SHL PUSH16 0xFFFFFFFFFFFFFFFF0000000000000000 AND OR DUP3 SSTORE JUMP JUMPDEST PUSH2 0x3255 PUSH2 0x3229 PUSH1 0xA0 DUP6 ADD PUSH2 0x30E1 JUMP JUMPDEST DUP3 DUP1 SLOAD PUSH8 0xFFFFFFFFFFFFFFFF PUSH1 0x80 SHL NOT AND PUSH1 0x80 SWAP3 SWAP1 SWAP3 SHL PUSH8 0xFFFFFFFFFFFFFFFF PUSH1 0x80 SHL AND SWAP2 SWAP1 SWAP2 OR SWAP1 SSTORE JUMP JUMPDEST PUSH2 0x3288 PUSH2 0x3264 PUSH1 0xC0 DUP6 ADD PUSH2 0x30E1 JUMP JUMPDEST DUP3 DUP1 SLOAD PUSH1 0x1 PUSH1 0x1 PUSH1 0xC0 SHL SUB AND PUSH1 0xC0 SWAP3 SWAP1 SWAP3 SHL PUSH1 0x1 PUSH1 0x1 PUSH1 0xC0 SHL SUB NOT AND SWAP2 SWAP1 SWAP2 OR SWAP1 SSTORE JUMP JUMPDEST POP PUSH1 0x3 DUP2 ADD PUSH2 0x329C PUSH2 0x31BB PUSH1 0xE0 DUP6 ADD PUSH2 0x30E1 JUMP JUMPDEST PUSH2 0x32AC PUSH2 0x31E8 PUSH2 0x100 DUP6 ADD PUSH2 0x30E1 JUMP JUMPDEST PUSH2 0x25BF PUSH2 0x3229 PUSH2 0x120 DUP6 ADD PUSH2 0x30E1 JUMP JUMPDEST PUSH1 0x1 PUSH1 0x1 PUSH1 0xA0 SHL SUB DUP2 AND DUP2 EQ PUSH2 0x26C1 JUMPI PUSH1 0x0 DUP1 REVERT JUMPDEST PUSH1 0x1 PUSH1 0x1 PUSH1 0x40 SHL SUB DUP2 AND DUP2 EQ PUSH2 0x26C1 JUMPI PUSH1 0x0 DUP1 REVERT INVALID LOG2 PUSH5 0x6970667358 0x22 SLT KECCAK256 PUSH4 0x335413D2 0xFB PUSH16 0xF08D2D087707949AFFCD697537D43DE3 PUSH9 0xD6F7EC67723CF1EB64 PUSH20 0x6F6C634300080200330000000000000000000000 "
		},
		"gasEstimates": {
			"creation": {
				"codeDepositCost": "2616800",
				"executionCost": "23666",
				"totalCost": "2640466"
			},
			"external": {
				"addChainID(uint256)": "infinite",
				"addTokenID(string)": "infinite",
				"getAllChainIDs()": "infinite",
				"getAllMultichainTokens(string)": "infinite",
				"getAllTokenIDs()": "infinite",
				"getChainConfig(uint256)": "infinite",
				"getCustomConfig(uint256,string)": "infinite",
				"getMPCPubkey(address)": "infinite",
				"getMultichainToken(string,uint256)": "infinite",
				"getTokenConfig(string,uint256)": "infinite",
				"getTokenID(uint256,address)": "infinite",
				"getUserTokenConfig(string,uint256)": "infinite",
				"isChainIDExist(uint256)": "infinite",
				"isTokenIDExist(string)": "infinite",
				"owner()": "1148",
				"pickUserTokenConfig(string,uint256)": "infinite",
				"removeAllMultichainTokens(string)": "infinite",
				"removeChainID(uint256)": "infinite",
				"removeMultichainToken(string,uint256)": "infinite",
				"removeTokenID(string)": "infinite",
				"setChainConfig(uint256,(string,address,uint64,uint64,uint64,uint64,uint64,uint64,uint64,uint64))": "infinite",
				"setCustomConfig(uint256,string,string)": "infinite",
				"setMPCPubkey(address,string)": "infinite",
				"setMultichainToken(string,uint256,address)": "infinite",
				"setTokenConfig(string,uint256,(uint8,address,uint256,uint256,uint256,uint256,uint256,uint256,uint256))": "infinite",
				"setUserTokenConfig(string,uint256,(uint8,address,uint256,uint256,uint256,uint256,uint256,uint256,uint256))": "infinite",
				"transferOwnership(address)": "23640",
				"updateConfig()": "1819"
			},
			"internal": {
				"_isTokenIDExist(bytes32)": "infinite",
				"_setMultichainToken(bytes32,uint256,address)": "infinite",
				"_setTokenConfig(bytes32,uint256,struct IConfigQuery.TokenConfig memory,bool)": "infinite",
				"bytes32ToString(bytes32)": "infinite",
				"stringToBytes32(string memory)": "infinite"
			}
		},
		"methodIdentifiers": {
			"addChainID(uint256)": "20c29bca",
			"addTokenID(string)": "e3e01664",
			"getAllChainIDs()": "e27112d5",
			"getAllMultichainTokens(string)": "8fcb62a3",
			"getAllTokenIDs()": "684a10b3",
			"getChainConfig(uint256)": "19ed16dc",
			"getCustomConfig(uint256,string)": "61387d61",
			"getMPCPubkey(address)": "58bb97fb",
			"getMultichainToken(string,uint256)": "b735ab5a",
			"getTokenConfig(string,uint256)": "459511d1",
			"getTokenID(uint256,address)": "c4fb2e4b",
			"getUserTokenConfig(string,uint256)": "2879196f",
			"isChainIDExist(uint256)": "fd15ea70",
			"isTokenIDExist(string)": "af611ca0",
			"owner()": "8da5cb5b",
			"pickUserTokenConfig(string,uint256)": "bc772a28",
			"removeAllMultichainTokens(string)": "83f5d5d4",
			"removeChainID(uint256)": "e90768c6",
			"removeMultichainToken(string,uint256)": "9026b205",
			"removeTokenID(string)": "5d58d0a1",
			"setChainConfig(uint256,(string,address,uint64,uint64,uint64,uint64,uint64,uint64,uint64,uint64))": "defb3a0d",
			"setCustomConfig(uint256,string,string)": "e671242a",
			"setMPCPubkey(address,string)": "5b751858",
			"setMultichainToken(string,uint256,address)": "c5e7601a",
			"setTokenConfig(string,uint256,(uint8,address,uint256,uint256,uint256,uint256,uint256,uint256,uint256))": "69bda9eb",
			"setUserTokenConfig(string,uint256,(uint8,address,uint256,uint256,uint256,uint256,uint256,uint256,uint256))": "640d5f0f",
			"transferOwnership(address)": "f2fde38b",
			"updateConfig()": "747fd44c"
		}
	},
	"abi": [
		{
			"inputs": [],
			"stateMutability": "nonpayable",
			"type": "constructor"
		},
		{
			"anonymous": false,
			"inputs": [
				{
					"indexed": true,
					"internalType": "address",
					"name": "previousOwner",
					"type": "address"
				},
				{
					"indexed": true,
					"internalType": "address",
					"name": "newOwner",
					"type": "address"
				}
			],
			"name": "OwnershipTransferred",
			"type": "event"
		},
		{
			"anonymous": false,
			"inputs": [],
			"name": "UpdateConfig",
			"type": "event"
		},
		{
			"inputs": [
				{
					"internalType": "uint256",
					"name": "chainID",
					"type": "uint256"
				}
			],
			"name": "addChainID",
			"outputs": [
				{
					"internalType": "bool",
					"name": "",
					"type": "bool"
				}
			],
			"stateMutability": "nonpayable",
			"type": "function"
		},
		{
			"inputs": [
				{
					"internalType": "string",
					"name": "tokenID",
					"type": "string"
				}
			],
			"name": "addTokenID",
			"outputs": [
				{
					"internalType": "bool",
					"name": "",
					"type": "bool"
				}
			],
			"stateMutability": "nonpayable",
			"type": "function"
		},
		{
			"inputs": [],
			"name": "getAllChainIDs",
			"outputs": [
				{
					"internalType": "uint256[]",
					"name": "",
					"type": "uint256[]"
				}
			],
			"stateMutability": "view",
			"type": "function"
		},
		{
			"inputs": [
				{
					"internalType": "string",
					"name": "tokenID",
					"type": "string"
				}
			],
			"name": "getAllMultichainTokens",
			"outputs": [
				{
					"components": [
						{
							"internalType": "uint256",
							"name": "ChainID",
							"type": "uint256"
						},
						{
							"internalType": "address",
							"name": "TokenAddress",
							"type": "address"
						}
					],
					"internalType": "struct IConfigQuery.MultichainToken[]",
					"name": "",
					"type": "tuple[]"
				}
			],
			"stateMutability": "view",
			"type": "function"
		},
		{
			"inputs": [],
			"name": "getAllTokenIDs",
			"outputs": [
				{
					"internalType": "string[]",
					"name": "result",
					"type": "string[]"
				}
			],
			"stateMutability": "view",
			"type": "function"
		},
		{
			"inputs": [
				{
					"internalType": "uint256",
					"name": "chainID",
					"type": "uint256"
				}
			],
			"name": "getChainConfig",
			"outputs": [
				{
					"components": [
						{
							"internalType": "string",
							"name": "BlockChain",
							"type": "string"
						},
						{
							"internalType": "address",
							"name": "RouterContract",
							"type": "address"
						},
						{
							"internalType": "uint64",
							"name": "Confirmations",
							"type": "uint64"
						},
						{
							"internalType": "uint64",
							"name": "InitialHeight",
							"type": "uint64"
						},
						{
							"internalType": "uint64",
							"name": "WaitTimeToReplace",
							"type": "uint64"
						},
						{
							"internalType": "uint64",
							"name": "MaxReplaceCount",
							"type": "uint64"
						},
						{
							"internalType": "uint64",
							"name": "SwapDeadlineOffset",
							"type": "uint64"
						},
						{
							"internalType": "uint64",
							"name": "PlusGasPricePercentage",
							"type": "uint64"
						},
						{
							"internalType": "uint64",
							"name": "MaxGasPriceFluctPercent",
							"type": "uint64"
						},
						{
							"internalType": "uint64",
							"name": "DefaultGasLimit",
							"type": "uint64"
						}
					],
					"internalType": "struct IConfigQuery.ChainConfig",
					"name": "",
					"type": "tuple"
				}
			],
			"stateMutability": "view",
			"type": "function"
		},
		{
			"inputs": [
				{
					"internalType": "uint256",
					"name": "chainID",
					"type": "uint256"
				},
				{
					"internalType": "string",
					"name": "key",
					"type": "string"
				}
			],
			"name": "getCustomConfig",
			"outputs": [
				{
					"internalType": "string",
					"name": "",
					"type": "string"
				}
			],
			"stateMutability": "view",
			"type": "function"
		},
		{
			"inputs": [
				{
					"internalType": "address",
					"name": "mpcAddress",
					"type": "address"
				}
			],
			"name": "getMPCPubkey",
			"outputs": [
				{
					"internalType": "string",
					"name": "",
					"type": "string"
				}
			],
			"stateMutability": "view",
			"type": "function"
		},
		{
			"inputs": [
				{
					"internalType": "string",
					"name": "tokenID",
					"type": "string"
				},
				{
					"internalType": "uint256",
					"name": "chainID",
					"type": "uint256"
				}
			],
			"name": "getMultichainToken",
			"outputs": [
				{
					"internalType": "address",
					"name": "",
					"type": "address"
				}
			],
			"stateMutability": "view",
			"type": "function"
		},
		{
			"inputs": [
				{
					"internalType": "string",
					"name": "tokenID",
					"type": "string"
				},
				{
					"internalType": "uint256",
					"name": "chainID",
					"type": "uint256"
				}
			],
			"name": "getTokenConfig",
			"outputs": [
				{
					"components": [
						{
							"internalType": "uint8",
							"name": "Decimals",
							"type": "uint8"
						},
						{
							"internalType": "address",
							"name": "ContractAddress",
							"type": "address"
						},
						{
							"internalType": "uint256",
							"name": "ContractVersion",
							"type": "uint256"
						},
						{
							"internalType": "uint256",
							"name": "MaximumSwap",
							"type": "uint256"
						},
						{
							"internalType": "uint256",
							"name": "MinimumSwap",
							"type": "uint256"
						},
						{
							"internalType": "uint256",
							"name": "BigValueThreshold",
							"type": "uint256"
						},
						{
							"internalType": "uint256",
							"name": "SwapFeeRatePerMillion",
							"type": "uint256"
						},
						{
							"internalType": "uint256",
							"name": "MaximumSwapFee",
							"type": "uint256"
						},
						{
							"internalType": "uint256",
							"name": "MinimumSwapFee",
							"type": "uint256"
						}
					],
					"internalType": "struct IConfigQuery.TokenConfig",
					"name": "",
					"type": "tuple"
				}
			],
			"stateMutability": "view",
			"type": "function"
		},
		{
			"inputs": [
				{
					"internalType": "uint256",
					"name": "chainID",
					"type": "uint256"
				},
				{
					"internalType": "address",
					"name": "tokenAddress",
					"type": "address"
				}
			],
			"name": "getTokenID",
			"outputs": [
				{
					"internalType": "string",
					"name": "",
					"type": "string"
				}
			],
			"stateMutability": "view",
			"type": "function"
		},
		{
			"inputs": [
				{
					"internalType": "string",
					"name": "tokenID",
					"type": "string"
				},
				{
					"internalType": "uint256",
					"name": "chainID",
					"type": "uint256"
				}
			],
			"name": "getUserTokenConfig",
			"outputs": [
				{
					"components": [
						{
							"internalType": "uint8",
							"name": "Decimals",
							"type": "uint8"
						},
						{
							"internalType": "address",
							"name": "ContractAddress",
							"type": "address"
						},
						{
							"internalType": "uint256",
							"name": "ContractVersion",
							"type": "uint256"
						},
						{
							"internalType": "uint256",
							"name": "MaximumSwap",
							"type": "uint256"
						},
						{
							"internalType": "uint256",
							"name": "MinimumSwap",
							"type": "uint256"
						},
						{
							"internalType": "uint256",
							"name": "BigValueThreshold",
							"type": "uint256"
						},
						{
							"internalType": "uint256",
							"name": "SwapFeeRatePerMillion",
							"type": "uint256"
						},
						{
							"internalType": "uint256",
							"name": "MaximumSwapFee",
							"type": "uint256"
						},
						{
							"internalType": "uint256",
							"name": "MinimumSwapFee",
							"type": "uint256"
						}
					],
					"internalType": "struct IConfigQuery.TokenConfig",
					"name": "",
					"type": "tuple"
				}
			],
			"stateMutability": "view",
			"type": "function"
		},
		{
			"inputs": [
				{
					"internalType": "uint256",
					"name": "chainID",
					"type": "uint256"
				}
			],
			"name": "isChainIDExist",
			"outputs": [
				{
					"internalType": "bool",
					"name": "",
					"type": "bool"
				}
			],
			"stateMutability": "view",
			"type": "function"
		},
		{
			"inputs": [
				{
					"internalType": "string",
					"name": "tokenID",
					"type": "string"
				}
			],
			"name": "isTokenIDExist",
			"outputs": [
				{
					"internalType": "bool",
					"name": "",
					"type": "bool"
				}
			],
			"stateMutability": "view",
			"type": "function"
		},
		{
			"inputs": [],
			"name": "owner",
			"outputs": [
				{
					"internalType": "address",
					"name": "",
					"type": "address"
				}
			],
			"stateMutability": "view",
			"type": "function"
		},
		{
			"inputs": [
				{
					"internalType": "string",
					"name": "tokenID",
					"type": "string"
				},
				{
					"internalType": "uint256",
					"name": "chainID",
					"type": "uint256"
				}
			],
			"name": "pickUserTokenConfig",
			"outputs": [
				{
					"internalType": "bool",
					"name": "",
					"type": "bool"
				}
			],
			"stateMutability": "nonpayable",
			"type": "function"
		},
		{
			"inputs": [
				{
					"internalType": "string",
					"name": "tokenID",
					"type": "string"
				}
			],
			"name": "removeAllMultichainTokens",
			"outputs": [],
			"stateMutability": "nonpayable",
			"type": "function"
		},
		{
			"inputs": [
				{
					"internalType": "uint256",
					"name": "chainID",
					"type": "uint256"
				}
			],
			"name": "removeChainID",
			"outputs": [
				{
					"internalType": "bool",
					"name": "",
					"type": "bool"
				}
			],
			"stateMutability": "nonpayable",
			"type": "function"
		},
		{
			"inputs": [
				{
					"internalType": "string",
					"name": "tokenID",
					"type": "string"
				},
				{
					"internalType": "uint256",
					"name": "chainID",
					"type": "uint256"
				}
			],
			"name": "removeMultichainToken",
			"outputs": [
				{
					"internalType": "bool",
					"name": "",
					"type": "bool"
				}
			],
			"stateMutability": "nonpayable",
			"type": "function"
		},
		{
			"inputs": [
				{
					"internalType": "string",
					"name": "tokenID",
					"type": "string"
				}
			],
			"name": "removeTokenID",
			"outputs": [
				{
					"internalType": "bool",
					"name": "",
					"type": "bool"
				}
			],
			"stateMutability": "nonpayable",
			"type": "function"
		},
		{
			"inputs": [
				{
					"internalType": "uint256",
					"name": "chainID",
					"type": "uint256"
				},
				{
					"components": [
						{
							"internalType": "string",
							"name": "BlockChain",
							"type": "string"
						},
						{
							"internalType": "address",
							"name": "RouterContract",
							"type": "address"
						},
						{
							"internalType": "uint64",
							"name": "Confirmations",
							"type": "uint64"
						},
						{
							"internalType": "uint64",
							"name": "InitialHeight",
							"type": "uint64"
						},
						{
							"internalType": "uint64",
							"name": "WaitTimeToReplace",
							"type": "uint64"
						},
						{
							"internalType": "uint64",
							"name": "MaxReplaceCount",
							"type": "uint64"
						},
						{
							"internalType": "uint64",
							"name": "SwapDeadlineOffset",
							"type": "uint64"
						},
						{
							"internalType": "uint64",
							"name": "PlusGasPricePercentage",
							"type": "uint64"
						},
						{
							"internalType": "uint64",
							"name": "MaxGasPriceFluctPercent",
							"type": "uint64"
						},
						{
							"internalType": "uint64",
							"name": "DefaultGasLimit",
							"type": "uint64"
						}
					],
					"internalType": "struct IConfigQuery.ChainConfig",
					"name": "config",
					"type": "tuple"
				}
			],
			"name": "setChainConfig",
			"outputs": [
				{
					"internalType": "bool",
					"name": "",
					"type": "bool"
				}
			],
			"stateMutability": "nonpayable",
			"type": "function"
		},
		{
			"inputs": [
				{
					"internalType": "uint256",
					"name": "chainID",
					"type": "uint256"
				},
				{
					"internalType": "string",
					"name": "key",
					"type": "string"
				},
				{
					"internalType": "string",
					"name": "data",
					"type": "string"
				}
			],
			"name": "setCustomConfig",
			"outputs": [
				{
					"internalType": "bool",
					"name": "",
					"type": "bool"
				}
			],
			"stateMutability": "nonpayable",
			"type": "function"
		},
		{
			"inputs": [
				{
					"internalType": "address",
					"name": "addr",
					"type": "address"
				},
				{
					"internalType": "string",
					"name": "pubkey",
					"type": "string"
				}
			],
			"name": "setMPCPubkey",
			"outputs": [
				{
					"internalType": "bool",
					"name": "",
					"type": "bool"
				}
			],
			"stateMutability": "nonpayable",
			"type": "function"
		},
		{
			"inputs": [
				{
					"internalType": "string",
					"name": "tokenID",
					"type": "string"
				},
				{
					"internalType": "uint256",
					"name": "chainID",
					"type": "uint256"
				},
				{
					"internalType": "address",
					"name": "token",
					"type": "address"
				}
			],
			"name": "setMultichainToken",
			"outputs": [],
			"stateMutability": "nonpayable",
			"type": "function"
		},
		{
			"inputs": [
				{
					"internalType": "string",
					"name": "tokenID",
					"type": "string"
				},
				{
					"internalType": "uint256",
					"name": "chainID",
					"type": "uint256"
				},
				{
					"components": [
						{
							"internalType": "uint8",
							"name": "Decimals",
							"type": "uint8"
						},
						{
							"internalType": "address",
							"name": "ContractAddress",
							"type": "address"
						},
						{
							"internalType": "uint256",
							"name": "ContractVersion",
							"type": "uint256"
						},
						{
							"internalType": "uint256",
							"name": "MaximumSwap",
							"type": "uint256"
						},
						{
							"internalType": "uint256",
							"name": "MinimumSwap",
							"type": "uint256"
						},
						{
							"internalType": "uint256",
							"name": "BigValueThreshold",
							"type": "uint256"
						},
						{
							"internalType": "uint256",
							"name": "SwapFeeRatePerMillion",
							"type": "uint256"
						},
						{
							"internalType": "uint256",
							"name": "MaximumSwapFee",
							"type": "uint256"
						},
						{
							"internalType": "uint256",
							"name": "MinimumSwapFee",
							"type": "uint256"
						}
					],
					"internalType": "struct IConfigQuery.TokenConfig",
					"name": "config",
					"type": "tuple"
				}
			],
			"name": "setTokenConfig",
			"outputs": [
				{
					"internalType": "bool",
					"name": "",
					"type": "bool"
				}
			],
			"stateMutability": "nonpayable",
			"type": "function"
		},
		{
			"inputs": [
				{
					"internalType": "string",
					"name": "tokenID",
					"type": "string"
				},
				{
					"internalType": "uint256",
					"name": "chainID",
					"type": "uint256"
				},
				{
					"components": [
						{
							"internalType": "uint8",
							"name": "Decimals",
							"type": "uint8"
						},
						{
							"internalType": "address",
							"name": "ContractAddress",
							"type": "address"
						},
						{
							"internalType": "uint256",
							"name": "ContractVersion",
							"type": "uint256"
						},
						{
							"internalType": "uint256",
							"name": "MaximumSwap",
							"type": "uint256"
						},
						{
							"internalType": "uint256",
							"name": "MinimumSwap",
							"type": "uint256"
						},
						{
							"internalType": "uint256",
							"name": "BigValueThreshold",
							"type": "uint256"
						},
						{
							"internalType": "uint256",
							"name": "SwapFeeRatePerMillion",
							"type": "uint256"
						},
						{
							"internalType": "uint256",
							"name": "MaximumSwapFee",
							"type": "uint256"
						},
						{
							"internalType": "uint256",
							"name": "MinimumSwapFee",
							"type": "uint256"
						}
					],
					"internalType": "struct IConfigQuery.TokenConfig",
					"name": "config",
					"type": "tuple"
				}
			],
			"name": "setUserTokenConfig",
			"outputs": [
				{
					"internalType": "bool",
					"name": "",
					"type": "bool"
				}
			],
			"stateMutability": "nonpayable",
			"type": "function"
		},
		{
			"inputs": [
				{
					"internalType": "address",
					"name": "newOwner",
					"type": "address"
				}
			],
			"name": "transferOwnership",
			"outputs": [],
			"stateMutability": "nonpayable",
			"type": "function"
		},
		{
			"inputs": [],
			"name": "updateConfig",
			"outputs": [],
			"stateMutability": "nonpayable",
			"type": "function"
		}
	]
}